{
	"data": {
		"bytecode": {
			"linkReferences": {},
			"object": "60806040523480156200001157600080fd5b5060405162000b7d38038062000b7d833981810160405281019062000037919062000138565b806000806101000a81548173ffffffffffffffffffffffffffffffffffffffff021916908373ffffffffffffffffffffffffffffffffffffffff1602179055508142620000859190620001ae565b6001819055505050620001e9565b600080fd5b6000819050919050565b620000ad8162000098565b8114620000b957600080fd5b50565b600081519050620000cd81620000a2565b92915050565b600073ffffffffffffffffffffffffffffffffffffffff82169050919050565b60006200010082620000d3565b9050919050565b6200011281620000f3565b81146200011e57600080fd5b50565b600081519050620001328162000107565b92915050565b6000806040838503121562000152576200015162000093565b5b60006200016285828601620000bc565b9250506020620001758582860162000121565b9150509250929050565b7f4e487b7100000000000000000000000000000000000000000000000000000000600052601160045260246000fd5b6000620001bb8262000098565b9150620001c88362000098565b9250828201905080821115620001e357620001e26200017f565b5b92915050565b61098480620001f96000396000f3fe6080604052600436106100705760003560e01c80633ccfd60b1161004e5780633ccfd60b146100d55780634b449cba146100f357806391f901571461011e5780639390e9c21461014957610070565b80631998aeef1461007557806338af3eed1461007f5780633ad08463146100aa575b600080fd5b61007d610160565b005b34801561008b57600080fd5b506100946102f1565b6040516100a1919061061a565b60405180910390f35b3480156100b657600080fd5b506100bf610315565b6040516100cc919061064e565b60405180910390f35b6100dd61031b565b6040516100ea9190610684565b60405180910390f35b3480156100ff57600080fd5b50610108610435565b604051610115919061064e565b60405180910390f35b34801561012a57600080fd5b5061013361043b565b60405161014091906106c0565b60405180910390f35b34801561015557600080fd5b5061015e610461565b005b6001544211156101a5576040517f08c379a000000000000000000000000000000000000000000000000000000000815260040161019c90610738565b60405180910390fd5b60035434116101e9576040517f08c379a00000000000000000000000000000000000000000000000000000000081526004016101e0906107ca565b60405180910390fd5b60006003541461026e5760035460056000600260009054906101000a900473ffffffffffffffffffffffffffffffffffffffff1673ffffffffffffffffffffffffffffffffffffffff1673ffffffffffffffffffffffffffffffffffffffff16815260200190815260200160002060008282546102669190610819565b925050819055505b33600260006101000a81548173ffffffffffffffffffffffffffffffffffffffff021916908373ffffffffffffffffffffffffffffffffffffffff160217905550346003819055507f123a2a99bd109b51e435e65e10a7230bdbd13b8a0fa2f7ee4ef740da1f86f0eb33346040516102e792919061084d565b60405180910390a1565b60008054906101000a900473ffffffffffffffffffffffffffffffffffffffff1681565b60035481565b600080600560003373ffffffffffffffffffffffffffffffffffffffff1673ffffffffffffffffffffffffffffffffffffffff16815260200190815260200160002054905060008111156103af576000600560003373ffffffffffffffffffffffffffffffffffffffff1673ffffffffffffffffffffffffffffffffffffffff168152602001908152602001600020819055505b3373ffffffffffffffffffffffffffffffffffffffff166108fc829081150290604051600060405180830381858888f1935050505061042d5780600560003373ffffffffffffffffffffffffffffffffffffffff1673ffffffffffffffffffffffffffffffffffffffff168152602001908152602001600020819055505b600191505090565b60015481565b600260009054906101000a900473ffffffffffffffffffffffffffffffffffffffff1681565b6001544210156104a6576040517f08c379a000000000000000000000000000000000000000000000000000000000815260040161049d906108c2565b60405180910390fd5b600460009054906101000a900460ff16156104f6576040517f08c379a00000000000000000000000000000000000000000000000000000000081526004016104ed9061092e565b60405180910390fd5b6001600460006101000a81548160ff0219169083151502179055507f6e0e2174dbf7b77c08b6f9a2799b9feda84a6d54a5644864582040100a47d4c5600260009054906101000a900473ffffffffffffffffffffffffffffffffffffffff1660035460405161056692919061084d565b60405180910390a160008054906101000a900473ffffffffffffffffffffffffffffffffffffffff1673ffffffffffffffffffffffffffffffffffffffff166108fc6003549081150290604051600060405180830381858888f193505050501580156105d6573d6000803e3d6000fd5b50565b600073ffffffffffffffffffffffffffffffffffffffff82169050919050565b6000610604826105d9565b9050919050565b610614816105f9565b82525050565b600060208201905061062f600083018461060b565b92915050565b6000819050919050565b61064881610635565b82525050565b6000602082019050610663600083018461063f565b92915050565b60008115159050919050565b61067e81610669565b82525050565b60006020820190506106996000830184610675565b92915050565b60006106aa826105d9565b9050919050565b6106ba8161069f565b82525050565b60006020820190506106d560008301846106b1565b92915050565b600082825260208201905092915050565b7f7468652061756374696f6e2068617320656e6465642100000000000000000000600082015250565b60006107226016836106db565b915061072d826106ec565b602082019050919050565b6000602082019050818103600083015261075181610715565b9050919050565b7f736f7272792c2074686520626964206973206e6f74206869676820656e6f756760008201527f6800000000000000000000000000000000000000000000000000000000000000602082015250565b60006107b46021836106db565b91506107bf82610758565b604082019050919050565b600060208201905081810360008301526107e3816107a7565b9050919050565b7f4e487b7100000000000000000000000000000000000000000000000000000000600052601160045260246000fd5b600061082482610635565b915061082f83610635565b9250828201905080821115610847576108466107ea565b5b92915050565b600060408201905061086260008301856106b1565b61086f602083018461063f565b9392505050565b7f5468652061756374696f6e20686173206e6f7420656e64656420796574210000600082015250565b60006108ac601e836106db565b91506108b782610876565b602082019050919050565b600060208201905081810360008301526108db8161089f565b9050919050565b7f7468652061756374696f6e20697320616c7265616479206f7665722121000000600082015250565b6000610918601d836106db565b9150610923826108e2565b602082019050919050565b600060208201905081810360008301526109478161090b565b905091905056fea264697066735822122091ca7ed1e0d0f850c24d6a0f681398f7d36c267f0c53fd7fc0cd4b89adb8a8bf64736f6c63430008110033",
			"opcodes": "PUSH1 0x80 PUSH1 0x40 MSTORE CALLVALUE DUP1 ISZERO PUSH3 0x11 JUMPI PUSH1 0x0 DUP1 REVERT JUMPDEST POP PUSH1 0x40 MLOAD PUSH3 0xB7D CODESIZE SUB DUP1 PUSH3 0xB7D DUP4 CODECOPY DUP2 DUP2 ADD PUSH1 0x40 MSTORE DUP2 ADD SWAP1 PUSH3 0x37 SWAP2 SWAP1 PUSH3 0x138 JUMP JUMPDEST DUP1 PUSH1 0x0 DUP1 PUSH2 0x100 EXP DUP2 SLOAD DUP2 PUSH20 0xFFFFFFFFFFFFFFFFFFFFFFFFFFFFFFFFFFFFFFFF MUL NOT AND SWAP1 DUP4 PUSH20 0xFFFFFFFFFFFFFFFFFFFFFFFFFFFFFFFFFFFFFFFF AND MUL OR SWAP1 SSTORE POP DUP2 TIMESTAMP PUSH3 0x85 SWAP2 SWAP1 PUSH3 0x1AE JUMP JUMPDEST PUSH1 0x1 DUP2 SWAP1 SSTORE POP POP POP PUSH3 0x1E9 JUMP JUMPDEST PUSH1 0x0 DUP1 REVERT JUMPDEST PUSH1 0x0 DUP2 SWAP1 POP SWAP2 SWAP1 POP JUMP JUMPDEST PUSH3 0xAD DUP2 PUSH3 0x98 JUMP JUMPDEST DUP2 EQ PUSH3 0xB9 JUMPI PUSH1 0x0 DUP1 REVERT JUMPDEST POP JUMP JUMPDEST PUSH1 0x0 DUP2 MLOAD SWAP1 POP PUSH3 0xCD DUP2 PUSH3 0xA2 JUMP JUMPDEST SWAP3 SWAP2 POP POP JUMP JUMPDEST PUSH1 0x0 PUSH20 0xFFFFFFFFFFFFFFFFFFFFFFFFFFFFFFFFFFFFFFFF DUP3 AND SWAP1 POP SWAP2 SWAP1 POP JUMP JUMPDEST PUSH1 0x0 PUSH3 0x100 DUP3 PUSH3 0xD3 JUMP JUMPDEST SWAP1 POP SWAP2 SWAP1 POP JUMP JUMPDEST PUSH3 0x112 DUP2 PUSH3 0xF3 JUMP JUMPDEST DUP2 EQ PUSH3 0x11E JUMPI PUSH1 0x0 DUP1 REVERT JUMPDEST POP JUMP JUMPDEST PUSH1 0x0 DUP2 MLOAD SWAP1 POP PUSH3 0x132 DUP2 PUSH3 0x107 JUMP JUMPDEST SWAP3 SWAP2 POP POP JUMP JUMPDEST PUSH1 0x0 DUP1 PUSH1 0x40 DUP4 DUP6 SUB SLT ISZERO PUSH3 0x152 JUMPI PUSH3 0x151 PUSH3 0x93 JUMP JUMPDEST JUMPDEST PUSH1 0x0 PUSH3 0x162 DUP6 DUP3 DUP7 ADD PUSH3 0xBC JUMP JUMPDEST SWAP3 POP POP PUSH1 0x20 PUSH3 0x175 DUP6 DUP3 DUP7 ADD PUSH3 0x121 JUMP JUMPDEST SWAP2 POP POP SWAP3 POP SWAP3 SWAP1 POP JUMP JUMPDEST PUSH32 0x4E487B7100000000000000000000000000000000000000000000000000000000 PUSH1 0x0 MSTORE PUSH1 0x11 PUSH1 0x4 MSTORE PUSH1 0x24 PUSH1 0x0 REVERT JUMPDEST PUSH1 0x0 PUSH3 0x1BB DUP3 PUSH3 0x98 JUMP JUMPDEST SWAP2 POP PUSH3 0x1C8 DUP4 PUSH3 0x98 JUMP JUMPDEST SWAP3 POP DUP3 DUP3 ADD SWAP1 POP DUP1 DUP3 GT ISZERO PUSH3 0x1E3 JUMPI PUSH3 0x1E2 PUSH3 0x17F JUMP JUMPDEST JUMPDEST SWAP3 SWAP2 POP POP JUMP JUMPDEST PUSH2 0x984 DUP1 PUSH3 0x1F9 PUSH1 0x0 CODECOPY PUSH1 0x0 RETURN INVALID PUSH1 0x80 PUSH1 0x40 MSTORE PUSH1 0x4 CALLDATASIZE LT PUSH2 0x70 JUMPI PUSH1 0x0 CALLDATALOAD PUSH1 0xE0 SHR DUP1 PUSH4 0x3CCFD60B GT PUSH2 0x4E JUMPI DUP1 PUSH4 0x3CCFD60B EQ PUSH2 0xD5 JUMPI DUP1 PUSH4 0x4B449CBA EQ PUSH2 0xF3 JUMPI DUP1 PUSH4 0x91F90157 EQ PUSH2 0x11E JUMPI DUP1 PUSH4 0x9390E9C2 EQ PUSH2 0x149 JUMPI PUSH2 0x70 JUMP JUMPDEST DUP1 PUSH4 0x1998AEEF EQ PUSH2 0x75 JUMPI DUP1 PUSH4 0x38AF3EED EQ PUSH2 0x7F JUMPI DUP1 PUSH4 0x3AD08463 EQ PUSH2 0xAA JUMPI JUMPDEST PUSH1 0x0 DUP1 REVERT JUMPDEST PUSH2 0x7D PUSH2 0x160 JUMP JUMPDEST STOP JUMPDEST CALLVALUE DUP1 ISZERO PUSH2 0x8B JUMPI PUSH1 0x0 DUP1 REVERT JUMPDEST POP PUSH2 0x94 PUSH2 0x2F1 JUMP JUMPDEST PUSH1 0x40 MLOAD PUSH2 0xA1 SWAP2 SWAP1 PUSH2 0x61A JUMP JUMPDEST PUSH1 0x40 MLOAD DUP1 SWAP2 SUB SWAP1 RETURN JUMPDEST CALLVALUE DUP1 ISZERO PUSH2 0xB6 JUMPI PUSH1 0x0 DUP1 REVERT JUMPDEST POP PUSH2 0xBF PUSH2 0x315 JUMP JUMPDEST PUSH1 0x40 MLOAD PUSH2 0xCC SWAP2 SWAP1 PUSH2 0x64E JUMP JUMPDEST PUSH1 0x40 MLOAD DUP1 SWAP2 SUB SWAP1 RETURN JUMPDEST PUSH2 0xDD PUSH2 0x31B JUMP JUMPDEST PUSH1 0x40 MLOAD PUSH2 0xEA SWAP2 SWAP1 PUSH2 0x684 JUMP JUMPDEST PUSH1 0x40 MLOAD DUP1 SWAP2 SUB SWAP1 RETURN JUMPDEST CALLVALUE DUP1 ISZERO PUSH2 0xFF JUMPI PUSH1 0x0 DUP1 REVERT JUMPDEST POP PUSH2 0x108 PUSH2 0x435 JUMP JUMPDEST PUSH1 0x40 MLOAD PUSH2 0x115 SWAP2 SWAP1 PUSH2 0x64E JUMP JUMPDEST PUSH1 0x40 MLOAD DUP1 SWAP2 SUB SWAP1 RETURN JUMPDEST CALLVALUE DUP1 ISZERO PUSH2 0x12A JUMPI PUSH1 0x0 DUP1 REVERT JUMPDEST POP PUSH2 0x133 PUSH2 0x43B JUMP JUMPDEST PUSH1 0x40 MLOAD PUSH2 0x140 SWAP2 SWAP1 PUSH2 0x6C0 JUMP JUMPDEST PUSH1 0x40 MLOAD DUP1 SWAP2 SUB SWAP1 RETURN JUMPDEST CALLVALUE DUP1 ISZERO PUSH2 0x155 JUMPI PUSH1 0x0 DUP1 REVERT JUMPDEST POP PUSH2 0x15E PUSH2 0x461 JUMP JUMPDEST STOP JUMPDEST PUSH1 0x1 SLOAD TIMESTAMP GT ISZERO PUSH2 0x1A5 JUMPI PUSH1 0x40 MLOAD PUSH32 0x8C379A000000000000000000000000000000000000000000000000000000000 DUP2 MSTORE PUSH1 0x4 ADD PUSH2 0x19C SWAP1 PUSH2 0x738 JUMP JUMPDEST PUSH1 0x40 MLOAD DUP1 SWAP2 SUB SWAP1 REVERT JUMPDEST PUSH1 0x3 SLOAD CALLVALUE GT PUSH2 0x1E9 JUMPI PUSH1 0x40 MLOAD PUSH32 0x8C379A000000000000000000000000000000000000000000000000000000000 DUP2 MSTORE PUSH1 0x4 ADD PUSH2 0x1E0 SWAP1 PUSH2 0x7CA JUMP JUMPDEST PUSH1 0x40 MLOAD DUP1 SWAP2 SUB SWAP1 REVERT JUMPDEST PUSH1 0x0 PUSH1 0x3 SLOAD EQ PUSH2 0x26E JUMPI PUSH1 0x3 SLOAD PUSH1 0x5 PUSH1 0x0 PUSH1 0x2 PUSH1 0x0 SWAP1 SLOAD SWAP1 PUSH2 0x100 EXP SWAP1 DIV PUSH20 0xFFFFFFFFFFFFFFFFFFFFFFFFFFFFFFFFFFFFFFFF AND PUSH20 0xFFFFFFFFFFFFFFFFFFFFFFFFFFFFFFFFFFFFFFFF AND PUSH20 0xFFFFFFFFFFFFFFFFFFFFFFFFFFFFFFFFFFFFFFFF AND DUP2 MSTORE PUSH1 0x20 ADD SWAP1 DUP2 MSTORE PUSH1 0x20 ADD PUSH1 0x0 KECCAK256 PUSH1 0x0 DUP3 DUP3 SLOAD PUSH2 0x266 SWAP2 SWAP1 PUSH2 0x819 JUMP JUMPDEST SWAP3 POP POP DUP2 SWAP1 SSTORE POP JUMPDEST CALLER PUSH1 0x2 PUSH1 0x0 PUSH2 0x100 EXP DUP2 SLOAD DUP2 PUSH20 0xFFFFFFFFFFFFFFFFFFFFFFFFFFFFFFFFFFFFFFFF MUL NOT AND SWAP1 DUP4 PUSH20 0xFFFFFFFFFFFFFFFFFFFFFFFFFFFFFFFFFFFFFFFF AND MUL OR SWAP1 SSTORE POP CALLVALUE PUSH1 0x3 DUP2 SWAP1 SSTORE POP PUSH32 0x123A2A99BD109B51E435E65E10A7230BDBD13B8A0FA2F7EE4EF740DA1F86F0EB CALLER CALLVALUE PUSH1 0x40 MLOAD PUSH2 0x2E7 SWAP3 SWAP2 SWAP1 PUSH2 0x84D JUMP JUMPDEST PUSH1 0x40 MLOAD DUP1 SWAP2 SUB SWAP1 LOG1 JUMP JUMPDEST PUSH1 0x0 DUP1 SLOAD SWAP1 PUSH2 0x100 EXP SWAP1 DIV PUSH20 0xFFFFFFFFFFFFFFFFFFFFFFFFFFFFFFFFFFFFFFFF AND DUP2 JUMP JUMPDEST PUSH1 0x3 SLOAD DUP2 JUMP JUMPDEST PUSH1 0x0 DUP1 PUSH1 0x5 PUSH1 0x0 CALLER PUSH20 0xFFFFFFFFFFFFFFFFFFFFFFFFFFFFFFFFFFFFFFFF AND PUSH20 0xFFFFFFFFFFFFFFFFFFFFFFFFFFFFFFFFFFFFFFFF AND DUP2 MSTORE PUSH1 0x20 ADD SWAP1 DUP2 MSTORE PUSH1 0x20 ADD PUSH1 0x0 KECCAK256 SLOAD SWAP1 POP PUSH1 0x0 DUP2 GT ISZERO PUSH2 0x3AF JUMPI PUSH1 0x0 PUSH1 0x5 PUSH1 0x0 CALLER PUSH20 0xFFFFFFFFFFFFFFFFFFFFFFFFFFFFFFFFFFFFFFFF AND PUSH20 0xFFFFFFFFFFFFFFFFFFFFFFFFFFFFFFFFFFFFFFFF AND DUP2 MSTORE PUSH1 0x20 ADD SWAP1 DUP2 MSTORE PUSH1 0x20 ADD PUSH1 0x0 KECCAK256 DUP2 SWAP1 SSTORE POP JUMPDEST CALLER PUSH20 0xFFFFFFFFFFFFFFFFFFFFFFFFFFFFFFFFFFFFFFFF AND PUSH2 0x8FC DUP3 SWAP1 DUP2 ISZERO MUL SWAP1 PUSH1 0x40 MLOAD PUSH1 0x0 PUSH1 0x40 MLOAD DUP1 DUP4 SUB DUP2 DUP6 DUP9 DUP9 CALL SWAP4 POP POP POP POP PUSH2 0x42D JUMPI DUP1 PUSH1 0x5 PUSH1 0x0 CALLER PUSH20 0xFFFFFFFFFFFFFFFFFFFFFFFFFFFFFFFFFFFFFFFF AND PUSH20 0xFFFFFFFFFFFFFFFFFFFFFFFFFFFFFFFFFFFFFFFF AND DUP2 MSTORE PUSH1 0x20 ADD SWAP1 DUP2 MSTORE PUSH1 0x20 ADD PUSH1 0x0 KECCAK256 DUP2 SWAP1 SSTORE POP JUMPDEST PUSH1 0x1 SWAP2 POP POP SWAP1 JUMP JUMPDEST PUSH1 0x1 SLOAD DUP2 JUMP JUMPDEST PUSH1 0x2 PUSH1 0x0 SWAP1 SLOAD SWAP1 PUSH2 0x100 EXP SWAP1 DIV PUSH20 0xFFFFFFFFFFFFFFFFFFFFFFFFFFFFFFFFFFFFFFFF AND DUP2 JUMP JUMPDEST PUSH1 0x1 SLOAD TIMESTAMP LT ISZERO PUSH2 0x4A6 JUMPI PUSH1 0x40 MLOAD PUSH32 0x8C379A000000000000000000000000000000000000000000000000000000000 DUP2 MSTORE PUSH1 0x4 ADD PUSH2 0x49D SWAP1 PUSH2 0x8C2 JUMP JUMPDEST PUSH1 0x40 MLOAD DUP1 SWAP2 SUB SWAP1 REVERT JUMPDEST PUSH1 0x4 PUSH1 0x0 SWAP1 SLOAD SWAP1 PUSH2 0x100 EXP SWAP1 DIV PUSH1 0xFF AND ISZERO PUSH2 0x4F6 JUMPI PUSH1 0x40 MLOAD PUSH32 0x8C379A000000000000000000000000000000000000000000000000000000000 DUP2 MSTORE PUSH1 0x4 ADD PUSH2 0x4ED SWAP1 PUSH2 0x92E JUMP JUMPDEST PUSH1 0x40 MLOAD DUP1 SWAP2 SUB SWAP1 REVERT JUMPDEST PUSH1 0x1 PUSH1 0x4 PUSH1 0x0 PUSH2 0x100 EXP DUP2 SLOAD DUP2 PUSH1 0xFF MUL NOT AND SWAP1 DUP4 ISZERO ISZERO MUL OR SWAP1 SSTORE POP PUSH32 0x6E0E2174DBF7B77C08B6F9A2799B9FEDA84A6D54A5644864582040100A47D4C5 PUSH1 0x2 PUSH1 0x0 SWAP1 SLOAD SWAP1 PUSH2 0x100 EXP SWAP1 DIV PUSH20 0xFFFFFFFFFFFFFFFFFFFFFFFFFFFFFFFFFFFFFFFF AND PUSH1 0x3 SLOAD PUSH1 0x40 MLOAD PUSH2 0x566 SWAP3 SWAP2 SWAP1 PUSH2 0x84D JUMP JUMPDEST PUSH1 0x40 MLOAD DUP1 SWAP2 SUB SWAP1 LOG1 PUSH1 0x0 DUP1 SLOAD SWAP1 PUSH2 0x100 EXP SWAP1 DIV PUSH20 0xFFFFFFFFFFFFFFFFFFFFFFFFFFFFFFFFFFFFFFFF AND PUSH20 0xFFFFFFFFFFFFFFFFFFFFFFFFFFFFFFFFFFFFFFFF AND PUSH2 0x8FC PUSH1 0x3 SLOAD SWAP1 DUP2 ISZERO MUL SWAP1 PUSH1 0x40 MLOAD PUSH1 0x0 PUSH1 0x40 MLOAD DUP1 DUP4 SUB DUP2 DUP6 DUP9 DUP9 CALL SWAP4 POP POP POP POP ISZERO DUP1 ISZERO PUSH2 0x5D6 JUMPI RETURNDATASIZE PUSH1 0x0 DUP1 RETURNDATACOPY RETURNDATASIZE PUSH1 0x0 REVERT JUMPDEST POP JUMP JUMPDEST PUSH1 0x0 PUSH20 0xFFFFFFFFFFFFFFFFFFFFFFFFFFFFFFFFFFFFFFFF DUP3 AND SWAP1 POP SWAP2 SWAP1 POP JUMP JUMPDEST PUSH1 0x0 PUSH2 0x604 DUP3 PUSH2 0x5D9 JUMP JUMPDEST SWAP1 POP SWAP2 SWAP1 POP JUMP JUMPDEST PUSH2 0x614 DUP2 PUSH2 0x5F9 JUMP JUMPDEST DUP3 MSTORE POP POP JUMP JUMPDEST PUSH1 0x0 PUSH1 0x20 DUP3 ADD SWAP1 POP PUSH2 0x62F PUSH1 0x0 DUP4 ADD DUP5 PUSH2 0x60B JUMP JUMPDEST SWAP3 SWAP2 POP POP JUMP JUMPDEST PUSH1 0x0 DUP2 SWAP1 POP SWAP2 SWAP1 POP JUMP JUMPDEST PUSH2 0x648 DUP2 PUSH2 0x635 JUMP JUMPDEST DUP3 MSTORE POP POP JUMP JUMPDEST PUSH1 0x0 PUSH1 0x20 DUP3 ADD SWAP1 POP PUSH2 0x663 PUSH1 0x0 DUP4 ADD DUP5 PUSH2 0x63F JUMP JUMPDEST SWAP3 SWAP2 POP POP JUMP JUMPDEST PUSH1 0x0 DUP2 ISZERO ISZERO SWAP1 POP SWAP2 SWAP1 POP JUMP JUMPDEST PUSH2 0x67E DUP2 PUSH2 0x669 JUMP JUMPDEST DUP3 MSTORE POP POP JUMP JUMPDEST PUSH1 0x0 PUSH1 0x20 DUP3 ADD SWAP1 POP PUSH2 0x699 PUSH1 0x0 DUP4 ADD DUP5 PUSH2 0x675 JUMP JUMPDEST SWAP3 SWAP2 POP POP JUMP JUMPDEST PUSH1 0x0 PUSH2 0x6AA DUP3 PUSH2 0x5D9 JUMP JUMPDEST SWAP1 POP SWAP2 SWAP1 POP JUMP JUMPDEST PUSH2 0x6BA DUP2 PUSH2 0x69F JUMP JUMPDEST DUP3 MSTORE POP POP JUMP JUMPDEST PUSH1 0x0 PUSH1 0x20 DUP3 ADD SWAP1 POP PUSH2 0x6D5 PUSH1 0x0 DUP4 ADD DUP5 PUSH2 0x6B1 JUMP JUMPDEST SWAP3 SWAP2 POP POP JUMP JUMPDEST PUSH1 0x0 DUP3 DUP3 MSTORE PUSH1 0x20 DUP3 ADD SWAP1 POP SWAP3 SWAP2 POP POP JUMP JUMPDEST PUSH32 0x7468652061756374696F6E2068617320656E6465642100000000000000000000 PUSH1 0x0 DUP3 ADD MSTORE POP JUMP JUMPDEST PUSH1 0x0 PUSH2 0x722 PUSH1 0x16 DUP4 PUSH2 0x6DB JUMP JUMPDEST SWAP2 POP PUSH2 0x72D DUP3 PUSH2 0x6EC JUMP JUMPDEST PUSH1 0x20 DUP3 ADD SWAP1 POP SWAP2 SWAP1 POP JUMP JUMPDEST PUSH1 0x0 PUSH1 0x20 DUP3 ADD SWAP1 POP DUP2 DUP2 SUB PUSH1 0x0 DUP4 ADD MSTORE PUSH2 0x751 DUP2 PUSH2 0x715 JUMP JUMPDEST SWAP1 POP SWAP2 SWAP1 POP JUMP JUMPDEST PUSH32 0x736F7272792C2074686520626964206973206E6F74206869676820656E6F7567 PUSH1 0x0 DUP3 ADD MSTORE PUSH32 0x6800000000000000000000000000000000000000000000000000000000000000 PUSH1 0x20 DUP3 ADD MSTORE POP JUMP JUMPDEST PUSH1 0x0 PUSH2 0x7B4 PUSH1 0x21 DUP4 PUSH2 0x6DB JUMP JUMPDEST SWAP2 POP PUSH2 0x7BF DUP3 PUSH2 0x758 JUMP JUMPDEST PUSH1 0x40 DUP3 ADD SWAP1 POP SWAP2 SWAP1 POP JUMP JUMPDEST PUSH1 0x0 PUSH1 0x20 DUP3 ADD SWAP1 POP DUP2 DUP2 SUB PUSH1 0x0 DUP4 ADD MSTORE PUSH2 0x7E3 DUP2 PUSH2 0x7A7 JUMP JUMPDEST SWAP1 POP SWAP2 SWAP1 POP JUMP JUMPDEST PUSH32 0x4E487B7100000000000000000000000000000000000000000000000000000000 PUSH1 0x0 MSTORE PUSH1 0x11 PUSH1 0x4 MSTORE PUSH1 0x24 PUSH1 0x0 REVERT JUMPDEST PUSH1 0x0 PUSH2 0x824 DUP3 PUSH2 0x635 JUMP JUMPDEST SWAP2 POP PUSH2 0x82F DUP4 PUSH2 0x635 JUMP JUMPDEST SWAP3 POP DUP3 DUP3 ADD SWAP1 POP DUP1 DUP3 GT ISZERO PUSH2 0x847 JUMPI PUSH2 0x846 PUSH2 0x7EA JUMP JUMPDEST JUMPDEST SWAP3 SWAP2 POP POP JUMP JUMPDEST PUSH1 0x0 PUSH1 0x40 DUP3 ADD SWAP1 POP PUSH2 0x862 PUSH1 0x0 DUP4 ADD DUP6 PUSH2 0x6B1 JUMP JUMPDEST PUSH2 0x86F PUSH1 0x20 DUP4 ADD DUP5 PUSH2 0x63F JUMP JUMPDEST SWAP4 SWAP3 POP POP POP JUMP JUMPDEST PUSH32 0x5468652061756374696F6E20686173206E6F7420656E64656420796574210000 PUSH1 0x0 DUP3 ADD MSTORE POP JUMP JUMPDEST PUSH1 0x0 PUSH2 0x8AC PUSH1 0x1E DUP4 PUSH2 0x6DB JUMP JUMPDEST SWAP2 POP PUSH2 0x8B7 DUP3 PUSH2 0x876 JUMP JUMPDEST PUSH1 0x20 DUP3 ADD SWAP1 POP SWAP2 SWAP1 POP JUMP JUMPDEST PUSH1 0x0 PUSH1 0x20 DUP3 ADD SWAP1 POP DUP2 DUP2 SUB PUSH1 0x0 DUP4 ADD MSTORE PUSH2 0x8DB DUP2 PUSH2 0x89F JUMP JUMPDEST SWAP1 POP SWAP2 SWAP1 POP JUMP JUMPDEST PUSH32 0x7468652061756374696F6E20697320616C7265616479206F7665722121000000 PUSH1 0x0 DUP3 ADD MSTORE POP JUMP JUMPDEST PUSH1 0x0 PUSH2 0x918 PUSH1 0x1D DUP4 PUSH2 0x6DB JUMP JUMPDEST SWAP2 POP PUSH2 0x923 DUP3 PUSH2 0x8E2 JUMP JUMPDEST PUSH1 0x20 DUP3 ADD SWAP1 POP SWAP2 SWAP1 POP JUMP JUMPDEST PUSH1 0x0 PUSH1 0x20 DUP3 ADD SWAP1 POP DUP2 DUP2 SUB PUSH1 0x0 DUP4 ADD MSTORE PUSH2 0x947 DUP2 PUSH2 0x90B JUMP JUMPDEST SWAP1 POP SWAP2 SWAP1 POP JUMP INVALID LOG2 PUSH5 0x6970667358 0x22 SLT KECCAK256 SWAP2 0xCA PUSH31 0xD1E0D0F850C24D6A0F681398F7D36C267F0C53FD7FC0CD4B89ADB8A8BF6473 PUSH16 0x6C634300081100330000000000000000 "
		},
		"gasEstimates": {
			"creation": {
				"codeDepositCost": "487200",
				"executionCost": "infinite",
				"totalCost": "infinite"
			},
			"external": {
				"auctionEndTime()": "2451",
				"beneficiary()": "2534",
				"bid()": "infinite",
				"endsAuction()": "infinite",
				"highestBidder()": "2558",
				"highestbid()": "2474",
				"withdraw()": "infinite"
			}
		},
		"methodIdentifiers": {
			"auctionEndTime()": "4b449cba",
			"beneficiary()": "38af3eed",
			"bid()": "1998aeef",
			"endsAuction()": "9390e9c2",
			"highestBidder()": "91f90157",
			"highestbid()": "3ad08463",
			"withdraw()": "3ccfd60b"
		}
	},
	"abi": [
		{
			"inputs": [
				{
					"internalType": "uint256",
					"name": "_biddingTime",
					"type": "uint256"
				},
				{
					"internalType": "address payable",
					"name": "_beneficiary",
					"type": "address"
				}
			],
			"stateMutability": "nonpayable",
			"type": "constructor"
		},
		{
			"anonymous": false,
			"inputs": [
				{
					"indexed": false,
					"internalType": "address",
					"name": "winner",
					"type": "address"
				},
				{
					"indexed": false,
					"internalType": "uint256",
					"name": "amount",
					"type": "uint256"
				}
			],
			"name": "auctionEnded",
			"type": "event"
		},
		{
			"anonymous": false,
			"inputs": [
				{
					"indexed": false,
					"internalType": "address",
					"name": "bidder",
					"type": "address"
				},
				{
					"indexed": false,
					"internalType": "uint256",
					"name": "amount",
					"type": "uint256"
				}
			],
			"name": "highestBidIncrease",
			"type": "event"
		},
		{
			"inputs": [],
			"name": "auctionEndTime",
			"outputs": [
				{
					"internalType": "uint256",
					"name": "",
					"type": "uint256"
				}
			],
			"stateMutability": "view",
			"type": "function"
		},
		{
			"inputs": [],
			"name": "beneficiary",
			"outputs": [
				{
					"internalType": "address payable",
					"name": "",
					"type": "address"
				}
			],
			"stateMutability": "view",
			"type": "function"
		},
		{
			"inputs": [],
			"name": "bid",
			"outputs": [],
			"stateMutability": "payable",
			"type": "function"
		},
		{
			"inputs": [],
			"name": "endsAuction",
			"outputs": [],
			"stateMutability": "nonpayable",
			"type": "function"
		},
		{
			"inputs": [],
			"name": "highestBidder",
			"outputs": [
				{
					"internalType": "address",
					"name": "",
					"type": "address"
				}
			],
			"stateMutability": "view",
			"type": "function"
		},
		{
			"inputs": [],
			"name": "highestbid",
			"outputs": [
				{
					"internalType": "uint256",
					"name": "",
					"type": "uint256"
				}
			],
			"stateMutability": "view",
			"type": "function"
		},
		{
			"inputs": [],
			"name": "withdraw",
			"outputs": [
				{
					"internalType": "bool",
					"name": "",
					"type": "bool"
				}
			],
			"stateMutability": "payable",
			"type": "function"
		}
	]
}