{
	"decision-making.sol": {
		"decisionMaking": {
			"abi": [
				{
					"inputs": [],
					"name": "airDrop",
					"outputs": [
						{
							"internalType": "uint256",
							"name": "",
							"type": "uint256"
						}
					],
					"stateMutability": "view",
					"type": "function"
				},
				{
					"inputs": [],
					"name": "validateOranges",
					"outputs": [
						{
							"internalType": "bool",
							"name": "",
							"type": "bool"
						}
					],
					"stateMutability": "view",
					"type": "function"
				}
			],
			"devdoc": {
				"kind": "dev",
				"methods": {},
				"version": 1
			},
			"evm": {
				"assembly": "    /* \"decision-making.sol\":633:2073  contract decisionMaking{\r... */\n  mstore(0x40, 0x80)\n    /* \"decision-making.sol\":902:903  5 */\n  0x05\n    /* \"decision-making.sol\":887:903  uint oranges = 5 */\n  0x00\n  sstore\n    /* \"decision-making.sol\":1864:1866  10 */\n  0x0a\n    /* \"decision-making.sol\":1843:1866  uint stakingWallet = 10 */\n  0x01\n  sstore\n    /* \"decision-making.sol\":633:2073  contract decisionMaking{\r... */\n  callvalue\n  dup1\n  iszero\n  tag_1\n  jumpi\n  0x00\n  dup1\n  revert\ntag_1:\n  pop\n  dataSize(sub_0)\n  dup1\n  dataOffset(sub_0)\n  0x00\n  codecopy\n  0x00\n  return\nstop\n\nsub_0: assembly {\n        /* \"decision-making.sol\":633:2073  contract decisionMaking{\r... */\n      mstore(0x40, 0x80)\n      callvalue\n      dup1\n      iszero\n      tag_1\n      jumpi\n      0x00\n      dup1\n      revert\n    tag_1:\n      pop\n      jumpi(tag_2, lt(calldatasize, 0x04))\n      shr(0xe0, calldataload(0x00))\n      dup1\n      0xb4a4fad8\n      eq\n      tag_3\n      jumpi\n      dup1\n      0xca5d0880\n      eq\n      tag_4\n      jumpi\n    tag_2:\n      0x00\n      dup1\n      revert\n        /* \"decision-making.sol\":980:1225  function validateOranges() public view returns(bool)\r... */\n    tag_3:\n      tag_5\n      tag_6\n      jump\t// in\n    tag_5:\n      mload(0x40)\n      dup1\n      dup3\n      iszero\n      iszero\n      dup2\n      mstore\n      0x20\n      add\n      swap2\n      pop\n      pop\n      mload(0x40)\n      dup1\n      swap2\n      sub\n      swap1\n      return\n        /* \"decision-making.sol\":1873:2068  function airDrop()public view returns (uint){\r... */\n    tag_4:\n      tag_7\n      tag_8\n      jump\t// in\n    tag_7:\n      mload(0x40)\n      dup1\n      dup3\n      dup2\n      mstore\n      0x20\n      add\n      swap2\n      pop\n      pop\n      mload(0x40)\n      dup1\n      swap2\n      sub\n      swap1\n      return\n        /* \"decision-making.sol\":980:1225  function validateOranges() public view returns(bool)\r... */\n    tag_6:\n        /* \"decision-making.sol\":1027:1031  bool */\n      0x00\n        /* \"decision-making.sol\":1066:1067  5 */\n      0x05\n        /* \"decision-making.sol\":1055:1062  oranges */\n      sload(0x00)\n        /* \"decision-making.sol\":1055:1067  oranges == 5 */\n      eq\n        /* \"decision-making.sol\":1051:1216  if( oranges == 5){   // whatever goes into the parenthesis evaluates the trueness\r... */\n      iszero\n      tag_10\n      jumpi\n        /* \"decision-making.sol\":1153:1157  true */\n      0x01\n        /* \"decision-making.sol\":1146:1157  return true */\n      swap1\n      pop\n      jump(tag_9)\n        /* \"decision-making.sol\":1051:1216  if( oranges == 5){   // whatever goes into the parenthesis evaluates the trueness\r... */\n    tag_10:\n        /* \"decision-making.sol\":1199:1204  false */\n      0x00\n        /* \"decision-making.sol\":1192:1204  return false */\n      swap1\n      pop\n        /* \"decision-making.sol\":980:1225  function validateOranges() public view returns(bool)\r... */\n    tag_9:\n      swap1\n      jump\t// out\n        /* \"decision-making.sol\":1873:2068  function airDrop()public view returns (uint){\r... */\n    tag_8:\n        /* \"decision-making.sol\":1912:1916  uint */\n      0x00\n        /* \"decision-making.sol\":1948:1950  10 */\n      0x0a\n        /* \"decision-making.sol\":1931:1944  stakingWallet */\n      sload(0x01)\n        /* \"decision-making.sol\":1931:1950  stakingWallet == 10 */\n      eq\n        /* \"decision-making.sol\":1928:2059  if(stakingWallet == 10){\r... */\n      iszero\n      tag_13\n      jumpi\n        /* \"decision-making.sol\":1989:1991  10 */\n      0x0a\n        /* \"decision-making.sol\":1973:1986  stakingWallet */\n      sload(0x01)\n        /* \"decision-making.sol\":1973:1991  stakingWallet + 10 */\n      add\n        /* \"decision-making.sol\":1966:1991  return stakingWallet + 10 */\n      swap1\n      pop\n      jump(tag_12)\n        /* \"decision-making.sol\":1928:2059  if(stakingWallet == 10){\r... */\n    tag_13:\n        /* \"decision-making.sol\":2046:2047  1 */\n      0x01\n        /* \"decision-making.sol\":2031:2044  stakingWallet */\n      dup1\n      sload\n        /* \"decision-making.sol\":2031:2047  stakingWallet +1 */\n      add\n        /* \"decision-making.sol\":2024:2047  return stakingWallet +1 */\n      swap1\n      pop\n        /* \"decision-making.sol\":1873:2068  function airDrop()public view returns (uint){\r... */\n    tag_12:\n      swap1\n      jump\t// out\n\n    auxdata: 0xa264697066735822122030216006373fda3c310ab64ff0fff686997c4280d656564dc4d84f3941e142c764736f6c63430007000033\n}\n",
				"bytecode": {
					"linkReferences": {},
					"object": "60806040526005600055600a60015534801561001a57600080fd5b5060e6806100296000396000f3fe6080604052348015600f57600080fd5b506004361060325760003560e01c8063b4a4fad8146037578063ca5d0880146055575b600080fd5b603d6071565b60405180821515815260200191505060405180910390f35b605b608d565b6040518082815260200191505060405180910390f35b60006005600054141560855760019050608a565b600090505b90565b6000600a600154141560a557600a60015401905060ad565b600180540190505b9056fea264697066735822122030216006373fda3c310ab64ff0fff686997c4280d656564dc4d84f3941e142c764736f6c63430007000033",
					"opcodes": "PUSH1 0x80 PUSH1 0x40 MSTORE PUSH1 0x5 PUSH1 0x0 SSTORE PUSH1 0xA PUSH1 0x1 SSTORE CALLVALUE DUP1 ISZERO PUSH2 0x1A JUMPI PUSH1 0x0 DUP1 REVERT JUMPDEST POP PUSH1 0xE6 DUP1 PUSH2 0x29 PUSH1 0x0 CODECOPY PUSH1 0x0 RETURN INVALID PUSH1 0x80 PUSH1 0x40 MSTORE CALLVALUE DUP1 ISZERO PUSH1 0xF JUMPI PUSH1 0x0 DUP1 REVERT JUMPDEST POP PUSH1 0x4 CALLDATASIZE LT PUSH1 0x32 JUMPI PUSH1 0x0 CALLDATALOAD PUSH1 0xE0 SHR DUP1 PUSH4 0xB4A4FAD8 EQ PUSH1 0x37 JUMPI DUP1 PUSH4 0xCA5D0880 EQ PUSH1 0x55 JUMPI JUMPDEST PUSH1 0x0 DUP1 REVERT JUMPDEST PUSH1 0x3D PUSH1 0x71 JUMP JUMPDEST PUSH1 0x40 MLOAD DUP1 DUP3 ISZERO ISZERO DUP2 MSTORE PUSH1 0x20 ADD SWAP2 POP POP PUSH1 0x40 MLOAD DUP1 SWAP2 SUB SWAP1 RETURN JUMPDEST PUSH1 0x5B PUSH1 0x8D JUMP JUMPDEST PUSH1 0x40 MLOAD DUP1 DUP3 DUP2 MSTORE PUSH1 0x20 ADD SWAP2 POP POP PUSH1 0x40 MLOAD DUP1 SWAP2 SUB SWAP1 RETURN JUMPDEST PUSH1 0x0 PUSH1 0x5 PUSH1 0x0 SLOAD EQ ISZERO PUSH1 0x85 JUMPI PUSH1 0x1 SWAP1 POP PUSH1 0x8A JUMP JUMPDEST PUSH1 0x0 SWAP1 POP JUMPDEST SWAP1 JUMP JUMPDEST PUSH1 0x0 PUSH1 0xA PUSH1 0x1 SLOAD EQ ISZERO PUSH1 0xA5 JUMPI PUSH1 0xA PUSH1 0x1 SLOAD ADD SWAP1 POP PUSH1 0xAD JUMP JUMPDEST PUSH1 0x1 DUP1 SLOAD ADD SWAP1 POP JUMPDEST SWAP1 JUMP INVALID LOG2 PUSH5 0x6970667358 0x22 SLT KECCAK256 ADDRESS 0x21 PUSH1 0x6 CALLDATACOPY EXTCODEHASH 0xDA EXTCODECOPY BALANCE EXP 0xB6 0x4F CREATE SELFDESTRUCT 0xF6 DUP7 SWAP10 PUSH29 0x4280D656564DC4D84F3941E142C764736F6C6343000700003300000000 "
				},
				"gasEstimates": {
					"creation": {
						"codeDepositCost": "46000",
						"executionCost": "40111",
						"totalCost": "86111"
					},
					"external": {
						"airDrop()": "1856",
						"validateOranges()": "1034"
					}
				},
				"methodIdentifiers": {
					"airDrop()": "ca5d0880",
					"validateOranges()": "b4a4fad8"
				}
			},
			"storageLayout": {
				"storage": [
					{
						"astId": 4,
						"contract": "decision-making.sol:decisionMaking",
						"label": "oranges",
						"offset": 0,
						"slot": "0",
						"type": "t_uint256"
					},
					{
						"astId": 23,
						"contract": "decision-making.sol:decisionMaking",
						"label": "stakingWallet",
						"offset": 0,
						"slot": "1",
						"type": "t_uint256"
					}
				],
				"types": {
					"t_uint256": {
						"encoding": "inplace",
						"label": "uint256",
						"numberOfBytes": "32"
					}
				}
			},
			"userdoc": {
				"kind": "user",
				"methods": {},
				"version": 1
			}
		}
	}
}