{
	"comparison_operators.sol": {
		"comparisonOperators2": {
			"abi": [
				{
					"inputs": [],
					"name": "compare2",
					"outputs": [],
					"stateMutability": "view",
					"type": "function"
				}
			],
			"devdoc": {
				"kind": "dev",
				"methods": {},
				"version": 1
			},
			"evm": {
				"assembly": "    /* \"comparison_operators.sol\":640:816  contract comparisonOperators2{\r... */\n  mstore(0x40, 0x80)\n    /* \"comparison_operators.sol\":687:690  323 */\n  0x0143\n    /* \"comparison_operators.sol\":678:690  uint c = 323 */\n  0x00\n  sstore\n    /* \"comparison_operators.sol\":706:708  54 */\n  0x36\n    /* \"comparison_operators.sol\":697:708  uint d = 54 */\n  0x01\n  sstore\n    /* \"comparison_operators.sol\":640:816  contract comparisonOperators2{\r... */\n  callvalue\n  dup1\n  iszero\n  tag_1\n  jumpi\n  0x00\n  dup1\n  revert\ntag_1:\n  pop\n  dataSize(sub_0)\n  dup1\n  dataOffset(sub_0)\n  0x00\n  codecopy\n  0x00\n  return\nstop\n\nsub_0: assembly {\n        /* \"comparison_operators.sol\":640:816  contract comparisonOperators2{\r... */\n      mstore(0x40, 0x80)\n      callvalue\n      dup1\n      iszero\n      tag_1\n      jumpi\n      0x00\n      dup1\n      revert\n    tag_1:\n      pop\n      jumpi(tag_2, lt(calldatasize, 0x04))\n      shr(0xe0, calldataload(0x00))\n      dup1\n      0xb9ee0b54\n      eq\n      tag_3\n      jumpi\n    tag_2:\n      0x00\n      dup1\n      revert\n        /* \"comparison_operators.sol\":717:813  function compare2() public view {\r... */\n    tag_3:\n      tag_4\n      tag_5\n      jump\t// in\n    tag_4:\n      stop\n    tag_5:\n        /* \"comparison_operators.sol\":775:776  d */\n      sload(0x01)\n        /* \"comparison_operators.sol\":770:771  c */\n      sload(0x00)\n        /* \"comparison_operators.sol\":770:776  c <= d */\n      gt\n      iszero\n        /* \"comparison_operators.sol\":762:805  require(c <= d, 'This comparison is false') */\n      tag_7\n      jumpi\n      mload(0x40)\n      0x08c379a000000000000000000000000000000000000000000000000000000000\n      dup2\n      mstore\n      0x04\n      add\n      tag_8\n      swap1\n      tag_9\n      jump\t// in\n    tag_8:\n      mload(0x40)\n      dup1\n      swap2\n      sub\n      swap1\n      revert\n    tag_7:\n        /* \"comparison_operators.sol\":717:813  function compare2() public view {\r... */\n      jump\t// out\n        /* \"#utility.yul\":7:373   */\n    tag_11:\n        /* \"#utility.yul\":149:152   */\n      0x00\n        /* \"#utility.yul\":170:237   */\n      tag_13\n        /* \"#utility.yul\":234:236   */\n      0x18\n        /* \"#utility.yul\":229:232   */\n      dup4\n        /* \"#utility.yul\":170:237   */\n      tag_14\n      jump\t// in\n    tag_13:\n        /* \"#utility.yul\":163:237   */\n      swap2\n      pop\n        /* \"#utility.yul\":246:339   */\n      tag_15\n        /* \"#utility.yul\":335:338   */\n      dup3\n        /* \"#utility.yul\":246:339   */\n      tag_16\n      jump\t// in\n    tag_15:\n        /* \"#utility.yul\":364:366   */\n      0x20\n        /* \"#utility.yul\":359:362   */\n      dup3\n        /* \"#utility.yul\":355:367   */\n      add\n        /* \"#utility.yul\":348:367   */\n      swap1\n      pop\n        /* \"#utility.yul\":7:373   */\n      swap2\n      swap1\n      pop\n      jump\t// out\n        /* \"#utility.yul\":379:798   */\n    tag_9:\n        /* \"#utility.yul\":545:549   */\n      0x00\n        /* \"#utility.yul\":583:585   */\n      0x20\n        /* \"#utility.yul\":572:581   */\n      dup3\n        /* \"#utility.yul\":568:586   */\n      add\n        /* \"#utility.yul\":560:586   */\n      swap1\n      pop\n        /* \"#utility.yul\":632:641   */\n      dup2\n        /* \"#utility.yul\":626:630   */\n      dup2\n        /* \"#utility.yul\":622:642   */\n      sub\n        /* \"#utility.yul\":618:619   */\n      0x00\n        /* \"#utility.yul\":607:616   */\n      dup4\n        /* \"#utility.yul\":603:620   */\n      add\n        /* \"#utility.yul\":596:643   */\n      mstore\n        /* \"#utility.yul\":660:791   */\n      tag_18\n        /* \"#utility.yul\":786:790   */\n      dup2\n        /* \"#utility.yul\":660:791   */\n      tag_11\n      jump\t// in\n    tag_18:\n        /* \"#utility.yul\":652:791   */\n      swap1\n      pop\n        /* \"#utility.yul\":379:798   */\n      swap2\n      swap1\n      pop\n      jump\t// out\n        /* \"#utility.yul\":804:973   */\n    tag_14:\n        /* \"#utility.yul\":888:899   */\n      0x00\n        /* \"#utility.yul\":922:928   */\n      dup3\n        /* \"#utility.yul\":917:920   */\n      dup3\n        /* \"#utility.yul\":910:929   */\n      mstore\n        /* \"#utility.yul\":962:966   */\n      0x20\n        /* \"#utility.yul\":957:960   */\n      dup3\n        /* \"#utility.yul\":953:967   */\n      add\n        /* \"#utility.yul\":938:967   */\n      swap1\n      pop\n        /* \"#utility.yul\":804:973   */\n      swap3\n      swap2\n      pop\n      pop\n      jump\t// out\n        /* \"#utility.yul\":979:1153   */\n    tag_16:\n        /* \"#utility.yul\":1119:1145   */\n      0x5468697320636f6d70617269736f6e2069732066616c73650000000000000000\n        /* \"#utility.yul\":1115:1116   */\n      0x00\n        /* \"#utility.yul\":1107:1113   */\n      dup3\n        /* \"#utility.yul\":1103:1117   */\n      add\n        /* \"#utility.yul\":1096:1146   */\n      mstore\n        /* \"#utility.yul\":979:1153   */\n      pop\n      jump\t// out\n\n    auxdata: 0xa2646970667358221220a913a90313dd7d7afad15a5da5a0118fba59694038e139741146994aaeec41f864736f6c63430008070033\n}\n",
				"bytecode": {
					"linkReferences": {},
					"object": "6080604052610143600055603660015534801561001b57600080fd5b506101288061002b6000396000f3fe6080604052348015600f57600080fd5b506004361060285760003560e01c8063b9ee0b5414602d575b600080fd5b60336035565b005b60015460005411156079576040517f08c379a0000000000000000000000000000000000000000000000000000000008152600401607090609a565b60405180910390fd5b565b6000608660188360b8565b9150608f8260c9565b602082019050919050565b6000602082019050818103600083015260b181607b565b9050919050565b600082825260208201905092915050565b7f5468697320636f6d70617269736f6e2069732066616c7365000000000000000060008201525056fea2646970667358221220a913a90313dd7d7afad15a5da5a0118fba59694038e139741146994aaeec41f864736f6c63430008070033",
					"opcodes": "PUSH1 0x80 PUSH1 0x40 MSTORE PUSH2 0x143 PUSH1 0x0 SSTORE PUSH1 0x36 PUSH1 0x1 SSTORE CALLVALUE DUP1 ISZERO PUSH2 0x1B JUMPI PUSH1 0x0 DUP1 REVERT JUMPDEST POP PUSH2 0x128 DUP1 PUSH2 0x2B PUSH1 0x0 CODECOPY PUSH1 0x0 RETURN INVALID PUSH1 0x80 PUSH1 0x40 MSTORE CALLVALUE DUP1 ISZERO PUSH1 0xF JUMPI PUSH1 0x0 DUP1 REVERT JUMPDEST POP PUSH1 0x4 CALLDATASIZE LT PUSH1 0x28 JUMPI PUSH1 0x0 CALLDATALOAD PUSH1 0xE0 SHR DUP1 PUSH4 0xB9EE0B54 EQ PUSH1 0x2D JUMPI JUMPDEST PUSH1 0x0 DUP1 REVERT JUMPDEST PUSH1 0x33 PUSH1 0x35 JUMP JUMPDEST STOP JUMPDEST PUSH1 0x1 SLOAD PUSH1 0x0 SLOAD GT ISZERO PUSH1 0x79 JUMPI PUSH1 0x40 MLOAD PUSH32 0x8C379A000000000000000000000000000000000000000000000000000000000 DUP2 MSTORE PUSH1 0x4 ADD PUSH1 0x70 SWAP1 PUSH1 0x9A JUMP JUMPDEST PUSH1 0x40 MLOAD DUP1 SWAP2 SUB SWAP1 REVERT JUMPDEST JUMP JUMPDEST PUSH1 0x0 PUSH1 0x86 PUSH1 0x18 DUP4 PUSH1 0xB8 JUMP JUMPDEST SWAP2 POP PUSH1 0x8F DUP3 PUSH1 0xC9 JUMP JUMPDEST PUSH1 0x20 DUP3 ADD SWAP1 POP SWAP2 SWAP1 POP JUMP JUMPDEST PUSH1 0x0 PUSH1 0x20 DUP3 ADD SWAP1 POP DUP2 DUP2 SUB PUSH1 0x0 DUP4 ADD MSTORE PUSH1 0xB1 DUP2 PUSH1 0x7B JUMP JUMPDEST SWAP1 POP SWAP2 SWAP1 POP JUMP JUMPDEST PUSH1 0x0 DUP3 DUP3 MSTORE PUSH1 0x20 DUP3 ADD SWAP1 POP SWAP3 SWAP2 POP POP JUMP JUMPDEST PUSH32 0x5468697320636F6D70617269736F6E2069732066616C73650000000000000000 PUSH1 0x0 DUP3 ADD MSTORE POP JUMP INVALID LOG2 PUSH5 0x6970667358 0x22 SLT KECCAK256 0xA9 SGT 0xA9 SUB SGT 0xDD PUSH30 0x7AFAD15A5DA5A0118FBA59694038E139741146994AAEEC41F864736F6C63 NUMBER STOP ADDMOD SMOD STOP CALLER "
				},
				"gasEstimates": {
					"creation": {
						"codeDepositCost": "59200",
						"executionCost": "44323",
						"totalCost": "103523"
					},
					"external": {
						"compare2()": "4637"
					}
				},
				"methodIdentifiers": {
					"compare2()": "b9ee0b54"
				}
			},
			"storageLayout": {
				"storage": [
					{
						"astId": 22,
						"contract": "comparison_operators.sol:comparisonOperators2",
						"label": "c",
						"offset": 0,
						"slot": "0",
						"type": "t_uint256"
					},
					{
						"astId": 25,
						"contract": "comparison_operators.sol:comparisonOperators2",
						"label": "d",
						"offset": 0,
						"slot": "1",
						"type": "t_uint256"
					}
				],
				"types": {
					"t_uint256": {
						"encoding": "inplace",
						"label": "uint256",
						"numberOfBytes": "32"
					}
				}
			},
			"userdoc": {
				"kind": "user",
				"methods": {},
				"version": 1
			}
		}
	}
}