{
	"logical_operators1.sol": {
		"LogicalOperators": {
			"abi": [
				{
					"inputs": [],
					"name": "logic",
					"outputs": [
						{
							"internalType": "uint256",
							"name": "",
							"type": "uint256"
						}
					],
					"stateMutability": "view",
					"type": "function"
				}
			],
			"devdoc": {
				"kind": "dev",
				"methods": {},
				"version": 1
			},
			"evm": {
				"assembly": "    /* \"logical_operators1.sol\":219:474  contract LogicalOperators{\r... */\n  mstore(0x40, 0x80)\n    /* \"logical_operators1.sol\":266:268  17 */\n  0x11\n    /* \"logical_operators1.sol\":257:268  uint a = 17 */\n  0x00\n  sstore\n    /* \"logical_operators1.sol\":284:286  32 */\n  0x20\n    /* \"logical_operators1.sol\":275:286  uint b = 32 */\n  0x01\n  sstore\n    /* \"logical_operators1.sol\":219:474  contract LogicalOperators{\r... */\n  callvalue\n  dup1\n  iszero\n  tag_1\n  jumpi\n  0x00\n  dup1\n  revert\ntag_1:\n  pop\n  dataSize(sub_0)\n  dup1\n  dataOffset(sub_0)\n  0x00\n  codecopy\n  0x00\n  return\nstop\n\nsub_0: assembly {\n        /* \"logical_operators1.sol\":219:474  contract LogicalOperators{\r... */\n      mstore(0x40, 0x80)\n      callvalue\n      dup1\n      iszero\n      tag_1\n      jumpi\n      0x00\n      dup1\n      revert\n    tag_1:\n      pop\n      jumpi(tag_2, lt(calldatasize, 0x04))\n      shr(0xe0, calldataload(0x00))\n      dup1\n      0xd7dfa0dd\n      eq\n      tag_3\n      jumpi\n    tag_2:\n      0x00\n      dup1\n      revert\n        /* \"logical_operators1.sol\":295:469  function logic() public view returns(uint){\r... */\n    tag_3:\n      tag_4\n      tag_5\n      jump\t// in\n    tag_4:\n      mload(0x40)\n      tag_6\n      swap2\n      swap1\n      tag_7\n      jump\t// in\n    tag_6:\n      mload(0x40)\n      dup1\n      swap2\n      sub\n      swap1\n      return\n    tag_5:\n        /* \"logical_operators1.sol\":332:336  uint */\n      0x00\n        /* \"logical_operators1.sol\":350:361  uint result */\n      dup1\n        /* \"logical_operators1.sol\":364:365  0 */\n      0x00\n        /* \"logical_operators1.sol\":350:365  uint result = 0 */\n      swap1\n      pop\n        /* \"logical_operators1.sol\":384:385  b */\n      sload(0x01)\n        /* \"logical_operators1.sol\":380:381  a */\n      sload(0x00)\n        /* \"logical_operators1.sol\":380:385  a < b */\n      lt\n        /* \"logical_operators1.sol\":380:395  a < b && a != b */\n      dup1\n      iszero\n      tag_9\n      jumpi\n      pop\n        /* \"logical_operators1.sol\":394:395  b */\n      sload(0x01)\n        /* \"logical_operators1.sol\":389:390  a */\n      sload(0x00)\n        /* \"logical_operators1.sol\":389:395  a != b */\n      eq\n      iszero\n        /* \"logical_operators1.sol\":380:395  a < b && a != b */\n    tag_9:\n        /* \"logical_operators1.sol\":376:436  if( a < b && a != b){\r... */\n      iszero\n      tag_10\n      jumpi\n        /* \"logical_operators1.sol\":423:424  b */\n      sload(0x01)\n        /* \"logical_operators1.sol\":420:421  a */\n      sload(0x00)\n        /* \"logical_operators1.sol\":420:424  a *b */\n      tag_11\n      swap2\n      swap1\n      tag_12\n      jump\t// in\n    tag_11:\n        /* \"logical_operators1.sol\":411:424  result = a *b */\n      swap1\n      pop\n        /* \"logical_operators1.sol\":376:436  if( a < b && a != b){\r... */\n    tag_10:\n        /* \"logical_operators1.sol\":455:461  result */\n      dup1\n        /* \"logical_operators1.sol\":448:461  return result */\n      swap2\n      pop\n      pop\n        /* \"logical_operators1.sol\":295:469  function logic() public view returns(uint){\r... */\n      swap1\n      jump\t// out\n        /* \"#utility.yul\":7:125   */\n    tag_14:\n        /* \"#utility.yul\":94:118   */\n      tag_16\n        /* \"#utility.yul\":112:117   */\n      dup2\n        /* \"#utility.yul\":94:118   */\n      tag_17\n      jump\t// in\n    tag_16:\n        /* \"#utility.yul\":89:92   */\n      dup3\n        /* \"#utility.yul\":82:119   */\n      mstore\n        /* \"#utility.yul\":7:125   */\n      pop\n      pop\n      jump\t// out\n        /* \"#utility.yul\":131:353   */\n    tag_7:\n        /* \"#utility.yul\":224:228   */\n      0x00\n        /* \"#utility.yul\":262:264   */\n      0x20\n        /* \"#utility.yul\":251:260   */\n      dup3\n        /* \"#utility.yul\":247:265   */\n      add\n        /* \"#utility.yul\":239:265   */\n      swap1\n      pop\n        /* \"#utility.yul\":275:346   */\n      tag_19\n        /* \"#utility.yul\":343:344   */\n      0x00\n        /* \"#utility.yul\":332:341   */\n      dup4\n        /* \"#utility.yul\":328:345   */\n      add\n        /* \"#utility.yul\":319:325   */\n      dup5\n        /* \"#utility.yul\":275:346   */\n      tag_14\n      jump\t// in\n    tag_19:\n        /* \"#utility.yul\":131:353   */\n      swap3\n      swap2\n      pop\n      pop\n      jump\t// out\n        /* \"#utility.yul\":359:707   */\n    tag_12:\n        /* \"#utility.yul\":399:406   */\n      0x00\n        /* \"#utility.yul\":422:442   */\n      tag_21\n        /* \"#utility.yul\":440:441   */\n      dup3\n        /* \"#utility.yul\":422:442   */\n      tag_17\n      jump\t// in\n    tag_21:\n        /* \"#utility.yul\":417:442   */\n      swap2\n      pop\n        /* \"#utility.yul\":456:476   */\n      tag_22\n        /* \"#utility.yul\":474:475   */\n      dup4\n        /* \"#utility.yul\":456:476   */\n      tag_17\n      jump\t// in\n    tag_22:\n        /* \"#utility.yul\":451:476   */\n      swap3\n      pop\n        /* \"#utility.yul\":644:645   */\n      dup2\n        /* \"#utility.yul\":576:642   */\n      0xffffffffffffffffffffffffffffffffffffffffffffffffffffffffffffffff\n        /* \"#utility.yul\":572:646   */\n      div\n        /* \"#utility.yul\":569:570   */\n      dup4\n        /* \"#utility.yul\":566:647   */\n      gt\n        /* \"#utility.yul\":561:562   */\n      dup3\n        /* \"#utility.yul\":554:563   */\n      iszero\n        /* \"#utility.yul\":547:564   */\n      iszero\n        /* \"#utility.yul\":543:648   */\n      and\n        /* \"#utility.yul\":540:671   */\n      iszero\n      tag_23\n      jumpi\n        /* \"#utility.yul\":651:669   */\n      tag_24\n      tag_25\n      jump\t// in\n    tag_24:\n        /* \"#utility.yul\":540:671   */\n    tag_23:\n        /* \"#utility.yul\":699:700   */\n      dup3\n        /* \"#utility.yul\":696:697   */\n      dup3\n        /* \"#utility.yul\":692:701   */\n      mul\n        /* \"#utility.yul\":681:701   */\n      swap1\n      pop\n        /* \"#utility.yul\":359:707   */\n      swap3\n      swap2\n      pop\n      pop\n      jump\t// out\n        /* \"#utility.yul\":713:790   */\n    tag_17:\n        /* \"#utility.yul\":750:757   */\n      0x00\n        /* \"#utility.yul\":779:784   */\n      dup2\n        /* \"#utility.yul\":768:784   */\n      swap1\n      pop\n        /* \"#utility.yul\":713:790   */\n      swap2\n      swap1\n      pop\n      jump\t// out\n        /* \"#utility.yul\":796:976   */\n    tag_25:\n        /* \"#utility.yul\":844:921   */\n      0x4e487b7100000000000000000000000000000000000000000000000000000000\n        /* \"#utility.yul\":841:842   */\n      0x00\n        /* \"#utility.yul\":834:922   */\n      mstore\n        /* \"#utility.yul\":941:945   */\n      0x11\n        /* \"#utility.yul\":938:939   */\n      0x04\n        /* \"#utility.yul\":931:946   */\n      mstore\n        /* \"#utility.yul\":965:969   */\n      0x24\n        /* \"#utility.yul\":962:963   */\n      0x00\n        /* \"#utility.yul\":955:970   */\n      revert\n\n    auxdata: 0xa26469706673582212209fae8b5b19a224246e5b46bfda12ba532eb2b45c572fd74a1af2203062642bab64736f6c63430008070033\n}\n",
				"bytecode": {
					"linkReferences": {},
					"object": "60806040526011600055602060015534801561001a57600080fd5b5061017e8061002a6000396000f3fe608060405234801561001057600080fd5b506004361061002b5760003560e01c8063d7dfa0dd14610030575b600080fd5b61003861004e565b604051610045919061009a565b60405180910390f35b6000806000905060015460005410801561006c575060015460005414155b156100845760015460005461008191906100b5565b90505b8091505090565b6100948161010f565b82525050565b60006020820190506100af600083018461008b565b92915050565b60006100c08261010f565b91506100cb8361010f565b9250817fffffffffffffffffffffffffffffffffffffffffffffffffffffffffffffffff048311821515161561010457610103610119565b5b828202905092915050565b6000819050919050565b7f4e487b7100000000000000000000000000000000000000000000000000000000600052601160045260246000fdfea26469706673582212209fae8b5b19a224246e5b46bfda12ba532eb2b45c572fd74a1af2203062642bab64736f6c63430008070033",
					"opcodes": "PUSH1 0x80 PUSH1 0x40 MSTORE PUSH1 0x11 PUSH1 0x0 SSTORE PUSH1 0x20 PUSH1 0x1 SSTORE CALLVALUE DUP1 ISZERO PUSH2 0x1A JUMPI PUSH1 0x0 DUP1 REVERT JUMPDEST POP PUSH2 0x17E DUP1 PUSH2 0x2A PUSH1 0x0 CODECOPY PUSH1 0x0 RETURN INVALID PUSH1 0x80 PUSH1 0x40 MSTORE CALLVALUE DUP1 ISZERO PUSH2 0x10 JUMPI PUSH1 0x0 DUP1 REVERT JUMPDEST POP PUSH1 0x4 CALLDATASIZE LT PUSH2 0x2B JUMPI PUSH1 0x0 CALLDATALOAD PUSH1 0xE0 SHR DUP1 PUSH4 0xD7DFA0DD EQ PUSH2 0x30 JUMPI JUMPDEST PUSH1 0x0 DUP1 REVERT JUMPDEST PUSH2 0x38 PUSH2 0x4E JUMP JUMPDEST PUSH1 0x40 MLOAD PUSH2 0x45 SWAP2 SWAP1 PUSH2 0x9A JUMP JUMPDEST PUSH1 0x40 MLOAD DUP1 SWAP2 SUB SWAP1 RETURN JUMPDEST PUSH1 0x0 DUP1 PUSH1 0x0 SWAP1 POP PUSH1 0x1 SLOAD PUSH1 0x0 SLOAD LT DUP1 ISZERO PUSH2 0x6C JUMPI POP PUSH1 0x1 SLOAD PUSH1 0x0 SLOAD EQ ISZERO JUMPDEST ISZERO PUSH2 0x84 JUMPI PUSH1 0x1 SLOAD PUSH1 0x0 SLOAD PUSH2 0x81 SWAP2 SWAP1 PUSH2 0xB5 JUMP JUMPDEST SWAP1 POP JUMPDEST DUP1 SWAP2 POP POP SWAP1 JUMP JUMPDEST PUSH2 0x94 DUP2 PUSH2 0x10F JUMP JUMPDEST DUP3 MSTORE POP POP JUMP JUMPDEST PUSH1 0x0 PUSH1 0x20 DUP3 ADD SWAP1 POP PUSH2 0xAF PUSH1 0x0 DUP4 ADD DUP5 PUSH2 0x8B JUMP JUMPDEST SWAP3 SWAP2 POP POP JUMP JUMPDEST PUSH1 0x0 PUSH2 0xC0 DUP3 PUSH2 0x10F JUMP JUMPDEST SWAP2 POP PUSH2 0xCB DUP4 PUSH2 0x10F JUMP JUMPDEST SWAP3 POP DUP2 PUSH32 0xFFFFFFFFFFFFFFFFFFFFFFFFFFFFFFFFFFFFFFFFFFFFFFFFFFFFFFFFFFFFFFFF DIV DUP4 GT DUP3 ISZERO ISZERO AND ISZERO PUSH2 0x104 JUMPI PUSH2 0x103 PUSH2 0x119 JUMP JUMPDEST JUMPDEST DUP3 DUP3 MUL SWAP1 POP SWAP3 SWAP2 POP POP JUMP JUMPDEST PUSH1 0x0 DUP2 SWAP1 POP SWAP2 SWAP1 POP JUMP JUMPDEST PUSH32 0x4E487B7100000000000000000000000000000000000000000000000000000000 PUSH1 0x0 MSTORE PUSH1 0x11 PUSH1 0x4 MSTORE PUSH1 0x24 PUSH1 0x0 REVERT INVALID LOG2 PUSH5 0x6970667358 0x22 SLT KECCAK256 SWAP16 0xAE DUP12 JUMPDEST NOT LOG2 0x24 0x24 PUSH15 0x5B46BFDA12BA532EB2B45C572FD74A BYTE CALLCODE KECCAK256 ADDRESS PUSH3 0x642BAB PUSH5 0x736F6C6343 STOP ADDMOD SMOD STOP CALLER "
				},
				"gasEstimates": {
					"creation": {
						"codeDepositCost": "76400",
						"executionCost": "44335",
						"totalCost": "120735"
					},
					"external": {
						"logic()": "infinite"
					}
				},
				"methodIdentifiers": {
					"logic()": "d7dfa0dd"
				}
			},
			"storageLayout": {
				"storage": [
					{
						"astId": 4,
						"contract": "logical_operators1.sol:LogicalOperators",
						"label": "a",
						"offset": 0,
						"slot": "0",
						"type": "t_uint256"
					},
					{
						"astId": 7,
						"contract": "logical_operators1.sol:LogicalOperators",
						"label": "b",
						"offset": 0,
						"slot": "1",
						"type": "t_uint256"
					}
				],
				"types": {
					"t_uint256": {
						"encoding": "inplace",
						"label": "uint256",
						"numberOfBytes": "32"
					}
				}
			},
			"userdoc": {
				"kind": "user",
				"methods": {},
				"version": 1
			}
		}
	}
}