{
	"global_variables.sol": {
		"Updated": {
			"abi": [
				{
					"inputs": [],
					"name": "updatesBalance",
					"outputs": [],
					"stateMutability": "nonpayable",
					"type": "function"
				}
			],
			"devdoc": {
				"kind": "dev",
				"methods": {},
				"version": 1
			},
			"evm": {
				"assembly": "    /* \"global_variables.sol\":1637:1810  contract Updated {\r... */\n  mstore(0x40, 0x80)\n  callvalue\n  dup1\n  iszero\n  tag_1\n  jumpi\n  0x00\n  dup1\n  revert\ntag_1:\n  pop\n  dataSize(sub_0)\n  dup1\n  dataOffset(sub_0)\n  0x00\n  codecopy\n  0x00\n  return\nstop\n\nsub_0: assembly {\n        /* \"global_variables.sol\":1637:1810  contract Updated {\r... */\n      mstore(0x40, 0x80)\n      callvalue\n      dup1\n      iszero\n      tag_1\n      jumpi\n      0x00\n      dup1\n      revert\n    tag_1:\n      pop\n      jumpi(tag_2, lt(calldatasize, 0x04))\n      shr(0xe0, calldataload(0x00))\n      dup1\n      0x22a39bfc\n      eq\n      tag_3\n      jumpi\n    tag_2:\n      0x00\n      dup1\n      revert\n        /* \"global_variables.sol\":1663:1807  function updatesBalance()public{\r... */\n    tag_3:\n      tag_4\n      tag_5\n      jump\t// in\n    tag_4:\n      stop\n    tag_5:\n        /* \"global_variables.sol\":1705:1732  LedgerBalance ledgerBalance */\n      0x00\n        /* \"global_variables.sol\":1735:1754  new LedgerBalance() */\n      mload(0x40)\n      tag_7\n      swap1\n      tag_8\n      jump\t// in\n    tag_7:\n      mload(0x40)\n      dup1\n      swap2\n      sub\n      swap1\n      0x00\n      create\n      dup1\n      iszero\n      dup1\n      iszero\n      tag_9\n      jumpi\n      returndatasize\n      0x00\n      dup1\n      returndatacopy\n      revert(0x00, returndatasize)\n    tag_9:\n      pop\n        /* \"global_variables.sol\":1705:1754  LedgerBalance ledgerBalance = new LedgerBalance() */\n      swap1\n      pop\n        /* \"global_variables.sol\":1765:1778  ledgerBalance */\n      dup1\n        /* \"global_variables.sol\":1765:1793  ledgerBalance.updatesBalance */\n      0xffffffffffffffffffffffffffffffffffffffff\n      and\n      0x17c2b39f\n        /* \"global_variables.sol\":1794:1796  30 */\n      0x1e\n        /* \"global_variables.sol\":1765:1797  ledgerBalance.updatesBalance(30) */\n      mload(0x40)\n      dup3\n      0xffffffff\n      and\n      0xe0\n      shl\n      dup2\n      mstore\n      0x04\n      add\n      tag_10\n      swap2\n      swap1\n      tag_11\n      jump\t// in\n    tag_10:\n      0x00\n      mload(0x40)\n      dup1\n      dup4\n      sub\n      dup2\n      0x00\n      dup8\n      dup1\n      extcodesize\n      iszero\n      dup1\n      iszero\n      tag_12\n      jumpi\n      0x00\n      dup1\n      revert\n    tag_12:\n      pop\n      gas\n      call\n      iszero\n      dup1\n      iszero\n      tag_14\n      jumpi\n      returndatasize\n      0x00\n      dup1\n      returndatacopy\n      revert(0x00, returndatasize)\n    tag_14:\n      pop\n      pop\n      pop\n      pop\n        /* \"global_variables.sol\":1694:1807  {\r... */\n      pop\n        /* \"global_variables.sol\":1663:1807  function updatesBalance()public{\r... */\n      jump\t// out\n    tag_8:\n      dataSize(sub_0)\n      dup1\n      dataOffset(sub_0)\n      dup4\n      codecopy\n      add\n      swap1\n      jump\t// out\n        /* \"#utility.yul\":7:156   */\n    tag_16:\n        /* \"#utility.yul\":103:149   */\n      tag_18\n        /* \"#utility.yul\":143:148   */\n      dup2\n        /* \"#utility.yul\":103:149   */\n      tag_19\n      jump\t// in\n    tag_18:\n        /* \"#utility.yul\":98:101   */\n      dup3\n        /* \"#utility.yul\":91:150   */\n      mstore\n        /* \"#utility.yul\":7:156   */\n      pop\n      pop\n      jump\t// out\n        /* \"#utility.yul\":162:402   */\n    tag_11:\n        /* \"#utility.yul\":264:268   */\n      0x00\n        /* \"#utility.yul\":302:304   */\n      0x20\n        /* \"#utility.yul\":291:300   */\n      dup3\n        /* \"#utility.yul\":287:305   */\n      add\n        /* \"#utility.yul\":279:305   */\n      swap1\n      pop\n        /* \"#utility.yul\":315:395   */\n      tag_21\n        /* \"#utility.yul\":392:393   */\n      0x00\n        /* \"#utility.yul\":381:390   */\n      dup4\n        /* \"#utility.yul\":377:394   */\n      add\n        /* \"#utility.yul\":368:374   */\n      dup5\n        /* \"#utility.yul\":315:395   */\n      tag_16\n      jump\t// in\n    tag_21:\n        /* \"#utility.yul\":162:402   */\n      swap3\n      swap2\n      pop\n      pop\n      jump\t// out\n        /* \"#utility.yul\":408:485   */\n    tag_22:\n        /* \"#utility.yul\":445:452   */\n      0x00\n        /* \"#utility.yul\":474:479   */\n      dup2\n        /* \"#utility.yul\":463:479   */\n      swap1\n      pop\n        /* \"#utility.yul\":408:485   */\n      swap2\n      swap1\n      pop\n      jump\t// out\n        /* \"#utility.yul\":491:613   */\n    tag_19:\n        /* \"#utility.yul\":550:559   */\n      0x00\n        /* \"#utility.yul\":583:607   */\n      tag_25\n        /* \"#utility.yul\":601:606   */\n      dup3\n        /* \"#utility.yul\":583:607   */\n      tag_22\n      jump\t// in\n    tag_25:\n        /* \"#utility.yul\":570:607   */\n      swap1\n      pop\n        /* \"#utility.yul\":491:613   */\n      swap2\n      swap1\n      pop\n      jump\t// out\n    stop\n\n    sub_0: assembly {\n            /* \"global_variables.sol\":551:1029  contract LedgerBalance {\r... */\n          mstore(0x40, 0x80)\n          callvalue\n          dup1\n          iszero\n          tag_1\n          jumpi\n          0x00\n          dup1\n          revert\n        tag_1:\n          pop\n          dataSize(sub_0)\n          dup1\n          dataOffset(sub_0)\n          0x00\n          codecopy\n          0x00\n          return\n        stop\n\n        sub_0: assembly {\n                /* \"global_variables.sol\":551:1029  contract LedgerBalance {\r... */\n              mstore(0x40, 0x80)\n              callvalue\n              dup1\n              iszero\n              tag_1\n              jumpi\n              0x00\n              dup1\n              revert\n            tag_1:\n              pop\n              jumpi(tag_2, lt(calldatasize, 0x04))\n              shr(0xe0, calldataload(0x00))\n              dup1\n              0x17c2b39f\n              eq\n              tag_3\n              jumpi\n            tag_2:\n              0x00\n              dup1\n              revert\n                /* \"global_variables.sol\":745:1024  function updatesBalance( uint newBalance) public {\r... */\n            tag_3:\n              tag_4\n              0x04\n              dup1\n              calldatasize\n              sub\n              dup2\n              add\n              swap1\n              tag_5\n              swap2\n              swap1\n              tag_6\n              jump\t// in\n            tag_5:\n              tag_7\n              jump\t// in\n            tag_4:\n              stop\n            tag_7:\n                /* \"global_variables.sol\":828:838  newBalance */\n              dup1\n                /* \"global_variables.sol\":805:812  balance */\n              0x00\n                /* \"global_variables.sol\":805:824  balance[msg.sender] */\n              dup1\n                /* \"global_variables.sol\":813:823  msg.sender */\n              caller\n                /* \"global_variables.sol\":805:824  balance[msg.sender] */\n              0xffffffffffffffffffffffffffffffffffffffff\n              and\n              0xffffffffffffffffffffffffffffffffffffffff\n              and\n              dup2\n              mstore\n              0x20\n              add\n              swap1\n              dup2\n              mstore\n              0x20\n              add\n              0x00\n              keccak256\n                /* \"global_variables.sol\":805:838  balance[msg.sender] =  newBalance */\n              dup2\n              swap1\n              sstore\n              pop\n                /* \"global_variables.sol\":745:1024  function updatesBalance( uint newBalance) public {\r... */\n              pop\n              jump\t// out\n                /* \"#utility.yul\":7:146   */\n            tag_10:\n                /* \"#utility.yul\":53:58   */\n              0x00\n                /* \"#utility.yul\":91:97   */\n              dup2\n                /* \"#utility.yul\":78:98   */\n              calldataload\n                /* \"#utility.yul\":69:98   */\n              swap1\n              pop\n                /* \"#utility.yul\":107:140   */\n              tag_12\n                /* \"#utility.yul\":134:139   */\n              dup2\n                /* \"#utility.yul\":107:140   */\n              tag_13\n              jump\t// in\n            tag_12:\n                /* \"#utility.yul\":7:146   */\n              swap3\n              swap2\n              pop\n              pop\n              jump\t// out\n                /* \"#utility.yul\":152:481   */\n            tag_6:\n                /* \"#utility.yul\":211:217   */\n              0x00\n                /* \"#utility.yul\":260:262   */\n              0x20\n                /* \"#utility.yul\":248:257   */\n              dup3\n                /* \"#utility.yul\":239:246   */\n              dup5\n                /* \"#utility.yul\":235:258   */\n              sub\n                /* \"#utility.yul\":231:263   */\n              slt\n                /* \"#utility.yul\":228:347   */\n              iszero\n              tag_15\n              jumpi\n                /* \"#utility.yul\":266:345   */\n              tag_16\n              tag_17\n              jump\t// in\n            tag_16:\n                /* \"#utility.yul\":228:347   */\n            tag_15:\n                /* \"#utility.yul\":386:387   */\n              0x00\n                /* \"#utility.yul\":411:464   */\n              tag_18\n                /* \"#utility.yul\":456:463   */\n              dup5\n                /* \"#utility.yul\":447:453   */\n              dup3\n                /* \"#utility.yul\":436:445   */\n              dup6\n                /* \"#utility.yul\":432:454   */\n              add\n                /* \"#utility.yul\":411:464   */\n              tag_10\n              jump\t// in\n            tag_18:\n                /* \"#utility.yul\":401:464   */\n              swap2\n              pop\n                /* \"#utility.yul\":357:474   */\n              pop\n                /* \"#utility.yul\":152:481   */\n              swap3\n              swap2\n              pop\n              pop\n              jump\t// out\n                /* \"#utility.yul\":568:645   */\n            tag_21:\n                /* \"#utility.yul\":605:612   */\n              0x00\n                /* \"#utility.yul\":634:639   */\n              dup2\n                /* \"#utility.yul\":623:639   */\n              swap1\n              pop\n                /* \"#utility.yul\":568:645   */\n              swap2\n              swap1\n              pop\n              jump\t// out\n                /* \"#utility.yul\":774:891   */\n            tag_17:\n                /* \"#utility.yul\":883:884   */\n              0x00\n                /* \"#utility.yul\":880:881   */\n              dup1\n                /* \"#utility.yul\":873:885   */\n              revert\n                /* \"#utility.yul\":897:1019   */\n            tag_13:\n                /* \"#utility.yul\":970:994   */\n              tag_27\n                /* \"#utility.yul\":988:993   */\n              dup2\n                /* \"#utility.yul\":970:994   */\n              tag_21\n              jump\t// in\n            tag_27:\n                /* \"#utility.yul\":963:968   */\n              dup2\n                /* \"#utility.yul\":960:995   */\n              eq\n                /* \"#utility.yul\":950:1013   */\n              tag_28\n              jumpi\n                /* \"#utility.yul\":1009:1010   */\n              0x00\n                /* \"#utility.yul\":1006:1007   */\n              dup1\n                /* \"#utility.yul\":999:1011   */\n              revert\n                /* \"#utility.yul\":950:1013   */\n            tag_28:\n                /* \"#utility.yul\":897:1019   */\n              pop\n              jump\t// out\n\n            auxdata: 0xa2646970667358221220e0876d142698f3e21870cd789d5fd7d0eb7d83014f07a4da245314046106190164736f6c63430008070033\n        }\n    }\n\n    auxdata: 0xa2646970667358221220b15753b86b7f1b3ed384eacf0f44bd86abb0299e5bad53bf57da9e2ec37aca3164736f6c63430008070033\n}\n",
				"bytecode": {
					"linkReferences": {},
					"object": "608060405234801561001057600080fd5b5061029e806100206000396000f3fe608060405234801561001057600080fd5b506004361061002b5760003560e01c806322a39bfc14610030575b600080fd5b61003861003a565b005b6000604051610048906100d6565b604051809103906000f080158015610064573d6000803e3d6000fd5b5090508073ffffffffffffffffffffffffffffffffffffffff166317c2b39f601e6040518263ffffffff1660e01b81526004016100a191906100f2565b600060405180830381600087803b1580156100bb57600080fd5b505af11580156100cf573d6000803e3d6000fd5b5050505050565b61013f8061012a83390190565b6100ec81610117565b82525050565b600060208201905061010760008301846100e3565b92915050565b6000819050919050565b60006101228261010d565b905091905056fe608060405234801561001057600080fd5b5061011f806100206000396000f3fe6080604052348015600f57600080fd5b506004361060285760003560e01c806317c2b39f14602d575b600080fd5b60436004803603810190603f9190609e565b6045565b005b806000803373ffffffffffffffffffffffffffffffffffffffff1673ffffffffffffffffffffffffffffffffffffffff1681526020019081526020016000208190555050565b60008135905060988160d5565b92915050565b60006020828403121560b15760b060d0565b5b600060bd84828501608b565b91505092915050565b6000819050919050565b600080fd5b60dc8160c6565b811460e657600080fd5b5056fea2646970667358221220e0876d142698f3e21870cd789d5fd7d0eb7d83014f07a4da245314046106190164736f6c63430008070033a2646970667358221220b15753b86b7f1b3ed384eacf0f44bd86abb0299e5bad53bf57da9e2ec37aca3164736f6c63430008070033",
					"opcodes": "PUSH1 0x80 PUSH1 0x40 MSTORE CALLVALUE DUP1 ISZERO PUSH2 0x10 JUMPI PUSH1 0x0 DUP1 REVERT JUMPDEST POP PUSH2 0x29E DUP1 PUSH2 0x20 PUSH1 0x0 CODECOPY PUSH1 0x0 RETURN INVALID PUSH1 0x80 PUSH1 0x40 MSTORE CALLVALUE DUP1 ISZERO PUSH2 0x10 JUMPI PUSH1 0x0 DUP1 REVERT JUMPDEST POP PUSH1 0x4 CALLDATASIZE LT PUSH2 0x2B JUMPI PUSH1 0x0 CALLDATALOAD PUSH1 0xE0 SHR DUP1 PUSH4 0x22A39BFC EQ PUSH2 0x30 JUMPI JUMPDEST PUSH1 0x0 DUP1 REVERT JUMPDEST PUSH2 0x38 PUSH2 0x3A JUMP JUMPDEST STOP JUMPDEST PUSH1 0x0 PUSH1 0x40 MLOAD PUSH2 0x48 SWAP1 PUSH2 0xD6 JUMP JUMPDEST PUSH1 0x40 MLOAD DUP1 SWAP2 SUB SWAP1 PUSH1 0x0 CREATE DUP1 ISZERO DUP1 ISZERO PUSH2 0x64 JUMPI RETURNDATASIZE PUSH1 0x0 DUP1 RETURNDATACOPY RETURNDATASIZE PUSH1 0x0 REVERT JUMPDEST POP SWAP1 POP DUP1 PUSH20 0xFFFFFFFFFFFFFFFFFFFFFFFFFFFFFFFFFFFFFFFF AND PUSH4 0x17C2B39F PUSH1 0x1E PUSH1 0x40 MLOAD DUP3 PUSH4 0xFFFFFFFF AND PUSH1 0xE0 SHL DUP2 MSTORE PUSH1 0x4 ADD PUSH2 0xA1 SWAP2 SWAP1 PUSH2 0xF2 JUMP JUMPDEST PUSH1 0x0 PUSH1 0x40 MLOAD DUP1 DUP4 SUB DUP2 PUSH1 0x0 DUP8 DUP1 EXTCODESIZE ISZERO DUP1 ISZERO PUSH2 0xBB JUMPI PUSH1 0x0 DUP1 REVERT JUMPDEST POP GAS CALL ISZERO DUP1 ISZERO PUSH2 0xCF JUMPI RETURNDATASIZE PUSH1 0x0 DUP1 RETURNDATACOPY RETURNDATASIZE PUSH1 0x0 REVERT JUMPDEST POP POP POP POP POP JUMP JUMPDEST PUSH2 0x13F DUP1 PUSH2 0x12A DUP4 CODECOPY ADD SWAP1 JUMP JUMPDEST PUSH2 0xEC DUP2 PUSH2 0x117 JUMP JUMPDEST DUP3 MSTORE POP POP JUMP JUMPDEST PUSH1 0x0 PUSH1 0x20 DUP3 ADD SWAP1 POP PUSH2 0x107 PUSH1 0x0 DUP4 ADD DUP5 PUSH2 0xE3 JUMP JUMPDEST SWAP3 SWAP2 POP POP JUMP JUMPDEST PUSH1 0x0 DUP2 SWAP1 POP SWAP2 SWAP1 POP JUMP JUMPDEST PUSH1 0x0 PUSH2 0x122 DUP3 PUSH2 0x10D JUMP JUMPDEST SWAP1 POP SWAP2 SWAP1 POP JUMP INVALID PUSH1 0x80 PUSH1 0x40 MSTORE CALLVALUE DUP1 ISZERO PUSH2 0x10 JUMPI PUSH1 0x0 DUP1 REVERT JUMPDEST POP PUSH2 0x11F DUP1 PUSH2 0x20 PUSH1 0x0 CODECOPY PUSH1 0x0 RETURN INVALID PUSH1 0x80 PUSH1 0x40 MSTORE CALLVALUE DUP1 ISZERO PUSH1 0xF JUMPI PUSH1 0x0 DUP1 REVERT JUMPDEST POP PUSH1 0x4 CALLDATASIZE LT PUSH1 0x28 JUMPI PUSH1 0x0 CALLDATALOAD PUSH1 0xE0 SHR DUP1 PUSH4 0x17C2B39F EQ PUSH1 0x2D JUMPI JUMPDEST PUSH1 0x0 DUP1 REVERT JUMPDEST PUSH1 0x43 PUSH1 0x4 DUP1 CALLDATASIZE SUB DUP2 ADD SWAP1 PUSH1 0x3F SWAP2 SWAP1 PUSH1 0x9E JUMP JUMPDEST PUSH1 0x45 JUMP JUMPDEST STOP JUMPDEST DUP1 PUSH1 0x0 DUP1 CALLER PUSH20 0xFFFFFFFFFFFFFFFFFFFFFFFFFFFFFFFFFFFFFFFF AND PUSH20 0xFFFFFFFFFFFFFFFFFFFFFFFFFFFFFFFFFFFFFFFF AND DUP2 MSTORE PUSH1 0x20 ADD SWAP1 DUP2 MSTORE PUSH1 0x20 ADD PUSH1 0x0 KECCAK256 DUP2 SWAP1 SSTORE POP POP JUMP JUMPDEST PUSH1 0x0 DUP2 CALLDATALOAD SWAP1 POP PUSH1 0x98 DUP2 PUSH1 0xD5 JUMP JUMPDEST SWAP3 SWAP2 POP POP JUMP JUMPDEST PUSH1 0x0 PUSH1 0x20 DUP3 DUP5 SUB SLT ISZERO PUSH1 0xB1 JUMPI PUSH1 0xB0 PUSH1 0xD0 JUMP JUMPDEST JUMPDEST PUSH1 0x0 PUSH1 0xBD DUP5 DUP3 DUP6 ADD PUSH1 0x8B JUMP JUMPDEST SWAP2 POP POP SWAP3 SWAP2 POP POP JUMP JUMPDEST PUSH1 0x0 DUP2 SWAP1 POP SWAP2 SWAP1 POP JUMP JUMPDEST PUSH1 0x0 DUP1 REVERT JUMPDEST PUSH1 0xDC DUP2 PUSH1 0xC6 JUMP JUMPDEST DUP2 EQ PUSH1 0xE6 JUMPI PUSH1 0x0 DUP1 REVERT JUMPDEST POP JUMP INVALID LOG2 PUSH5 0x6970667358 0x22 SLT KECCAK256 0xE0 DUP8 PUSH14 0x142698F3E21870CD789D5FD7D0EB PUSH30 0x83014F07A4DA245314046106190164736F6C63430008070033A264697066 PUSH20 0x58221220B15753B86B7F1B3ED384EACF0F44BD86 0xAB 0xB0 0x29 SWAP15 JUMPDEST 0xAD MSTORE8 0xBF JUMPI 0xDA SWAP15 0x2E 0xC3 PUSH27 0xCA3164736F6C634300080700330000000000000000000000000000 "
				},
				"gasEstimates": {
					"creation": {
						"codeDepositCost": "134000",
						"executionCost": "177",
						"totalCost": "134177"
					},
					"external": {
						"updatesBalance()": "infinite"
					}
				},
				"methodIdentifiers": {
					"updatesBalance()": "22a39bfc"
				}
			},
			"storageLayout": {
				"storage": [],
				"types": null
			},
			"userdoc": {
				"kind": "user",
				"methods": {},
				"version": 1
			}
		}
	}
}