{
	"nested_mapping.sol": {
		"LearnNestedMapping": {
			"abi": [
				{
					"inputs": [
						{
							"internalType": "uint256",
							"name": "id",
							"type": "uint256"
						},
						{
							"internalType": "string",
							"name": "title",
							"type": "string"
						},
						{
							"internalType": "string",
							"name": "director",
							"type": "string"
						}
					],
					"name": "addMovie",
					"outputs": [],
					"stateMutability": "nonpayable",
					"type": "function"
				},
				{
					"inputs": [
						{
							"internalType": "uint256",
							"name": "",
							"type": "uint256"
						}
					],
					"name": "movie",
					"outputs": [
						{
							"internalType": "string",
							"name": "title",
							"type": "string"
						},
						{
							"internalType": "string",
							"name": "director",
							"type": "string"
						}
					],
					"stateMutability": "view",
					"type": "function"
				},
				{
					"inputs": [
						{
							"internalType": "address",
							"name": "",
							"type": "address"
						},
						{
							"internalType": "uint256",
							"name": "",
							"type": "uint256"
						}
					],
					"name": "myMovie",
					"outputs": [
						{
							"internalType": "string",
							"name": "title",
							"type": "string"
						},
						{
							"internalType": "string",
							"name": "director",
							"type": "string"
						}
					],
					"stateMutability": "view",
					"type": "function"
				}
			],
			"devdoc": {
				"kind": "dev",
				"methods": {},
				"version": 1
			},
			"evm": {
				"assembly": "    /* \"nested_mapping.sol\":405:1023  contract LearnNestedMapping{... */\n  mstore(0x40, 0x80)\n  callvalue\n  dup1\n  iszero\n  tag_1\n  jumpi\n  0x00\n  dup1\n  revert\ntag_1:\n  pop\n  dataSize(sub_0)\n  dup1\n  dataOffset(sub_0)\n  0x00\n  codecopy\n  0x00\n  return\nstop\n\nsub_0: assembly {\n        /* \"nested_mapping.sol\":405:1023  contract LearnNestedMapping{... */\n      mstore(0x40, 0x80)\n      callvalue\n      dup1\n      iszero\n      tag_1\n      jumpi\n      0x00\n      dup1\n      revert\n    tag_1:\n      pop\n      jumpi(tag_2, lt(calldatasize, 0x04))\n      shr(0xe0, calldataload(0x00))\n      dup1\n      0x11f72990\n      eq\n      tag_3\n      jumpi\n      dup1\n      0xd87ec417\n      eq\n      tag_4\n      jumpi\n      dup1\n      0xf40f48c9\n      eq\n      tag_5\n      jumpi\n    tag_2:\n      0x00\n      dup1\n      revert\n        /* \"nested_mapping.sol\":560:617  mapping(address => mapping(uint => Movie)) public myMovie */\n    tag_3:\n      tag_6\n      0x04\n      dup1\n      calldatasize\n      sub\n      dup2\n      add\n      swap1\n      tag_7\n      swap2\n      swap1\n      tag_8\n      jump\t// in\n    tag_7:\n      tag_9\n      jump\t// in\n    tag_6:\n      mload(0x40)\n      tag_10\n      swap3\n      swap2\n      swap1\n      tag_11\n      jump\t// in\n    tag_10:\n      mload(0x40)\n      dup1\n      swap2\n      sub\n      swap1\n      return\n        /* \"nested_mapping.sol\":518:553  mapping(uint => Movie) public movie */\n    tag_4:\n      tag_12\n      0x04\n      dup1\n      calldatasize\n      sub\n      dup2\n      add\n      swap1\n      tag_13\n      swap2\n      swap1\n      tag_14\n      jump\t// in\n    tag_13:\n      tag_15\n      jump\t// in\n    tag_12:\n      mload(0x40)\n      tag_16\n      swap3\n      swap2\n      swap1\n      tag_11\n      jump\t// in\n    tag_16:\n      mload(0x40)\n      dup1\n      swap2\n      sub\n      swap1\n      return\n        /* \"nested_mapping.sol\":695:1020  function addMovie(uint id, string memory title, string memory director) public{... */\n    tag_5:\n      tag_17\n      0x04\n      dup1\n      calldatasize\n      sub\n      dup2\n      add\n      swap1\n      tag_18\n      swap2\n      swap1\n      tag_19\n      jump\t// in\n    tag_18:\n      tag_20\n      jump\t// in\n    tag_17:\n      stop\n        /* \"nested_mapping.sol\":560:617  mapping(address => mapping(uint => Movie)) public myMovie */\n    tag_9:\n      mstore(0x20, 0x01)\n      dup2\n      0x00\n      mstore\n      mstore(0x20, keccak256(0x00, 0x40))\n      dup1\n      0x00\n      mstore\n      keccak256(0x00, 0x40)\n      0x00\n      swap2\n      pop\n      swap2\n      pop\n      pop\n      dup1\n      0x00\n      add\n      dup1\n      sload\n      tag_21\n      swap1\n      tag_22\n      jump\t// in\n    tag_21:\n      dup1\n      0x1f\n      add\n      0x20\n      dup1\n      swap2\n      div\n      mul\n      0x20\n      add\n      mload(0x40)\n      swap1\n      dup2\n      add\n      0x40\n      mstore\n      dup1\n      swap3\n      swap2\n      swap1\n      dup2\n      dup2\n      mstore\n      0x20\n      add\n      dup3\n      dup1\n      sload\n      tag_23\n      swap1\n      tag_22\n      jump\t// in\n    tag_23:\n      dup1\n      iszero\n      tag_24\n      jumpi\n      dup1\n      0x1f\n      lt\n      tag_25\n      jumpi\n      0x0100\n      dup1\n      dup4\n      sload\n      div\n      mul\n      dup4\n      mstore\n      swap2\n      0x20\n      add\n      swap2\n      jump(tag_24)\n    tag_25:\n      dup3\n      add\n      swap2\n      swap1\n      0x00\n      mstore\n      keccak256(0x00, 0x20)\n      swap1\n    tag_26:\n      dup2\n      sload\n      dup2\n      mstore\n      swap1\n      0x01\n      add\n      swap1\n      0x20\n      add\n      dup1\n      dup4\n      gt\n      tag_26\n      jumpi\n      dup3\n      swap1\n      sub\n      0x1f\n      and\n      dup3\n      add\n      swap2\n    tag_24:\n      pop\n      pop\n      pop\n      pop\n      pop\n      swap1\n      dup1\n      0x01\n      add\n      dup1\n      sload\n      tag_27\n      swap1\n      tag_22\n      jump\t// in\n    tag_27:\n      dup1\n      0x1f\n      add\n      0x20\n      dup1\n      swap2\n      div\n      mul\n      0x20\n      add\n      mload(0x40)\n      swap1\n      dup2\n      add\n      0x40\n      mstore\n      dup1\n      swap3\n      swap2\n      swap1\n      dup2\n      dup2\n      mstore\n      0x20\n      add\n      dup3\n      dup1\n      sload\n      tag_28\n      swap1\n      tag_22\n      jump\t// in\n    tag_28:\n      dup1\n      iszero\n      tag_29\n      jumpi\n      dup1\n      0x1f\n      lt\n      tag_30\n      jumpi\n      0x0100\n      dup1\n      dup4\n      sload\n      div\n      mul\n      dup4\n      mstore\n      swap2\n      0x20\n      add\n      swap2\n      jump(tag_29)\n    tag_30:\n      dup3\n      add\n      swap2\n      swap1\n      0x00\n      mstore\n      keccak256(0x00, 0x20)\n      swap1\n    tag_31:\n      dup2\n      sload\n      dup2\n      mstore\n      swap1\n      0x01\n      add\n      swap1\n      0x20\n      add\n      dup1\n      dup4\n      gt\n      tag_31\n      jumpi\n      dup3\n      swap1\n      sub\n      0x1f\n      and\n      dup3\n      add\n      swap2\n    tag_29:\n      pop\n      pop\n      pop\n      pop\n      pop\n      swap1\n      pop\n      dup3\n      jump\t// out\n        /* \"nested_mapping.sol\":518:553  mapping(uint => Movie) public movie */\n    tag_15:\n      mstore(0x20, 0x00)\n      dup1\n      0x00\n      mstore\n      keccak256(0x00, 0x40)\n      0x00\n      swap2\n      pop\n      swap1\n      pop\n      dup1\n      0x00\n      add\n      dup1\n      sload\n      tag_32\n      swap1\n      tag_22\n      jump\t// in\n    tag_32:\n      dup1\n      0x1f\n      add\n      0x20\n      dup1\n      swap2\n      div\n      mul\n      0x20\n      add\n      mload(0x40)\n      swap1\n      dup2\n      add\n      0x40\n      mstore\n      dup1\n      swap3\n      swap2\n      swap1\n      dup2\n      dup2\n      mstore\n      0x20\n      add\n      dup3\n      dup1\n      sload\n      tag_33\n      swap1\n      tag_22\n      jump\t// in\n    tag_33:\n      dup1\n      iszero\n      tag_34\n      jumpi\n      dup1\n      0x1f\n      lt\n      tag_35\n      jumpi\n      0x0100\n      dup1\n      dup4\n      sload\n      div\n      mul\n      dup4\n      mstore\n      swap2\n      0x20\n      add\n      swap2\n      jump(tag_34)\n    tag_35:\n      dup3\n      add\n      swap2\n      swap1\n      0x00\n      mstore\n      keccak256(0x00, 0x20)\n      swap1\n    tag_36:\n      dup2\n      sload\n      dup2\n      mstore\n      swap1\n      0x01\n      add\n      swap1\n      0x20\n      add\n      dup1\n      dup4\n      gt\n      tag_36\n      jumpi\n      dup3\n      swap1\n      sub\n      0x1f\n      and\n      dup3\n      add\n      swap2\n    tag_34:\n      pop\n      pop\n      pop\n      pop\n      pop\n      swap1\n      dup1\n      0x01\n      add\n      dup1\n      sload\n      tag_37\n      swap1\n      tag_22\n      jump\t// in\n    tag_37:\n      dup1\n      0x1f\n      add\n      0x20\n      dup1\n      swap2\n      div\n      mul\n      0x20\n      add\n      mload(0x40)\n      swap1\n      dup2\n      add\n      0x40\n      mstore\n      dup1\n      swap3\n      swap2\n      swap1\n      dup2\n      dup2\n      mstore\n      0x20\n      add\n      dup3\n      dup1\n      sload\n      tag_38\n      swap1\n      tag_22\n      jump\t// in\n    tag_38:\n      dup1\n      iszero\n      tag_39\n      jumpi\n      dup1\n      0x1f\n      lt\n      tag_40\n      jumpi\n      0x0100\n      dup1\n      dup4\n      sload\n      div\n      mul\n      dup4\n      mstore\n      swap2\n      0x20\n      add\n      swap2\n      jump(tag_39)\n    tag_40:\n      dup3\n      add\n      swap2\n      swap1\n      0x00\n      mstore\n      keccak256(0x00, 0x20)\n      swap1\n    tag_41:\n      dup2\n      sload\n      dup2\n      mstore\n      swap1\n      0x01\n      add\n      swap1\n      0x20\n      add\n      dup1\n      dup4\n      gt\n      tag_41\n      jumpi\n      dup3\n      swap1\n      sub\n      0x1f\n      and\n      dup3\n      add\n      swap2\n    tag_39:\n      pop\n      pop\n      pop\n      pop\n      pop\n      swap1\n      pop\n      dup3\n      jump\t// out\n        /* \"nested_mapping.sol\":695:1020  function addMovie(uint id, string memory title, string memory director) public{... */\n    tag_20:\n        /* \"nested_mapping.sol\":810:832  Movie(title, director) */\n      mload(0x40)\n      dup1\n      0x40\n      add\n      0x40\n      mstore\n      dup1\n        /* \"nested_mapping.sol\":816:821  title */\n      dup4\n        /* \"nested_mapping.sol\":810:832  Movie(title, director) */\n      dup2\n      mstore\n      0x20\n      add\n        /* \"nested_mapping.sol\":823:831  director */\n      dup3\n        /* \"nested_mapping.sol\":810:832  Movie(title, director) */\n      dup2\n      mstore\n      pop\n        /* \"nested_mapping.sol\":784:791  myMovie */\n      0x01\n        /* \"nested_mapping.sol\":784:803  myMovie[msg.sender] */\n      0x00\n        /* \"nested_mapping.sol\":792:802  msg.sender */\n      caller\n        /* \"nested_mapping.sol\":784:803  myMovie[msg.sender] */\n      0xffffffffffffffffffffffffffffffffffffffff\n      and\n      0xffffffffffffffffffffffffffffffffffffffff\n      and\n      dup2\n      mstore\n      0x20\n      add\n      swap1\n      dup2\n      mstore\n      0x20\n      add\n      0x00\n      keccak256\n        /* \"nested_mapping.sol\":784:807  myMovie[msg.sender][id] */\n      0x00\n        /* \"nested_mapping.sol\":804:806  id */\n      dup6\n        /* \"nested_mapping.sol\":784:807  myMovie[msg.sender][id] */\n      dup2\n      mstore\n      0x20\n      add\n      swap1\n      dup2\n      mstore\n      0x20\n      add\n      0x00\n      keccak256\n        /* \"nested_mapping.sol\":784:832  myMovie[msg.sender][id] = Movie(title, director) */\n      0x00\n      dup3\n      add\n      mload\n      dup2\n      0x00\n      add\n      swap1\n      dup2\n      tag_43\n      swap2\n      swap1\n      tag_44\n      jump\t// in\n    tag_43:\n      pop\n      0x20\n      dup3\n      add\n      mload\n      dup2\n      0x01\n      add\n      swap1\n      dup2\n      tag_45\n      swap2\n      swap1\n      tag_44\n      jump\t// in\n    tag_45:\n      pop\n      swap1\n      pop\n      pop\n        /* \"nested_mapping.sol\":695:1020  function addMovie(uint id, string memory title, string memory director) public{... */\n      pop\n      pop\n      pop\n      jump\t// out\n        /* \"#utility.yul\":7:82   */\n    tag_46:\n        /* \"#utility.yul\":40:46   */\n      0x00\n        /* \"#utility.yul\":73:75   */\n      0x40\n        /* \"#utility.yul\":67:76   */\n      mload\n        /* \"#utility.yul\":57:76   */\n      swap1\n      pop\n        /* \"#utility.yul\":7:82   */\n      swap1\n      jump\t// out\n        /* \"#utility.yul\":88:205   */\n    tag_47:\n        /* \"#utility.yul\":197:198   */\n      0x00\n        /* \"#utility.yul\":194:195   */\n      dup1\n        /* \"#utility.yul\":187:199   */\n      revert\n        /* \"#utility.yul\":211:328   */\n    tag_48:\n        /* \"#utility.yul\":320:321   */\n      0x00\n        /* \"#utility.yul\":317:318   */\n      dup1\n        /* \"#utility.yul\":310:322   */\n      revert\n        /* \"#utility.yul\":334:460   */\n    tag_49:\n        /* \"#utility.yul\":371:378   */\n      0x00\n        /* \"#utility.yul\":411:453   */\n      0xffffffffffffffffffffffffffffffffffffffff\n        /* \"#utility.yul\":404:409   */\n      dup3\n        /* \"#utility.yul\":400:454   */\n      and\n        /* \"#utility.yul\":389:454   */\n      swap1\n      pop\n        /* \"#utility.yul\":334:460   */\n      swap2\n      swap1\n      pop\n      jump\t// out\n        /* \"#utility.yul\":466:562   */\n    tag_50:\n        /* \"#utility.yul\":503:510   */\n      0x00\n        /* \"#utility.yul\":532:556   */\n      tag_92\n        /* \"#utility.yul\":550:555   */\n      dup3\n        /* \"#utility.yul\":532:556   */\n      tag_49\n      jump\t// in\n    tag_92:\n        /* \"#utility.yul\":521:556   */\n      swap1\n      pop\n        /* \"#utility.yul\":466:562   */\n      swap2\n      swap1\n      pop\n      jump\t// out\n        /* \"#utility.yul\":568:690   */\n    tag_51:\n        /* \"#utility.yul\":641:665   */\n      tag_94\n        /* \"#utility.yul\":659:664   */\n      dup2\n        /* \"#utility.yul\":641:665   */\n      tag_50\n      jump\t// in\n    tag_94:\n        /* \"#utility.yul\":634:639   */\n      dup2\n        /* \"#utility.yul\":631:666   */\n      eq\n        /* \"#utility.yul\":621:684   */\n      tag_95\n      jumpi\n        /* \"#utility.yul\":680:681   */\n      0x00\n        /* \"#utility.yul\":677:678   */\n      dup1\n        /* \"#utility.yul\":670:682   */\n      revert\n        /* \"#utility.yul\":621:684   */\n    tag_95:\n        /* \"#utility.yul\":568:690   */\n      pop\n      jump\t// out\n        /* \"#utility.yul\":696:835   */\n    tag_52:\n        /* \"#utility.yul\":742:747   */\n      0x00\n        /* \"#utility.yul\":780:786   */\n      dup2\n        /* \"#utility.yul\":767:787   */\n      calldataload\n        /* \"#utility.yul\":758:787   */\n      swap1\n      pop\n        /* \"#utility.yul\":796:829   */\n      tag_97\n        /* \"#utility.yul\":823:828   */\n      dup2\n        /* \"#utility.yul\":796:829   */\n      tag_51\n      jump\t// in\n    tag_97:\n        /* \"#utility.yul\":696:835   */\n      swap3\n      swap2\n      pop\n      pop\n      jump\t// out\n        /* \"#utility.yul\":841:918   */\n    tag_53:\n        /* \"#utility.yul\":878:885   */\n      0x00\n        /* \"#utility.yul\":907:912   */\n      dup2\n        /* \"#utility.yul\":896:912   */\n      swap1\n      pop\n        /* \"#utility.yul\":841:918   */\n      swap2\n      swap1\n      pop\n      jump\t// out\n        /* \"#utility.yul\":924:1046   */\n    tag_54:\n        /* \"#utility.yul\":997:1021   */\n      tag_100\n        /* \"#utility.yul\":1015:1020   */\n      dup2\n        /* \"#utility.yul\":997:1021   */\n      tag_53\n      jump\t// in\n    tag_100:\n        /* \"#utility.yul\":990:995   */\n      dup2\n        /* \"#utility.yul\":987:1022   */\n      eq\n        /* \"#utility.yul\":977:1040   */\n      tag_101\n      jumpi\n        /* \"#utility.yul\":1036:1037   */\n      0x00\n        /* \"#utility.yul\":1033:1034   */\n      dup1\n        /* \"#utility.yul\":1026:1038   */\n      revert\n        /* \"#utility.yul\":977:1040   */\n    tag_101:\n        /* \"#utility.yul\":924:1046   */\n      pop\n      jump\t// out\n        /* \"#utility.yul\":1052:1191   */\n    tag_55:\n        /* \"#utility.yul\":1098:1103   */\n      0x00\n        /* \"#utility.yul\":1136:1142   */\n      dup2\n        /* \"#utility.yul\":1123:1143   */\n      calldataload\n        /* \"#utility.yul\":1114:1143   */\n      swap1\n      pop\n        /* \"#utility.yul\":1152:1185   */\n      tag_103\n        /* \"#utility.yul\":1179:1184   */\n      dup2\n        /* \"#utility.yul\":1152:1185   */\n      tag_54\n      jump\t// in\n    tag_103:\n        /* \"#utility.yul\":1052:1191   */\n      swap3\n      swap2\n      pop\n      pop\n      jump\t// out\n        /* \"#utility.yul\":1197:1671   */\n    tag_8:\n        /* \"#utility.yul\":1265:1271   */\n      0x00\n        /* \"#utility.yul\":1273:1279   */\n      dup1\n        /* \"#utility.yul\":1322:1324   */\n      0x40\n        /* \"#utility.yul\":1310:1319   */\n      dup4\n        /* \"#utility.yul\":1301:1308   */\n      dup6\n        /* \"#utility.yul\":1297:1320   */\n      sub\n        /* \"#utility.yul\":1293:1325   */\n      slt\n        /* \"#utility.yul\":1290:1409   */\n      iszero\n      tag_105\n      jumpi\n        /* \"#utility.yul\":1328:1407   */\n      tag_106\n      tag_47\n      jump\t// in\n    tag_106:\n        /* \"#utility.yul\":1290:1409   */\n    tag_105:\n        /* \"#utility.yul\":1448:1449   */\n      0x00\n        /* \"#utility.yul\":1473:1526   */\n      tag_107\n        /* \"#utility.yul\":1518:1525   */\n      dup6\n        /* \"#utility.yul\":1509:1515   */\n      dup3\n        /* \"#utility.yul\":1498:1507   */\n      dup7\n        /* \"#utility.yul\":1494:1516   */\n      add\n        /* \"#utility.yul\":1473:1526   */\n      tag_52\n      jump\t// in\n    tag_107:\n        /* \"#utility.yul\":1463:1526   */\n      swap3\n      pop\n        /* \"#utility.yul\":1419:1536   */\n      pop\n        /* \"#utility.yul\":1575:1577   */\n      0x20\n        /* \"#utility.yul\":1601:1654   */\n      tag_108\n        /* \"#utility.yul\":1646:1653   */\n      dup6\n        /* \"#utility.yul\":1637:1643   */\n      dup3\n        /* \"#utility.yul\":1626:1635   */\n      dup7\n        /* \"#utility.yul\":1622:1644   */\n      add\n        /* \"#utility.yul\":1601:1654   */\n      tag_55\n      jump\t// in\n    tag_108:\n        /* \"#utility.yul\":1591:1654   */\n      swap2\n      pop\n        /* \"#utility.yul\":1546:1664   */\n      pop\n        /* \"#utility.yul\":1197:1671   */\n      swap3\n      pop\n      swap3\n      swap1\n      pop\n      jump\t// out\n        /* \"#utility.yul\":1677:1776   */\n    tag_56:\n        /* \"#utility.yul\":1729:1735   */\n      0x00\n        /* \"#utility.yul\":1763:1768   */\n      dup2\n        /* \"#utility.yul\":1757:1769   */\n      mload\n        /* \"#utility.yul\":1747:1769   */\n      swap1\n      pop\n        /* \"#utility.yul\":1677:1776   */\n      swap2\n      swap1\n      pop\n      jump\t// out\n        /* \"#utility.yul\":1782:1951   */\n    tag_57:\n        /* \"#utility.yul\":1866:1877   */\n      0x00\n        /* \"#utility.yul\":1900:1906   */\n      dup3\n        /* \"#utility.yul\":1895:1898   */\n      dup3\n        /* \"#utility.yul\":1888:1907   */\n      mstore\n        /* \"#utility.yul\":1940:1944   */\n      0x20\n        /* \"#utility.yul\":1935:1938   */\n      dup3\n        /* \"#utility.yul\":1931:1945   */\n      add\n        /* \"#utility.yul\":1916:1945   */\n      swap1\n      pop\n        /* \"#utility.yul\":1782:1951   */\n      swap3\n      swap2\n      pop\n      pop\n      jump\t// out\n        /* \"#utility.yul\":1957:2203   */\n    tag_58:\n        /* \"#utility.yul\":2038:2039   */\n      0x00\n        /* \"#utility.yul\":2048:2161   */\n    tag_112:\n        /* \"#utility.yul\":2062:2068   */\n      dup4\n        /* \"#utility.yul\":2059:2060   */\n      dup2\n        /* \"#utility.yul\":2056:2069   */\n      lt\n        /* \"#utility.yul\":2048:2161   */\n      iszero\n      tag_114\n      jumpi\n        /* \"#utility.yul\":2147:2148   */\n      dup1\n        /* \"#utility.yul\":2142:2145   */\n      dup3\n        /* \"#utility.yul\":2138:2149   */\n      add\n        /* \"#utility.yul\":2132:2150   */\n      mload\n        /* \"#utility.yul\":2128:2129   */\n      dup2\n        /* \"#utility.yul\":2123:2126   */\n      dup5\n        /* \"#utility.yul\":2119:2130   */\n      add\n        /* \"#utility.yul\":2112:2151   */\n      mstore\n        /* \"#utility.yul\":2084:2086   */\n      0x20\n        /* \"#utility.yul\":2081:2082   */\n      dup2\n        /* \"#utility.yul\":2077:2087   */\n      add\n        /* \"#utility.yul\":2072:2087   */\n      swap1\n      pop\n        /* \"#utility.yul\":2048:2161   */\n      jump(tag_112)\n    tag_114:\n        /* \"#utility.yul\":2195:2196   */\n      0x00\n        /* \"#utility.yul\":2186:2192   */\n      dup5\n        /* \"#utility.yul\":2181:2184   */\n      dup5\n        /* \"#utility.yul\":2177:2193   */\n      add\n        /* \"#utility.yul\":2170:2197   */\n      mstore\n        /* \"#utility.yul\":2019:2203   */\n      pop\n        /* \"#utility.yul\":1957:2203   */\n      pop\n      pop\n      pop\n      jump\t// out\n        /* \"#utility.yul\":2209:2311   */\n    tag_59:\n        /* \"#utility.yul\":2250:2256   */\n      0x00\n        /* \"#utility.yul\":2301:2303   */\n      0x1f\n        /* \"#utility.yul\":2297:2304   */\n      not\n        /* \"#utility.yul\":2292:2294   */\n      0x1f\n        /* \"#utility.yul\":2285:2290   */\n      dup4\n        /* \"#utility.yul\":2281:2295   */\n      add\n        /* \"#utility.yul\":2277:2305   */\n      and\n        /* \"#utility.yul\":2267:2305   */\n      swap1\n      pop\n        /* \"#utility.yul\":2209:2311   */\n      swap2\n      swap1\n      pop\n      jump\t// out\n        /* \"#utility.yul\":2317:2694   */\n    tag_60:\n        /* \"#utility.yul\":2405:2408   */\n      0x00\n        /* \"#utility.yul\":2433:2472   */\n      tag_117\n        /* \"#utility.yul\":2466:2471   */\n      dup3\n        /* \"#utility.yul\":2433:2472   */\n      tag_56\n      jump\t// in\n    tag_117:\n        /* \"#utility.yul\":2488:2559   */\n      tag_118\n        /* \"#utility.yul\":2552:2558   */\n      dup2\n        /* \"#utility.yul\":2547:2550   */\n      dup6\n        /* \"#utility.yul\":2488:2559   */\n      tag_57\n      jump\t// in\n    tag_118:\n        /* \"#utility.yul\":2481:2559   */\n      swap4\n      pop\n        /* \"#utility.yul\":2568:2633   */\n      tag_119\n        /* \"#utility.yul\":2626:2632   */\n      dup2\n        /* \"#utility.yul\":2621:2624   */\n      dup6\n        /* \"#utility.yul\":2614:2618   */\n      0x20\n        /* \"#utility.yul\":2607:2612   */\n      dup7\n        /* \"#utility.yul\":2603:2619   */\n      add\n        /* \"#utility.yul\":2568:2633   */\n      tag_58\n      jump\t// in\n    tag_119:\n        /* \"#utility.yul\":2658:2687   */\n      tag_120\n        /* \"#utility.yul\":2680:2686   */\n      dup2\n        /* \"#utility.yul\":2658:2687   */\n      tag_59\n      jump\t// in\n    tag_120:\n        /* \"#utility.yul\":2653:2656   */\n      dup5\n        /* \"#utility.yul\":2649:2688   */\n      add\n        /* \"#utility.yul\":2642:2688   */\n      swap2\n      pop\n        /* \"#utility.yul\":2409:2694   */\n      pop\n        /* \"#utility.yul\":2317:2694   */\n      swap3\n      swap2\n      pop\n      pop\n      jump\t// out\n        /* \"#utility.yul\":2700:3214   */\n    tag_11:\n        /* \"#utility.yul\":2861:2865   */\n      0x00\n        /* \"#utility.yul\":2899:2901   */\n      0x40\n        /* \"#utility.yul\":2888:2897   */\n      dup3\n        /* \"#utility.yul\":2884:2902   */\n      add\n        /* \"#utility.yul\":2876:2902   */\n      swap1\n      pop\n        /* \"#utility.yul\":2948:2957   */\n      dup2\n        /* \"#utility.yul\":2942:2946   */\n      dup2\n        /* \"#utility.yul\":2938:2958   */\n      sub\n        /* \"#utility.yul\":2934:2935   */\n      0x00\n        /* \"#utility.yul\":2923:2932   */\n      dup4\n        /* \"#utility.yul\":2919:2936   */\n      add\n        /* \"#utility.yul\":2912:2959   */\n      mstore\n        /* \"#utility.yul\":2976:3054   */\n      tag_122\n        /* \"#utility.yul\":3049:3053   */\n      dup2\n        /* \"#utility.yul\":3040:3046   */\n      dup6\n        /* \"#utility.yul\":2976:3054   */\n      tag_60\n      jump\t// in\n    tag_122:\n        /* \"#utility.yul\":2968:3054   */\n      swap1\n      pop\n        /* \"#utility.yul\":3101:3110   */\n      dup2\n        /* \"#utility.yul\":3095:3099   */\n      dup2\n        /* \"#utility.yul\":3091:3111   */\n      sub\n        /* \"#utility.yul\":3086:3088   */\n      0x20\n        /* \"#utility.yul\":3075:3084   */\n      dup4\n        /* \"#utility.yul\":3071:3089   */\n      add\n        /* \"#utility.yul\":3064:3112   */\n      mstore\n        /* \"#utility.yul\":3129:3207   */\n      tag_123\n        /* \"#utility.yul\":3202:3206   */\n      dup2\n        /* \"#utility.yul\":3193:3199   */\n      dup5\n        /* \"#utility.yul\":3129:3207   */\n      tag_60\n      jump\t// in\n    tag_123:\n        /* \"#utility.yul\":3121:3207   */\n      swap1\n      pop\n        /* \"#utility.yul\":2700:3214   */\n      swap4\n      swap3\n      pop\n      pop\n      pop\n      jump\t// out\n        /* \"#utility.yul\":3220:3549   */\n    tag_14:\n        /* \"#utility.yul\":3279:3285   */\n      0x00\n        /* \"#utility.yul\":3328:3330   */\n      0x20\n        /* \"#utility.yul\":3316:3325   */\n      dup3\n        /* \"#utility.yul\":3307:3314   */\n      dup5\n        /* \"#utility.yul\":3303:3326   */\n      sub\n        /* \"#utility.yul\":3299:3331   */\n      slt\n        /* \"#utility.yul\":3296:3415   */\n      iszero\n      tag_125\n      jumpi\n        /* \"#utility.yul\":3334:3413   */\n      tag_126\n      tag_47\n      jump\t// in\n    tag_126:\n        /* \"#utility.yul\":3296:3415   */\n    tag_125:\n        /* \"#utility.yul\":3454:3455   */\n      0x00\n        /* \"#utility.yul\":3479:3532   */\n      tag_127\n        /* \"#utility.yul\":3524:3531   */\n      dup5\n        /* \"#utility.yul\":3515:3521   */\n      dup3\n        /* \"#utility.yul\":3504:3513   */\n      dup6\n        /* \"#utility.yul\":3500:3522   */\n      add\n        /* \"#utility.yul\":3479:3532   */\n      tag_55\n      jump\t// in\n    tag_127:\n        /* \"#utility.yul\":3469:3532   */\n      swap2\n      pop\n        /* \"#utility.yul\":3425:3542   */\n      pop\n        /* \"#utility.yul\":3220:3549   */\n      swap3\n      swap2\n      pop\n      pop\n      jump\t// out\n        /* \"#utility.yul\":3555:3672   */\n    tag_61:\n        /* \"#utility.yul\":3664:3665   */\n      0x00\n        /* \"#utility.yul\":3661:3662   */\n      dup1\n        /* \"#utility.yul\":3654:3666   */\n      revert\n        /* \"#utility.yul\":3678:3795   */\n    tag_62:\n        /* \"#utility.yul\":3787:3788   */\n      0x00\n        /* \"#utility.yul\":3784:3785   */\n      dup1\n        /* \"#utility.yul\":3777:3789   */\n      revert\n        /* \"#utility.yul\":3801:3981   */\n    tag_63:\n        /* \"#utility.yul\":3849:3926   */\n      0x4e487b7100000000000000000000000000000000000000000000000000000000\n        /* \"#utility.yul\":3846:3847   */\n      0x00\n        /* \"#utility.yul\":3839:3927   */\n      mstore\n        /* \"#utility.yul\":3946:3950   */\n      0x41\n        /* \"#utility.yul\":3943:3944   */\n      0x04\n        /* \"#utility.yul\":3936:3951   */\n      mstore\n        /* \"#utility.yul\":3970:3974   */\n      0x24\n        /* \"#utility.yul\":3967:3968   */\n      0x00\n        /* \"#utility.yul\":3960:3975   */\n      revert\n        /* \"#utility.yul\":3987:4268   */\n    tag_64:\n        /* \"#utility.yul\":4070:4097   */\n      tag_132\n        /* \"#utility.yul\":4092:4096   */\n      dup3\n        /* \"#utility.yul\":4070:4097   */\n      tag_59\n      jump\t// in\n    tag_132:\n        /* \"#utility.yul\":4062:4068   */\n      dup2\n        /* \"#utility.yul\":4058:4098   */\n      add\n        /* \"#utility.yul\":4200:4206   */\n      dup2\n        /* \"#utility.yul\":4188:4198   */\n      dup2\n        /* \"#utility.yul\":4185:4207   */\n      lt\n        /* \"#utility.yul\":4164:4182   */\n      0xffffffffffffffff\n        /* \"#utility.yul\":4152:4162   */\n      dup3\n        /* \"#utility.yul\":4149:4183   */\n      gt\n        /* \"#utility.yul\":4146:4208   */\n      or\n        /* \"#utility.yul\":4143:4231   */\n      iszero\n      tag_133\n      jumpi\n        /* \"#utility.yul\":4211:4229   */\n      tag_134\n      tag_63\n      jump\t// in\n    tag_134:\n        /* \"#utility.yul\":4143:4231   */\n    tag_133:\n        /* \"#utility.yul\":4251:4261   */\n      dup1\n        /* \"#utility.yul\":4247:4249   */\n      0x40\n        /* \"#utility.yul\":4240:4262   */\n      mstore\n        /* \"#utility.yul\":4030:4268   */\n      pop\n        /* \"#utility.yul\":3987:4268   */\n      pop\n      pop\n      jump\t// out\n        /* \"#utility.yul\":4274:4403   */\n    tag_65:\n        /* \"#utility.yul\":4308:4314   */\n      0x00\n        /* \"#utility.yul\":4335:4355   */\n      tag_136\n      tag_46\n      jump\t// in\n    tag_136:\n        /* \"#utility.yul\":4325:4355   */\n      swap1\n      pop\n        /* \"#utility.yul\":4364:4397   */\n      tag_137\n        /* \"#utility.yul\":4392:4396   */\n      dup3\n        /* \"#utility.yul\":4384:4390   */\n      dup3\n        /* \"#utility.yul\":4364:4397   */\n      tag_64\n      jump\t// in\n    tag_137:\n        /* \"#utility.yul\":4274:4403   */\n      swap2\n      swap1\n      pop\n      jump\t// out\n        /* \"#utility.yul\":4409:4717   */\n    tag_66:\n        /* \"#utility.yul\":4471:4475   */\n      0x00\n        /* \"#utility.yul\":4561:4579   */\n      0xffffffffffffffff\n        /* \"#utility.yul\":4553:4559   */\n      dup3\n        /* \"#utility.yul\":4550:4580   */\n      gt\n        /* \"#utility.yul\":4547:4603   */\n      iszero\n      tag_139\n      jumpi\n        /* \"#utility.yul\":4583:4601   */\n      tag_140\n      tag_63\n      jump\t// in\n    tag_140:\n        /* \"#utility.yul\":4547:4603   */\n    tag_139:\n        /* \"#utility.yul\":4621:4650   */\n      tag_141\n        /* \"#utility.yul\":4643:4649   */\n      dup3\n        /* \"#utility.yul\":4621:4650   */\n      tag_59\n      jump\t// in\n    tag_141:\n        /* \"#utility.yul\":4613:4650   */\n      swap1\n      pop\n        /* \"#utility.yul\":4705:4709   */\n      0x20\n        /* \"#utility.yul\":4699:4703   */\n      dup2\n        /* \"#utility.yul\":4695:4710   */\n      add\n        /* \"#utility.yul\":4687:4710   */\n      swap1\n      pop\n        /* \"#utility.yul\":4409:4717   */\n      swap2\n      swap1\n      pop\n      jump\t// out\n        /* \"#utility.yul\":4723:4869   */\n    tag_67:\n        /* \"#utility.yul\":4820:4826   */\n      dup3\n        /* \"#utility.yul\":4815:4818   */\n      dup2\n        /* \"#utility.yul\":4810:4813   */\n      dup4\n        /* \"#utility.yul\":4797:4827   */\n      calldatacopy\n        /* \"#utility.yul\":4861:4862   */\n      0x00\n        /* \"#utility.yul\":4852:4858   */\n      dup4\n        /* \"#utility.yul\":4847:4850   */\n      dup4\n        /* \"#utility.yul\":4843:4859   */\n      add\n        /* \"#utility.yul\":4836:4863   */\n      mstore\n        /* \"#utility.yul\":4723:4869   */\n      pop\n      pop\n      pop\n      jump\t// out\n        /* \"#utility.yul\":4875:5300   */\n    tag_68:\n        /* \"#utility.yul\":4953:4958   */\n      0x00\n        /* \"#utility.yul\":4978:5044   */\n      tag_144\n        /* \"#utility.yul\":4994:5043   */\n      tag_145\n        /* \"#utility.yul\":5036:5042   */\n      dup5\n        /* \"#utility.yul\":4994:5043   */\n      tag_66\n      jump\t// in\n    tag_145:\n        /* \"#utility.yul\":4978:5044   */\n      tag_65\n      jump\t// in\n    tag_144:\n        /* \"#utility.yul\":4969:5044   */\n      swap1\n      pop\n        /* \"#utility.yul\":5067:5073   */\n      dup3\n        /* \"#utility.yul\":5060:5065   */\n      dup2\n        /* \"#utility.yul\":5053:5074   */\n      mstore\n        /* \"#utility.yul\":5105:5109   */\n      0x20\n        /* \"#utility.yul\":5098:5103   */\n      dup2\n        /* \"#utility.yul\":5094:5110   */\n      add\n        /* \"#utility.yul\":5143:5146   */\n      dup5\n        /* \"#utility.yul\":5134:5140   */\n      dup5\n        /* \"#utility.yul\":5129:5132   */\n      dup5\n        /* \"#utility.yul\":5125:5141   */\n      add\n        /* \"#utility.yul\":5122:5147   */\n      gt\n        /* \"#utility.yul\":5119:5231   */\n      iszero\n      tag_146\n      jumpi\n        /* \"#utility.yul\":5150:5229   */\n      tag_147\n      tag_62\n      jump\t// in\n    tag_147:\n        /* \"#utility.yul\":5119:5231   */\n    tag_146:\n        /* \"#utility.yul\":5240:5294   */\n      tag_148\n        /* \"#utility.yul\":5287:5293   */\n      dup5\n        /* \"#utility.yul\":5282:5285   */\n      dup3\n        /* \"#utility.yul\":5277:5280   */\n      dup6\n        /* \"#utility.yul\":5240:5294   */\n      tag_67\n      jump\t// in\n    tag_148:\n        /* \"#utility.yul\":4959:5300   */\n      pop\n        /* \"#utility.yul\":4875:5300   */\n      swap4\n      swap3\n      pop\n      pop\n      pop\n      jump\t// out\n        /* \"#utility.yul\":5320:5660   */\n    tag_69:\n        /* \"#utility.yul\":5376:5381   */\n      0x00\n        /* \"#utility.yul\":5425:5428   */\n      dup3\n        /* \"#utility.yul\":5418:5422   */\n      0x1f\n        /* \"#utility.yul\":5410:5416   */\n      dup4\n        /* \"#utility.yul\":5406:5423   */\n      add\n        /* \"#utility.yul\":5402:5429   */\n      slt\n        /* \"#utility.yul\":5392:5514   */\n      tag_150\n      jumpi\n        /* \"#utility.yul\":5433:5512   */\n      tag_151\n      tag_61\n      jump\t// in\n    tag_151:\n        /* \"#utility.yul\":5392:5514   */\n    tag_150:\n        /* \"#utility.yul\":5550:5556   */\n      dup2\n        /* \"#utility.yul\":5537:5557   */\n      calldataload\n        /* \"#utility.yul\":5575:5654   */\n      tag_152\n        /* \"#utility.yul\":5650:5653   */\n      dup5\n        /* \"#utility.yul\":5642:5648   */\n      dup3\n        /* \"#utility.yul\":5635:5639   */\n      0x20\n        /* \"#utility.yul\":5627:5633   */\n      dup7\n        /* \"#utility.yul\":5623:5640   */\n      add\n        /* \"#utility.yul\":5575:5654   */\n      tag_68\n      jump\t// in\n    tag_152:\n        /* \"#utility.yul\":5566:5654   */\n      swap2\n      pop\n        /* \"#utility.yul\":5382:5660   */\n      pop\n        /* \"#utility.yul\":5320:5660   */\n      swap3\n      swap2\n      pop\n      pop\n      jump\t// out\n        /* \"#utility.yul\":5666:6645   */\n    tag_19:\n        /* \"#utility.yul\":5763:5769   */\n      0x00\n        /* \"#utility.yul\":5771:5777   */\n      dup1\n        /* \"#utility.yul\":5779:5785   */\n      0x00\n        /* \"#utility.yul\":5828:5830   */\n      0x60\n        /* \"#utility.yul\":5816:5825   */\n      dup5\n        /* \"#utility.yul\":5807:5814   */\n      dup7\n        /* \"#utility.yul\":5803:5826   */\n      sub\n        /* \"#utility.yul\":5799:5831   */\n      slt\n        /* \"#utility.yul\":5796:5915   */\n      iszero\n      tag_154\n      jumpi\n        /* \"#utility.yul\":5834:5913   */\n      tag_155\n      tag_47\n      jump\t// in\n    tag_155:\n        /* \"#utility.yul\":5796:5915   */\n    tag_154:\n        /* \"#utility.yul\":5954:5955   */\n      0x00\n        /* \"#utility.yul\":5979:6032   */\n      tag_156\n        /* \"#utility.yul\":6024:6031   */\n      dup7\n        /* \"#utility.yul\":6015:6021   */\n      dup3\n        /* \"#utility.yul\":6004:6013   */\n      dup8\n        /* \"#utility.yul\":6000:6022   */\n      add\n        /* \"#utility.yul\":5979:6032   */\n      tag_55\n      jump\t// in\n    tag_156:\n        /* \"#utility.yul\":5969:6032   */\n      swap4\n      pop\n        /* \"#utility.yul\":5925:6042   */\n      pop\n        /* \"#utility.yul\":6109:6111   */\n      0x20\n        /* \"#utility.yul\":6098:6107   */\n      dup5\n        /* \"#utility.yul\":6094:6112   */\n      add\n        /* \"#utility.yul\":6081:6113   */\n      calldataload\n        /* \"#utility.yul\":6140:6158   */\n      0xffffffffffffffff\n        /* \"#utility.yul\":6132:6138   */\n      dup2\n        /* \"#utility.yul\":6129:6159   */\n      gt\n        /* \"#utility.yul\":6126:6243   */\n      iszero\n      tag_157\n      jumpi\n        /* \"#utility.yul\":6162:6241   */\n      tag_158\n      tag_48\n      jump\t// in\n    tag_158:\n        /* \"#utility.yul\":6126:6243   */\n    tag_157:\n        /* \"#utility.yul\":6267:6330   */\n      tag_159\n        /* \"#utility.yul\":6322:6329   */\n      dup7\n        /* \"#utility.yul\":6313:6319   */\n      dup3\n        /* \"#utility.yul\":6302:6311   */\n      dup8\n        /* \"#utility.yul\":6298:6320   */\n      add\n        /* \"#utility.yul\":6267:6330   */\n      tag_69\n      jump\t// in\n    tag_159:\n        /* \"#utility.yul\":6257:6330   */\n      swap3\n      pop\n        /* \"#utility.yul\":6052:6340   */\n      pop\n        /* \"#utility.yul\":6407:6409   */\n      0x40\n        /* \"#utility.yul\":6396:6405   */\n      dup5\n        /* \"#utility.yul\":6392:6410   */\n      add\n        /* \"#utility.yul\":6379:6411   */\n      calldataload\n        /* \"#utility.yul\":6438:6456   */\n      0xffffffffffffffff\n        /* \"#utility.yul\":6430:6436   */\n      dup2\n        /* \"#utility.yul\":6427:6457   */\n      gt\n        /* \"#utility.yul\":6424:6541   */\n      iszero\n      tag_160\n      jumpi\n        /* \"#utility.yul\":6460:6539   */\n      tag_161\n      tag_48\n      jump\t// in\n    tag_161:\n        /* \"#utility.yul\":6424:6541   */\n    tag_160:\n        /* \"#utility.yul\":6565:6628   */\n      tag_162\n        /* \"#utility.yul\":6620:6627   */\n      dup7\n        /* \"#utility.yul\":6611:6617   */\n      dup3\n        /* \"#utility.yul\":6600:6609   */\n      dup8\n        /* \"#utility.yul\":6596:6618   */\n      add\n        /* \"#utility.yul\":6565:6628   */\n      tag_69\n      jump\t// in\n    tag_162:\n        /* \"#utility.yul\":6555:6628   */\n      swap2\n      pop\n        /* \"#utility.yul\":6350:6638   */\n      pop\n        /* \"#utility.yul\":5666:6645   */\n      swap3\n      pop\n      swap3\n      pop\n      swap3\n      jump\t// out\n        /* \"#utility.yul\":6651:6831   */\n    tag_70:\n        /* \"#utility.yul\":6699:6776   */\n      0x4e487b7100000000000000000000000000000000000000000000000000000000\n        /* \"#utility.yul\":6696:6697   */\n      0x00\n        /* \"#utility.yul\":6689:6777   */\n      mstore\n        /* \"#utility.yul\":6796:6800   */\n      0x22\n        /* \"#utility.yul\":6793:6794   */\n      0x04\n        /* \"#utility.yul\":6786:6801   */\n      mstore\n        /* \"#utility.yul\":6820:6824   */\n      0x24\n        /* \"#utility.yul\":6817:6818   */\n      0x00\n        /* \"#utility.yul\":6810:6825   */\n      revert\n        /* \"#utility.yul\":6837:7157   */\n    tag_22:\n        /* \"#utility.yul\":6881:6887   */\n      0x00\n        /* \"#utility.yul\":6918:6919   */\n      0x02\n        /* \"#utility.yul\":6912:6916   */\n      dup3\n        /* \"#utility.yul\":6908:6920   */\n      div\n        /* \"#utility.yul\":6898:6920   */\n      swap1\n      pop\n        /* \"#utility.yul\":6965:6966   */\n      0x01\n        /* \"#utility.yul\":6959:6963   */\n      dup3\n        /* \"#utility.yul\":6955:6967   */\n      and\n        /* \"#utility.yul\":6986:7004   */\n      dup1\n        /* \"#utility.yul\":6976:7057   */\n      tag_165\n      jumpi\n        /* \"#utility.yul\":7042:7046   */\n      0x7f\n        /* \"#utility.yul\":7034:7040   */\n      dup3\n        /* \"#utility.yul\":7030:7047   */\n      and\n        /* \"#utility.yul\":7020:7047   */\n      swap2\n      pop\n        /* \"#utility.yul\":6976:7057   */\n    tag_165:\n        /* \"#utility.yul\":7104:7106   */\n      0x20\n        /* \"#utility.yul\":7096:7102   */\n      dup3\n        /* \"#utility.yul\":7093:7107   */\n      lt\n        /* \"#utility.yul\":7073:7091   */\n      dup2\n        /* \"#utility.yul\":7070:7108   */\n      sub\n        /* \"#utility.yul\":7067:7151   */\n      tag_166\n      jumpi\n        /* \"#utility.yul\":7123:7141   */\n      tag_167\n      tag_70\n      jump\t// in\n    tag_167:\n        /* \"#utility.yul\":7067:7151   */\n    tag_166:\n        /* \"#utility.yul\":6888:7157   */\n      pop\n        /* \"#utility.yul\":6837:7157   */\n      swap2\n      swap1\n      pop\n      jump\t// out\n        /* \"#utility.yul\":7163:7304   */\n    tag_71:\n        /* \"#utility.yul\":7212:7216   */\n      0x00\n        /* \"#utility.yul\":7235:7238   */\n      dup2\n        /* \"#utility.yul\":7227:7238   */\n      swap1\n      pop\n        /* \"#utility.yul\":7258:7261   */\n      dup2\n        /* \"#utility.yul\":7255:7256   */\n      0x00\n        /* \"#utility.yul\":7248:7262   */\n      mstore\n        /* \"#utility.yul\":7292:7296   */\n      0x20\n        /* \"#utility.yul\":7289:7290   */\n      0x00\n        /* \"#utility.yul\":7279:7297   */\n      keccak256\n        /* \"#utility.yul\":7271:7297   */\n      swap1\n      pop\n        /* \"#utility.yul\":7163:7304   */\n      swap2\n      swap1\n      pop\n      jump\t// out\n        /* \"#utility.yul\":7310:7403   */\n    tag_72:\n        /* \"#utility.yul\":7347:7353   */\n      0x00\n        /* \"#utility.yul\":7394:7396   */\n      0x20\n        /* \"#utility.yul\":7389:7391   */\n      0x1f\n        /* \"#utility.yul\":7382:7387   */\n      dup4\n        /* \"#utility.yul\":7378:7392   */\n      add\n        /* \"#utility.yul\":7374:7397   */\n      div\n        /* \"#utility.yul\":7364:7397   */\n      swap1\n      pop\n        /* \"#utility.yul\":7310:7403   */\n      swap2\n      swap1\n      pop\n      jump\t// out\n        /* \"#utility.yul\":7409:7516   */\n    tag_73:\n        /* \"#utility.yul\":7453:7461   */\n      0x00\n        /* \"#utility.yul\":7503:7508   */\n      dup3\n        /* \"#utility.yul\":7497:7501   */\n      dup3\n        /* \"#utility.yul\":7493:7509   */\n      shl\n        /* \"#utility.yul\":7472:7509   */\n      swap1\n      pop\n        /* \"#utility.yul\":7409:7516   */\n      swap3\n      swap2\n      pop\n      pop\n      jump\t// out\n        /* \"#utility.yul\":7522:7915   */\n    tag_74:\n        /* \"#utility.yul\":7591:7597   */\n      0x00\n        /* \"#utility.yul\":7641:7642   */\n      0x08\n        /* \"#utility.yul\":7629:7639   */\n      dup4\n        /* \"#utility.yul\":7625:7643   */\n      mul\n        /* \"#utility.yul\":7664:7761   */\n      tag_172\n        /* \"#utility.yul\":7694:7760   */\n      0xffffffffffffffffffffffffffffffffffffffffffffffffffffffffffffffff\n        /* \"#utility.yul\":7683:7692   */\n      dup3\n        /* \"#utility.yul\":7664:7761   */\n      tag_73\n      jump\t// in\n    tag_172:\n        /* \"#utility.yul\":7782:7821   */\n      tag_173\n        /* \"#utility.yul\":7812:7820   */\n      dup7\n        /* \"#utility.yul\":7801:7810   */\n      dup4\n        /* \"#utility.yul\":7782:7821   */\n      tag_73\n      jump\t// in\n    tag_173:\n        /* \"#utility.yul\":7770:7821   */\n      swap6\n      pop\n        /* \"#utility.yul\":7854:7858   */\n      dup1\n        /* \"#utility.yul\":7850:7859   */\n      not\n        /* \"#utility.yul\":7843:7848   */\n      dup5\n        /* \"#utility.yul\":7839:7860   */\n      and\n        /* \"#utility.yul\":7830:7860   */\n      swap4\n      pop\n        /* \"#utility.yul\":7903:7907   */\n      dup1\n        /* \"#utility.yul\":7893:7901   */\n      dup7\n        /* \"#utility.yul\":7889:7908   */\n      and\n        /* \"#utility.yul\":7882:7887   */\n      dup5\n        /* \"#utility.yul\":7879:7909   */\n      or\n        /* \"#utility.yul\":7869:7909   */\n      swap3\n      pop\n        /* \"#utility.yul\":7598:7915   */\n      pop\n      pop\n        /* \"#utility.yul\":7522:7915   */\n      swap4\n      swap3\n      pop\n      pop\n      pop\n      jump\t// out\n        /* \"#utility.yul\":7921:7981   */\n    tag_75:\n        /* \"#utility.yul\":7949:7952   */\n      0x00\n        /* \"#utility.yul\":7970:7975   */\n      dup2\n        /* \"#utility.yul\":7963:7975   */\n      swap1\n      pop\n        /* \"#utility.yul\":7921:7981   */\n      swap2\n      swap1\n      pop\n      jump\t// out\n        /* \"#utility.yul\":7987:8129   */\n    tag_76:\n        /* \"#utility.yul\":8037:8046   */\n      0x00\n        /* \"#utility.yul\":8070:8123   */\n      tag_176\n        /* \"#utility.yul\":8088:8122   */\n      tag_177\n        /* \"#utility.yul\":8097:8121   */\n      tag_178\n        /* \"#utility.yul\":8115:8120   */\n      dup5\n        /* \"#utility.yul\":8097:8121   */\n      tag_53\n      jump\t// in\n    tag_178:\n        /* \"#utility.yul\":8088:8122   */\n      tag_75\n      jump\t// in\n    tag_177:\n        /* \"#utility.yul\":8070:8123   */\n      tag_53\n      jump\t// in\n    tag_176:\n        /* \"#utility.yul\":8057:8123   */\n      swap1\n      pop\n        /* \"#utility.yul\":7987:8129   */\n      swap2\n      swap1\n      pop\n      jump\t// out\n        /* \"#utility.yul\":8135:8210   */\n    tag_77:\n        /* \"#utility.yul\":8178:8181   */\n      0x00\n        /* \"#utility.yul\":8199:8204   */\n      dup2\n        /* \"#utility.yul\":8192:8204   */\n      swap1\n      pop\n        /* \"#utility.yul\":8135:8210   */\n      swap2\n      swap1\n      pop\n      jump\t// out\n        /* \"#utility.yul\":8216:8485   */\n    tag_78:\n        /* \"#utility.yul\":8326:8365   */\n      tag_181\n        /* \"#utility.yul\":8357:8364   */\n      dup4\n        /* \"#utility.yul\":8326:8365   */\n      tag_76\n      jump\t// in\n    tag_181:\n        /* \"#utility.yul\":8387:8478   */\n      tag_182\n        /* \"#utility.yul\":8436:8477   */\n      tag_183\n        /* \"#utility.yul\":8460:8476   */\n      dup3\n        /* \"#utility.yul\":8436:8477   */\n      tag_77\n      jump\t// in\n    tag_183:\n        /* \"#utility.yul\":8428:8434   */\n      dup5\n        /* \"#utility.yul\":8421:8425   */\n      dup5\n        /* \"#utility.yul\":8415:8426   */\n      sload\n        /* \"#utility.yul\":8387:8478   */\n      tag_74\n      jump\t// in\n    tag_182:\n        /* \"#utility.yul\":8381:8385   */\n      dup3\n        /* \"#utility.yul\":8374:8479   */\n      sstore\n        /* \"#utility.yul\":8292:8485   */\n      pop\n        /* \"#utility.yul\":8216:8485   */\n      pop\n      pop\n      pop\n      jump\t// out\n        /* \"#utility.yul\":8491:8564   */\n    tag_79:\n        /* \"#utility.yul\":8536:8539   */\n      0x00\n        /* \"#utility.yul\":8491:8564   */\n      swap1\n      jump\t// out\n        /* \"#utility.yul\":8570:8759   */\n    tag_80:\n        /* \"#utility.yul\":8647:8679   */\n      tag_186\n      tag_79\n      jump\t// in\n    tag_186:\n        /* \"#utility.yul\":8688:8753   */\n      tag_187\n        /* \"#utility.yul\":8746:8752   */\n      dup2\n        /* \"#utility.yul\":8738:8744   */\n      dup5\n        /* \"#utility.yul\":8732:8736   */\n      dup5\n        /* \"#utility.yul\":8688:8753   */\n      tag_78\n      jump\t// in\n    tag_187:\n        /* \"#utility.yul\":8623:8759   */\n      pop\n        /* \"#utility.yul\":8570:8759   */\n      pop\n      pop\n      jump\t// out\n        /* \"#utility.yul\":8765:8951   */\n    tag_81:\n        /* \"#utility.yul\":8825:8945   */\n    tag_189:\n        /* \"#utility.yul\":8842:8845   */\n      dup2\n        /* \"#utility.yul\":8835:8840   */\n      dup2\n        /* \"#utility.yul\":8832:8846   */\n      lt\n        /* \"#utility.yul\":8825:8945   */\n      iszero\n      tag_191\n      jumpi\n        /* \"#utility.yul\":8896:8935   */\n      tag_192\n        /* \"#utility.yul\":8933:8934   */\n      0x00\n        /* \"#utility.yul\":8926:8931   */\n      dup3\n        /* \"#utility.yul\":8896:8935   */\n      tag_80\n      jump\t// in\n    tag_192:\n        /* \"#utility.yul\":8869:8870   */\n      0x01\n        /* \"#utility.yul\":8862:8867   */\n      dup2\n        /* \"#utility.yul\":8858:8871   */\n      add\n        /* \"#utility.yul\":8849:8871   */\n      swap1\n      pop\n        /* \"#utility.yul\":8825:8945   */\n      jump(tag_189)\n    tag_191:\n        /* \"#utility.yul\":8765:8951   */\n      pop\n      pop\n      jump\t// out\n        /* \"#utility.yul\":8957:9500   */\n    tag_82:\n        /* \"#utility.yul\":9058:9060   */\n      0x1f\n        /* \"#utility.yul\":9053:9056   */\n      dup3\n        /* \"#utility.yul\":9050:9061   */\n      gt\n        /* \"#utility.yul\":9047:9493   */\n      iszero\n      tag_194\n      jumpi\n        /* \"#utility.yul\":9092:9130   */\n      tag_195\n        /* \"#utility.yul\":9124:9129   */\n      dup2\n        /* \"#utility.yul\":9092:9130   */\n      tag_71\n      jump\t// in\n    tag_195:\n        /* \"#utility.yul\":9176:9205   */\n      tag_196\n        /* \"#utility.yul\":9194:9204   */\n      dup5\n        /* \"#utility.yul\":9176:9205   */\n      tag_72\n      jump\t// in\n    tag_196:\n        /* \"#utility.yul\":9166:9174   */\n      dup2\n        /* \"#utility.yul\":9162:9206   */\n      add\n        /* \"#utility.yul\":9359:9361   */\n      0x20\n        /* \"#utility.yul\":9347:9357   */\n      dup6\n        /* \"#utility.yul\":9344:9362   */\n      lt\n        /* \"#utility.yul\":9341:9390   */\n      iszero\n      tag_197\n      jumpi\n        /* \"#utility.yul\":9380:9388   */\n      dup2\n        /* \"#utility.yul\":9365:9388   */\n      swap1\n      pop\n        /* \"#utility.yul\":9341:9390   */\n    tag_197:\n        /* \"#utility.yul\":9403:9483   */\n      tag_198\n        /* \"#utility.yul\":9459:9481   */\n      tag_199\n        /* \"#utility.yul\":9477:9480   */\n      dup6\n        /* \"#utility.yul\":9459:9481   */\n      tag_72\n      jump\t// in\n    tag_199:\n        /* \"#utility.yul\":9449:9457   */\n      dup4\n        /* \"#utility.yul\":9445:9482   */\n      add\n        /* \"#utility.yul\":9432:9443   */\n      dup3\n        /* \"#utility.yul\":9403:9483   */\n      tag_81\n      jump\t// in\n    tag_198:\n        /* \"#utility.yul\":9062:9493   */\n      pop\n      pop\n        /* \"#utility.yul\":9047:9493   */\n    tag_194:\n        /* \"#utility.yul\":8957:9500   */\n      pop\n      pop\n      pop\n      jump\t// out\n        /* \"#utility.yul\":9506:9623   */\n    tag_83:\n        /* \"#utility.yul\":9560:9568   */\n      0x00\n        /* \"#utility.yul\":9610:9615   */\n      dup3\n        /* \"#utility.yul\":9604:9608   */\n      dup3\n        /* \"#utility.yul\":9600:9616   */\n      shr\n        /* \"#utility.yul\":9579:9616   */\n      swap1\n      pop\n        /* \"#utility.yul\":9506:9623   */\n      swap3\n      swap2\n      pop\n      pop\n      jump\t// out\n        /* \"#utility.yul\":9629:9798   */\n    tag_84:\n        /* \"#utility.yul\":9673:9679   */\n      0x00\n        /* \"#utility.yul\":9706:9757   */\n      tag_202\n        /* \"#utility.yul\":9754:9755   */\n      0x00\n        /* \"#utility.yul\":9750:9756   */\n      not\n        /* \"#utility.yul\":9742:9747   */\n      dup5\n        /* \"#utility.yul\":9739:9740   */\n      0x08\n        /* \"#utility.yul\":9735:9748   */\n      mul\n        /* \"#utility.yul\":9706:9757   */\n      tag_83\n      jump\t// in\n    tag_202:\n        /* \"#utility.yul\":9702:9758   */\n      not\n        /* \"#utility.yul\":9787:9791   */\n      dup1\n        /* \"#utility.yul\":9781:9785   */\n      dup4\n        /* \"#utility.yul\":9777:9792   */\n      and\n        /* \"#utility.yul\":9767:9792   */\n      swap2\n      pop\n        /* \"#utility.yul\":9680:9798   */\n      pop\n        /* \"#utility.yul\":9629:9798   */\n      swap3\n      swap2\n      pop\n      pop\n      jump\t// out\n        /* \"#utility.yul\":9803:10098   */\n    tag_85:\n        /* \"#utility.yul\":9879:9883   */\n      0x00\n        /* \"#utility.yul\":10025:10054   */\n      tag_204\n        /* \"#utility.yul\":10050:10053   */\n      dup4\n        /* \"#utility.yul\":10044:10048   */\n      dup4\n        /* \"#utility.yul\":10025:10054   */\n      tag_84\n      jump\t// in\n    tag_204:\n        /* \"#utility.yul\":10017:10054   */\n      swap2\n      pop\n        /* \"#utility.yul\":10087:10090   */\n      dup3\n        /* \"#utility.yul\":10084:10085   */\n      0x02\n        /* \"#utility.yul\":10080:10091   */\n      mul\n        /* \"#utility.yul\":10074:10078   */\n      dup3\n        /* \"#utility.yul\":10071:10092   */\n      or\n        /* \"#utility.yul\":10063:10092   */\n      swap1\n      pop\n        /* \"#utility.yul\":9803:10098   */\n      swap3\n      swap2\n      pop\n      pop\n      jump\t// out\n        /* \"#utility.yul\":10103:11498   */\n    tag_44:\n        /* \"#utility.yul\":10220:10257   */\n      tag_206\n        /* \"#utility.yul\":10253:10256   */\n      dup3\n        /* \"#utility.yul\":10220:10257   */\n      tag_56\n      jump\t// in\n    tag_206:\n        /* \"#utility.yul\":10322:10340   */\n      0xffffffffffffffff\n        /* \"#utility.yul\":10314:10320   */\n      dup2\n        /* \"#utility.yul\":10311:10341   */\n      gt\n        /* \"#utility.yul\":10308:10364   */\n      iszero\n      tag_207\n      jumpi\n        /* \"#utility.yul\":10344:10362   */\n      tag_208\n      tag_63\n      jump\t// in\n    tag_208:\n        /* \"#utility.yul\":10308:10364   */\n    tag_207:\n        /* \"#utility.yul\":10388:10426   */\n      tag_209\n        /* \"#utility.yul\":10420:10424   */\n      dup3\n        /* \"#utility.yul\":10414:10425   */\n      sload\n        /* \"#utility.yul\":10388:10426   */\n      tag_22\n      jump\t// in\n    tag_209:\n        /* \"#utility.yul\":10473:10540   */\n      tag_210\n        /* \"#utility.yul\":10533:10539   */\n      dup3\n        /* \"#utility.yul\":10525:10531   */\n      dup3\n        /* \"#utility.yul\":10519:10523   */\n      dup6\n        /* \"#utility.yul\":10473:10540   */\n      tag_82\n      jump\t// in\n    tag_210:\n        /* \"#utility.yul\":10567:10568   */\n      0x00\n        /* \"#utility.yul\":10591:10595   */\n      0x20\n        /* \"#utility.yul\":10578:10595   */\n      swap1\n      pop\n        /* \"#utility.yul\":10623:10625   */\n      0x1f\n        /* \"#utility.yul\":10615:10621   */\n      dup4\n        /* \"#utility.yul\":10612:10626   */\n      gt\n        /* \"#utility.yul\":10640:10641   */\n      0x01\n        /* \"#utility.yul\":10635:11253   */\n      dup2\n      eq\n      tag_212\n      jumpi\n        /* \"#utility.yul\":11297:11298   */\n      0x00\n        /* \"#utility.yul\":11314:11320   */\n      dup5\n        /* \"#utility.yul\":11311:11388   */\n      iszero\n      tag_213\n      jumpi\n        /* \"#utility.yul\":11363:11372   */\n      dup3\n        /* \"#utility.yul\":11358:11361   */\n      dup8\n        /* \"#utility.yul\":11354:11373   */\n      add\n        /* \"#utility.yul\":11348:11374   */\n      mload\n        /* \"#utility.yul\":11339:11374   */\n      swap1\n      pop\n        /* \"#utility.yul\":11311:11388   */\n    tag_213:\n        /* \"#utility.yul\":11414:11481   */\n      tag_214\n        /* \"#utility.yul\":11474:11480   */\n      dup6\n        /* \"#utility.yul\":11467:11472   */\n      dup3\n        /* \"#utility.yul\":11414:11481   */\n      tag_85\n      jump\t// in\n    tag_214:\n        /* \"#utility.yul\":11408:11412   */\n      dup7\n        /* \"#utility.yul\":11401:11482   */\n      sstore\n        /* \"#utility.yul\":11270:11492   */\n      pop\n        /* \"#utility.yul\":10605:11492   */\n      jump(tag_211)\n        /* \"#utility.yul\":10635:11253   */\n    tag_212:\n        /* \"#utility.yul\":10687:10691   */\n      0x1f\n        /* \"#utility.yul\":10683:10692   */\n      not\n        /* \"#utility.yul\":10675:10681   */\n      dup5\n        /* \"#utility.yul\":10671:10693   */\n      and\n        /* \"#utility.yul\":10721:10758   */\n      tag_215\n        /* \"#utility.yul\":10753:10757   */\n      dup7\n        /* \"#utility.yul\":10721:10758   */\n      tag_71\n      jump\t// in\n    tag_215:\n        /* \"#utility.yul\":10780:10781   */\n      0x00\n        /* \"#utility.yul\":10794:11002   */\n    tag_216:\n        /* \"#utility.yul\":10808:10815   */\n      dup3\n        /* \"#utility.yul\":10805:10806   */\n      dup2\n        /* \"#utility.yul\":10802:10816   */\n      lt\n        /* \"#utility.yul\":10794:11002   */\n      iszero\n      tag_218\n      jumpi\n        /* \"#utility.yul\":10887:10896   */\n      dup5\n        /* \"#utility.yul\":10882:10885   */\n      dup10\n        /* \"#utility.yul\":10878:10897   */\n      add\n        /* \"#utility.yul\":10872:10898   */\n      mload\n        /* \"#utility.yul\":10864:10870   */\n      dup3\n        /* \"#utility.yul\":10857:10899   */\n      sstore\n        /* \"#utility.yul\":10938:10939   */\n      0x01\n        /* \"#utility.yul\":10930:10936   */\n      dup3\n        /* \"#utility.yul\":10926:10940   */\n      add\n        /* \"#utility.yul\":10916:10940   */\n      swap2\n      pop\n        /* \"#utility.yul\":10985:10987   */\n      0x20\n        /* \"#utility.yul\":10974:10983   */\n      dup6\n        /* \"#utility.yul\":10970:10988   */\n      add\n        /* \"#utility.yul\":10957:10988   */\n      swap5\n      pop\n        /* \"#utility.yul\":10831:10835   */\n      0x20\n        /* \"#utility.yul\":10828:10829   */\n      dup2\n        /* \"#utility.yul\":10824:10836   */\n      add\n        /* \"#utility.yul\":10819:10836   */\n      swap1\n      pop\n        /* \"#utility.yul\":10794:11002   */\n      jump(tag_216)\n    tag_218:\n        /* \"#utility.yul\":11030:11036   */\n      dup7\n        /* \"#utility.yul\":11021:11028   */\n      dup4\n        /* \"#utility.yul\":11018:11037   */\n      lt\n        /* \"#utility.yul\":11015:11194   */\n      iszero\n      tag_219\n      jumpi\n        /* \"#utility.yul\":11088:11097   */\n      dup5\n        /* \"#utility.yul\":11083:11086   */\n      dup10\n        /* \"#utility.yul\":11079:11098   */\n      add\n        /* \"#utility.yul\":11073:11099   */\n      mload\n        /* \"#utility.yul\":11131:11179   */\n      tag_220\n        /* \"#utility.yul\":11173:11177   */\n      0x1f\n        /* \"#utility.yul\":11165:11171   */\n      dup10\n        /* \"#utility.yul\":11161:11178   */\n      and\n        /* \"#utility.yul\":11150:11159   */\n      dup3\n        /* \"#utility.yul\":11131:11179   */\n      tag_84\n      jump\t// in\n    tag_220:\n        /* \"#utility.yul\":11123:11129   */\n      dup4\n        /* \"#utility.yul\":11116:11180   */\n      sstore\n        /* \"#utility.yul\":11038:11194   */\n      pop\n        /* \"#utility.yul\":11015:11194   */\n    tag_219:\n        /* \"#utility.yul\":11240:11241   */\n      0x01\n        /* \"#utility.yul\":11236:11237   */\n      0x02\n        /* \"#utility.yul\":11228:11234   */\n      dup9\n        /* \"#utility.yul\":11224:11238   */\n      mul\n        /* \"#utility.yul\":11220:11242   */\n      add\n        /* \"#utility.yul\":11214:11218   */\n      dup9\n        /* \"#utility.yul\":11207:11243   */\n      sstore\n        /* \"#utility.yul\":10642:11253   */\n      pop\n      pop\n      pop\n        /* \"#utility.yul\":10605:11492   */\n    tag_211:\n      pop\n        /* \"#utility.yul\":10195:11498   */\n      pop\n      pop\n      pop\n        /* \"#utility.yul\":10103:11498   */\n      pop\n      pop\n      jump\t// out\n\n    auxdata: 0xa26469706673582212200e88a0b591f4c195f897c25a549a83855587158d1d5165c046f70e0bbe64252d64736f6c63430008110033\n}\n",
				"bytecode": {
					"linkReferences": {},
					"object": "608060405234801561001057600080fd5b50610a82806100206000396000f3fe608060405234801561001057600080fd5b50600436106100415760003560e01c806311f7299014610046578063d87ec41714610077578063f40f48c9146100a8575b600080fd5b610060600480360381019061005b919061047a565b6100c4565b60405161006e92919061054a565b60405180910390f35b610091600480360381019061008c9190610581565b610205565b60405161009f92919061054a565b60405180910390f35b6100c260048036038101906100bd91906106e3565b610339565b005b6001602052816000526040600020602052806000526040600020600091509150508060000180546100f49061079d565b80601f01602080910402602001604051908101604052809291908181526020018280546101209061079d565b801561016d5780601f106101425761010080835404028352916020019161016d565b820191906000526020600020905b81548152906001019060200180831161015057829003601f168201915b5050505050908060010180546101829061079d565b80601f01602080910402602001604051908101604052809291908181526020018280546101ae9061079d565b80156101fb5780601f106101d0576101008083540402835291602001916101fb565b820191906000526020600020905b8154815290600101906020018083116101de57829003601f168201915b5050505050905082565b60006020528060005260406000206000915090508060000180546102289061079d565b80601f01602080910402602001604051908101604052809291908181526020018280546102549061079d565b80156102a15780601f10610276576101008083540402835291602001916102a1565b820191906000526020600020905b81548152906001019060200180831161028457829003601f168201915b5050505050908060010180546102b69061079d565b80601f01602080910402602001604051908101604052809291908181526020018280546102e29061079d565b801561032f5780601f106103045761010080835404028352916020019161032f565b820191906000526020600020905b81548152906001019060200180831161031257829003601f168201915b5050505050905082565b604051806040016040528083815260200182815250600160003373ffffffffffffffffffffffffffffffffffffffff1673ffffffffffffffffffffffffffffffffffffffff168152602001908152602001600020600085815260200190815260200160002060008201518160000190816103b3919061097a565b5060208201518160010190816103c9919061097a565b50905050505050565b6000604051905090565b600080fd5b600080fd5b600073ffffffffffffffffffffffffffffffffffffffff82169050919050565b6000610411826103e6565b9050919050565b61042181610406565b811461042c57600080fd5b50565b60008135905061043e81610418565b92915050565b6000819050919050565b61045781610444565b811461046257600080fd5b50565b6000813590506104748161044e565b92915050565b60008060408385031215610491576104906103dc565b5b600061049f8582860161042f565b92505060206104b085828601610465565b9150509250929050565b600081519050919050565b600082825260208201905092915050565b60005b838110156104f45780820151818401526020810190506104d9565b60008484015250505050565b6000601f19601f8301169050919050565b600061051c826104ba565b61052681856104c5565b93506105368185602086016104d6565b61053f81610500565b840191505092915050565b600060408201905081810360008301526105648185610511565b905081810360208301526105788184610511565b90509392505050565b600060208284031215610597576105966103dc565b5b60006105a584828501610465565b91505092915050565b600080fd5b600080fd5b7f4e487b7100000000000000000000000000000000000000000000000000000000600052604160045260246000fd5b6105f082610500565b810181811067ffffffffffffffff8211171561060f5761060e6105b8565b5b80604052505050565b60006106226103d2565b905061062e82826105e7565b919050565b600067ffffffffffffffff82111561064e5761064d6105b8565b5b61065782610500565b9050602081019050919050565b82818337600083830152505050565b600061068661068184610633565b610618565b9050828152602081018484840111156106a2576106a16105b3565b5b6106ad848285610664565b509392505050565b600082601f8301126106ca576106c96105ae565b5b81356106da848260208601610673565b91505092915050565b6000806000606084860312156106fc576106fb6103dc565b5b600061070a86828701610465565b935050602084013567ffffffffffffffff81111561072b5761072a6103e1565b5b610737868287016106b5565b925050604084013567ffffffffffffffff811115610758576107576103e1565b5b610764868287016106b5565b9150509250925092565b7f4e487b7100000000000000000000000000000000000000000000000000000000600052602260045260246000fd5b600060028204905060018216806107b557607f821691505b6020821081036107c8576107c761076e565b5b50919050565b60008190508160005260206000209050919050565b60006020601f8301049050919050565b600082821b905092915050565b6000600883026108307fffffffffffffffffffffffffffffffffffffffffffffffffffffffffffffffff826107f3565b61083a86836107f3565b95508019841693508086168417925050509392505050565b6000819050919050565b600061087761087261086d84610444565b610852565b610444565b9050919050565b6000819050919050565b6108918361085c565b6108a561089d8261087e565b848454610800565b825550505050565b600090565b6108ba6108ad565b6108c5818484610888565b505050565b5b818110156108e9576108de6000826108b2565b6001810190506108cb565b5050565b601f82111561092e576108ff816107ce565b610908846107e3565b81016020851015610917578190505b61092b610923856107e3565b8301826108ca565b50505b505050565b600082821c905092915050565b600061095160001984600802610933565b1980831691505092915050565b600061096a8383610940565b9150826002028217905092915050565b610983826104ba565b67ffffffffffffffff81111561099c5761099b6105b8565b5b6109a6825461079d565b6109b18282856108ed565b600060209050601f8311600181146109e457600084156109d2578287015190505b6109dc858261095e565b865550610a44565b601f1984166109f2866107ce565b60005b82811015610a1a578489015182556001820191506020850194506020810190506109f5565b86831015610a375784890151610a33601f891682610940565b8355505b6001600288020188555050505b50505050505056fea26469706673582212200e88a0b591f4c195f897c25a549a83855587158d1d5165c046f70e0bbe64252d64736f6c63430008110033",
					"opcodes": "PUSH1 0x80 PUSH1 0x40 MSTORE CALLVALUE DUP1 ISZERO PUSH2 0x10 JUMPI PUSH1 0x0 DUP1 REVERT JUMPDEST POP PUSH2 0xA82 DUP1 PUSH2 0x20 PUSH1 0x0 CODECOPY PUSH1 0x0 RETURN INVALID PUSH1 0x80 PUSH1 0x40 MSTORE CALLVALUE DUP1 ISZERO PUSH2 0x10 JUMPI PUSH1 0x0 DUP1 REVERT JUMPDEST POP PUSH1 0x4 CALLDATASIZE LT PUSH2 0x41 JUMPI PUSH1 0x0 CALLDATALOAD PUSH1 0xE0 SHR DUP1 PUSH4 0x11F72990 EQ PUSH2 0x46 JUMPI DUP1 PUSH4 0xD87EC417 EQ PUSH2 0x77 JUMPI DUP1 PUSH4 0xF40F48C9 EQ PUSH2 0xA8 JUMPI JUMPDEST PUSH1 0x0 DUP1 REVERT JUMPDEST PUSH2 0x60 PUSH1 0x4 DUP1 CALLDATASIZE SUB DUP2 ADD SWAP1 PUSH2 0x5B SWAP2 SWAP1 PUSH2 0x47A JUMP JUMPDEST PUSH2 0xC4 JUMP JUMPDEST PUSH1 0x40 MLOAD PUSH2 0x6E SWAP3 SWAP2 SWAP1 PUSH2 0x54A JUMP JUMPDEST PUSH1 0x40 MLOAD DUP1 SWAP2 SUB SWAP1 RETURN JUMPDEST PUSH2 0x91 PUSH1 0x4 DUP1 CALLDATASIZE SUB DUP2 ADD SWAP1 PUSH2 0x8C SWAP2 SWAP1 PUSH2 0x581 JUMP JUMPDEST PUSH2 0x205 JUMP JUMPDEST PUSH1 0x40 MLOAD PUSH2 0x9F SWAP3 SWAP2 SWAP1 PUSH2 0x54A JUMP JUMPDEST PUSH1 0x40 MLOAD DUP1 SWAP2 SUB SWAP1 RETURN JUMPDEST PUSH2 0xC2 PUSH1 0x4 DUP1 CALLDATASIZE SUB DUP2 ADD SWAP1 PUSH2 0xBD SWAP2 SWAP1 PUSH2 0x6E3 JUMP JUMPDEST PUSH2 0x339 JUMP JUMPDEST STOP JUMPDEST PUSH1 0x1 PUSH1 0x20 MSTORE DUP2 PUSH1 0x0 MSTORE PUSH1 0x40 PUSH1 0x0 KECCAK256 PUSH1 0x20 MSTORE DUP1 PUSH1 0x0 MSTORE PUSH1 0x40 PUSH1 0x0 KECCAK256 PUSH1 0x0 SWAP2 POP SWAP2 POP POP DUP1 PUSH1 0x0 ADD DUP1 SLOAD PUSH2 0xF4 SWAP1 PUSH2 0x79D JUMP JUMPDEST DUP1 PUSH1 0x1F ADD PUSH1 0x20 DUP1 SWAP2 DIV MUL PUSH1 0x20 ADD PUSH1 0x40 MLOAD SWAP1 DUP2 ADD PUSH1 0x40 MSTORE DUP1 SWAP3 SWAP2 SWAP1 DUP2 DUP2 MSTORE PUSH1 0x20 ADD DUP3 DUP1 SLOAD PUSH2 0x120 SWAP1 PUSH2 0x79D JUMP JUMPDEST DUP1 ISZERO PUSH2 0x16D JUMPI DUP1 PUSH1 0x1F LT PUSH2 0x142 JUMPI PUSH2 0x100 DUP1 DUP4 SLOAD DIV MUL DUP4 MSTORE SWAP2 PUSH1 0x20 ADD SWAP2 PUSH2 0x16D JUMP JUMPDEST DUP3 ADD SWAP2 SWAP1 PUSH1 0x0 MSTORE PUSH1 0x20 PUSH1 0x0 KECCAK256 SWAP1 JUMPDEST DUP2 SLOAD DUP2 MSTORE SWAP1 PUSH1 0x1 ADD SWAP1 PUSH1 0x20 ADD DUP1 DUP4 GT PUSH2 0x150 JUMPI DUP3 SWAP1 SUB PUSH1 0x1F AND DUP3 ADD SWAP2 JUMPDEST POP POP POP POP POP SWAP1 DUP1 PUSH1 0x1 ADD DUP1 SLOAD PUSH2 0x182 SWAP1 PUSH2 0x79D JUMP JUMPDEST DUP1 PUSH1 0x1F ADD PUSH1 0x20 DUP1 SWAP2 DIV MUL PUSH1 0x20 ADD PUSH1 0x40 MLOAD SWAP1 DUP2 ADD PUSH1 0x40 MSTORE DUP1 SWAP3 SWAP2 SWAP1 DUP2 DUP2 MSTORE PUSH1 0x20 ADD DUP3 DUP1 SLOAD PUSH2 0x1AE SWAP1 PUSH2 0x79D JUMP JUMPDEST DUP1 ISZERO PUSH2 0x1FB JUMPI DUP1 PUSH1 0x1F LT PUSH2 0x1D0 JUMPI PUSH2 0x100 DUP1 DUP4 SLOAD DIV MUL DUP4 MSTORE SWAP2 PUSH1 0x20 ADD SWAP2 PUSH2 0x1FB JUMP JUMPDEST DUP3 ADD SWAP2 SWAP1 PUSH1 0x0 MSTORE PUSH1 0x20 PUSH1 0x0 KECCAK256 SWAP1 JUMPDEST DUP2 SLOAD DUP2 MSTORE SWAP1 PUSH1 0x1 ADD SWAP1 PUSH1 0x20 ADD DUP1 DUP4 GT PUSH2 0x1DE JUMPI DUP3 SWAP1 SUB PUSH1 0x1F AND DUP3 ADD SWAP2 JUMPDEST POP POP POP POP POP SWAP1 POP DUP3 JUMP JUMPDEST PUSH1 0x0 PUSH1 0x20 MSTORE DUP1 PUSH1 0x0 MSTORE PUSH1 0x40 PUSH1 0x0 KECCAK256 PUSH1 0x0 SWAP2 POP SWAP1 POP DUP1 PUSH1 0x0 ADD DUP1 SLOAD PUSH2 0x228 SWAP1 PUSH2 0x79D JUMP JUMPDEST DUP1 PUSH1 0x1F ADD PUSH1 0x20 DUP1 SWAP2 DIV MUL PUSH1 0x20 ADD PUSH1 0x40 MLOAD SWAP1 DUP2 ADD PUSH1 0x40 MSTORE DUP1 SWAP3 SWAP2 SWAP1 DUP2 DUP2 MSTORE PUSH1 0x20 ADD DUP3 DUP1 SLOAD PUSH2 0x254 SWAP1 PUSH2 0x79D JUMP JUMPDEST DUP1 ISZERO PUSH2 0x2A1 JUMPI DUP1 PUSH1 0x1F LT PUSH2 0x276 JUMPI PUSH2 0x100 DUP1 DUP4 SLOAD DIV MUL DUP4 MSTORE SWAP2 PUSH1 0x20 ADD SWAP2 PUSH2 0x2A1 JUMP JUMPDEST DUP3 ADD SWAP2 SWAP1 PUSH1 0x0 MSTORE PUSH1 0x20 PUSH1 0x0 KECCAK256 SWAP1 JUMPDEST DUP2 SLOAD DUP2 MSTORE SWAP1 PUSH1 0x1 ADD SWAP1 PUSH1 0x20 ADD DUP1 DUP4 GT PUSH2 0x284 JUMPI DUP3 SWAP1 SUB PUSH1 0x1F AND DUP3 ADD SWAP2 JUMPDEST POP POP POP POP POP SWAP1 DUP1 PUSH1 0x1 ADD DUP1 SLOAD PUSH2 0x2B6 SWAP1 PUSH2 0x79D JUMP JUMPDEST DUP1 PUSH1 0x1F ADD PUSH1 0x20 DUP1 SWAP2 DIV MUL PUSH1 0x20 ADD PUSH1 0x40 MLOAD SWAP1 DUP2 ADD PUSH1 0x40 MSTORE DUP1 SWAP3 SWAP2 SWAP1 DUP2 DUP2 MSTORE PUSH1 0x20 ADD DUP3 DUP1 SLOAD PUSH2 0x2E2 SWAP1 PUSH2 0x79D JUMP JUMPDEST DUP1 ISZERO PUSH2 0x32F JUMPI DUP1 PUSH1 0x1F LT PUSH2 0x304 JUMPI PUSH2 0x100 DUP1 DUP4 SLOAD DIV MUL DUP4 MSTORE SWAP2 PUSH1 0x20 ADD SWAP2 PUSH2 0x32F JUMP JUMPDEST DUP3 ADD SWAP2 SWAP1 PUSH1 0x0 MSTORE PUSH1 0x20 PUSH1 0x0 KECCAK256 SWAP1 JUMPDEST DUP2 SLOAD DUP2 MSTORE SWAP1 PUSH1 0x1 ADD SWAP1 PUSH1 0x20 ADD DUP1 DUP4 GT PUSH2 0x312 JUMPI DUP3 SWAP1 SUB PUSH1 0x1F AND DUP3 ADD SWAP2 JUMPDEST POP POP POP POP POP SWAP1 POP DUP3 JUMP JUMPDEST PUSH1 0x40 MLOAD DUP1 PUSH1 0x40 ADD PUSH1 0x40 MSTORE DUP1 DUP4 DUP2 MSTORE PUSH1 0x20 ADD DUP3 DUP2 MSTORE POP PUSH1 0x1 PUSH1 0x0 CALLER PUSH20 0xFFFFFFFFFFFFFFFFFFFFFFFFFFFFFFFFFFFFFFFF AND PUSH20 0xFFFFFFFFFFFFFFFFFFFFFFFFFFFFFFFFFFFFFFFF AND DUP2 MSTORE PUSH1 0x20 ADD SWAP1 DUP2 MSTORE PUSH1 0x20 ADD PUSH1 0x0 KECCAK256 PUSH1 0x0 DUP6 DUP2 MSTORE PUSH1 0x20 ADD SWAP1 DUP2 MSTORE PUSH1 0x20 ADD PUSH1 0x0 KECCAK256 PUSH1 0x0 DUP3 ADD MLOAD DUP2 PUSH1 0x0 ADD SWAP1 DUP2 PUSH2 0x3B3 SWAP2 SWAP1 PUSH2 0x97A JUMP JUMPDEST POP PUSH1 0x20 DUP3 ADD MLOAD DUP2 PUSH1 0x1 ADD SWAP1 DUP2 PUSH2 0x3C9 SWAP2 SWAP1 PUSH2 0x97A JUMP JUMPDEST POP SWAP1 POP POP POP POP POP JUMP JUMPDEST PUSH1 0x0 PUSH1 0x40 MLOAD SWAP1 POP SWAP1 JUMP JUMPDEST PUSH1 0x0 DUP1 REVERT JUMPDEST PUSH1 0x0 DUP1 REVERT JUMPDEST PUSH1 0x0 PUSH20 0xFFFFFFFFFFFFFFFFFFFFFFFFFFFFFFFFFFFFFFFF DUP3 AND SWAP1 POP SWAP2 SWAP1 POP JUMP JUMPDEST PUSH1 0x0 PUSH2 0x411 DUP3 PUSH2 0x3E6 JUMP JUMPDEST SWAP1 POP SWAP2 SWAP1 POP JUMP JUMPDEST PUSH2 0x421 DUP2 PUSH2 0x406 JUMP JUMPDEST DUP2 EQ PUSH2 0x42C JUMPI PUSH1 0x0 DUP1 REVERT JUMPDEST POP JUMP JUMPDEST PUSH1 0x0 DUP2 CALLDATALOAD SWAP1 POP PUSH2 0x43E DUP2 PUSH2 0x418 JUMP JUMPDEST SWAP3 SWAP2 POP POP JUMP JUMPDEST PUSH1 0x0 DUP2 SWAP1 POP SWAP2 SWAP1 POP JUMP JUMPDEST PUSH2 0x457 DUP2 PUSH2 0x444 JUMP JUMPDEST DUP2 EQ PUSH2 0x462 JUMPI PUSH1 0x0 DUP1 REVERT JUMPDEST POP JUMP JUMPDEST PUSH1 0x0 DUP2 CALLDATALOAD SWAP1 POP PUSH2 0x474 DUP2 PUSH2 0x44E JUMP JUMPDEST SWAP3 SWAP2 POP POP JUMP JUMPDEST PUSH1 0x0 DUP1 PUSH1 0x40 DUP4 DUP6 SUB SLT ISZERO PUSH2 0x491 JUMPI PUSH2 0x490 PUSH2 0x3DC JUMP JUMPDEST JUMPDEST PUSH1 0x0 PUSH2 0x49F DUP6 DUP3 DUP7 ADD PUSH2 0x42F JUMP JUMPDEST SWAP3 POP POP PUSH1 0x20 PUSH2 0x4B0 DUP6 DUP3 DUP7 ADD PUSH2 0x465 JUMP JUMPDEST SWAP2 POP POP SWAP3 POP SWAP3 SWAP1 POP JUMP JUMPDEST PUSH1 0x0 DUP2 MLOAD SWAP1 POP SWAP2 SWAP1 POP JUMP JUMPDEST PUSH1 0x0 DUP3 DUP3 MSTORE PUSH1 0x20 DUP3 ADD SWAP1 POP SWAP3 SWAP2 POP POP JUMP JUMPDEST PUSH1 0x0 JUMPDEST DUP4 DUP2 LT ISZERO PUSH2 0x4F4 JUMPI DUP1 DUP3 ADD MLOAD DUP2 DUP5 ADD MSTORE PUSH1 0x20 DUP2 ADD SWAP1 POP PUSH2 0x4D9 JUMP JUMPDEST PUSH1 0x0 DUP5 DUP5 ADD MSTORE POP POP POP POP JUMP JUMPDEST PUSH1 0x0 PUSH1 0x1F NOT PUSH1 0x1F DUP4 ADD AND SWAP1 POP SWAP2 SWAP1 POP JUMP JUMPDEST PUSH1 0x0 PUSH2 0x51C DUP3 PUSH2 0x4BA JUMP JUMPDEST PUSH2 0x526 DUP2 DUP6 PUSH2 0x4C5 JUMP JUMPDEST SWAP4 POP PUSH2 0x536 DUP2 DUP6 PUSH1 0x20 DUP7 ADD PUSH2 0x4D6 JUMP JUMPDEST PUSH2 0x53F DUP2 PUSH2 0x500 JUMP JUMPDEST DUP5 ADD SWAP2 POP POP SWAP3 SWAP2 POP POP JUMP JUMPDEST PUSH1 0x0 PUSH1 0x40 DUP3 ADD SWAP1 POP DUP2 DUP2 SUB PUSH1 0x0 DUP4 ADD MSTORE PUSH2 0x564 DUP2 DUP6 PUSH2 0x511 JUMP JUMPDEST SWAP1 POP DUP2 DUP2 SUB PUSH1 0x20 DUP4 ADD MSTORE PUSH2 0x578 DUP2 DUP5 PUSH2 0x511 JUMP JUMPDEST SWAP1 POP SWAP4 SWAP3 POP POP POP JUMP JUMPDEST PUSH1 0x0 PUSH1 0x20 DUP3 DUP5 SUB SLT ISZERO PUSH2 0x597 JUMPI PUSH2 0x596 PUSH2 0x3DC JUMP JUMPDEST JUMPDEST PUSH1 0x0 PUSH2 0x5A5 DUP5 DUP3 DUP6 ADD PUSH2 0x465 JUMP JUMPDEST SWAP2 POP POP SWAP3 SWAP2 POP POP JUMP JUMPDEST PUSH1 0x0 DUP1 REVERT JUMPDEST PUSH1 0x0 DUP1 REVERT JUMPDEST PUSH32 0x4E487B7100000000000000000000000000000000000000000000000000000000 PUSH1 0x0 MSTORE PUSH1 0x41 PUSH1 0x4 MSTORE PUSH1 0x24 PUSH1 0x0 REVERT JUMPDEST PUSH2 0x5F0 DUP3 PUSH2 0x500 JUMP JUMPDEST DUP2 ADD DUP2 DUP2 LT PUSH8 0xFFFFFFFFFFFFFFFF DUP3 GT OR ISZERO PUSH2 0x60F JUMPI PUSH2 0x60E PUSH2 0x5B8 JUMP JUMPDEST JUMPDEST DUP1 PUSH1 0x40 MSTORE POP POP POP JUMP JUMPDEST PUSH1 0x0 PUSH2 0x622 PUSH2 0x3D2 JUMP JUMPDEST SWAP1 POP PUSH2 0x62E DUP3 DUP3 PUSH2 0x5E7 JUMP JUMPDEST SWAP2 SWAP1 POP JUMP JUMPDEST PUSH1 0x0 PUSH8 0xFFFFFFFFFFFFFFFF DUP3 GT ISZERO PUSH2 0x64E JUMPI PUSH2 0x64D PUSH2 0x5B8 JUMP JUMPDEST JUMPDEST PUSH2 0x657 DUP3 PUSH2 0x500 JUMP JUMPDEST SWAP1 POP PUSH1 0x20 DUP2 ADD SWAP1 POP SWAP2 SWAP1 POP JUMP JUMPDEST DUP3 DUP2 DUP4 CALLDATACOPY PUSH1 0x0 DUP4 DUP4 ADD MSTORE POP POP POP JUMP JUMPDEST PUSH1 0x0 PUSH2 0x686 PUSH2 0x681 DUP5 PUSH2 0x633 JUMP JUMPDEST PUSH2 0x618 JUMP JUMPDEST SWAP1 POP DUP3 DUP2 MSTORE PUSH1 0x20 DUP2 ADD DUP5 DUP5 DUP5 ADD GT ISZERO PUSH2 0x6A2 JUMPI PUSH2 0x6A1 PUSH2 0x5B3 JUMP JUMPDEST JUMPDEST PUSH2 0x6AD DUP5 DUP3 DUP6 PUSH2 0x664 JUMP JUMPDEST POP SWAP4 SWAP3 POP POP POP JUMP JUMPDEST PUSH1 0x0 DUP3 PUSH1 0x1F DUP4 ADD SLT PUSH2 0x6CA JUMPI PUSH2 0x6C9 PUSH2 0x5AE JUMP JUMPDEST JUMPDEST DUP2 CALLDATALOAD PUSH2 0x6DA DUP5 DUP3 PUSH1 0x20 DUP7 ADD PUSH2 0x673 JUMP JUMPDEST SWAP2 POP POP SWAP3 SWAP2 POP POP JUMP JUMPDEST PUSH1 0x0 DUP1 PUSH1 0x0 PUSH1 0x60 DUP5 DUP7 SUB SLT ISZERO PUSH2 0x6FC JUMPI PUSH2 0x6FB PUSH2 0x3DC JUMP JUMPDEST JUMPDEST PUSH1 0x0 PUSH2 0x70A DUP7 DUP3 DUP8 ADD PUSH2 0x465 JUMP JUMPDEST SWAP4 POP POP PUSH1 0x20 DUP5 ADD CALLDATALOAD PUSH8 0xFFFFFFFFFFFFFFFF DUP2 GT ISZERO PUSH2 0x72B JUMPI PUSH2 0x72A PUSH2 0x3E1 JUMP JUMPDEST JUMPDEST PUSH2 0x737 DUP7 DUP3 DUP8 ADD PUSH2 0x6B5 JUMP JUMPDEST SWAP3 POP POP PUSH1 0x40 DUP5 ADD CALLDATALOAD PUSH8 0xFFFFFFFFFFFFFFFF DUP2 GT ISZERO PUSH2 0x758 JUMPI PUSH2 0x757 PUSH2 0x3E1 JUMP JUMPDEST JUMPDEST PUSH2 0x764 DUP7 DUP3 DUP8 ADD PUSH2 0x6B5 JUMP JUMPDEST SWAP2 POP POP SWAP3 POP SWAP3 POP SWAP3 JUMP JUMPDEST PUSH32 0x4E487B7100000000000000000000000000000000000000000000000000000000 PUSH1 0x0 MSTORE PUSH1 0x22 PUSH1 0x4 MSTORE PUSH1 0x24 PUSH1 0x0 REVERT JUMPDEST PUSH1 0x0 PUSH1 0x2 DUP3 DIV SWAP1 POP PUSH1 0x1 DUP3 AND DUP1 PUSH2 0x7B5 JUMPI PUSH1 0x7F DUP3 AND SWAP2 POP JUMPDEST PUSH1 0x20 DUP3 LT DUP2 SUB PUSH2 0x7C8 JUMPI PUSH2 0x7C7 PUSH2 0x76E JUMP JUMPDEST JUMPDEST POP SWAP2 SWAP1 POP JUMP JUMPDEST PUSH1 0x0 DUP2 SWAP1 POP DUP2 PUSH1 0x0 MSTORE PUSH1 0x20 PUSH1 0x0 KECCAK256 SWAP1 POP SWAP2 SWAP1 POP JUMP JUMPDEST PUSH1 0x0 PUSH1 0x20 PUSH1 0x1F DUP4 ADD DIV SWAP1 POP SWAP2 SWAP1 POP JUMP JUMPDEST PUSH1 0x0 DUP3 DUP3 SHL SWAP1 POP SWAP3 SWAP2 POP POP JUMP JUMPDEST PUSH1 0x0 PUSH1 0x8 DUP4 MUL PUSH2 0x830 PUSH32 0xFFFFFFFFFFFFFFFFFFFFFFFFFFFFFFFFFFFFFFFFFFFFFFFFFFFFFFFFFFFFFFFF DUP3 PUSH2 0x7F3 JUMP JUMPDEST PUSH2 0x83A DUP7 DUP4 PUSH2 0x7F3 JUMP JUMPDEST SWAP6 POP DUP1 NOT DUP5 AND SWAP4 POP DUP1 DUP7 AND DUP5 OR SWAP3 POP POP POP SWAP4 SWAP3 POP POP POP JUMP JUMPDEST PUSH1 0x0 DUP2 SWAP1 POP SWAP2 SWAP1 POP JUMP JUMPDEST PUSH1 0x0 PUSH2 0x877 PUSH2 0x872 PUSH2 0x86D DUP5 PUSH2 0x444 JUMP JUMPDEST PUSH2 0x852 JUMP JUMPDEST PUSH2 0x444 JUMP JUMPDEST SWAP1 POP SWAP2 SWAP1 POP JUMP JUMPDEST PUSH1 0x0 DUP2 SWAP1 POP SWAP2 SWAP1 POP JUMP JUMPDEST PUSH2 0x891 DUP4 PUSH2 0x85C JUMP JUMPDEST PUSH2 0x8A5 PUSH2 0x89D DUP3 PUSH2 0x87E JUMP JUMPDEST DUP5 DUP5 SLOAD PUSH2 0x800 JUMP JUMPDEST DUP3 SSTORE POP POP POP POP JUMP JUMPDEST PUSH1 0x0 SWAP1 JUMP JUMPDEST PUSH2 0x8BA PUSH2 0x8AD JUMP JUMPDEST PUSH2 0x8C5 DUP2 DUP5 DUP5 PUSH2 0x888 JUMP JUMPDEST POP POP POP JUMP JUMPDEST JUMPDEST DUP2 DUP2 LT ISZERO PUSH2 0x8E9 JUMPI PUSH2 0x8DE PUSH1 0x0 DUP3 PUSH2 0x8B2 JUMP JUMPDEST PUSH1 0x1 DUP2 ADD SWAP1 POP PUSH2 0x8CB JUMP JUMPDEST POP POP JUMP JUMPDEST PUSH1 0x1F DUP3 GT ISZERO PUSH2 0x92E JUMPI PUSH2 0x8FF DUP2 PUSH2 0x7CE JUMP JUMPDEST PUSH2 0x908 DUP5 PUSH2 0x7E3 JUMP JUMPDEST DUP2 ADD PUSH1 0x20 DUP6 LT ISZERO PUSH2 0x917 JUMPI DUP2 SWAP1 POP JUMPDEST PUSH2 0x92B PUSH2 0x923 DUP6 PUSH2 0x7E3 JUMP JUMPDEST DUP4 ADD DUP3 PUSH2 0x8CA JUMP JUMPDEST POP POP JUMPDEST POP POP POP JUMP JUMPDEST PUSH1 0x0 DUP3 DUP3 SHR SWAP1 POP SWAP3 SWAP2 POP POP JUMP JUMPDEST PUSH1 0x0 PUSH2 0x951 PUSH1 0x0 NOT DUP5 PUSH1 0x8 MUL PUSH2 0x933 JUMP JUMPDEST NOT DUP1 DUP4 AND SWAP2 POP POP SWAP3 SWAP2 POP POP JUMP JUMPDEST PUSH1 0x0 PUSH2 0x96A DUP4 DUP4 PUSH2 0x940 JUMP JUMPDEST SWAP2 POP DUP3 PUSH1 0x2 MUL DUP3 OR SWAP1 POP SWAP3 SWAP2 POP POP JUMP JUMPDEST PUSH2 0x983 DUP3 PUSH2 0x4BA JUMP JUMPDEST PUSH8 0xFFFFFFFFFFFFFFFF DUP2 GT ISZERO PUSH2 0x99C JUMPI PUSH2 0x99B PUSH2 0x5B8 JUMP JUMPDEST JUMPDEST PUSH2 0x9A6 DUP3 SLOAD PUSH2 0x79D JUMP JUMPDEST PUSH2 0x9B1 DUP3 DUP3 DUP6 PUSH2 0x8ED JUMP JUMPDEST PUSH1 0x0 PUSH1 0x20 SWAP1 POP PUSH1 0x1F DUP4 GT PUSH1 0x1 DUP2 EQ PUSH2 0x9E4 JUMPI PUSH1 0x0 DUP5 ISZERO PUSH2 0x9D2 JUMPI DUP3 DUP8 ADD MLOAD SWAP1 POP JUMPDEST PUSH2 0x9DC DUP6 DUP3 PUSH2 0x95E JUMP JUMPDEST DUP7 SSTORE POP PUSH2 0xA44 JUMP JUMPDEST PUSH1 0x1F NOT DUP5 AND PUSH2 0x9F2 DUP7 PUSH2 0x7CE JUMP JUMPDEST PUSH1 0x0 JUMPDEST DUP3 DUP2 LT ISZERO PUSH2 0xA1A JUMPI DUP5 DUP10 ADD MLOAD DUP3 SSTORE PUSH1 0x1 DUP3 ADD SWAP2 POP PUSH1 0x20 DUP6 ADD SWAP5 POP PUSH1 0x20 DUP2 ADD SWAP1 POP PUSH2 0x9F5 JUMP JUMPDEST DUP7 DUP4 LT ISZERO PUSH2 0xA37 JUMPI DUP5 DUP10 ADD MLOAD PUSH2 0xA33 PUSH1 0x1F DUP10 AND DUP3 PUSH2 0x940 JUMP JUMPDEST DUP4 SSTORE POP JUMPDEST PUSH1 0x1 PUSH1 0x2 DUP9 MUL ADD DUP9 SSTORE POP POP POP JUMPDEST POP POP POP POP POP POP JUMP INVALID LOG2 PUSH5 0x6970667358 0x22 SLT KECCAK256 0xE DUP9 LOG0 0xB5 SWAP2 DELEGATECALL 0xC1 SWAP6 0xF8 SWAP8 0xC2 GAS SLOAD SWAP11 DUP4 DUP6 SSTORE DUP8 ISZERO DUP14 SAR MLOAD PUSH6 0xC046F70E0BBE PUSH5 0x252D64736F PUSH13 0x63430008110033000000000000 "
				},
				"gasEstimates": {
					"creation": {
						"codeDepositCost": "538000",
						"executionCost": "575",
						"totalCost": "538575"
					},
					"external": {
						"addMovie(uint256,string,string)": "infinite",
						"movie(uint256)": "infinite",
						"myMovie(address,uint256)": "infinite"
					}
				},
				"methodIdentifiers": {
					"addMovie(uint256,string,string)": "f40f48c9",
					"movie(uint256)": "d87ec417",
					"myMovie(address,uint256)": "11f72990"
				}
			},
			"storageLayout": {
				"storage": [
					{
						"astId": 11,
						"contract": "nested_mapping.sol:LearnNestedMapping",
						"label": "movie",
						"offset": 0,
						"slot": "0",
						"type": "t_mapping(t_uint256,t_struct(Movie)6_storage)"
					},
					{
						"astId": 18,
						"contract": "nested_mapping.sol:LearnNestedMapping",
						"label": "myMovie",
						"offset": 0,
						"slot": "1",
						"type": "t_mapping(t_address,t_mapping(t_uint256,t_struct(Movie)6_storage))"
					}
				],
				"types": {
					"t_address": {
						"encoding": "inplace",
						"label": "address",
						"numberOfBytes": "20"
					},
					"t_mapping(t_address,t_mapping(t_uint256,t_struct(Movie)6_storage))": {
						"encoding": "mapping",
						"key": "t_address",
						"label": "mapping(address => mapping(uint256 => struct LearnNestedMapping.Movie))",
						"numberOfBytes": "32",
						"value": "t_mapping(t_uint256,t_struct(Movie)6_storage)"
					},
					"t_mapping(t_uint256,t_struct(Movie)6_storage)": {
						"encoding": "mapping",
						"key": "t_uint256",
						"label": "mapping(uint256 => struct LearnNestedMapping.Movie)",
						"numberOfBytes": "32",
						"value": "t_struct(Movie)6_storage"
					},
					"t_string_storage": {
						"encoding": "bytes",
						"label": "string",
						"numberOfBytes": "32"
					},
					"t_struct(Movie)6_storage": {
						"encoding": "inplace",
						"label": "struct LearnNestedMapping.Movie",
						"members": [
							{
								"astId": 3,
								"contract": "nested_mapping.sol:LearnNestedMapping",
								"label": "title",
								"offset": 0,
								"slot": "0",
								"type": "t_string_storage"
							},
							{
								"astId": 5,
								"contract": "nested_mapping.sol:LearnNestedMapping",
								"label": "director",
								"offset": 0,
								"slot": "1",
								"type": "t_string_storage"
							}
						],
						"numberOfBytes": "64"
					},
					"t_uint256": {
						"encoding": "inplace",
						"label": "uint256",
						"numberOfBytes": "32"
					}
				}
			},
			"userdoc": {
				"kind": "user",
				"methods": {},
				"version": 1
			}
		}
	}
}