{
	"constructors_exo.sol": {
		"Base": {
			"abi": [
				{
					"inputs": [
						{
							"internalType": "uint256",
							"name": "_data",
							"type": "uint256"
						}
					],
					"stateMutability": "nonpayable",
					"type": "constructor"
				},
				{
					"inputs": [],
					"name": "getBaseData",
					"outputs": [
						{
							"internalType": "uint256",
							"name": "",
							"type": "uint256"
						}
					],
					"stateMutability": "view",
					"type": "function"
				}
			],
			"devdoc": {
				"kind": "dev",
				"methods": {},
				"version": 1
			},
			"evm": {
				"assembly": "    /* \"constructors_exo.sol\":84:330  contract Base {\r... */\n  mstore(0x40, 0x80)\n    /* \"constructors_exo.sol\":125:241  constructor(uint _data) public{\r... */\n  callvalue\n  dup1\n  iszero\n  tag_1\n  jumpi\n  0x00\n  dup1\n  revert\ntag_1:\n  pop\n  mload(0x40)\n  sub(codesize, bytecodeSize)\n  dup1\n  bytecodeSize\n  dup4\n  codecopy\n  dup2\n  dup2\n  add\n  0x40\n  mstore\n  0x20\n  dup2\n  lt\n  iszero\n  tag_2\n  jumpi\n  0x00\n  dup1\n  revert\ntag_2:\n  dup2\n  add\n  swap1\n  dup1\n  dup1\n  mload\n  swap1\n  0x20\n  add\n  swap1\n  swap3\n  swap2\n  swap1\n  pop\n  pop\n  pop\n    /* \"constructors_exo.sol\":173:178  _data */\n  dup1\n    /* \"constructors_exo.sol\":166:170  data */\n  0x00\n    /* \"constructors_exo.sol\":166:178  data = _data */\n  dup2\n  swap1\n  sstore\n  pop\n    /* \"constructors_exo.sol\":125:241  constructor(uint _data) public{\r... */\n  pop\n    /* \"constructors_exo.sol\":84:330  contract Base {\r... */\n  dataSize(sub_0)\n  dup1\n  dataOffset(sub_0)\n  0x00\n  codecopy\n  0x00\n  return\nstop\n\nsub_0: assembly {\n        /* \"constructors_exo.sol\":84:330  contract Base {\r... */\n      mstore(0x40, 0x80)\n      callvalue\n      dup1\n      iszero\n      tag_1\n      jumpi\n      0x00\n      dup1\n      revert\n    tag_1:\n      pop\n      jumpi(tag_2, lt(calldatasize, 0x04))\n      shr(0xe0, calldataload(0x00))\n      dup1\n      0x148a95ea\n      eq\n      tag_3\n      jumpi\n    tag_2:\n      0x00\n      dup1\n      revert\n        /* \"constructors_exo.sol\":249:327  function getBaseData() public view returns(uint){\r... */\n    tag_3:\n      tag_4\n      tag_5\n      jump\t// in\n    tag_4:\n      mload(0x40)\n      dup1\n      dup3\n      dup2\n      mstore\n      0x20\n      add\n      swap2\n      pop\n      pop\n      mload(0x40)\n      dup1\n      swap2\n      sub\n      swap1\n      return\n    tag_5:\n        /* \"constructors_exo.sol\":292:296  uint */\n      0x00\n        /* \"constructors_exo.sol\":315:319  data */\n      dup1\n      sload\n        /* \"constructors_exo.sol\":308:319  return data */\n      swap1\n      pop\n        /* \"constructors_exo.sol\":249:327  function getBaseData() public view returns(uint){\r... */\n      swap1\n      jump\t// out\n\n    auxdata: 0xa264697066735822122053e50af2e7424bd59f2b77873ee55c245b78d4a9a3f75a0afd69d44aba47417d64736f6c63430007000033\n}\n",
				"bytecode": {
					"linkReferences": {},
					"object": "608060405234801561001057600080fd5b506040516100e23803806100e28339818101604052602081101561003357600080fd5b8101908080519060200190929190505050806000819055505060888061005a6000396000f3fe6080604052348015600f57600080fd5b506004361060285760003560e01c8063148a95ea14602d575b600080fd5b60336049565b6040518082815260200191505060405180910390f35b6000805490509056fea264697066735822122053e50af2e7424bd59f2b77873ee55c245b78d4a9a3f75a0afd69d44aba47417d64736f6c63430007000033",
					"opcodes": "PUSH1 0x80 PUSH1 0x40 MSTORE CALLVALUE DUP1 ISZERO PUSH2 0x10 JUMPI PUSH1 0x0 DUP1 REVERT JUMPDEST POP PUSH1 0x40 MLOAD PUSH2 0xE2 CODESIZE SUB DUP1 PUSH2 0xE2 DUP4 CODECOPY DUP2 DUP2 ADD PUSH1 0x40 MSTORE PUSH1 0x20 DUP2 LT ISZERO PUSH2 0x33 JUMPI PUSH1 0x0 DUP1 REVERT JUMPDEST DUP2 ADD SWAP1 DUP1 DUP1 MLOAD SWAP1 PUSH1 0x20 ADD SWAP1 SWAP3 SWAP2 SWAP1 POP POP POP DUP1 PUSH1 0x0 DUP2 SWAP1 SSTORE POP POP PUSH1 0x88 DUP1 PUSH2 0x5A PUSH1 0x0 CODECOPY PUSH1 0x0 RETURN INVALID PUSH1 0x80 PUSH1 0x40 MSTORE CALLVALUE DUP1 ISZERO PUSH1 0xF JUMPI PUSH1 0x0 DUP1 REVERT JUMPDEST POP PUSH1 0x4 CALLDATASIZE LT PUSH1 0x28 JUMPI PUSH1 0x0 CALLDATALOAD PUSH1 0xE0 SHR DUP1 PUSH4 0x148A95EA EQ PUSH1 0x2D JUMPI JUMPDEST PUSH1 0x0 DUP1 REVERT JUMPDEST PUSH1 0x33 PUSH1 0x49 JUMP JUMPDEST PUSH1 0x40 MLOAD DUP1 DUP3 DUP2 MSTORE PUSH1 0x20 ADD SWAP2 POP POP PUSH1 0x40 MLOAD DUP1 SWAP2 SUB SWAP1 RETURN JUMPDEST PUSH1 0x0 DUP1 SLOAD SWAP1 POP SWAP1 JUMP INVALID LOG2 PUSH5 0x6970667358 0x22 SLT KECCAK256 MSTORE8 0xE5 EXP CALLCODE 0xE7 TIMESTAMP 0x4B 0xD5 SWAP16 0x2B PUSH24 0x873EE55C245B78D4A9A3F75A0AFD69D44ABA47417D64736F PUSH13 0x63430007000033000000000000 "
				},
				"gasEstimates": {
					"creation": {
						"codeDepositCost": "27200",
						"executionCost": "infinite",
						"totalCost": "infinite"
					},
					"external": {
						"getBaseData()": "991"
					}
				},
				"methodIdentifiers": {
					"getBaseData()": "148a95ea"
				}
			},
			"storageLayout": {
				"storage": [
					{
						"astId": 3,
						"contract": "constructors_exo.sol:Base",
						"label": "data",
						"offset": 0,
						"slot": "0",
						"type": "t_uint256"
					}
				],
				"types": {
					"t_uint256": {
						"encoding": "inplace",
						"label": "uint256",
						"numberOfBytes": "32"
					}
				}
			},
			"userdoc": {
				"kind": "user",
				"methods": {},
				"version": 1
			}
		}
	}
}