{
	"constructors_exo.sol": {
		"Derived": {
			"abi": [
				{
					"inputs": [],
					"name": "getBaseData",
					"outputs": [
						{
							"internalType": "uint256",
							"name": "",
							"type": "uint256"
						}
					],
					"stateMutability": "view",
					"type": "function"
				},
				{
					"inputs": [],
					"name": "getData",
					"outputs": [
						{
							"internalType": "uint256",
							"name": "",
							"type": "uint256"
						}
					],
					"stateMutability": "view",
					"type": "function"
				}
			],
			"devdoc": {
				"kind": "dev",
				"methods": {},
				"version": 1
			},
			"evm": {
				"assembly": "    /* \"constructors_exo.sol\":336:448  contract Derived is Base(5) {\r... */\n  mstore(0x40, 0x80)\n  callvalue\n  dup1\n  iszero\n  tag_1\n  jumpi\n  0x00\n  dup1\n  revert\ntag_1:\n  pop\n    /* \"constructors_exo.sol\":361:362  5 */\n  0x05\n    /* \"constructors_exo.sol\":173:178  _data */\n  dup1\n    /* \"constructors_exo.sol\":166:170  data */\n  0x00\n    /* \"constructors_exo.sol\":166:178  data = _data */\n  dup2\n  swap1\n  sstore\n  pop\n    /* \"constructors_exo.sol\":125:241  constructor(uint _data) public{\r... */\n  pop\n    /* \"constructors_exo.sol\":336:448  contract Derived is Base(5) {\r... */\n  dataSize(sub_0)\n  dup1\n  dataOffset(sub_0)\n  0x00\n  codecopy\n  0x00\n  return\nstop\n\nsub_0: assembly {\n        /* \"constructors_exo.sol\":336:448  contract Derived is Base(5) {\r... */\n      mstore(0x40, 0x80)\n      callvalue\n      dup1\n      iszero\n      tag_1\n      jumpi\n      0x00\n      dup1\n      revert\n    tag_1:\n      pop\n      jumpi(tag_2, lt(calldatasize, 0x04))\n      shr(0xe0, calldataload(0x00))\n      dup1\n      0x148a95ea\n      eq\n      tag_3\n      jumpi\n      dup1\n      0x3bc5de30\n      eq\n      tag_4\n      jumpi\n    tag_2:\n      0x00\n      dup1\n      revert\n        /* \"constructors_exo.sol\":249:327  function getBaseData() public view returns(uint){\r... */\n    tag_3:\n      tag_5\n      tag_6\n      jump\t// in\n    tag_5:\n      mload(0x40)\n      dup1\n      dup3\n      dup2\n      mstore\n      0x20\n      add\n      swap2\n      pop\n      pop\n      mload(0x40)\n      dup1\n      swap2\n      sub\n      swap1\n      return\n        /* \"constructors_exo.sol\":371:445  function getData() public view returns(uint){\r... */\n    tag_4:\n      tag_7\n      tag_8\n      jump\t// in\n    tag_7:\n      mload(0x40)\n      dup1\n      dup3\n      dup2\n      mstore\n      0x20\n      add\n      swap2\n      pop\n      pop\n      mload(0x40)\n      dup1\n      swap2\n      sub\n      swap1\n      return\n        /* \"constructors_exo.sol\":249:327  function getBaseData() public view returns(uint){\r... */\n    tag_6:\n        /* \"constructors_exo.sol\":292:296  uint */\n      0x00\n        /* \"constructors_exo.sol\":315:319  data */\n      dup1\n      sload\n        /* \"constructors_exo.sol\":308:319  return data */\n      swap1\n      pop\n        /* \"constructors_exo.sol\":249:327  function getBaseData() public view returns(uint){\r... */\n      swap1\n      jump\t// out\n        /* \"constructors_exo.sol\":371:445  function getData() public view returns(uint){\r... */\n    tag_8:\n        /* \"constructors_exo.sol\":410:414  uint */\n      0x00\n        /* \"constructors_exo.sol\":433:437  data */\n      dup1\n      sload\n        /* \"constructors_exo.sol\":426:437  return data */\n      swap1\n      pop\n        /* \"constructors_exo.sol\":371:445  function getData() public view returns(uint){\r... */\n      swap1\n      jump\t// out\n\n    auxdata: 0xa2646970667358221220f372ba4b07327fcda90e16876850d66d9246892ce96ea54b5c4b0be540c5ffa064736f6c63430007000033\n}\n",
				"bytecode": {
					"linkReferences": {},
					"object": "608060405234801561001057600080fd5b506005806000819055505060b7806100296000396000f3fe6080604052348015600f57600080fd5b506004361060325760003560e01c8063148a95ea1460375780633bc5de30146053575b600080fd5b603d606f565b6040518082815260200191505060405180910390f35b60596078565b6040518082815260200191505060405180910390f35b60008054905090565b6000805490509056fea2646970667358221220f372ba4b07327fcda90e16876850d66d9246892ce96ea54b5c4b0be540c5ffa064736f6c63430007000033",
					"opcodes": "PUSH1 0x80 PUSH1 0x40 MSTORE CALLVALUE DUP1 ISZERO PUSH2 0x10 JUMPI PUSH1 0x0 DUP1 REVERT JUMPDEST POP PUSH1 0x5 DUP1 PUSH1 0x0 DUP2 SWAP1 SSTORE POP POP PUSH1 0xB7 DUP1 PUSH2 0x29 PUSH1 0x0 CODECOPY PUSH1 0x0 RETURN INVALID PUSH1 0x80 PUSH1 0x40 MSTORE CALLVALUE DUP1 ISZERO PUSH1 0xF JUMPI PUSH1 0x0 DUP1 REVERT JUMPDEST POP PUSH1 0x4 CALLDATASIZE LT PUSH1 0x32 JUMPI PUSH1 0x0 CALLDATALOAD PUSH1 0xE0 SHR DUP1 PUSH4 0x148A95EA EQ PUSH1 0x37 JUMPI DUP1 PUSH4 0x3BC5DE30 EQ PUSH1 0x53 JUMPI JUMPDEST PUSH1 0x0 DUP1 REVERT JUMPDEST PUSH1 0x3D PUSH1 0x6F JUMP JUMPDEST PUSH1 0x40 MLOAD DUP1 DUP3 DUP2 MSTORE PUSH1 0x20 ADD SWAP2 POP POP PUSH1 0x40 MLOAD DUP1 SWAP2 SUB SWAP1 RETURN JUMPDEST PUSH1 0x59 PUSH1 0x78 JUMP JUMPDEST PUSH1 0x40 MLOAD DUP1 DUP3 DUP2 MSTORE PUSH1 0x20 ADD SWAP2 POP POP PUSH1 0x40 MLOAD DUP1 SWAP2 SUB SWAP1 RETURN JUMPDEST PUSH1 0x0 DUP1 SLOAD SWAP1 POP SWAP1 JUMP JUMPDEST PUSH1 0x0 DUP1 SLOAD SWAP1 POP SWAP1 JUMP INVALID LOG2 PUSH5 0x6970667358 0x22 SLT KECCAK256 RETURN PUSH19 0xBA4B07327FCDA90E16876850D66D9246892CE9 PUSH15 0xA54B5C4B0BE540C5FFA064736F6C63 NUMBER STOP SMOD STOP STOP CALLER "
				},
				"gasEstimates": {
					"creation": {
						"codeDepositCost": "36600",
						"executionCost": "20106",
						"totalCost": "56706"
					},
					"external": {
						"getBaseData()": "991",
						"getData()": "1013"
					}
				},
				"methodIdentifiers": {
					"getBaseData()": "148a95ea",
					"getData()": "3bc5de30"
				}
			},
			"storageLayout": {
				"storage": [
					{
						"astId": 3,
						"contract": "constructors_exo.sol:Derived",
						"label": "data",
						"offset": 0,
						"slot": "0",
						"type": "t_uint256"
					}
				],
				"types": {
					"t_uint256": {
						"encoding": "inplace",
						"label": "uint256",
						"numberOfBytes": "32"
					}
				}
			},
			"userdoc": {
				"kind": "user",
				"methods": {},
				"version": 1
			}
		}
	}
}