{
	"enums.sol": {
		"ColorOptions": {
			"abi": [
				{
					"inputs": [],
					"name": "getChoice",
					"outputs": [
						{
							"internalType": "enum ColorOptions.shirtColor",
							"name": "",
							"type": "uint8"
						}
					],
					"stateMutability": "view",
					"type": "function"
				},
				{
					"inputs": [],
					"name": "getDefaultChoice",
					"outputs": [
						{
							"internalType": "uint256",
							"name": "",
							"type": "uint256"
						}
					],
					"stateMutability": "view",
					"type": "function"
				},
				{
					"inputs": [],
					"name": "setWhite",
					"outputs": [],
					"stateMutability": "nonpayable",
					"type": "function"
				}
			],
			"devdoc": {
				"kind": "dev",
				"methods": {},
				"version": 1
			},
			"evm": {
				"assembly": "    /* \"enums.sol\":1806:2274  contract ColorOptions{... */\n  mstore(0x40, 0x80)\n  callvalue\n  dup1\n  iszero\n  tag_1\n  jumpi\n  0x00\n  dup1\n  revert\ntag_1:\n  pop\n  dataSize(sub_0)\n  dup1\n  dataOffset(sub_0)\n  0x00\n  codecopy\n  0x00\n  return\nstop\n\nsub_0: assembly {\n        /* \"enums.sol\":1806:2274  contract ColorOptions{... */\n      mstore(0x40, 0x80)\n      callvalue\n      dup1\n      iszero\n      tag_1\n      jumpi\n      0x00\n      dup1\n      revert\n    tag_1:\n      pop\n      jumpi(tag_2, lt(calldatasize, 0x04))\n      shr(0xe0, calldataload(0x00))\n      dup1\n      0x67cb61b6\n      eq\n      tag_3\n      jumpi\n      dup1\n      0x7e10e9d1\n      eq\n      tag_4\n      jumpi\n      dup1\n      0x843f7258\n      eq\n      tag_5\n      jumpi\n    tag_2:\n      0x00\n      dup1\n      revert\n        /* \"enums.sol\":2041:2150  function getChoice()public view returns(shirtColor){// we return the data type... */\n    tag_3:\n      tag_6\n      tag_7\n      jump\t// in\n    tag_6:\n      mload(0x40)\n      tag_8\n      swap2\n      swap1\n      tag_9\n      jump\t// in\n    tag_8:\n      mload(0x40)\n      dup1\n      swap2\n      sub\n      swap1\n      return\n        /* \"enums.sol\":1963:2033  function setWhite() public{... */\n    tag_4:\n      tag_10\n      tag_11\n      jump\t// in\n    tag_10:\n      stop\n        /* \"enums.sol\":2158:2255  function getDefaultChoice()public view returns(uint){... */\n    tag_5:\n      tag_12\n      tag_13\n      jump\t// in\n    tag_12:\n      mload(0x40)\n      tag_14\n      swap2\n      swap1\n      tag_15\n      jump\t// in\n    tag_14:\n      mload(0x40)\n      dup1\n      swap2\n      sub\n      swap1\n      return\n        /* \"enums.sol\":2041:2150  function getChoice()public view returns(shirtColor){// we return the data type... */\n    tag_7:\n        /* \"enums.sol\":2081:2091  shirtColor */\n      0x00\n        /* \"enums.sol\":2136:2142  choice */\n      dup1\n      0x00\n      swap1\n      sload\n      swap1\n      0x0100\n      exp\n      swap1\n      div\n      0xff\n      and\n        /* \"enums.sol\":2129:2142  return choice */\n      swap1\n      pop\n        /* \"enums.sol\":2041:2150  function getChoice()public view returns(shirtColor){// we return the data type... */\n      swap1\n      jump\t// out\n        /* \"enums.sol\":1963:2033  function setWhite() public{... */\n    tag_11:\n        /* \"enums.sol\":2009:2025  shirtColor.WHITE */\n      0x01\n        /* \"enums.sol\":2000:2006  choice */\n      0x00\n      dup1\n        /* \"enums.sol\":2000:2025  choice = shirtColor.WHITE */\n      0x0100\n      exp\n      dup2\n      sload\n      dup2\n      0xff\n      mul\n      not\n      and\n      swap1\n      dup4\n      0x02\n      dup2\n      gt\n      iszero\n      tag_18\n      jumpi\n      tag_19\n      tag_20\n      jump\t// in\n    tag_19:\n    tag_18:\n      mul\n      or\n      swap1\n      sstore\n      pop\n        /* \"enums.sol\":1963:2033  function setWhite() public{... */\n      jump\t// out\n        /* \"enums.sol\":2158:2255  function getDefaultChoice()public view returns(uint){... */\n    tag_13:\n        /* \"enums.sol\":2205:2209  uint */\n      0x00\n        /* \"enums.sol\":1911:1926  shirtColor.BLUE */\n      0x02\n        /* \"enums.sol\":2228:2247  uint(defaultChoice) */\n      dup1\n      dup2\n      gt\n      iszero\n      tag_22\n      jumpi\n      tag_23\n      tag_20\n      jump\t// in\n    tag_23:\n    tag_22:\n        /* \"enums.sol\":2221:2247  return uint(defaultChoice) */\n      swap1\n      pop\n        /* \"enums.sol\":2158:2255  function getDefaultChoice()public view returns(uint){... */\n      swap1\n      jump\t// out\n        /* \"#utility.yul\":7:187   */\n    tag_20:\n        /* \"#utility.yul\":55:132   */\n      0x4e487b7100000000000000000000000000000000000000000000000000000000\n        /* \"#utility.yul\":52:53   */\n      0x00\n        /* \"#utility.yul\":45:133   */\n      mstore\n        /* \"#utility.yul\":152:156   */\n      0x21\n        /* \"#utility.yul\":149:150   */\n      0x04\n        /* \"#utility.yul\":142:157   */\n      mstore\n        /* \"#utility.yul\":176:180   */\n      0x24\n        /* \"#utility.yul\":173:174   */\n      0x00\n        /* \"#utility.yul\":166:181   */\n      revert\n        /* \"#utility.yul\":193:311   */\n    tag_24:\n        /* \"#utility.yul\":279:280   */\n      0x03\n        /* \"#utility.yul\":272:277   */\n      dup2\n        /* \"#utility.yul\":269:281   */\n      lt\n        /* \"#utility.yul\":259:305   */\n      tag_33\n      jumpi\n        /* \"#utility.yul\":285:303   */\n      tag_34\n      tag_20\n      jump\t// in\n    tag_34:\n        /* \"#utility.yul\":259:305   */\n    tag_33:\n        /* \"#utility.yul\":193:311   */\n      pop\n      jump\t// out\n        /* \"#utility.yul\":317:454   */\n    tag_25:\n        /* \"#utility.yul\":367:374   */\n      0x00\n        /* \"#utility.yul\":396:401   */\n      dup2\n        /* \"#utility.yul\":385:401   */\n      swap1\n      pop\n        /* \"#utility.yul\":402:448   */\n      tag_36\n        /* \"#utility.yul\":442:447   */\n      dup3\n        /* \"#utility.yul\":402:448   */\n      tag_24\n      jump\t// in\n    tag_36:\n        /* \"#utility.yul\":317:454   */\n      swap2\n      swap1\n      pop\n      jump\t// out\n        /* \"#utility.yul\":460:597   */\n    tag_26:\n        /* \"#utility.yul\":521:530   */\n      0x00\n        /* \"#utility.yul\":554:591   */\n      tag_38\n        /* \"#utility.yul\":585:590   */\n      dup3\n        /* \"#utility.yul\":554:591   */\n      tag_25\n      jump\t// in\n    tag_38:\n        /* \"#utility.yul\":541:591   */\n      swap1\n      pop\n        /* \"#utility.yul\":460:597   */\n      swap2\n      swap1\n      pop\n      jump\t// out\n        /* \"#utility.yul\":603:756   */\n    tag_27:\n        /* \"#utility.yul\":701:749   */\n      tag_40\n        /* \"#utility.yul\":743:748   */\n      dup2\n        /* \"#utility.yul\":701:749   */\n      tag_26\n      jump\t// in\n    tag_40:\n        /* \"#utility.yul\":696:699   */\n      dup3\n        /* \"#utility.yul\":689:750   */\n      mstore\n        /* \"#utility.yul\":603:756   */\n      pop\n      pop\n      jump\t// out\n        /* \"#utility.yul\":762:1006   */\n    tag_9:\n        /* \"#utility.yul\":866:870   */\n      0x00\n        /* \"#utility.yul\":904:906   */\n      0x20\n        /* \"#utility.yul\":893:902   */\n      dup3\n        /* \"#utility.yul\":889:907   */\n      add\n        /* \"#utility.yul\":881:907   */\n      swap1\n      pop\n        /* \"#utility.yul\":917:999   */\n      tag_42\n        /* \"#utility.yul\":996:997   */\n      0x00\n        /* \"#utility.yul\":985:994   */\n      dup4\n        /* \"#utility.yul\":981:998   */\n      add\n        /* \"#utility.yul\":972:978   */\n      dup5\n        /* \"#utility.yul\":917:999   */\n      tag_27\n      jump\t// in\n    tag_42:\n        /* \"#utility.yul\":762:1006   */\n      swap3\n      swap2\n      pop\n      pop\n      jump\t// out\n        /* \"#utility.yul\":1012:1089   */\n    tag_28:\n        /* \"#utility.yul\":1049:1056   */\n      0x00\n        /* \"#utility.yul\":1078:1083   */\n      dup2\n        /* \"#utility.yul\":1067:1083   */\n      swap1\n      pop\n        /* \"#utility.yul\":1012:1089   */\n      swap2\n      swap1\n      pop\n      jump\t// out\n        /* \"#utility.yul\":1095:1213   */\n    tag_29:\n        /* \"#utility.yul\":1182:1206   */\n      tag_45\n        /* \"#utility.yul\":1200:1205   */\n      dup2\n        /* \"#utility.yul\":1182:1206   */\n      tag_28\n      jump\t// in\n    tag_45:\n        /* \"#utility.yul\":1177:1180   */\n      dup3\n        /* \"#utility.yul\":1170:1207   */\n      mstore\n        /* \"#utility.yul\":1095:1213   */\n      pop\n      pop\n      jump\t// out\n        /* \"#utility.yul\":1219:1441   */\n    tag_15:\n        /* \"#utility.yul\":1312:1316   */\n      0x00\n        /* \"#utility.yul\":1350:1352   */\n      0x20\n        /* \"#utility.yul\":1339:1348   */\n      dup3\n        /* \"#utility.yul\":1335:1353   */\n      add\n        /* \"#utility.yul\":1327:1353   */\n      swap1\n      pop\n        /* \"#utility.yul\":1363:1434   */\n      tag_47\n        /* \"#utility.yul\":1431:1432   */\n      0x00\n        /* \"#utility.yul\":1420:1429   */\n      dup4\n        /* \"#utility.yul\":1416:1433   */\n      add\n        /* \"#utility.yul\":1407:1413   */\n      dup5\n        /* \"#utility.yul\":1363:1434   */\n      tag_29\n      jump\t// in\n    tag_47:\n        /* \"#utility.yul\":1219:1441   */\n      swap3\n      swap2\n      pop\n      pop\n      jump\t// out\n\n    auxdata: 0xa2646970667358221220d263a6adc2ebf16cb3bddd0415cb4f9a175240059eeaf42a29c5956d26aca03664736f6c63430008110033\n}\n",
				"bytecode": {
					"linkReferences": {},
					"object": "608060405234801561001057600080fd5b506101e4806100206000396000f3fe608060405234801561001057600080fd5b50600436106100415760003560e01c806367cb61b6146100465780637e10e9d114610064578063843f72581461006e575b600080fd5b61004e61008c565b60405161005b919061015f565b60405180910390f35b61006c6100a2565b005b6100766100ce565b6040516100839190610193565b60405180910390f35b60008060009054906101000a900460ff16905090565b60016000806101000a81548160ff021916908360028111156100c7576100c66100e8565b5b0217905550565b60006002808111156100e3576100e26100e8565b5b905090565b7f4e487b7100000000000000000000000000000000000000000000000000000000600052602160045260246000fd5b60038110610128576101276100e8565b5b50565b600081905061013982610117565b919050565b60006101498261012b565b9050919050565b6101598161013e565b82525050565b60006020820190506101746000830184610150565b92915050565b6000819050919050565b61018d8161017a565b82525050565b60006020820190506101a86000830184610184565b9291505056fea2646970667358221220d263a6adc2ebf16cb3bddd0415cb4f9a175240059eeaf42a29c5956d26aca03664736f6c63430008110033",
					"opcodes": "PUSH1 0x80 PUSH1 0x40 MSTORE CALLVALUE DUP1 ISZERO PUSH2 0x10 JUMPI PUSH1 0x0 DUP1 REVERT JUMPDEST POP PUSH2 0x1E4 DUP1 PUSH2 0x20 PUSH1 0x0 CODECOPY PUSH1 0x0 RETURN INVALID PUSH1 0x80 PUSH1 0x40 MSTORE CALLVALUE DUP1 ISZERO PUSH2 0x10 JUMPI PUSH1 0x0 DUP1 REVERT JUMPDEST POP PUSH1 0x4 CALLDATASIZE LT PUSH2 0x41 JUMPI PUSH1 0x0 CALLDATALOAD PUSH1 0xE0 SHR DUP1 PUSH4 0x67CB61B6 EQ PUSH2 0x46 JUMPI DUP1 PUSH4 0x7E10E9D1 EQ PUSH2 0x64 JUMPI DUP1 PUSH4 0x843F7258 EQ PUSH2 0x6E JUMPI JUMPDEST PUSH1 0x0 DUP1 REVERT JUMPDEST PUSH2 0x4E PUSH2 0x8C JUMP JUMPDEST PUSH1 0x40 MLOAD PUSH2 0x5B SWAP2 SWAP1 PUSH2 0x15F JUMP JUMPDEST PUSH1 0x40 MLOAD DUP1 SWAP2 SUB SWAP1 RETURN JUMPDEST PUSH2 0x6C PUSH2 0xA2 JUMP JUMPDEST STOP JUMPDEST PUSH2 0x76 PUSH2 0xCE JUMP JUMPDEST PUSH1 0x40 MLOAD PUSH2 0x83 SWAP2 SWAP1 PUSH2 0x193 JUMP JUMPDEST PUSH1 0x40 MLOAD DUP1 SWAP2 SUB SWAP1 RETURN JUMPDEST PUSH1 0x0 DUP1 PUSH1 0x0 SWAP1 SLOAD SWAP1 PUSH2 0x100 EXP SWAP1 DIV PUSH1 0xFF AND SWAP1 POP SWAP1 JUMP JUMPDEST PUSH1 0x1 PUSH1 0x0 DUP1 PUSH2 0x100 EXP DUP2 SLOAD DUP2 PUSH1 0xFF MUL NOT AND SWAP1 DUP4 PUSH1 0x2 DUP2 GT ISZERO PUSH2 0xC7 JUMPI PUSH2 0xC6 PUSH2 0xE8 JUMP JUMPDEST JUMPDEST MUL OR SWAP1 SSTORE POP JUMP JUMPDEST PUSH1 0x0 PUSH1 0x2 DUP1 DUP2 GT ISZERO PUSH2 0xE3 JUMPI PUSH2 0xE2 PUSH2 0xE8 JUMP JUMPDEST JUMPDEST SWAP1 POP SWAP1 JUMP JUMPDEST PUSH32 0x4E487B7100000000000000000000000000000000000000000000000000000000 PUSH1 0x0 MSTORE PUSH1 0x21 PUSH1 0x4 MSTORE PUSH1 0x24 PUSH1 0x0 REVERT JUMPDEST PUSH1 0x3 DUP2 LT PUSH2 0x128 JUMPI PUSH2 0x127 PUSH2 0xE8 JUMP JUMPDEST JUMPDEST POP JUMP JUMPDEST PUSH1 0x0 DUP2 SWAP1 POP PUSH2 0x139 DUP3 PUSH2 0x117 JUMP JUMPDEST SWAP2 SWAP1 POP JUMP JUMPDEST PUSH1 0x0 PUSH2 0x149 DUP3 PUSH2 0x12B JUMP JUMPDEST SWAP1 POP SWAP2 SWAP1 POP JUMP JUMPDEST PUSH2 0x159 DUP2 PUSH2 0x13E JUMP JUMPDEST DUP3 MSTORE POP POP JUMP JUMPDEST PUSH1 0x0 PUSH1 0x20 DUP3 ADD SWAP1 POP PUSH2 0x174 PUSH1 0x0 DUP4 ADD DUP5 PUSH2 0x150 JUMP JUMPDEST SWAP3 SWAP2 POP POP JUMP JUMPDEST PUSH1 0x0 DUP2 SWAP1 POP SWAP2 SWAP1 POP JUMP JUMPDEST PUSH2 0x18D DUP2 PUSH2 0x17A JUMP JUMPDEST DUP3 MSTORE POP POP JUMP JUMPDEST PUSH1 0x0 PUSH1 0x20 DUP3 ADD SWAP1 POP PUSH2 0x1A8 PUSH1 0x0 DUP4 ADD DUP5 PUSH2 0x184 JUMP JUMPDEST SWAP3 SWAP2 POP POP JUMP INVALID LOG2 PUSH5 0x6970667358 0x22 SLT KECCAK256 0xD2 PUSH4 0xA6ADC2EB CALL PUSH13 0xB3BDDD0415CB4F9A175240059E 0xEA DELEGATECALL 0x2A 0x29 0xC5 SWAP6 PUSH14 0x26ACA03664736F6C634300081100 CALLER "
				},
				"gasEstimates": {
					"creation": {
						"codeDepositCost": "96800",
						"executionCost": "147",
						"totalCost": "96947"
					},
					"external": {
						"getChoice()": "2546",
						"getDefaultChoice()": "385",
						"setWhite()": "24431"
					}
				},
				"methodIdentifiers": {
					"getChoice()": "67cb61b6",
					"getDefaultChoice()": "843f7258",
					"setWhite()": "7e10e9d1"
				}
			},
			"storageLayout": {
				"storage": [
					{
						"astId": 55,
						"contract": "enums.sol:ColorOptions",
						"label": "choice",
						"offset": 0,
						"slot": "0",
						"type": "t_enum(shirtColor)47"
					}
				],
				"types": {
					"t_enum(shirtColor)47": {
						"encoding": "inplace",
						"label": "enum ColorOptions.shirtColor",
						"numberOfBytes": "1"
					}
				}
			},
			"userdoc": {
				"kind": "user",
				"methods": {},
				"version": 1
			}
		}
	}
}