{
	"enums.sol": {
		"enumsLearn": {
			"abi": [
				{
					"inputs": [],
					"name": "getChoice",
					"outputs": [
						{
							"internalType": "enum enumsLearn.frenchFriessize",
							"name": "",
							"type": "uint8"
						}
					],
					"stateMutability": "view",
					"type": "function"
				},
				{
					"inputs": [],
					"name": "getDefaultChoice",
					"outputs": [
						{
							"internalType": "uint256",
							"name": "",
							"type": "uint256"
						}
					],
					"stateMutability": "view",
					"type": "function"
				},
				{
					"inputs": [],
					"name": "setSmall",
					"outputs": [],
					"stateMutability": "nonpayable",
					"type": "function"
				}
			],
			"devdoc": {
				"kind": "dev",
				"methods": {},
				"version": 1
			},
			"evm": {
				"assembly": "    /* \"enums.sol\":653:1261  contract enumsLearn{... */\n  mstore(0x40, 0x80)\n  callvalue\n  dup1\n  iszero\n  tag_1\n  jumpi\n  0x00\n  dup1\n  revert\ntag_1:\n  pop\n  dataSize(sub_0)\n  dup1\n  dataOffset(sub_0)\n  0x00\n  codecopy\n  0x00\n  return\nstop\n\nsub_0: assembly {\n        /* \"enums.sol\":653:1261  contract enumsLearn{... */\n      mstore(0x40, 0x80)\n      callvalue\n      dup1\n      iszero\n      tag_1\n      jumpi\n      0x00\n      dup1\n      revert\n    tag_1:\n      pop\n      jumpi(tag_2, lt(calldatasize, 0x04))\n      shr(0xe0, calldataload(0x00))\n      dup1\n      0x67cb61b6\n      eq\n      tag_3\n      jumpi\n      dup1\n      0x843f7258\n      eq\n      tag_4\n      jumpi\n      dup1\n      0x91ff2c86\n      eq\n      tag_5\n      jumpi\n    tag_2:\n      0x00\n      dup1\n      revert\n        /* \"enums.sol\":1059:1147  function getChoice()public view returns(frenchFriessize){... */\n    tag_3:\n      tag_6\n      tag_7\n      jump\t// in\n    tag_6:\n      mload(0x40)\n      tag_8\n      swap2\n      swap1\n      tag_9\n      jump\t// in\n    tag_8:\n      mload(0x40)\n      dup1\n      swap2\n      sub\n      swap1\n      return\n        /* \"enums.sol\":1157:1254  function getDefaultChoice()public view returns(uint){... */\n    tag_4:\n      tag_10\n      tag_11\n      jump\t// in\n    tag_10:\n      mload(0x40)\n      tag_12\n      swap2\n      swap1\n      tag_13\n      jump\t// in\n    tag_12:\n      mload(0x40)\n      dup1\n      swap2\n      sub\n      swap1\n      return\n        /* \"enums.sol\":980:1051  function setSmall() public{... */\n    tag_5:\n      tag_14\n      tag_15\n      jump\t// in\n    tag_14:\n      stop\n        /* \"enums.sol\":1059:1147  function getChoice()public view returns(frenchFriessize){... */\n    tag_7:\n        /* \"enums.sol\":1099:1114  frenchFriessize */\n      0x00\n        /* \"enums.sol\":1133:1139  choice */\n      dup1\n      0x00\n      swap1\n      sload\n      swap1\n      0x0100\n      exp\n      swap1\n      div\n      0xff\n      and\n        /* \"enums.sol\":1126:1139  return choice */\n      swap1\n      pop\n        /* \"enums.sol\":1059:1147  function getChoice()public view returns(frenchFriessize){... */\n      swap1\n      jump\t// out\n        /* \"enums.sol\":1157:1254  function getDefaultChoice()public view returns(uint){... */\n    tag_11:\n        /* \"enums.sol\":1204:1208  uint */\n      0x00\n        /* \"enums.sol\":817:839  frenchFriessize.MEDIUM */\n      0x01\n        /* \"enums.sol\":1227:1246  uint(defaultChoice) */\n      0x02\n      dup2\n      gt\n      iszero\n      tag_18\n      jumpi\n      tag_19\n      tag_20\n      jump\t// in\n    tag_19:\n    tag_18:\n        /* \"enums.sol\":1220:1246  return uint(defaultChoice) */\n      swap1\n      pop\n        /* \"enums.sol\":1157:1254  function getDefaultChoice()public view returns(uint){... */\n      swap1\n      jump\t// out\n        /* \"enums.sol\":980:1051  function setSmall() public{... */\n    tag_15:\n        /* \"enums.sol\":1022:1043  frenchFriessize.SMALL */\n      0x02\n        /* \"enums.sol\":1013:1019  choice */\n      0x00\n      dup1\n        /* \"enums.sol\":1013:1043  choice = frenchFriessize.SMALL */\n      0x0100\n      exp\n      dup2\n      sload\n      dup2\n      0xff\n      mul\n      not\n      and\n      swap1\n      dup4\n      0x02\n      dup2\n      gt\n      iszero\n      tag_22\n      jumpi\n      tag_23\n      tag_20\n      jump\t// in\n    tag_23:\n    tag_22:\n      mul\n      or\n      swap1\n      sstore\n      pop\n        /* \"enums.sol\":980:1051  function setSmall() public{... */\n      jump\t// out\n        /* \"#utility.yul\":7:187   */\n    tag_20:\n        /* \"#utility.yul\":55:132   */\n      0x4e487b7100000000000000000000000000000000000000000000000000000000\n        /* \"#utility.yul\":52:53   */\n      0x00\n        /* \"#utility.yul\":45:133   */\n      mstore\n        /* \"#utility.yul\":152:156   */\n      0x21\n        /* \"#utility.yul\":149:150   */\n      0x04\n        /* \"#utility.yul\":142:157   */\n      mstore\n        /* \"#utility.yul\":176:180   */\n      0x24\n        /* \"#utility.yul\":173:174   */\n      0x00\n        /* \"#utility.yul\":166:181   */\n      revert\n        /* \"#utility.yul\":193:315   */\n    tag_24:\n        /* \"#utility.yul\":283:284   */\n      0x03\n        /* \"#utility.yul\":276:281   */\n      dup2\n        /* \"#utility.yul\":273:285   */\n      lt\n        /* \"#utility.yul\":263:309   */\n      tag_33\n      jumpi\n        /* \"#utility.yul\":289:307   */\n      tag_34\n      tag_20\n      jump\t// in\n    tag_34:\n        /* \"#utility.yul\":263:309   */\n    tag_33:\n        /* \"#utility.yul\":193:315   */\n      pop\n      jump\t// out\n        /* \"#utility.yul\":321:466   */\n    tag_25:\n        /* \"#utility.yul\":375:382   */\n      0x00\n        /* \"#utility.yul\":404:409   */\n      dup2\n        /* \"#utility.yul\":393:409   */\n      swap1\n      pop\n        /* \"#utility.yul\":410:460   */\n      tag_36\n        /* \"#utility.yul\":454:459   */\n      dup3\n        /* \"#utility.yul\":410:460   */\n      tag_24\n      jump\t// in\n    tag_36:\n        /* \"#utility.yul\":321:466   */\n      swap2\n      swap1\n      pop\n      jump\t// out\n        /* \"#utility.yul\":472:617   */\n    tag_26:\n        /* \"#utility.yul\":537:546   */\n      0x00\n        /* \"#utility.yul\":570:611   */\n      tag_38\n        /* \"#utility.yul\":605:610   */\n      dup3\n        /* \"#utility.yul\":570:611   */\n      tag_25\n      jump\t// in\n    tag_38:\n        /* \"#utility.yul\":557:611   */\n      swap1\n      pop\n        /* \"#utility.yul\":472:617   */\n      swap2\n      swap1\n      pop\n      jump\t// out\n        /* \"#utility.yul\":623:784   */\n    tag_27:\n        /* \"#utility.yul\":725:777   */\n      tag_40\n        /* \"#utility.yul\":771:776   */\n      dup2\n        /* \"#utility.yul\":725:777   */\n      tag_26\n      jump\t// in\n    tag_40:\n        /* \"#utility.yul\":720:723   */\n      dup3\n        /* \"#utility.yul\":713:778   */\n      mstore\n        /* \"#utility.yul\":623:784   */\n      pop\n      pop\n      jump\t// out\n        /* \"#utility.yul\":790:1042   */\n    tag_9:\n        /* \"#utility.yul\":898:902   */\n      0x00\n        /* \"#utility.yul\":936:938   */\n      0x20\n        /* \"#utility.yul\":925:934   */\n      dup3\n        /* \"#utility.yul\":921:939   */\n      add\n        /* \"#utility.yul\":913:939   */\n      swap1\n      pop\n        /* \"#utility.yul\":949:1035   */\n      tag_42\n        /* \"#utility.yul\":1032:1033   */\n      0x00\n        /* \"#utility.yul\":1021:1030   */\n      dup4\n        /* \"#utility.yul\":1017:1034   */\n      add\n        /* \"#utility.yul\":1008:1014   */\n      dup5\n        /* \"#utility.yul\":949:1035   */\n      tag_27\n      jump\t// in\n    tag_42:\n        /* \"#utility.yul\":790:1042   */\n      swap3\n      swap2\n      pop\n      pop\n      jump\t// out\n        /* \"#utility.yul\":1048:1125   */\n    tag_28:\n        /* \"#utility.yul\":1085:1092   */\n      0x00\n        /* \"#utility.yul\":1114:1119   */\n      dup2\n        /* \"#utility.yul\":1103:1119   */\n      swap1\n      pop\n        /* \"#utility.yul\":1048:1125   */\n      swap2\n      swap1\n      pop\n      jump\t// out\n        /* \"#utility.yul\":1131:1249   */\n    tag_29:\n        /* \"#utility.yul\":1218:1242   */\n      tag_45\n        /* \"#utility.yul\":1236:1241   */\n      dup2\n        /* \"#utility.yul\":1218:1242   */\n      tag_28\n      jump\t// in\n    tag_45:\n        /* \"#utility.yul\":1213:1216   */\n      dup3\n        /* \"#utility.yul\":1206:1243   */\n      mstore\n        /* \"#utility.yul\":1131:1249   */\n      pop\n      pop\n      jump\t// out\n        /* \"#utility.yul\":1255:1477   */\n    tag_13:\n        /* \"#utility.yul\":1348:1352   */\n      0x00\n        /* \"#utility.yul\":1386:1388   */\n      0x20\n        /* \"#utility.yul\":1375:1384   */\n      dup3\n        /* \"#utility.yul\":1371:1389   */\n      add\n        /* \"#utility.yul\":1363:1389   */\n      swap1\n      pop\n        /* \"#utility.yul\":1399:1470   */\n      tag_47\n        /* \"#utility.yul\":1467:1468   */\n      0x00\n        /* \"#utility.yul\":1456:1465   */\n      dup4\n        /* \"#utility.yul\":1452:1469   */\n      add\n        /* \"#utility.yul\":1443:1449   */\n      dup5\n        /* \"#utility.yul\":1399:1470   */\n      tag_29\n      jump\t// in\n    tag_47:\n        /* \"#utility.yul\":1255:1477   */\n      swap3\n      swap2\n      pop\n      pop\n      jump\t// out\n\n    auxdata: 0xa2646970667358221220a2992eff5cec1a753062d53b6f202365e9c7b79c8923c74ed74bd7fe30a3554f64736f6c63430008110033\n}\n",
				"bytecode": {
					"linkReferences": {},
					"object": "608060405234801561001057600080fd5b506101e5806100206000396000f3fe608060405234801561001057600080fd5b50600436106100415760003560e01c806367cb61b614610046578063843f72581461006457806391ff2c8614610082575b600080fd5b61004e61008c565b60405161005b9190610160565b60405180910390f35b61006c6100a2565b6040516100799190610194565b60405180910390f35b61008a6100bd565b005b60008060009054906101000a900460ff16905090565b6000600160028111156100b8576100b76100e9565b5b905090565b60026000806101000a81548160ff021916908360028111156100e2576100e16100e9565b5b0217905550565b7f4e487b7100000000000000000000000000000000000000000000000000000000600052602160045260246000fd5b60038110610129576101286100e9565b5b50565b600081905061013a82610118565b919050565b600061014a8261012c565b9050919050565b61015a8161013f565b82525050565b60006020820190506101756000830184610151565b92915050565b6000819050919050565b61018e8161017b565b82525050565b60006020820190506101a96000830184610185565b9291505056fea2646970667358221220a2992eff5cec1a753062d53b6f202365e9c7b79c8923c74ed74bd7fe30a3554f64736f6c63430008110033",
					"opcodes": "PUSH1 0x80 PUSH1 0x40 MSTORE CALLVALUE DUP1 ISZERO PUSH2 0x10 JUMPI PUSH1 0x0 DUP1 REVERT JUMPDEST POP PUSH2 0x1E5 DUP1 PUSH2 0x20 PUSH1 0x0 CODECOPY PUSH1 0x0 RETURN INVALID PUSH1 0x80 PUSH1 0x40 MSTORE CALLVALUE DUP1 ISZERO PUSH2 0x10 JUMPI PUSH1 0x0 DUP1 REVERT JUMPDEST POP PUSH1 0x4 CALLDATASIZE LT PUSH2 0x41 JUMPI PUSH1 0x0 CALLDATALOAD PUSH1 0xE0 SHR DUP1 PUSH4 0x67CB61B6 EQ PUSH2 0x46 JUMPI DUP1 PUSH4 0x843F7258 EQ PUSH2 0x64 JUMPI DUP1 PUSH4 0x91FF2C86 EQ PUSH2 0x82 JUMPI JUMPDEST PUSH1 0x0 DUP1 REVERT JUMPDEST PUSH2 0x4E PUSH2 0x8C JUMP JUMPDEST PUSH1 0x40 MLOAD PUSH2 0x5B SWAP2 SWAP1 PUSH2 0x160 JUMP JUMPDEST PUSH1 0x40 MLOAD DUP1 SWAP2 SUB SWAP1 RETURN JUMPDEST PUSH2 0x6C PUSH2 0xA2 JUMP JUMPDEST PUSH1 0x40 MLOAD PUSH2 0x79 SWAP2 SWAP1 PUSH2 0x194 JUMP JUMPDEST PUSH1 0x40 MLOAD DUP1 SWAP2 SUB SWAP1 RETURN JUMPDEST PUSH2 0x8A PUSH2 0xBD JUMP JUMPDEST STOP JUMPDEST PUSH1 0x0 DUP1 PUSH1 0x0 SWAP1 SLOAD SWAP1 PUSH2 0x100 EXP SWAP1 DIV PUSH1 0xFF AND SWAP1 POP SWAP1 JUMP JUMPDEST PUSH1 0x0 PUSH1 0x1 PUSH1 0x2 DUP2 GT ISZERO PUSH2 0xB8 JUMPI PUSH2 0xB7 PUSH2 0xE9 JUMP JUMPDEST JUMPDEST SWAP1 POP SWAP1 JUMP JUMPDEST PUSH1 0x2 PUSH1 0x0 DUP1 PUSH2 0x100 EXP DUP2 SLOAD DUP2 PUSH1 0xFF MUL NOT AND SWAP1 DUP4 PUSH1 0x2 DUP2 GT ISZERO PUSH2 0xE2 JUMPI PUSH2 0xE1 PUSH2 0xE9 JUMP JUMPDEST JUMPDEST MUL OR SWAP1 SSTORE POP JUMP JUMPDEST PUSH32 0x4E487B7100000000000000000000000000000000000000000000000000000000 PUSH1 0x0 MSTORE PUSH1 0x21 PUSH1 0x4 MSTORE PUSH1 0x24 PUSH1 0x0 REVERT JUMPDEST PUSH1 0x3 DUP2 LT PUSH2 0x129 JUMPI PUSH2 0x128 PUSH2 0xE9 JUMP JUMPDEST JUMPDEST POP JUMP JUMPDEST PUSH1 0x0 DUP2 SWAP1 POP PUSH2 0x13A DUP3 PUSH2 0x118 JUMP JUMPDEST SWAP2 SWAP1 POP JUMP JUMPDEST PUSH1 0x0 PUSH2 0x14A DUP3 PUSH2 0x12C JUMP JUMPDEST SWAP1 POP SWAP2 SWAP1 POP JUMP JUMPDEST PUSH2 0x15A DUP2 PUSH2 0x13F JUMP JUMPDEST DUP3 MSTORE POP POP JUMP JUMPDEST PUSH1 0x0 PUSH1 0x20 DUP3 ADD SWAP1 POP PUSH2 0x175 PUSH1 0x0 DUP4 ADD DUP5 PUSH2 0x151 JUMP JUMPDEST SWAP3 SWAP2 POP POP JUMP JUMPDEST PUSH1 0x0 DUP2 SWAP1 POP SWAP2 SWAP1 POP JUMP JUMPDEST PUSH2 0x18E DUP2 PUSH2 0x17B JUMP JUMPDEST DUP3 MSTORE POP POP JUMP JUMPDEST PUSH1 0x0 PUSH1 0x20 DUP3 ADD SWAP1 POP PUSH2 0x1A9 PUSH1 0x0 DUP4 ADD DUP5 PUSH2 0x185 JUMP JUMPDEST SWAP3 SWAP2 POP POP JUMP INVALID LOG2 PUSH5 0x6970667358 0x22 SLT KECCAK256 LOG2 SWAP10 0x2E SELFDESTRUCT 0x5C 0xEC BYTE PUSH22 0x3062D53B6F202365E9C7B79C8923C74ED74BD7FE30A3 SSTORE 0x4F PUSH5 0x736F6C6343 STOP ADDMOD GT STOP CALLER "
				},
				"gasEstimates": {
					"creation": {
						"codeDepositCost": "97000",
						"executionCost": "147",
						"totalCost": "97147"
					},
					"external": {
						"getChoice()": "2546",
						"getDefaultChoice()": "363",
						"setSmall()": "24453"
					}
				},
				"methodIdentifiers": {
					"getChoice()": "67cb61b6",
					"getDefaultChoice()": "843f7258",
					"setSmall()": "91ff2c86"
				}
			},
			"storageLayout": {
				"storage": [
					{
						"astId": 8,
						"contract": "enums.sol:enumsLearn",
						"label": "choice",
						"offset": 0,
						"slot": "0",
						"type": "t_enum(frenchFriessize)5"
					}
				],
				"types": {
					"t_enum(frenchFriessize)5": {
						"encoding": "inplace",
						"label": "enum enumsLearn.frenchFriessize",
						"numberOfBytes": "1"
					}
				}
			},
			"userdoc": {
				"kind": "user",
				"methods": {},
				"version": 1
			}
		}
	}
}