{
	"arithmetic-operators.sol": {
		"Operators": {
			"abi": [
				{
					"inputs": [],
					"name": "calculator",
					"outputs": [
						{
							"internalType": "uint256",
							"name": "",
							"type": "uint256"
						}
					],
					"stateMutability": "pure",
					"type": "function"
				}
			],
			"devdoc": {
				"kind": "dev",
				"methods": {},
				"version": 1
			},
			"evm": {
				"assembly": "    /* \"arithmetic-operators.sol\":263:487  contract Operators{\r... */\n  mstore(0x40, 0x80)\n  callvalue\n  dup1\n  iszero\n  tag_1\n  jumpi\n  0x00\n  dup1\n  revert\ntag_1:\n  pop\n  dataSize(sub_0)\n  dup1\n  dataOffset(sub_0)\n  0x00\n  codecopy\n  0x00\n  return\nstop\n\nsub_0: assembly {\n        /* \"arithmetic-operators.sol\":263:487  contract Operators{\r... */\n      mstore(0x40, 0x80)\n      callvalue\n      dup1\n      iszero\n      tag_1\n      jumpi\n      0x00\n      dup1\n      revert\n    tag_1:\n      pop\n      jumpi(tag_2, lt(calldatasize, 0x04))\n      shr(0xe0, calldataload(0x00))\n      dup1\n      0xce3e39c0\n      eq\n      tag_3\n      jumpi\n    tag_2:\n      0x00\n      dup1\n      revert\n        /* \"arithmetic-operators.sol\":290:484  function calculator() public pure  returns(uint) {\r... */\n    tag_3:\n      tag_4\n      tag_5\n      jump\t// in\n    tag_4:\n      mload(0x40)\n      tag_6\n      swap2\n      swap1\n      tag_7\n      jump\t// in\n    tag_6:\n      mload(0x40)\n      dup1\n      swap2\n      sub\n      swap1\n      return\n    tag_5:\n        /* \"arithmetic-operators.sol\":333:337  uint */\n      0x00\n        /* \"arithmetic-operators.sol\":350:356  uint a */\n      dup1\n        /* \"arithmetic-operators.sol\":359:360  5 */\n      0x05\n        /* \"arithmetic-operators.sol\":350:360  uint a = 5 */\n      swap1\n      pop\n        /* \"arithmetic-operators.sol\":371:377  uint b */\n      0x00\n        /* \"arithmetic-operators.sol\":380:381  8 */\n      0x08\n        /* \"arithmetic-operators.sol\":371:381  uint b = 8 */\n      swap1\n      pop\n        /* \"arithmetic-operators.sol\":392:403  uint result */\n      0x00\n        /* \"arithmetic-operators.sol\":426:427  b */\n      dup2\n        /* \"arithmetic-operators.sol\":423:424  a */\n      dup4\n        /* \"arithmetic-operators.sol\":423:427  a /b */\n      tag_9\n      swap2\n      swap1\n      tag_10\n      jump\t// in\n    tag_9:\n        /* \"arithmetic-operators.sol\":414:427  result = a /b */\n      swap1\n      pop\n        /* \"arithmetic-operators.sol\":468:474  result */\n      dup1\n        /* \"arithmetic-operators.sol\":461:474  return result */\n      swap4\n      pop\n      pop\n      pop\n      pop\n        /* \"arithmetic-operators.sol\":290:484  function calculator() public pure  returns(uint) {\r... */\n      swap1\n      jump\t// out\n        /* \"#utility.yul\":7:125   */\n    tag_12:\n        /* \"#utility.yul\":94:118   */\n      tag_14\n        /* \"#utility.yul\":112:117   */\n      dup2\n        /* \"#utility.yul\":94:118   */\n      tag_15\n      jump\t// in\n    tag_14:\n        /* \"#utility.yul\":89:92   */\n      dup3\n        /* \"#utility.yul\":82:119   */\n      mstore\n        /* \"#utility.yul\":7:125   */\n      pop\n      pop\n      jump\t// out\n        /* \"#utility.yul\":131:353   */\n    tag_7:\n        /* \"#utility.yul\":224:228   */\n      0x00\n        /* \"#utility.yul\":262:264   */\n      0x20\n        /* \"#utility.yul\":251:260   */\n      dup3\n        /* \"#utility.yul\":247:265   */\n      add\n        /* \"#utility.yul\":239:265   */\n      swap1\n      pop\n        /* \"#utility.yul\":275:346   */\n      tag_17\n        /* \"#utility.yul\":343:344   */\n      0x00\n        /* \"#utility.yul\":332:341   */\n      dup4\n        /* \"#utility.yul\":328:345   */\n      add\n        /* \"#utility.yul\":319:325   */\n      dup5\n        /* \"#utility.yul\":275:346   */\n      tag_12\n      jump\t// in\n    tag_17:\n        /* \"#utility.yul\":131:353   */\n      swap3\n      swap2\n      pop\n      pop\n      jump\t// out\n        /* \"#utility.yul\":359:544   */\n    tag_10:\n        /* \"#utility.yul\":399:400   */\n      0x00\n        /* \"#utility.yul\":416:436   */\n      tag_19\n        /* \"#utility.yul\":434:435   */\n      dup3\n        /* \"#utility.yul\":416:436   */\n      tag_15\n      jump\t// in\n    tag_19:\n        /* \"#utility.yul\":411:436   */\n      swap2\n      pop\n        /* \"#utility.yul\":450:470   */\n      tag_20\n        /* \"#utility.yul\":468:469   */\n      dup4\n        /* \"#utility.yul\":450:470   */\n      tag_15\n      jump\t// in\n    tag_20:\n        /* \"#utility.yul\":445:470   */\n      swap3\n      pop\n        /* \"#utility.yul\":489:490   */\n      dup3\n        /* \"#utility.yul\":479:514   */\n      tag_21\n      jumpi\n        /* \"#utility.yul\":494:512   */\n      tag_22\n      tag_23\n      jump\t// in\n    tag_22:\n        /* \"#utility.yul\":479:514   */\n    tag_21:\n        /* \"#utility.yul\":536:537   */\n      dup3\n        /* \"#utility.yul\":533:534   */\n      dup3\n        /* \"#utility.yul\":529:538   */\n      div\n        /* \"#utility.yul\":524:538   */\n      swap1\n      pop\n        /* \"#utility.yul\":359:544   */\n      swap3\n      swap2\n      pop\n      pop\n      jump\t// out\n        /* \"#utility.yul\":550:627   */\n    tag_15:\n        /* \"#utility.yul\":587:594   */\n      0x00\n        /* \"#utility.yul\":616:621   */\n      dup2\n        /* \"#utility.yul\":605:621   */\n      swap1\n      pop\n        /* \"#utility.yul\":550:627   */\n      swap2\n      swap1\n      pop\n      jump\t// out\n        /* \"#utility.yul\":819:999   */\n    tag_23:\n        /* \"#utility.yul\":867:944   */\n      0x4e487b7100000000000000000000000000000000000000000000000000000000\n        /* \"#utility.yul\":864:865   */\n      0x00\n        /* \"#utility.yul\":857:945   */\n      mstore\n        /* \"#utility.yul\":964:968   */\n      0x12\n        /* \"#utility.yul\":961:962   */\n      0x04\n        /* \"#utility.yul\":954:969   */\n      mstore\n        /* \"#utility.yul\":988:992   */\n      0x24\n        /* \"#utility.yul\":985:986   */\n      0x00\n        /* \"#utility.yul\":978:993   */\n      revert\n\n    auxdata: 0xa2646970667358221220a901f82b919fa77ea575dda31b92b370aa2a75f4d60a4a89d354c6e1d0cd072664736f6c63430008070033\n}\n",
				"bytecode": {
					"linkReferences": {},
					"object": "608060405234801561001057600080fd5b5061012a806100206000396000f3fe6080604052348015600f57600080fd5b506004361060285760003560e01c8063ce3e39c014602d575b600080fd5b60336047565b604051603e91906078565b60405180910390f35b6000806005905060006008905060008183606091906091565b905080935050505090565b60728160bb565b82525050565b6000602082019050608b6000830184606b565b92915050565b6000609a8260bb565b915060a38360bb565b92508260b05760af60c5565b5b828204905092915050565b6000819050919050565b7f4e487b7100000000000000000000000000000000000000000000000000000000600052601260045260246000fdfea2646970667358221220a901f82b919fa77ea575dda31b92b370aa2a75f4d60a4a89d354c6e1d0cd072664736f6c63430008070033",
					"opcodes": "PUSH1 0x80 PUSH1 0x40 MSTORE CALLVALUE DUP1 ISZERO PUSH2 0x10 JUMPI PUSH1 0x0 DUP1 REVERT JUMPDEST POP PUSH2 0x12A DUP1 PUSH2 0x20 PUSH1 0x0 CODECOPY PUSH1 0x0 RETURN INVALID PUSH1 0x80 PUSH1 0x40 MSTORE CALLVALUE DUP1 ISZERO PUSH1 0xF JUMPI PUSH1 0x0 DUP1 REVERT JUMPDEST POP PUSH1 0x4 CALLDATASIZE LT PUSH1 0x28 JUMPI PUSH1 0x0 CALLDATALOAD PUSH1 0xE0 SHR DUP1 PUSH4 0xCE3E39C0 EQ PUSH1 0x2D JUMPI JUMPDEST PUSH1 0x0 DUP1 REVERT JUMPDEST PUSH1 0x33 PUSH1 0x47 JUMP JUMPDEST PUSH1 0x40 MLOAD PUSH1 0x3E SWAP2 SWAP1 PUSH1 0x78 JUMP JUMPDEST PUSH1 0x40 MLOAD DUP1 SWAP2 SUB SWAP1 RETURN JUMPDEST PUSH1 0x0 DUP1 PUSH1 0x5 SWAP1 POP PUSH1 0x0 PUSH1 0x8 SWAP1 POP PUSH1 0x0 DUP2 DUP4 PUSH1 0x60 SWAP2 SWAP1 PUSH1 0x91 JUMP JUMPDEST SWAP1 POP DUP1 SWAP4 POP POP POP POP SWAP1 JUMP JUMPDEST PUSH1 0x72 DUP2 PUSH1 0xBB JUMP JUMPDEST DUP3 MSTORE POP POP JUMP JUMPDEST PUSH1 0x0 PUSH1 0x20 DUP3 ADD SWAP1 POP PUSH1 0x8B PUSH1 0x0 DUP4 ADD DUP5 PUSH1 0x6B JUMP JUMPDEST SWAP3 SWAP2 POP POP JUMP JUMPDEST PUSH1 0x0 PUSH1 0x9A DUP3 PUSH1 0xBB JUMP JUMPDEST SWAP2 POP PUSH1 0xA3 DUP4 PUSH1 0xBB JUMP JUMPDEST SWAP3 POP DUP3 PUSH1 0xB0 JUMPI PUSH1 0xAF PUSH1 0xC5 JUMP JUMPDEST JUMPDEST DUP3 DUP3 DIV SWAP1 POP SWAP3 SWAP2 POP POP JUMP JUMPDEST PUSH1 0x0 DUP2 SWAP1 POP SWAP2 SWAP1 POP JUMP JUMPDEST PUSH32 0x4E487B7100000000000000000000000000000000000000000000000000000000 PUSH1 0x0 MSTORE PUSH1 0x12 PUSH1 0x4 MSTORE PUSH1 0x24 PUSH1 0x0 REVERT INVALID LOG2 PUSH5 0x6970667358 0x22 SLT KECCAK256 0xA9 ADD 0xF8 0x2B SWAP2 SWAP16 0xA7 PUSH31 0xA575DDA31B92B370AA2A75F4D60A4A89D354C6E1D0CD072664736F6C634300 ADDMOD SMOD STOP CALLER "
				},
				"gasEstimates": {
					"creation": {
						"codeDepositCost": "59600",
						"executionCost": "111",
						"totalCost": "59711"
					},
					"external": {
						"calculator()": "infinite"
					}
				},
				"methodIdentifiers": {
					"calculator()": "ce3e39c0"
				}
			},
			"storageLayout": {
				"storage": [],
				"types": null
			},
			"userdoc": {
				"kind": "user",
				"methods": {},
				"version": 1
			}
		}
	}
}