{
	"data": {
		"bytecode": {
			"linkReferences": {},
			"object": "608060405234801561001057600080fd5b506102a2806100206000396000f3fe608060405234801561001057600080fd5b506004361061002b5760003560e01c8063805553e814610030575b600080fd5b61004a600480360381019061004591906100b7565b610060565b604051610057919061015e565b60405180910390f35b60008142443360405160200161007893929190610121565b6040516020818303038152906040528051906020012060001c61009b91906101e3565b9050919050565b6000813590506100b181610255565b92915050565b6000602082840312156100cd576100cc610243565b5b60006100db848285016100a2565b91505092915050565b6100f56100f082610179565b6101b5565b82525050565b610104816101ab565b82525050565b61011b610116826101ab565b6101d9565b82525050565b600061012d828661010a565b60208201915061013d828561010a565b60208201915061014d82846100e4565b601482019150819050949350505050565b600060208201905061017360008301846100fb565b92915050565b60006101848261018b565b9050919050565b600073ffffffffffffffffffffffffffffffffffffffff82169050919050565b6000819050919050565b60006101c0826101c7565b9050919050565b60006101d282610248565b9050919050565b6000819050919050565b60006101ee826101ab565b91506101f9836101ab565b92508261020957610208610214565b5b828206905092915050565b7f4e487b7100000000000000000000000000000000000000000000000000000000600052601260045260246000fd5b600080fd5b60008160601b9050919050565b61025e816101ab565b811461026957600080fd5b5056fea2646970667358221220ce7a1d1f0a8b0fe3753d48b1de8ff7384c4040b550f7b6080941f50769a977b564736f6c63430008070033",
			"opcodes": "PUSH1 0x80 PUSH1 0x40 MSTORE CALLVALUE DUP1 ISZERO PUSH2 0x10 JUMPI PUSH1 0x0 DUP1 REVERT JUMPDEST POP PUSH2 0x2A2 DUP1 PUSH2 0x20 PUSH1 0x0 CODECOPY PUSH1 0x0 RETURN INVALID PUSH1 0x80 PUSH1 0x40 MSTORE CALLVALUE DUP1 ISZERO PUSH2 0x10 JUMPI PUSH1 0x0 DUP1 REVERT JUMPDEST POP PUSH1 0x4 CALLDATASIZE LT PUSH2 0x2B JUMPI PUSH1 0x0 CALLDATALOAD PUSH1 0xE0 SHR DUP1 PUSH4 0x805553E8 EQ PUSH2 0x30 JUMPI JUMPDEST PUSH1 0x0 DUP1 REVERT JUMPDEST PUSH2 0x4A PUSH1 0x4 DUP1 CALLDATASIZE SUB DUP2 ADD SWAP1 PUSH2 0x45 SWAP2 SWAP1 PUSH2 0xB7 JUMP JUMPDEST PUSH2 0x60 JUMP JUMPDEST PUSH1 0x40 MLOAD PUSH2 0x57 SWAP2 SWAP1 PUSH2 0x15E JUMP JUMPDEST PUSH1 0x40 MLOAD DUP1 SWAP2 SUB SWAP1 RETURN JUMPDEST PUSH1 0x0 DUP2 TIMESTAMP DIFFICULTY CALLER PUSH1 0x40 MLOAD PUSH1 0x20 ADD PUSH2 0x78 SWAP4 SWAP3 SWAP2 SWAP1 PUSH2 0x121 JUMP JUMPDEST PUSH1 0x40 MLOAD PUSH1 0x20 DUP2 DUP4 SUB SUB DUP2 MSTORE SWAP1 PUSH1 0x40 MSTORE DUP1 MLOAD SWAP1 PUSH1 0x20 ADD KECCAK256 PUSH1 0x0 SHR PUSH2 0x9B SWAP2 SWAP1 PUSH2 0x1E3 JUMP JUMPDEST SWAP1 POP SWAP2 SWAP1 POP JUMP JUMPDEST PUSH1 0x0 DUP2 CALLDATALOAD SWAP1 POP PUSH2 0xB1 DUP2 PUSH2 0x255 JUMP JUMPDEST SWAP3 SWAP2 POP POP JUMP JUMPDEST PUSH1 0x0 PUSH1 0x20 DUP3 DUP5 SUB SLT ISZERO PUSH2 0xCD JUMPI PUSH2 0xCC PUSH2 0x243 JUMP JUMPDEST JUMPDEST PUSH1 0x0 PUSH2 0xDB DUP5 DUP3 DUP6 ADD PUSH2 0xA2 JUMP JUMPDEST SWAP2 POP POP SWAP3 SWAP2 POP POP JUMP JUMPDEST PUSH2 0xF5 PUSH2 0xF0 DUP3 PUSH2 0x179 JUMP JUMPDEST PUSH2 0x1B5 JUMP JUMPDEST DUP3 MSTORE POP POP JUMP JUMPDEST PUSH2 0x104 DUP2 PUSH2 0x1AB JUMP JUMPDEST DUP3 MSTORE POP POP JUMP JUMPDEST PUSH2 0x11B PUSH2 0x116 DUP3 PUSH2 0x1AB JUMP JUMPDEST PUSH2 0x1D9 JUMP JUMPDEST DUP3 MSTORE POP POP JUMP JUMPDEST PUSH1 0x0 PUSH2 0x12D DUP3 DUP7 PUSH2 0x10A JUMP JUMPDEST PUSH1 0x20 DUP3 ADD SWAP2 POP PUSH2 0x13D DUP3 DUP6 PUSH2 0x10A JUMP JUMPDEST PUSH1 0x20 DUP3 ADD SWAP2 POP PUSH2 0x14D DUP3 DUP5 PUSH2 0xE4 JUMP JUMPDEST PUSH1 0x14 DUP3 ADD SWAP2 POP DUP2 SWAP1 POP SWAP5 SWAP4 POP POP POP POP JUMP JUMPDEST PUSH1 0x0 PUSH1 0x20 DUP3 ADD SWAP1 POP PUSH2 0x173 PUSH1 0x0 DUP4 ADD DUP5 PUSH2 0xFB JUMP JUMPDEST SWAP3 SWAP2 POP POP JUMP JUMPDEST PUSH1 0x0 PUSH2 0x184 DUP3 PUSH2 0x18B JUMP JUMPDEST SWAP1 POP SWAP2 SWAP1 POP JUMP JUMPDEST PUSH1 0x0 PUSH20 0xFFFFFFFFFFFFFFFFFFFFFFFFFFFFFFFFFFFFFFFF DUP3 AND SWAP1 POP SWAP2 SWAP1 POP JUMP JUMPDEST PUSH1 0x0 DUP2 SWAP1 POP SWAP2 SWAP1 POP JUMP JUMPDEST PUSH1 0x0 PUSH2 0x1C0 DUP3 PUSH2 0x1C7 JUMP JUMPDEST SWAP1 POP SWAP2 SWAP1 POP JUMP JUMPDEST PUSH1 0x0 PUSH2 0x1D2 DUP3 PUSH2 0x248 JUMP JUMPDEST SWAP1 POP SWAP2 SWAP1 POP JUMP JUMPDEST PUSH1 0x0 DUP2 SWAP1 POP SWAP2 SWAP1 POP JUMP JUMPDEST PUSH1 0x0 PUSH2 0x1EE DUP3 PUSH2 0x1AB JUMP JUMPDEST SWAP2 POP PUSH2 0x1F9 DUP4 PUSH2 0x1AB JUMP JUMPDEST SWAP3 POP DUP3 PUSH2 0x209 JUMPI PUSH2 0x208 PUSH2 0x214 JUMP JUMPDEST JUMPDEST DUP3 DUP3 MOD SWAP1 POP SWAP3 SWAP2 POP POP JUMP JUMPDEST PUSH32 0x4E487B7100000000000000000000000000000000000000000000000000000000 PUSH1 0x0 MSTORE PUSH1 0x12 PUSH1 0x4 MSTORE PUSH1 0x24 PUSH1 0x0 REVERT JUMPDEST PUSH1 0x0 DUP1 REVERT JUMPDEST PUSH1 0x0 DUP2 PUSH1 0x60 SHL SWAP1 POP SWAP2 SWAP1 POP JUMP JUMPDEST PUSH2 0x25E DUP2 PUSH2 0x1AB JUMP JUMPDEST DUP2 EQ PUSH2 0x269 JUMPI PUSH1 0x0 DUP1 REVERT JUMPDEST POP JUMP INVALID LOG2 PUSH5 0x6970667358 0x22 SLT KECCAK256 0xCE PUSH27 0x1D1F0A8B0FE3753D48B1DE8FF7384C4040B550F7B6080941F50769 0xA9 PUSH24 0xB564736F6C63430008070033000000000000000000000000 "
		},
		"gasEstimates": {
			"creation": {
				"codeDepositCost": "134800",
				"executionCost": "183",
				"totalCost": "134983"
			},
			"external": {
				"randMod(uint256)": "infinite"
			}
		},
		"methodIdentifiers": {
			"randMod(uint256)": "805553e8"
		}
	},
	"abi": [
		{
			"inputs": [
				{
					"internalType": "uint256",
					"name": "range",
					"type": "uint256"
				}
			],
			"name": "randMod",
			"outputs": [
				{
					"internalType": "uint256",
					"name": "",
					"type": "uint256"
				}
			],
			"stateMutability": "view",
			"type": "function"
		}
	]
}