{
	"advanced_solidity1/error_handling.sol": {
		"Vendor": {
			"abi": [
				{
					"inputs": [],
					"name": "becomeSeller",
					"outputs": [],
					"stateMutability": "nonpayable",
					"type": "function"
				},
				{
					"inputs": [
						{
							"internalType": "uint256",
							"name": "amount",
							"type": "uint256"
						}
					],
					"name": "sell",
					"outputs": [],
					"stateMutability": "payable",
					"type": "function"
				}
			],
			"devdoc": {
				"kind": "dev",
				"methods": {},
				"version": 1
			},
			"evm": {
				"assembly": "    /* \"advanced_solidity1/error_handling.sol\":3429:3840  contract Vendor{... */\n  mstore(0x40, 0x80)\n  callvalue\n  dup1\n  iszero\n  tag_1\n  jumpi\n  0x00\n  dup1\n  revert\ntag_1:\n  pop\n  dataSize(sub_0)\n  dup1\n  dataOffset(sub_0)\n  0x00\n  codecopy\n  0x00\n  return\nstop\n\nsub_0: assembly {\n        /* \"advanced_solidity1/error_handling.sol\":3429:3840  contract Vendor{... */\n      mstore(0x40, 0x80)\n      jumpi(tag_1, lt(calldatasize, 0x04))\n      shr(0xe0, calldataload(0x00))\n      dup1\n      0x8f299b1e\n      eq\n      tag_2\n      jumpi\n      dup1\n      0xe4849b32\n      eq\n      tag_3\n      jumpi\n    tag_1:\n      0x00\n      dup1\n      revert\n        /* \"advanced_solidity1/error_handling.sol\":3595:3664  function becomeSeller() public {... */\n    tag_2:\n      callvalue\n      dup1\n      iszero\n      tag_4\n      jumpi\n      0x00\n      dup1\n      revert\n    tag_4:\n      pop\n      tag_5\n      tag_6\n      jump\t// in\n    tag_5:\n      stop\n        /* \"advanced_solidity1/error_handling.sol\":3672:3837  function sell(uint amount) payable public onlySeller{... */\n    tag_3:\n      tag_7\n      0x04\n      dup1\n      calldatasize\n      sub\n      dup2\n      add\n      swap1\n      tag_8\n      swap2\n      swap1\n      tag_9\n      jump\t// in\n    tag_8:\n      tag_10\n      jump\t// in\n    tag_7:\n      stop\n        /* \"advanced_solidity1/error_handling.sol\":3595:3664  function becomeSeller() public {... */\n    tag_6:\n        /* \"advanced_solidity1/error_handling.sol\":3646:3656  msg.sender */\n      caller\n        /* \"advanced_solidity1/error_handling.sol\":3637:3643  seller */\n      0x00\n      dup1\n        /* \"advanced_solidity1/error_handling.sol\":3637:3656  seller = msg.sender */\n      0x0100\n      exp\n      dup2\n      sload\n      dup2\n      0xffffffffffffffffffffffffffffffffffffffff\n      mul\n      not\n      and\n      swap1\n      dup4\n      0xffffffffffffffffffffffffffffffffffffffff\n      and\n      mul\n      or\n      swap1\n      sstore\n      pop\n        /* \"advanced_solidity1/error_handling.sol\":3595:3664  function becomeSeller() public {... */\n      jump\t// out\n        /* \"advanced_solidity1/error_handling.sol\":3672:3837  function sell(uint amount) payable public onlySeller{... */\n    tag_10:\n        /* \"advanced_solidity1/error_handling.sol\":3530:3536  seller */\n      0x00\n      dup1\n      sload\n      swap1\n      0x0100\n      exp\n      swap1\n      div\n      0xffffffffffffffffffffffffffffffffffffffff\n      and\n        /* \"advanced_solidity1/error_handling.sol\":3516:3536  msg.sender == seller */\n      0xffffffffffffffffffffffffffffffffffffffff\n      and\n        /* \"advanced_solidity1/error_handling.sol\":3516:3526  msg.sender */\n      caller\n        /* \"advanced_solidity1/error_handling.sol\":3516:3536  msg.sender == seller */\n      0xffffffffffffffffffffffffffffffffffffffff\n      and\n      eq\n        /* \"advanced_solidity1/error_handling.sol\":3508:3567  require(msg.sender == seller, \"only seller can sell this!\") */\n      tag_13\n      jumpi\n      mload(0x40)\n      0x08c379a000000000000000000000000000000000000000000000000000000000\n      dup2\n      mstore\n      0x04\n      add\n      tag_14\n      swap1\n      tag_15\n      jump\t// in\n    tag_14:\n      mload(0x40)\n      dup1\n      swap2\n      sub\n      swap1\n      revert\n    tag_13:\n        /* \"advanced_solidity1/error_handling.sol\":3748:3757  msg.value */\n      callvalue\n        /* \"advanced_solidity1/error_handling.sol\":3739:3745  amount */\n      dup2\n        /* \"advanced_solidity1/error_handling.sol\":3739:3757  amount > msg.value */\n      gt\n        /* \"advanced_solidity1/error_handling.sol\":3735:3830  if (amount > msg.value){... */\n      iszero\n      tag_17\n      jumpi\n        /* \"advanced_solidity1/error_handling.sol\":3773:3818  revert(\"there is not enough ether provided!\") */\n      mload(0x40)\n      0x08c379a000000000000000000000000000000000000000000000000000000000\n      dup2\n      mstore\n      0x04\n      add\n      tag_18\n      swap1\n      tag_19\n      jump\t// in\n    tag_18:\n      mload(0x40)\n      dup1\n      swap2\n      sub\n      swap1\n      revert\n        /* \"advanced_solidity1/error_handling.sol\":3735:3830  if (amount > msg.value){... */\n    tag_17:\n        /* \"advanced_solidity1/error_handling.sol\":3672:3837  function sell(uint amount) payable public onlySeller{... */\n      pop\n      jump\t// out\n        /* \"#utility.yul\":88:205   */\n    tag_21:\n        /* \"#utility.yul\":197:198   */\n      0x00\n        /* \"#utility.yul\":194:195   */\n      dup1\n        /* \"#utility.yul\":187:199   */\n      revert\n        /* \"#utility.yul\":334:411   */\n    tag_23:\n        /* \"#utility.yul\":371:378   */\n      0x00\n        /* \"#utility.yul\":400:405   */\n      dup2\n        /* \"#utility.yul\":389:405   */\n      swap1\n      pop\n        /* \"#utility.yul\":334:411   */\n      swap2\n      swap1\n      pop\n      jump\t// out\n        /* \"#utility.yul\":417:539   */\n    tag_24:\n        /* \"#utility.yul\":490:514   */\n      tag_37\n        /* \"#utility.yul\":508:513   */\n      dup2\n        /* \"#utility.yul\":490:514   */\n      tag_23\n      jump\t// in\n    tag_37:\n        /* \"#utility.yul\":483:488   */\n      dup2\n        /* \"#utility.yul\":480:515   */\n      eq\n        /* \"#utility.yul\":470:533   */\n      tag_38\n      jumpi\n        /* \"#utility.yul\":529:530   */\n      0x00\n        /* \"#utility.yul\":526:527   */\n      dup1\n        /* \"#utility.yul\":519:531   */\n      revert\n        /* \"#utility.yul\":470:533   */\n    tag_38:\n        /* \"#utility.yul\":417:539   */\n      pop\n      jump\t// out\n        /* \"#utility.yul\":545:684   */\n    tag_25:\n        /* \"#utility.yul\":591:596   */\n      0x00\n        /* \"#utility.yul\":629:635   */\n      dup2\n        /* \"#utility.yul\":616:636   */\n      calldataload\n        /* \"#utility.yul\":607:636   */\n      swap1\n      pop\n        /* \"#utility.yul\":645:678   */\n      tag_40\n        /* \"#utility.yul\":672:677   */\n      dup2\n        /* \"#utility.yul\":645:678   */\n      tag_24\n      jump\t// in\n    tag_40:\n        /* \"#utility.yul\":545:684   */\n      swap3\n      swap2\n      pop\n      pop\n      jump\t// out\n        /* \"#utility.yul\":690:1019   */\n    tag_9:\n        /* \"#utility.yul\":749:755   */\n      0x00\n        /* \"#utility.yul\":798:800   */\n      0x20\n        /* \"#utility.yul\":786:795   */\n      dup3\n        /* \"#utility.yul\":777:784   */\n      dup5\n        /* \"#utility.yul\":773:796   */\n      sub\n        /* \"#utility.yul\":769:801   */\n      slt\n        /* \"#utility.yul\":766:885   */\n      iszero\n      tag_42\n      jumpi\n        /* \"#utility.yul\":804:883   */\n      tag_43\n      tag_21\n      jump\t// in\n    tag_43:\n        /* \"#utility.yul\":766:885   */\n    tag_42:\n        /* \"#utility.yul\":924:925   */\n      0x00\n        /* \"#utility.yul\":949:1002   */\n      tag_44\n        /* \"#utility.yul\":994:1001   */\n      dup5\n        /* \"#utility.yul\":985:991   */\n      dup3\n        /* \"#utility.yul\":974:983   */\n      dup6\n        /* \"#utility.yul\":970:992   */\n      add\n        /* \"#utility.yul\":949:1002   */\n      tag_25\n      jump\t// in\n    tag_44:\n        /* \"#utility.yul\":939:1002   */\n      swap2\n      pop\n        /* \"#utility.yul\":895:1012   */\n      pop\n        /* \"#utility.yul\":690:1019   */\n      swap3\n      swap2\n      pop\n      pop\n      jump\t// out\n        /* \"#utility.yul\":1025:1194   */\n    tag_26:\n        /* \"#utility.yul\":1109:1120   */\n      0x00\n        /* \"#utility.yul\":1143:1149   */\n      dup3\n        /* \"#utility.yul\":1138:1141   */\n      dup3\n        /* \"#utility.yul\":1131:1150   */\n      mstore\n        /* \"#utility.yul\":1183:1187   */\n      0x20\n        /* \"#utility.yul\":1178:1181   */\n      dup3\n        /* \"#utility.yul\":1174:1188   */\n      add\n        /* \"#utility.yul\":1159:1188   */\n      swap1\n      pop\n        /* \"#utility.yul\":1025:1194   */\n      swap3\n      swap2\n      pop\n      pop\n      jump\t// out\n        /* \"#utility.yul\":1200:1376   */\n    tag_27:\n        /* \"#utility.yul\":1340:1368   */\n      0x6f6e6c792073656c6c65722063616e2073656c6c207468697321000000000000\n        /* \"#utility.yul\":1336:1337   */\n      0x00\n        /* \"#utility.yul\":1328:1334   */\n      dup3\n        /* \"#utility.yul\":1324:1338   */\n      add\n        /* \"#utility.yul\":1317:1369   */\n      mstore\n        /* \"#utility.yul\":1200:1376   */\n      pop\n      jump\t// out\n        /* \"#utility.yul\":1382:1748   */\n    tag_28:\n        /* \"#utility.yul\":1524:1527   */\n      0x00\n        /* \"#utility.yul\":1545:1612   */\n      tag_48\n        /* \"#utility.yul\":1609:1611   */\n      0x1a\n        /* \"#utility.yul\":1604:1607   */\n      dup4\n        /* \"#utility.yul\":1545:1612   */\n      tag_26\n      jump\t// in\n    tag_48:\n        /* \"#utility.yul\":1538:1612   */\n      swap2\n      pop\n        /* \"#utility.yul\":1621:1714   */\n      tag_49\n        /* \"#utility.yul\":1710:1713   */\n      dup3\n        /* \"#utility.yul\":1621:1714   */\n      tag_27\n      jump\t// in\n    tag_49:\n        /* \"#utility.yul\":1739:1741   */\n      0x20\n        /* \"#utility.yul\":1734:1737   */\n      dup3\n        /* \"#utility.yul\":1730:1742   */\n      add\n        /* \"#utility.yul\":1723:1742   */\n      swap1\n      pop\n        /* \"#utility.yul\":1382:1748   */\n      swap2\n      swap1\n      pop\n      jump\t// out\n        /* \"#utility.yul\":1754:2173   */\n    tag_15:\n        /* \"#utility.yul\":1920:1924   */\n      0x00\n        /* \"#utility.yul\":1958:1960   */\n      0x20\n        /* \"#utility.yul\":1947:1956   */\n      dup3\n        /* \"#utility.yul\":1943:1961   */\n      add\n        /* \"#utility.yul\":1935:1961   */\n      swap1\n      pop\n        /* \"#utility.yul\":2007:2016   */\n      dup2\n        /* \"#utility.yul\":2001:2005   */\n      dup2\n        /* \"#utility.yul\":1997:2017   */\n      sub\n        /* \"#utility.yul\":1993:1994   */\n      0x00\n        /* \"#utility.yul\":1982:1991   */\n      dup4\n        /* \"#utility.yul\":1978:1995   */\n      add\n        /* \"#utility.yul\":1971:2018   */\n      mstore\n        /* \"#utility.yul\":2035:2166   */\n      tag_51\n        /* \"#utility.yul\":2161:2165   */\n      dup2\n        /* \"#utility.yul\":2035:2166   */\n      tag_28\n      jump\t// in\n    tag_51:\n        /* \"#utility.yul\":2027:2166   */\n      swap1\n      pop\n        /* \"#utility.yul\":1754:2173   */\n      swap2\n      swap1\n      pop\n      jump\t// out\n        /* \"#utility.yul\":2179:2401   */\n    tag_29:\n        /* \"#utility.yul\":2319:2353   */\n      0x7468657265206973206e6f7420656e6f7567682065746865722070726f766964\n        /* \"#utility.yul\":2315:2316   */\n      0x00\n        /* \"#utility.yul\":2307:2313   */\n      dup3\n        /* \"#utility.yul\":2303:2317   */\n      add\n        /* \"#utility.yul\":2296:2354   */\n      mstore\n        /* \"#utility.yul\":2388:2393   */\n      0x6564210000000000000000000000000000000000000000000000000000000000\n        /* \"#utility.yul\":2383:2385   */\n      0x20\n        /* \"#utility.yul\":2375:2381   */\n      dup3\n        /* \"#utility.yul\":2371:2386   */\n      add\n        /* \"#utility.yul\":2364:2394   */\n      mstore\n        /* \"#utility.yul\":2179:2401   */\n      pop\n      jump\t// out\n        /* \"#utility.yul\":2407:2773   */\n    tag_30:\n        /* \"#utility.yul\":2549:2552   */\n      0x00\n        /* \"#utility.yul\":2570:2637   */\n      tag_54\n        /* \"#utility.yul\":2634:2636   */\n      0x23\n        /* \"#utility.yul\":2629:2632   */\n      dup4\n        /* \"#utility.yul\":2570:2637   */\n      tag_26\n      jump\t// in\n    tag_54:\n        /* \"#utility.yul\":2563:2637   */\n      swap2\n      pop\n        /* \"#utility.yul\":2646:2739   */\n      tag_55\n        /* \"#utility.yul\":2735:2738   */\n      dup3\n        /* \"#utility.yul\":2646:2739   */\n      tag_29\n      jump\t// in\n    tag_55:\n        /* \"#utility.yul\":2764:2766   */\n      0x40\n        /* \"#utility.yul\":2759:2762   */\n      dup3\n        /* \"#utility.yul\":2755:2767   */\n      add\n        /* \"#utility.yul\":2748:2767   */\n      swap1\n      pop\n        /* \"#utility.yul\":2407:2773   */\n      swap2\n      swap1\n      pop\n      jump\t// out\n        /* \"#utility.yul\":2779:3198   */\n    tag_19:\n        /* \"#utility.yul\":2945:2949   */\n      0x00\n        /* \"#utility.yul\":2983:2985   */\n      0x20\n        /* \"#utility.yul\":2972:2981   */\n      dup3\n        /* \"#utility.yul\":2968:2986   */\n      add\n        /* \"#utility.yul\":2960:2986   */\n      swap1\n      pop\n        /* \"#utility.yul\":3032:3041   */\n      dup2\n        /* \"#utility.yul\":3026:3030   */\n      dup2\n        /* \"#utility.yul\":3022:3042   */\n      sub\n        /* \"#utility.yul\":3018:3019   */\n      0x00\n        /* \"#utility.yul\":3007:3016   */\n      dup4\n        /* \"#utility.yul\":3003:3020   */\n      add\n        /* \"#utility.yul\":2996:3043   */\n      mstore\n        /* \"#utility.yul\":3060:3191   */\n      tag_57\n        /* \"#utility.yul\":3186:3190   */\n      dup2\n        /* \"#utility.yul\":3060:3191   */\n      tag_30\n      jump\t// in\n    tag_57:\n        /* \"#utility.yul\":3052:3191   */\n      swap1\n      pop\n        /* \"#utility.yul\":2779:3198   */\n      swap2\n      swap1\n      pop\n      jump\t// out\n\n    auxdata: 0xa26469706673582212205e80592a251dfded1418d69c8726d1c05ad832cbf961c8987dae116dde635d1664736f6c63430008110033\n}\n",
				"bytecode": {
					"linkReferences": {},
					"object": "608060405234801561001057600080fd5b50610324806100206000396000f3fe6080604052600436106100295760003560e01c80638f299b1e1461002e578063e4849b3214610045575b600080fd5b34801561003a57600080fd5b50610043610061565b005b61005f600480360381019061005a91906101b2565b6100a3565b005b336000806101000a81548173ffffffffffffffffffffffffffffffffffffffff021916908373ffffffffffffffffffffffffffffffffffffffff160217905550565b60008054906101000a900473ffffffffffffffffffffffffffffffffffffffff1673ffffffffffffffffffffffffffffffffffffffff163373ffffffffffffffffffffffffffffffffffffffff1614610131576040517f08c379a00000000000000000000000000000000000000000000000000000000081526004016101289061023c565b60405180910390fd5b34811115610174576040517f08c379a000000000000000000000000000000000000000000000000000000000815260040161016b906102ce565b60405180910390fd5b50565b600080fd5b6000819050919050565b61018f8161017c565b811461019a57600080fd5b50565b6000813590506101ac81610186565b92915050565b6000602082840312156101c8576101c7610177565b5b60006101d68482850161019d565b91505092915050565b600082825260208201905092915050565b7f6f6e6c792073656c6c65722063616e2073656c6c207468697321000000000000600082015250565b6000610226601a836101df565b9150610231826101f0565b602082019050919050565b6000602082019050818103600083015261025581610219565b9050919050565b7f7468657265206973206e6f7420656e6f7567682065746865722070726f76696460008201527f6564210000000000000000000000000000000000000000000000000000000000602082015250565b60006102b86023836101df565b91506102c38261025c565b604082019050919050565b600060208201905081810360008301526102e7816102ab565b905091905056fea26469706673582212205e80592a251dfded1418d69c8726d1c05ad832cbf961c8987dae116dde635d1664736f6c63430008110033",
					"opcodes": "PUSH1 0x80 PUSH1 0x40 MSTORE CALLVALUE DUP1 ISZERO PUSH2 0x10 JUMPI PUSH1 0x0 DUP1 REVERT JUMPDEST POP PUSH2 0x324 DUP1 PUSH2 0x20 PUSH1 0x0 CODECOPY PUSH1 0x0 RETURN INVALID PUSH1 0x80 PUSH1 0x40 MSTORE PUSH1 0x4 CALLDATASIZE LT PUSH2 0x29 JUMPI PUSH1 0x0 CALLDATALOAD PUSH1 0xE0 SHR DUP1 PUSH4 0x8F299B1E EQ PUSH2 0x2E JUMPI DUP1 PUSH4 0xE4849B32 EQ PUSH2 0x45 JUMPI JUMPDEST PUSH1 0x0 DUP1 REVERT JUMPDEST CALLVALUE DUP1 ISZERO PUSH2 0x3A JUMPI PUSH1 0x0 DUP1 REVERT JUMPDEST POP PUSH2 0x43 PUSH2 0x61 JUMP JUMPDEST STOP JUMPDEST PUSH2 0x5F PUSH1 0x4 DUP1 CALLDATASIZE SUB DUP2 ADD SWAP1 PUSH2 0x5A SWAP2 SWAP1 PUSH2 0x1B2 JUMP JUMPDEST PUSH2 0xA3 JUMP JUMPDEST STOP JUMPDEST CALLER PUSH1 0x0 DUP1 PUSH2 0x100 EXP DUP2 SLOAD DUP2 PUSH20 0xFFFFFFFFFFFFFFFFFFFFFFFFFFFFFFFFFFFFFFFF MUL NOT AND SWAP1 DUP4 PUSH20 0xFFFFFFFFFFFFFFFFFFFFFFFFFFFFFFFFFFFFFFFF AND MUL OR SWAP1 SSTORE POP JUMP JUMPDEST PUSH1 0x0 DUP1 SLOAD SWAP1 PUSH2 0x100 EXP SWAP1 DIV PUSH20 0xFFFFFFFFFFFFFFFFFFFFFFFFFFFFFFFFFFFFFFFF AND PUSH20 0xFFFFFFFFFFFFFFFFFFFFFFFFFFFFFFFFFFFFFFFF AND CALLER PUSH20 0xFFFFFFFFFFFFFFFFFFFFFFFFFFFFFFFFFFFFFFFF AND EQ PUSH2 0x131 JUMPI PUSH1 0x40 MLOAD PUSH32 0x8C379A000000000000000000000000000000000000000000000000000000000 DUP2 MSTORE PUSH1 0x4 ADD PUSH2 0x128 SWAP1 PUSH2 0x23C JUMP JUMPDEST PUSH1 0x40 MLOAD DUP1 SWAP2 SUB SWAP1 REVERT JUMPDEST CALLVALUE DUP2 GT ISZERO PUSH2 0x174 JUMPI PUSH1 0x40 MLOAD PUSH32 0x8C379A000000000000000000000000000000000000000000000000000000000 DUP2 MSTORE PUSH1 0x4 ADD PUSH2 0x16B SWAP1 PUSH2 0x2CE JUMP JUMPDEST PUSH1 0x40 MLOAD DUP1 SWAP2 SUB SWAP1 REVERT JUMPDEST POP JUMP JUMPDEST PUSH1 0x0 DUP1 REVERT JUMPDEST PUSH1 0x0 DUP2 SWAP1 POP SWAP2 SWAP1 POP JUMP JUMPDEST PUSH2 0x18F DUP2 PUSH2 0x17C JUMP JUMPDEST DUP2 EQ PUSH2 0x19A JUMPI PUSH1 0x0 DUP1 REVERT JUMPDEST POP JUMP JUMPDEST PUSH1 0x0 DUP2 CALLDATALOAD SWAP1 POP PUSH2 0x1AC DUP2 PUSH2 0x186 JUMP JUMPDEST SWAP3 SWAP2 POP POP JUMP JUMPDEST PUSH1 0x0 PUSH1 0x20 DUP3 DUP5 SUB SLT ISZERO PUSH2 0x1C8 JUMPI PUSH2 0x1C7 PUSH2 0x177 JUMP JUMPDEST JUMPDEST PUSH1 0x0 PUSH2 0x1D6 DUP5 DUP3 DUP6 ADD PUSH2 0x19D JUMP JUMPDEST SWAP2 POP POP SWAP3 SWAP2 POP POP JUMP JUMPDEST PUSH1 0x0 DUP3 DUP3 MSTORE PUSH1 0x20 DUP3 ADD SWAP1 POP SWAP3 SWAP2 POP POP JUMP JUMPDEST PUSH32 0x6F6E6C792073656C6C65722063616E2073656C6C207468697321000000000000 PUSH1 0x0 DUP3 ADD MSTORE POP JUMP JUMPDEST PUSH1 0x0 PUSH2 0x226 PUSH1 0x1A DUP4 PUSH2 0x1DF JUMP JUMPDEST SWAP2 POP PUSH2 0x231 DUP3 PUSH2 0x1F0 JUMP JUMPDEST PUSH1 0x20 DUP3 ADD SWAP1 POP SWAP2 SWAP1 POP JUMP JUMPDEST PUSH1 0x0 PUSH1 0x20 DUP3 ADD SWAP1 POP DUP2 DUP2 SUB PUSH1 0x0 DUP4 ADD MSTORE PUSH2 0x255 DUP2 PUSH2 0x219 JUMP JUMPDEST SWAP1 POP SWAP2 SWAP1 POP JUMP JUMPDEST PUSH32 0x7468657265206973206E6F7420656E6F7567682065746865722070726F766964 PUSH1 0x0 DUP3 ADD MSTORE PUSH32 0x6564210000000000000000000000000000000000000000000000000000000000 PUSH1 0x20 DUP3 ADD MSTORE POP JUMP JUMPDEST PUSH1 0x0 PUSH2 0x2B8 PUSH1 0x23 DUP4 PUSH2 0x1DF JUMP JUMPDEST SWAP2 POP PUSH2 0x2C3 DUP3 PUSH2 0x25C JUMP JUMPDEST PUSH1 0x40 DUP3 ADD SWAP1 POP SWAP2 SWAP1 POP JUMP JUMPDEST PUSH1 0x0 PUSH1 0x20 DUP3 ADD SWAP1 POP DUP2 DUP2 SUB PUSH1 0x0 DUP4 ADD MSTORE PUSH2 0x2E7 DUP2 PUSH2 0x2AB JUMP JUMPDEST SWAP1 POP SWAP2 SWAP1 POP JUMP INVALID LOG2 PUSH5 0x6970667358 0x22 SLT KECCAK256 0x5E DUP1 MSIZE 0x2A 0x25 SAR REVERT 0xED EQ XOR 0xD6 SWAP13 DUP8 0x26 0xD1 0xC0 GAS 0xD8 ORIGIN 0xCB 0xF9 PUSH2 0xC898 PUSH30 0xAE116DDE635D1664736F6C63430008110033000000000000000000000000 "
				},
				"gasEstimates": {
					"creation": {
						"codeDepositCost": "160800",
						"executionCost": "208",
						"totalCost": "161008"
					},
					"external": {
						"becomeSeller()": "24388",
						"sell(uint256)": "2879"
					}
				},
				"methodIdentifiers": {
					"becomeSeller()": "8f299b1e",
					"sell(uint256)": "e4849b32"
				}
			},
			"storageLayout": {
				"storage": [
					{
						"astId": 70,
						"contract": "advanced_solidity1/error_handling.sol:Vendor",
						"label": "seller",
						"offset": 0,
						"slot": "0",
						"type": "t_address"
					}
				],
				"types": {
					"t_address": {
						"encoding": "inplace",
						"label": "address",
						"numberOfBytes": "20"
					}
				}
			},
			"userdoc": {
				"kind": "user",
				"methods": {},
				"version": 1
			}
		}
	}
}