{
	"advanced_solidity1/error_handling.sol": {
		"LearnErrorHandling": {
			"abi": [
				{
					"inputs": [],
					"name": "bringUmbrella",
					"outputs": [],
					"stateMutability": "nonpayable",
					"type": "function"
				},
				{
					"inputs": [],
					"name": "getCalc",
					"outputs": [
						{
							"internalType": "uint256",
							"name": "",
							"type": "uint256"
						}
					],
					"stateMutability": "view",
					"type": "function"
				},
				{
					"inputs": [],
					"name": "internalTestUnits",
					"outputs": [],
					"stateMutability": "view",
					"type": "function"
				},
				{
					"inputs": [],
					"name": "solarCalc",
					"outputs": [],
					"stateMutability": "nonpayable",
					"type": "function"
				},
				{
					"inputs": [],
					"name": "sunny",
					"outputs": [
						{
							"internalType": "bool",
							"name": "",
							"type": "bool"
						}
					],
					"stateMutability": "view",
					"type": "function"
				},
				{
					"inputs": [],
					"name": "umbrella",
					"outputs": [
						{
							"internalType": "bool",
							"name": "",
							"type": "bool"
						}
					],
					"stateMutability": "view",
					"type": "function"
				},
				{
					"inputs": [],
					"name": "weatherChanger",
					"outputs": [],
					"stateMutability": "nonpayable",
					"type": "function"
				}
			],
			"devdoc": {
				"kind": "dev",
				"methods": {},
				"version": 1
			},
			"evm": {
				"assembly": "    /* \"advanced_solidity1/error_handling.sol\":1697:2982  contract LearnErrorHandling{... */\n  mstore(0x40, 0x80)\n    /* \"advanced_solidity1/error_handling.sol\":1753:1757  true */\n  0x01\n    /* \"advanced_solidity1/error_handling.sol\":1733:1757  bool public sunny = true */\n  0x00\n  dup1\n  0x0100\n  exp\n  dup2\n  sload\n  dup2\n  0xff\n  mul\n  not\n  and\n  swap1\n  dup4\n  iszero\n  iszero\n  mul\n  or\n  swap1\n  sstore\n  pop\n    /* \"advanced_solidity1/error_handling.sol\":1787:1792  false */\n  0x00\n    /* \"advanced_solidity1/error_handling.sol\":1764:1792  bool public umbrella = false */\n  dup1\n  exp(0x0100, 0x01)\n  dup2\n  sload\n  dup2\n  0xff\n  mul\n  not\n  and\n  swap1\n  dup4\n  iszero\n  iszero\n  mul\n  or\n  swap1\n  sstore\n  pop\n    /* \"advanced_solidity1/error_handling.sol\":1858:1859  0 */\n  0x00\n    /* \"advanced_solidity1/error_handling.sol\":1841:1859  uint finalCalc = 0 */\n  0x01\n  sstore\n    /* \"advanced_solidity1/error_handling.sol\":1697:2982  contract LearnErrorHandling{... */\n  callvalue\n  dup1\n  iszero\n  tag_1\n  jumpi\n  0x00\n  dup1\n  revert\ntag_1:\n  pop\n  dataSize(sub_0)\n  dup1\n  dataOffset(sub_0)\n  0x00\n  codecopy\n  0x00\n  return\nstop\n\nsub_0: assembly {\n        /* \"advanced_solidity1/error_handling.sol\":1697:2982  contract LearnErrorHandling{... */\n      mstore(0x40, 0x80)\n      callvalue\n      dup1\n      iszero\n      tag_1\n      jumpi\n      0x00\n      dup1\n      revert\n    tag_1:\n      pop\n      jumpi(tag_2, lt(calldatasize, 0x04))\n      shr(0xe0, calldataload(0x00))\n      dup1\n      0xab02dd7b\n      gt\n      tag_10\n      jumpi\n      dup1\n      0xab02dd7b\n      eq\n      tag_6\n      jumpi\n      dup1\n      0xc000dcdb\n      eq\n      tag_7\n      jumpi\n      dup1\n      0xe472c67c\n      eq\n      tag_8\n      jumpi\n      dup1\n      0xebaf0dca\n      eq\n      tag_9\n      jumpi\n      jump(tag_2)\n    tag_10:\n      dup1\n      0x66e811c6\n      eq\n      tag_3\n      jumpi\n      dup1\n      0x84914262\n      eq\n      tag_4\n      jumpi\n      dup1\n      0x911ec8f5\n      eq\n      tag_5\n      jumpi\n    tag_2:\n      0x00\n      dup1\n      revert\n        /* \"advanced_solidity1/error_handling.sol\":2801:2977  function bringUmbrella() public{... */\n    tag_3:\n      tag_11\n      tag_12\n      jump\t// in\n    tag_11:\n      stop\n        /* \"advanced_solidity1/error_handling.sol\":1764:1792  bool public umbrella = false */\n    tag_4:\n      tag_13\n      tag_14\n      jump\t// in\n    tag_13:\n      mload(0x40)\n      tag_15\n      swap2\n      swap1\n      tag_16\n      jump\t// in\n    tag_15:\n      mload(0x40)\n      dup1\n      swap2\n      sub\n      swap1\n      return\n        /* \"advanced_solidity1/error_handling.sol\":2223:2305  function internalTestUnits() public view {... */\n    tag_5:\n      tag_17\n      tag_18\n      jump\t// in\n    tag_17:\n      stop\n        /* \"advanced_solidity1/error_handling.sol\":1733:1757  bool public sunny = true */\n    tag_6:\n      tag_19\n      tag_20\n      jump\t// in\n    tag_19:\n      mload(0x40)\n      tag_21\n      swap2\n      swap1\n      tag_16\n      jump\t// in\n    tag_21:\n      mload(0x40)\n      dup1\n      swap2\n      sub\n      swap1\n      return\n        /* \"advanced_solidity1/error_handling.sol\":2612:2678  function weatherChanger() public {... */\n    tag_7:\n      tag_22\n      tag_23\n      jump\t// in\n    tag_22:\n      stop\n        /* \"advanced_solidity1/error_handling.sol\":1896:2008  function solarCalc() public {... */\n    tag_8:\n      tag_24\n      tag_25\n      jump\t// in\n    tag_24:\n      stop\n        /* \"advanced_solidity1/error_handling.sol\":2714:2793  function getCalc() public view returns(uint){... */\n    tag_9:\n      tag_26\n      tag_27\n      jump\t// in\n    tag_26:\n      mload(0x40)\n      tag_28\n      swap2\n      swap1\n      tag_29\n      jump\t// in\n    tag_28:\n      mload(0x40)\n      dup1\n      swap2\n      sub\n      swap1\n      return\n        /* \"advanced_solidity1/error_handling.sol\":2801:2977  function bringUmbrella() public{... */\n    tag_12:\n        /* \"advanced_solidity1/error_handling.sol\":2847:2852  sunny */\n      0x00\n      dup1\n      sload\n      swap1\n      0x0100\n      exp\n      swap1\n      div\n      0xff\n      and\n        /* \"advanced_solidity1/error_handling.sol\":2843:2970  if(!sunny){... */\n      tag_31\n      jumpi\n        /* \"advanced_solidity1/error_handling.sol\":2879:2883  true */\n      0x01\n        /* \"advanced_solidity1/error_handling.sol\":2868:2876  umbrella */\n      0x00\n      0x01\n        /* \"advanced_solidity1/error_handling.sol\":2868:2883  umbrella = true */\n      0x0100\n      exp\n      dup2\n      sload\n      dup2\n      0xff\n      mul\n      not\n      and\n      swap1\n      dup4\n      iszero\n      iszero\n      mul\n      or\n      swap1\n      sstore\n      pop\n        /* \"advanced_solidity1/error_handling.sol\":2843:2970  if(!sunny){... */\n      jump(tag_32)\n    tag_31:\n        /* \"advanced_solidity1/error_handling.sol\":2912:2958  revert(\"No need to bring an umbrella today!!\") */\n      mload(0x40)\n      0x08c379a000000000000000000000000000000000000000000000000000000000\n      dup2\n      mstore\n      0x04\n      add\n      tag_33\n      swap1\n      tag_34\n      jump\t// in\n    tag_33:\n      mload(0x40)\n      dup1\n      swap2\n      sub\n      swap1\n      revert\n        /* \"advanced_solidity1/error_handling.sol\":2843:2970  if(!sunny){... */\n    tag_32:\n        /* \"advanced_solidity1/error_handling.sol\":2801:2977  function bringUmbrella() public{... */\n      jump\t// out\n        /* \"advanced_solidity1/error_handling.sol\":1764:1792  bool public umbrella = false */\n    tag_14:\n      0x00\n      0x01\n      swap1\n      sload\n      swap1\n      0x0100\n      exp\n      swap1\n      div\n      0xff\n      and\n      dup2\n      jump\t// out\n        /* \"advanced_solidity1/error_handling.sol\":2223:2305  function internalTestUnits() public view {... */\n    tag_18:\n        /* \"advanced_solidity1/error_handling.sol\":2295:2296  6 */\n      0x06\n        /* \"advanced_solidity1/error_handling.sol\":2282:2291  finalCalc */\n      sload(0x01)\n        /* \"advanced_solidity1/error_handling.sol\":2282:2296  finalCalc != 6 */\n      sub\n        /* \"advanced_solidity1/error_handling.sol\":2275:2297  assert(finalCalc != 6) */\n      tag_36\n      jumpi\n      tag_37\n      tag_38\n      jump\t// in\n    tag_37:\n    tag_36:\n        /* \"advanced_solidity1/error_handling.sol\":2223:2305  function internalTestUnits() public view {... */\n      jump\t// out\n        /* \"advanced_solidity1/error_handling.sol\":1733:1757  bool public sunny = true */\n    tag_20:\n      0x00\n      dup1\n      sload\n      swap1\n      0x0100\n      exp\n      swap1\n      div\n      0xff\n      and\n      dup2\n      jump\t// out\n        /* \"advanced_solidity1/error_handling.sol\":2612:2678  function weatherChanger() public {... */\n    tag_23:\n        /* \"advanced_solidity1/error_handling.sol\":2665:2670  sunny */\n      0x00\n      dup1\n      sload\n      swap1\n      0x0100\n      exp\n      swap1\n      div\n      0xff\n      and\n        /* \"advanced_solidity1/error_handling.sol\":2664:2670  !sunny */\n      iszero\n        /* \"advanced_solidity1/error_handling.sol\":2656:2661  sunny */\n      0x00\n      dup1\n        /* \"advanced_solidity1/error_handling.sol\":2656:2670  sunny = !sunny */\n      0x0100\n      exp\n      dup2\n      sload\n      dup2\n      0xff\n      mul\n      not\n      and\n      swap1\n      dup4\n      iszero\n      iszero\n      mul\n      or\n      swap1\n      sstore\n      pop\n        /* \"advanced_solidity1/error_handling.sol\":2612:2678  function weatherChanger() public {... */\n      jump\t// out\n        /* \"advanced_solidity1/error_handling.sol\":1896:2008  function solarCalc() public {... */\n    tag_25:\n        /* \"advanced_solidity1/error_handling.sol\":1943:1948  sunny */\n      0x00\n      dup1\n      sload\n      swap1\n      0x0100\n      exp\n      swap1\n      div\n      0xff\n      and\n        /* \"advanced_solidity1/error_handling.sol\":1935:1975  require(sunny, \"it is not sunny today!\") */\n      tag_41\n      jumpi\n      mload(0x40)\n      0x08c379a000000000000000000000000000000000000000000000000000000000\n      dup2\n      mstore\n      0x04\n      add\n      tag_42\n      swap1\n      tag_43\n      jump\t// in\n    tag_42:\n      mload(0x40)\n      dup1\n      swap2\n      sub\n      swap1\n      revert\n    tag_41:\n        /* \"advanced_solidity1/error_handling.sol\":1999:2000  3 */\n      0x03\n        /* \"advanced_solidity1/error_handling.sol\":1986:1995  finalCalc */\n      0x01\n      0x00\n        /* \"advanced_solidity1/error_handling.sol\":1986:2000  finalCalc += 3 */\n      dup3\n      dup3\n      sload\n      tag_44\n      swap2\n      swap1\n      tag_45\n      jump\t// in\n    tag_44:\n      swap3\n      pop\n      pop\n      dup2\n      swap1\n      sstore\n      pop\n        /* \"advanced_solidity1/error_handling.sol\":1896:2008  function solarCalc() public {... */\n      jump\t// out\n        /* \"advanced_solidity1/error_handling.sol\":2714:2793  function getCalc() public view returns(uint){... */\n    tag_27:\n        /* \"advanced_solidity1/error_handling.sol\":2753:2757  uint */\n      0x00\n        /* \"advanced_solidity1/error_handling.sol\":2776:2785  finalCalc */\n      sload(0x01)\n        /* \"advanced_solidity1/error_handling.sol\":2769:2785  return finalCalc */\n      swap1\n      pop\n        /* \"advanced_solidity1/error_handling.sol\":2714:2793  function getCalc() public view returns(uint){... */\n      swap1\n      jump\t// out\n        /* \"#utility.yul\":7:97   */\n    tag_47:\n        /* \"#utility.yul\":41:48   */\n      0x00\n        /* \"#utility.yul\":84:89   */\n      dup2\n        /* \"#utility.yul\":77:90   */\n      iszero\n        /* \"#utility.yul\":70:91   */\n      iszero\n        /* \"#utility.yul\":59:91   */\n      swap1\n      pop\n        /* \"#utility.yul\":7:97   */\n      swap2\n      swap1\n      pop\n      jump\t// out\n        /* \"#utility.yul\":103:212   */\n    tag_48:\n        /* \"#utility.yul\":184:205   */\n      tag_60\n        /* \"#utility.yul\":199:204   */\n      dup2\n        /* \"#utility.yul\":184:205   */\n      tag_47\n      jump\t// in\n    tag_60:\n        /* \"#utility.yul\":179:182   */\n      dup3\n        /* \"#utility.yul\":172:206   */\n      mstore\n        /* \"#utility.yul\":103:212   */\n      pop\n      pop\n      jump\t// out\n        /* \"#utility.yul\":218:428   */\n    tag_16:\n        /* \"#utility.yul\":305:309   */\n      0x00\n        /* \"#utility.yul\":343:345   */\n      0x20\n        /* \"#utility.yul\":332:341   */\n      dup3\n        /* \"#utility.yul\":328:346   */\n      add\n        /* \"#utility.yul\":320:346   */\n      swap1\n      pop\n        /* \"#utility.yul\":356:421   */\n      tag_62\n        /* \"#utility.yul\":418:419   */\n      0x00\n        /* \"#utility.yul\":407:416   */\n      dup4\n        /* \"#utility.yul\":403:420   */\n      add\n        /* \"#utility.yul\":394:400   */\n      dup5\n        /* \"#utility.yul\":356:421   */\n      tag_48\n      jump\t// in\n    tag_62:\n        /* \"#utility.yul\":218:428   */\n      swap3\n      swap2\n      pop\n      pop\n      jump\t// out\n        /* \"#utility.yul\":434:511   */\n    tag_49:\n        /* \"#utility.yul\":471:478   */\n      0x00\n        /* \"#utility.yul\":500:505   */\n      dup2\n        /* \"#utility.yul\":489:505   */\n      swap1\n      pop\n        /* \"#utility.yul\":434:511   */\n      swap2\n      swap1\n      pop\n      jump\t// out\n        /* \"#utility.yul\":517:635   */\n    tag_50:\n        /* \"#utility.yul\":604:628   */\n      tag_65\n        /* \"#utility.yul\":622:627   */\n      dup2\n        /* \"#utility.yul\":604:628   */\n      tag_49\n      jump\t// in\n    tag_65:\n        /* \"#utility.yul\":599:602   */\n      dup3\n        /* \"#utility.yul\":592:629   */\n      mstore\n        /* \"#utility.yul\":517:635   */\n      pop\n      pop\n      jump\t// out\n        /* \"#utility.yul\":641:863   */\n    tag_29:\n        /* \"#utility.yul\":734:738   */\n      0x00\n        /* \"#utility.yul\":772:774   */\n      0x20\n        /* \"#utility.yul\":761:770   */\n      dup3\n        /* \"#utility.yul\":757:775   */\n      add\n        /* \"#utility.yul\":749:775   */\n      swap1\n      pop\n        /* \"#utility.yul\":785:856   */\n      tag_67\n        /* \"#utility.yul\":853:854   */\n      0x00\n        /* \"#utility.yul\":842:851   */\n      dup4\n        /* \"#utility.yul\":838:855   */\n      add\n        /* \"#utility.yul\":829:835   */\n      dup5\n        /* \"#utility.yul\":785:856   */\n      tag_50\n      jump\t// in\n    tag_67:\n        /* \"#utility.yul\":641:863   */\n      swap3\n      swap2\n      pop\n      pop\n      jump\t// out\n        /* \"#utility.yul\":869:1038   */\n    tag_51:\n        /* \"#utility.yul\":953:964   */\n      0x00\n        /* \"#utility.yul\":987:993   */\n      dup3\n        /* \"#utility.yul\":982:985   */\n      dup3\n        /* \"#utility.yul\":975:994   */\n      mstore\n        /* \"#utility.yul\":1027:1031   */\n      0x20\n        /* \"#utility.yul\":1022:1025   */\n      dup3\n        /* \"#utility.yul\":1018:1032   */\n      add\n        /* \"#utility.yul\":1003:1032   */\n      swap1\n      pop\n        /* \"#utility.yul\":869:1038   */\n      swap3\n      swap2\n      pop\n      pop\n      jump\t// out\n        /* \"#utility.yul\":1044:1267   */\n    tag_52:\n        /* \"#utility.yul\":1184:1218   */\n      0x4e6f206e65656420746f206272696e6720616e20756d6272656c6c6120746f64\n        /* \"#utility.yul\":1180:1181   */\n      0x00\n        /* \"#utility.yul\":1172:1178   */\n      dup3\n        /* \"#utility.yul\":1168:1182   */\n      add\n        /* \"#utility.yul\":1161:1219   */\n      mstore\n        /* \"#utility.yul\":1253:1259   */\n      0x6179212100000000000000000000000000000000000000000000000000000000\n        /* \"#utility.yul\":1248:1250   */\n      0x20\n        /* \"#utility.yul\":1240:1246   */\n      dup3\n        /* \"#utility.yul\":1236:1251   */\n      add\n        /* \"#utility.yul\":1229:1260   */\n      mstore\n        /* \"#utility.yul\":1044:1267   */\n      pop\n      jump\t// out\n        /* \"#utility.yul\":1273:1639   */\n    tag_53:\n        /* \"#utility.yul\":1415:1418   */\n      0x00\n        /* \"#utility.yul\":1436:1503   */\n      tag_71\n        /* \"#utility.yul\":1500:1502   */\n      0x24\n        /* \"#utility.yul\":1495:1498   */\n      dup4\n        /* \"#utility.yul\":1436:1503   */\n      tag_51\n      jump\t// in\n    tag_71:\n        /* \"#utility.yul\":1429:1503   */\n      swap2\n      pop\n        /* \"#utility.yul\":1512:1605   */\n      tag_72\n        /* \"#utility.yul\":1601:1604   */\n      dup3\n        /* \"#utility.yul\":1512:1605   */\n      tag_52\n      jump\t// in\n    tag_72:\n        /* \"#utility.yul\":1630:1632   */\n      0x40\n        /* \"#utility.yul\":1625:1628   */\n      dup3\n        /* \"#utility.yul\":1621:1633   */\n      add\n        /* \"#utility.yul\":1614:1633   */\n      swap1\n      pop\n        /* \"#utility.yul\":1273:1639   */\n      swap2\n      swap1\n      pop\n      jump\t// out\n        /* \"#utility.yul\":1645:2064   */\n    tag_34:\n        /* \"#utility.yul\":1811:1815   */\n      0x00\n        /* \"#utility.yul\":1849:1851   */\n      0x20\n        /* \"#utility.yul\":1838:1847   */\n      dup3\n        /* \"#utility.yul\":1834:1852   */\n      add\n        /* \"#utility.yul\":1826:1852   */\n      swap1\n      pop\n        /* \"#utility.yul\":1898:1907   */\n      dup2\n        /* \"#utility.yul\":1892:1896   */\n      dup2\n        /* \"#utility.yul\":1888:1908   */\n      sub\n        /* \"#utility.yul\":1884:1885   */\n      0x00\n        /* \"#utility.yul\":1873:1882   */\n      dup4\n        /* \"#utility.yul\":1869:1886   */\n      add\n        /* \"#utility.yul\":1862:1909   */\n      mstore\n        /* \"#utility.yul\":1926:2057   */\n      tag_74\n        /* \"#utility.yul\":2052:2056   */\n      dup2\n        /* \"#utility.yul\":1926:2057   */\n      tag_53\n      jump\t// in\n    tag_74:\n        /* \"#utility.yul\":1918:2057   */\n      swap1\n      pop\n        /* \"#utility.yul\":1645:2064   */\n      swap2\n      swap1\n      pop\n      jump\t// out\n        /* \"#utility.yul\":2070:2250   */\n    tag_38:\n        /* \"#utility.yul\":2118:2195   */\n      0x4e487b7100000000000000000000000000000000000000000000000000000000\n        /* \"#utility.yul\":2115:2116   */\n      0x00\n        /* \"#utility.yul\":2108:2196   */\n      mstore\n        /* \"#utility.yul\":2215:2219   */\n      0x01\n        /* \"#utility.yul\":2212:2213   */\n      0x04\n        /* \"#utility.yul\":2205:2220   */\n      mstore\n        /* \"#utility.yul\":2239:2243   */\n      0x24\n        /* \"#utility.yul\":2236:2237   */\n      0x00\n        /* \"#utility.yul\":2229:2244   */\n      revert\n        /* \"#utility.yul\":2256:2428   */\n    tag_54:\n        /* \"#utility.yul\":2396:2420   */\n      0x6974206973206e6f742073756e6e7920746f6461792100000000000000000000\n        /* \"#utility.yul\":2392:2393   */\n      0x00\n        /* \"#utility.yul\":2384:2390   */\n      dup3\n        /* \"#utility.yul\":2380:2394   */\n      add\n        /* \"#utility.yul\":2373:2421   */\n      mstore\n        /* \"#utility.yul\":2256:2428   */\n      pop\n      jump\t// out\n        /* \"#utility.yul\":2434:2800   */\n    tag_55:\n        /* \"#utility.yul\":2576:2579   */\n      0x00\n        /* \"#utility.yul\":2597:2664   */\n      tag_78\n        /* \"#utility.yul\":2661:2663   */\n      0x16\n        /* \"#utility.yul\":2656:2659   */\n      dup4\n        /* \"#utility.yul\":2597:2664   */\n      tag_51\n      jump\t// in\n    tag_78:\n        /* \"#utility.yul\":2590:2664   */\n      swap2\n      pop\n        /* \"#utility.yul\":2673:2766   */\n      tag_79\n        /* \"#utility.yul\":2762:2765   */\n      dup3\n        /* \"#utility.yul\":2673:2766   */\n      tag_54\n      jump\t// in\n    tag_79:\n        /* \"#utility.yul\":2791:2793   */\n      0x20\n        /* \"#utility.yul\":2786:2789   */\n      dup3\n        /* \"#utility.yul\":2782:2794   */\n      add\n        /* \"#utility.yul\":2775:2794   */\n      swap1\n      pop\n        /* \"#utility.yul\":2434:2800   */\n      swap2\n      swap1\n      pop\n      jump\t// out\n        /* \"#utility.yul\":2806:3225   */\n    tag_43:\n        /* \"#utility.yul\":2972:2976   */\n      0x00\n        /* \"#utility.yul\":3010:3012   */\n      0x20\n        /* \"#utility.yul\":2999:3008   */\n      dup3\n        /* \"#utility.yul\":2995:3013   */\n      add\n        /* \"#utility.yul\":2987:3013   */\n      swap1\n      pop\n        /* \"#utility.yul\":3059:3068   */\n      dup2\n        /* \"#utility.yul\":3053:3057   */\n      dup2\n        /* \"#utility.yul\":3049:3069   */\n      sub\n        /* \"#utility.yul\":3045:3046   */\n      0x00\n        /* \"#utility.yul\":3034:3043   */\n      dup4\n        /* \"#utility.yul\":3030:3047   */\n      add\n        /* \"#utility.yul\":3023:3070   */\n      mstore\n        /* \"#utility.yul\":3087:3218   */\n      tag_81\n        /* \"#utility.yul\":3213:3217   */\n      dup2\n        /* \"#utility.yul\":3087:3218   */\n      tag_55\n      jump\t// in\n    tag_81:\n        /* \"#utility.yul\":3079:3218   */\n      swap1\n      pop\n        /* \"#utility.yul\":2806:3225   */\n      swap2\n      swap1\n      pop\n      jump\t// out\n        /* \"#utility.yul\":3231:3411   */\n    tag_56:\n        /* \"#utility.yul\":3279:3356   */\n      0x4e487b7100000000000000000000000000000000000000000000000000000000\n        /* \"#utility.yul\":3276:3277   */\n      0x00\n        /* \"#utility.yul\":3269:3357   */\n      mstore\n        /* \"#utility.yul\":3376:3380   */\n      0x11\n        /* \"#utility.yul\":3373:3374   */\n      0x04\n        /* \"#utility.yul\":3366:3381   */\n      mstore\n        /* \"#utility.yul\":3400:3404   */\n      0x24\n        /* \"#utility.yul\":3397:3398   */\n      0x00\n        /* \"#utility.yul\":3390:3405   */\n      revert\n        /* \"#utility.yul\":3417:3608   */\n    tag_45:\n        /* \"#utility.yul\":3457:3460   */\n      0x00\n        /* \"#utility.yul\":3476:3496   */\n      tag_84\n        /* \"#utility.yul\":3494:3495   */\n      dup3\n        /* \"#utility.yul\":3476:3496   */\n      tag_49\n      jump\t// in\n    tag_84:\n        /* \"#utility.yul\":3471:3496   */\n      swap2\n      pop\n        /* \"#utility.yul\":3510:3530   */\n      tag_85\n        /* \"#utility.yul\":3528:3529   */\n      dup4\n        /* \"#utility.yul\":3510:3530   */\n      tag_49\n      jump\t// in\n    tag_85:\n        /* \"#utility.yul\":3505:3530   */\n      swap3\n      pop\n        /* \"#utility.yul\":3553:3554   */\n      dup3\n        /* \"#utility.yul\":3550:3551   */\n      dup3\n        /* \"#utility.yul\":3546:3555   */\n      add\n        /* \"#utility.yul\":3539:3555   */\n      swap1\n      pop\n        /* \"#utility.yul\":3574:3577   */\n      dup1\n        /* \"#utility.yul\":3571:3572   */\n      dup3\n        /* \"#utility.yul\":3568:3578   */\n      gt\n        /* \"#utility.yul\":3565:3601   */\n      iszero\n      tag_86\n      jumpi\n        /* \"#utility.yul\":3581:3599   */\n      tag_87\n      tag_56\n      jump\t// in\n    tag_87:\n        /* \"#utility.yul\":3565:3601   */\n    tag_86:\n        /* \"#utility.yul\":3417:3608   */\n      swap3\n      swap2\n      pop\n      pop\n      jump\t// out\n\n    auxdata: 0xa2646970667358221220d3decce25fdb99a8b5f4d11ed071b4d0c62a21c860dfe4065b83822f3df66d9a64736f6c63430008110033\n}\n",
				"bytecode": {
					"linkReferences": {},
					"object": "608060405260016000806101000a81548160ff02191690831515021790555060008060016101000a81548160ff021916908315150217905550600060015534801561004957600080fd5b50610489806100596000396000f3fe608060405234801561001057600080fd5b506004361061007d5760003560e01c8063ab02dd7b1161005b578063ab02dd7b146100b4578063c000dcdb146100d2578063e472c67c146100dc578063ebaf0dca146100e65761007d565b806366e811c614610082578063849142621461008c578063911ec8f5146100aa575b600080fd5b61008a610104565b005b610094610173565b6040516100a19190610263565b60405180910390f35b6100b2610186565b005b6100bc61019b565b6040516100c99190610263565b60405180910390f35b6100da6101ac565b005b6100e46101d5565b005b6100ee61023e565b6040516100fb9190610297565b60405180910390f35b60008054906101000a900460ff16610136576001600060016101000a81548160ff021916908315150217905550610171565b6040517f08c379a000000000000000000000000000000000000000000000000000000000815260040161016890610335565b60405180910390fd5b565b600060019054906101000a900460ff1681565b60066001540361019957610198610355565b5b565b60008054906101000a900460ff1681565b60008054906101000a900460ff16156000806101000a81548160ff021916908315150217905550565b60008054906101000a900460ff16610222576040517f08c379a0000000000000000000000000000000000000000000000000000000008152600401610219906103d0565b60405180910390fd5b600360016000828254610235919061041f565b92505081905550565b6000600154905090565b60008115159050919050565b61025d81610248565b82525050565b60006020820190506102786000830184610254565b92915050565b6000819050919050565b6102918161027e565b82525050565b60006020820190506102ac6000830184610288565b92915050565b600082825260208201905092915050565b7f4e6f206e65656420746f206272696e6720616e20756d6272656c6c6120746f6460008201527f6179212100000000000000000000000000000000000000000000000000000000602082015250565b600061031f6024836102b2565b915061032a826102c3565b604082019050919050565b6000602082019050818103600083015261034e81610312565b9050919050565b7f4e487b7100000000000000000000000000000000000000000000000000000000600052600160045260246000fd5b7f6974206973206e6f742073756e6e7920746f6461792100000000000000000000600082015250565b60006103ba6016836102b2565b91506103c582610384565b602082019050919050565b600060208201905081810360008301526103e9816103ad565b9050919050565b7f4e487b7100000000000000000000000000000000000000000000000000000000600052601160045260246000fd5b600061042a8261027e565b91506104358361027e565b925082820190508082111561044d5761044c6103f0565b5b9291505056fea2646970667358221220d3decce25fdb99a8b5f4d11ed071b4d0c62a21c860dfe4065b83822f3df66d9a64736f6c63430008110033",
					"opcodes": "PUSH1 0x80 PUSH1 0x40 MSTORE PUSH1 0x1 PUSH1 0x0 DUP1 PUSH2 0x100 EXP DUP2 SLOAD DUP2 PUSH1 0xFF MUL NOT AND SWAP1 DUP4 ISZERO ISZERO MUL OR SWAP1 SSTORE POP PUSH1 0x0 DUP1 PUSH1 0x1 PUSH2 0x100 EXP DUP2 SLOAD DUP2 PUSH1 0xFF MUL NOT AND SWAP1 DUP4 ISZERO ISZERO MUL OR SWAP1 SSTORE POP PUSH1 0x0 PUSH1 0x1 SSTORE CALLVALUE DUP1 ISZERO PUSH2 0x49 JUMPI PUSH1 0x0 DUP1 REVERT JUMPDEST POP PUSH2 0x489 DUP1 PUSH2 0x59 PUSH1 0x0 CODECOPY PUSH1 0x0 RETURN INVALID PUSH1 0x80 PUSH1 0x40 MSTORE CALLVALUE DUP1 ISZERO PUSH2 0x10 JUMPI PUSH1 0x0 DUP1 REVERT JUMPDEST POP PUSH1 0x4 CALLDATASIZE LT PUSH2 0x7D JUMPI PUSH1 0x0 CALLDATALOAD PUSH1 0xE0 SHR DUP1 PUSH4 0xAB02DD7B GT PUSH2 0x5B JUMPI DUP1 PUSH4 0xAB02DD7B EQ PUSH2 0xB4 JUMPI DUP1 PUSH4 0xC000DCDB EQ PUSH2 0xD2 JUMPI DUP1 PUSH4 0xE472C67C EQ PUSH2 0xDC JUMPI DUP1 PUSH4 0xEBAF0DCA EQ PUSH2 0xE6 JUMPI PUSH2 0x7D JUMP JUMPDEST DUP1 PUSH4 0x66E811C6 EQ PUSH2 0x82 JUMPI DUP1 PUSH4 0x84914262 EQ PUSH2 0x8C JUMPI DUP1 PUSH4 0x911EC8F5 EQ PUSH2 0xAA JUMPI JUMPDEST PUSH1 0x0 DUP1 REVERT JUMPDEST PUSH2 0x8A PUSH2 0x104 JUMP JUMPDEST STOP JUMPDEST PUSH2 0x94 PUSH2 0x173 JUMP JUMPDEST PUSH1 0x40 MLOAD PUSH2 0xA1 SWAP2 SWAP1 PUSH2 0x263 JUMP JUMPDEST PUSH1 0x40 MLOAD DUP1 SWAP2 SUB SWAP1 RETURN JUMPDEST PUSH2 0xB2 PUSH2 0x186 JUMP JUMPDEST STOP JUMPDEST PUSH2 0xBC PUSH2 0x19B JUMP JUMPDEST PUSH1 0x40 MLOAD PUSH2 0xC9 SWAP2 SWAP1 PUSH2 0x263 JUMP JUMPDEST PUSH1 0x40 MLOAD DUP1 SWAP2 SUB SWAP1 RETURN JUMPDEST PUSH2 0xDA PUSH2 0x1AC JUMP JUMPDEST STOP JUMPDEST PUSH2 0xE4 PUSH2 0x1D5 JUMP JUMPDEST STOP JUMPDEST PUSH2 0xEE PUSH2 0x23E JUMP JUMPDEST PUSH1 0x40 MLOAD PUSH2 0xFB SWAP2 SWAP1 PUSH2 0x297 JUMP JUMPDEST PUSH1 0x40 MLOAD DUP1 SWAP2 SUB SWAP1 RETURN JUMPDEST PUSH1 0x0 DUP1 SLOAD SWAP1 PUSH2 0x100 EXP SWAP1 DIV PUSH1 0xFF AND PUSH2 0x136 JUMPI PUSH1 0x1 PUSH1 0x0 PUSH1 0x1 PUSH2 0x100 EXP DUP2 SLOAD DUP2 PUSH1 0xFF MUL NOT AND SWAP1 DUP4 ISZERO ISZERO MUL OR SWAP1 SSTORE POP PUSH2 0x171 JUMP JUMPDEST PUSH1 0x40 MLOAD PUSH32 0x8C379A000000000000000000000000000000000000000000000000000000000 DUP2 MSTORE PUSH1 0x4 ADD PUSH2 0x168 SWAP1 PUSH2 0x335 JUMP JUMPDEST PUSH1 0x40 MLOAD DUP1 SWAP2 SUB SWAP1 REVERT JUMPDEST JUMP JUMPDEST PUSH1 0x0 PUSH1 0x1 SWAP1 SLOAD SWAP1 PUSH2 0x100 EXP SWAP1 DIV PUSH1 0xFF AND DUP2 JUMP JUMPDEST PUSH1 0x6 PUSH1 0x1 SLOAD SUB PUSH2 0x199 JUMPI PUSH2 0x198 PUSH2 0x355 JUMP JUMPDEST JUMPDEST JUMP JUMPDEST PUSH1 0x0 DUP1 SLOAD SWAP1 PUSH2 0x100 EXP SWAP1 DIV PUSH1 0xFF AND DUP2 JUMP JUMPDEST PUSH1 0x0 DUP1 SLOAD SWAP1 PUSH2 0x100 EXP SWAP1 DIV PUSH1 0xFF AND ISZERO PUSH1 0x0 DUP1 PUSH2 0x100 EXP DUP2 SLOAD DUP2 PUSH1 0xFF MUL NOT AND SWAP1 DUP4 ISZERO ISZERO MUL OR SWAP1 SSTORE POP JUMP JUMPDEST PUSH1 0x0 DUP1 SLOAD SWAP1 PUSH2 0x100 EXP SWAP1 DIV PUSH1 0xFF AND PUSH2 0x222 JUMPI PUSH1 0x40 MLOAD PUSH32 0x8C379A000000000000000000000000000000000000000000000000000000000 DUP2 MSTORE PUSH1 0x4 ADD PUSH2 0x219 SWAP1 PUSH2 0x3D0 JUMP JUMPDEST PUSH1 0x40 MLOAD DUP1 SWAP2 SUB SWAP1 REVERT JUMPDEST PUSH1 0x3 PUSH1 0x1 PUSH1 0x0 DUP3 DUP3 SLOAD PUSH2 0x235 SWAP2 SWAP1 PUSH2 0x41F JUMP JUMPDEST SWAP3 POP POP DUP2 SWAP1 SSTORE POP JUMP JUMPDEST PUSH1 0x0 PUSH1 0x1 SLOAD SWAP1 POP SWAP1 JUMP JUMPDEST PUSH1 0x0 DUP2 ISZERO ISZERO SWAP1 POP SWAP2 SWAP1 POP JUMP JUMPDEST PUSH2 0x25D DUP2 PUSH2 0x248 JUMP JUMPDEST DUP3 MSTORE POP POP JUMP JUMPDEST PUSH1 0x0 PUSH1 0x20 DUP3 ADD SWAP1 POP PUSH2 0x278 PUSH1 0x0 DUP4 ADD DUP5 PUSH2 0x254 JUMP JUMPDEST SWAP3 SWAP2 POP POP JUMP JUMPDEST PUSH1 0x0 DUP2 SWAP1 POP SWAP2 SWAP1 POP JUMP JUMPDEST PUSH2 0x291 DUP2 PUSH2 0x27E JUMP JUMPDEST DUP3 MSTORE POP POP JUMP JUMPDEST PUSH1 0x0 PUSH1 0x20 DUP3 ADD SWAP1 POP PUSH2 0x2AC PUSH1 0x0 DUP4 ADD DUP5 PUSH2 0x288 JUMP JUMPDEST SWAP3 SWAP2 POP POP JUMP JUMPDEST PUSH1 0x0 DUP3 DUP3 MSTORE PUSH1 0x20 DUP3 ADD SWAP1 POP SWAP3 SWAP2 POP POP JUMP JUMPDEST PUSH32 0x4E6F206E65656420746F206272696E6720616E20756D6272656C6C6120746F64 PUSH1 0x0 DUP3 ADD MSTORE PUSH32 0x6179212100000000000000000000000000000000000000000000000000000000 PUSH1 0x20 DUP3 ADD MSTORE POP JUMP JUMPDEST PUSH1 0x0 PUSH2 0x31F PUSH1 0x24 DUP4 PUSH2 0x2B2 JUMP JUMPDEST SWAP2 POP PUSH2 0x32A DUP3 PUSH2 0x2C3 JUMP JUMPDEST PUSH1 0x40 DUP3 ADD SWAP1 POP SWAP2 SWAP1 POP JUMP JUMPDEST PUSH1 0x0 PUSH1 0x20 DUP3 ADD SWAP1 POP DUP2 DUP2 SUB PUSH1 0x0 DUP4 ADD MSTORE PUSH2 0x34E DUP2 PUSH2 0x312 JUMP JUMPDEST SWAP1 POP SWAP2 SWAP1 POP JUMP JUMPDEST PUSH32 0x4E487B7100000000000000000000000000000000000000000000000000000000 PUSH1 0x0 MSTORE PUSH1 0x1 PUSH1 0x4 MSTORE PUSH1 0x24 PUSH1 0x0 REVERT JUMPDEST PUSH32 0x6974206973206E6F742073756E6E7920746F6461792100000000000000000000 PUSH1 0x0 DUP3 ADD MSTORE POP JUMP JUMPDEST PUSH1 0x0 PUSH2 0x3BA PUSH1 0x16 DUP4 PUSH2 0x2B2 JUMP JUMPDEST SWAP2 POP PUSH2 0x3C5 DUP3 PUSH2 0x384 JUMP JUMPDEST PUSH1 0x20 DUP3 ADD SWAP1 POP SWAP2 SWAP1 POP JUMP JUMPDEST PUSH1 0x0 PUSH1 0x20 DUP3 ADD SWAP1 POP DUP2 DUP2 SUB PUSH1 0x0 DUP4 ADD MSTORE PUSH2 0x3E9 DUP2 PUSH2 0x3AD JUMP JUMPDEST SWAP1 POP SWAP2 SWAP1 POP JUMP JUMPDEST PUSH32 0x4E487B7100000000000000000000000000000000000000000000000000000000 PUSH1 0x0 MSTORE PUSH1 0x11 PUSH1 0x4 MSTORE PUSH1 0x24 PUSH1 0x0 REVERT JUMPDEST PUSH1 0x0 PUSH2 0x42A DUP3 PUSH2 0x27E JUMP JUMPDEST SWAP2 POP PUSH2 0x435 DUP4 PUSH2 0x27E JUMP JUMPDEST SWAP3 POP DUP3 DUP3 ADD SWAP1 POP DUP1 DUP3 GT ISZERO PUSH2 0x44D JUMPI PUSH2 0x44C PUSH2 0x3F0 JUMP JUMPDEST JUMPDEST SWAP3 SWAP2 POP POP JUMP INVALID LOG2 PUSH5 0x6970667358 0x22 SLT KECCAK256 0xD3 0xDE 0xCC 0xE2 0x5F 0xDB SWAP10 0xA8 0xB5 DELEGATECALL 0xD1 0x1E 0xD0 PUSH18 0xB4D0C62A21C860DFE4065B83822F3DF66D9A PUSH5 0x736F6C6343 STOP ADDMOD GT STOP CALLER "
				},
				"gasEstimates": {
					"creation": {
						"codeDepositCost": "232200",
						"executionCost": "53865",
						"totalCost": "286065"
					},
					"external": {
						"bringUmbrella()": "26623",
						"getCalc()": "2503",
						"internalTestUnits()": "2341",
						"solarCalc()": "infinite",
						"sunny()": "2468",
						"umbrella()": "2544",
						"weatherChanger()": "26569"
					}
				},
				"methodIdentifiers": {
					"bringUmbrella()": "66e811c6",
					"getCalc()": "ebaf0dca",
					"internalTestUnits()": "911ec8f5",
					"solarCalc()": "e472c67c",
					"sunny()": "ab02dd7b",
					"umbrella()": "84914262",
					"weatherChanger()": "c000dcdb"
				}
			},
			"storageLayout": {
				"storage": [
					{
						"astId": 4,
						"contract": "advanced_solidity1/error_handling.sol:LearnErrorHandling",
						"label": "sunny",
						"offset": 0,
						"slot": "0",
						"type": "t_bool"
					},
					{
						"astId": 7,
						"contract": "advanced_solidity1/error_handling.sol:LearnErrorHandling",
						"label": "umbrella",
						"offset": 1,
						"slot": "0",
						"type": "t_bool"
					},
					{
						"astId": 10,
						"contract": "advanced_solidity1/error_handling.sol:LearnErrorHandling",
						"label": "finalCalc",
						"offset": 0,
						"slot": "1",
						"type": "t_uint256"
					}
				],
				"types": {
					"t_bool": {
						"encoding": "inplace",
						"label": "bool",
						"numberOfBytes": "1"
					},
					"t_uint256": {
						"encoding": "inplace",
						"label": "uint256",
						"numberOfBytes": "32"
					}
				}
			},
			"userdoc": {
				"kind": "user",
				"methods": {},
				"version": 1
			}
		}
	}
}