{
	"advanced_solidity1/abstract_contracts.sol": {
		"A": {
			"abi": [
				{
					"inputs": [],
					"name": "y",
					"outputs": [
						{
							"internalType": "string",
							"name": "",
							"type": "string"
						}
					],
					"stateMutability": "view",
					"type": "function"
				}
			],
			"devdoc": {
				"kind": "dev",
				"methods": {},
				"version": 1
			},
			"evm": {
				"assembly": "    /* \"advanced_solidity1/abstract_contracts.sol\":965:1043  contract A {\r... */\n  mstore(0x40, 0x80)\n  callvalue\n  dup1\n  iszero\n  tag_1\n  jumpi\n  0x00\n  dup1\n  revert\ntag_1:\n  pop\n  dataSize(sub_0)\n  dup1\n  dataOffset(sub_0)\n  0x00\n  codecopy\n  0x00\n  return\nstop\n\nsub_0: assembly {\n        /* \"advanced_solidity1/abstract_contracts.sol\":965:1043  contract A {\r... */\n      mstore(0x40, 0x80)\n      callvalue\n      dup1\n      iszero\n      tag_1\n      jumpi\n      0x00\n      dup1\n      revert\n    tag_1:\n      pop\n      jumpi(tag_2, lt(calldatasize, 0x04))\n      shr(0xe0, calldataload(0x00))\n      dup1\n      0xa56dfe4a\n      eq\n      tag_3\n      jumpi\n    tag_2:\n      0x00\n      dup1\n      revert\n        /* \"advanced_solidity1/abstract_contracts.sol\":983:1040  function y() public view virtual returns(string memory){} */\n    tag_3:\n      tag_4\n      tag_5\n      jump\t// in\n    tag_4:\n      mload(0x40)\n      tag_6\n      swap2\n      swap1\n      tag_7\n      jump\t// in\n    tag_6:\n      mload(0x40)\n      dup1\n      swap2\n      sub\n      swap1\n      return\n    tag_5:\n        /* \"advanced_solidity1/abstract_contracts.sol\":1024:1037  string memory */\n      0x60\n        /* \"advanced_solidity1/abstract_contracts.sol\":983:1040  function y() public view virtual returns(string memory){} */\n      swap1\n      jump\t// out\n        /* \"#utility.yul\":7:371   */\n    tag_10:\n        /* \"#utility.yul\":95:98   */\n      0x00\n        /* \"#utility.yul\":123:162   */\n      tag_12\n        /* \"#utility.yul\":156:161   */\n      dup3\n        /* \"#utility.yul\":123:162   */\n      tag_13\n      jump\t// in\n    tag_12:\n        /* \"#utility.yul\":178:249   */\n      tag_14\n        /* \"#utility.yul\":242:248   */\n      dup2\n        /* \"#utility.yul\":237:240   */\n      dup6\n        /* \"#utility.yul\":178:249   */\n      tag_15\n      jump\t// in\n    tag_14:\n        /* \"#utility.yul\":171:249   */\n      swap4\n      pop\n        /* \"#utility.yul\":258:310   */\n      tag_16\n        /* \"#utility.yul\":303:309   */\n      dup2\n        /* \"#utility.yul\":298:301   */\n      dup6\n        /* \"#utility.yul\":291:295   */\n      0x20\n        /* \"#utility.yul\":284:289   */\n      dup7\n        /* \"#utility.yul\":280:296   */\n      add\n        /* \"#utility.yul\":258:310   */\n      tag_17\n      jump\t// in\n    tag_16:\n        /* \"#utility.yul\":335:364   */\n      tag_18\n        /* \"#utility.yul\":357:363   */\n      dup2\n        /* \"#utility.yul\":335:364   */\n      tag_19\n      jump\t// in\n    tag_18:\n        /* \"#utility.yul\":330:333   */\n      dup5\n        /* \"#utility.yul\":326:365   */\n      add\n        /* \"#utility.yul\":319:365   */\n      swap2\n      pop\n        /* \"#utility.yul\":99:371   */\n      pop\n        /* \"#utility.yul\":7:371   */\n      swap3\n      swap2\n      pop\n      pop\n      jump\t// out\n        /* \"#utility.yul\":377:690   */\n    tag_7:\n        /* \"#utility.yul\":490:494   */\n      0x00\n        /* \"#utility.yul\":528:530   */\n      0x20\n        /* \"#utility.yul\":517:526   */\n      dup3\n        /* \"#utility.yul\":513:531   */\n      add\n        /* \"#utility.yul\":505:531   */\n      swap1\n      pop\n        /* \"#utility.yul\":577:586   */\n      dup2\n        /* \"#utility.yul\":571:575   */\n      dup2\n        /* \"#utility.yul\":567:587   */\n      sub\n        /* \"#utility.yul\":563:564   */\n      0x00\n        /* \"#utility.yul\":552:561   */\n      dup4\n        /* \"#utility.yul\":548:565   */\n      add\n        /* \"#utility.yul\":541:588   */\n      mstore\n        /* \"#utility.yul\":605:683   */\n      tag_21\n        /* \"#utility.yul\":678:682   */\n      dup2\n        /* \"#utility.yul\":669:675   */\n      dup5\n        /* \"#utility.yul\":605:683   */\n      tag_10\n      jump\t// in\n    tag_21:\n        /* \"#utility.yul\":597:683   */\n      swap1\n      pop\n        /* \"#utility.yul\":377:690   */\n      swap3\n      swap2\n      pop\n      pop\n      jump\t// out\n        /* \"#utility.yul\":696:795   */\n    tag_13:\n        /* \"#utility.yul\":748:754   */\n      0x00\n        /* \"#utility.yul\":782:787   */\n      dup2\n        /* \"#utility.yul\":776:788   */\n      mload\n        /* \"#utility.yul\":766:788   */\n      swap1\n      pop\n        /* \"#utility.yul\":696:795   */\n      swap2\n      swap1\n      pop\n      jump\t// out\n        /* \"#utility.yul\":801:970   */\n    tag_15:\n        /* \"#utility.yul\":885:896   */\n      0x00\n        /* \"#utility.yul\":919:925   */\n      dup3\n        /* \"#utility.yul\":914:917   */\n      dup3\n        /* \"#utility.yul\":907:926   */\n      mstore\n        /* \"#utility.yul\":959:963   */\n      0x20\n        /* \"#utility.yul\":954:957   */\n      dup3\n        /* \"#utility.yul\":950:964   */\n      add\n        /* \"#utility.yul\":935:964   */\n      swap1\n      pop\n        /* \"#utility.yul\":801:970   */\n      swap3\n      swap2\n      pop\n      pop\n      jump\t// out\n        /* \"#utility.yul\":976:1283   */\n    tag_17:\n        /* \"#utility.yul\":1044:1045   */\n      0x00\n        /* \"#utility.yul\":1054:1167   */\n    tag_25:\n        /* \"#utility.yul\":1068:1074   */\n      dup4\n        /* \"#utility.yul\":1065:1066   */\n      dup2\n        /* \"#utility.yul\":1062:1075   */\n      lt\n        /* \"#utility.yul\":1054:1167   */\n      iszero\n      tag_27\n      jumpi\n        /* \"#utility.yul\":1153:1154   */\n      dup1\n        /* \"#utility.yul\":1148:1151   */\n      dup3\n        /* \"#utility.yul\":1144:1155   */\n      add\n        /* \"#utility.yul\":1138:1156   */\n      mload\n        /* \"#utility.yul\":1134:1135   */\n      dup2\n        /* \"#utility.yul\":1129:1132   */\n      dup5\n        /* \"#utility.yul\":1125:1136   */\n      add\n        /* \"#utility.yul\":1118:1157   */\n      mstore\n        /* \"#utility.yul\":1090:1092   */\n      0x20\n        /* \"#utility.yul\":1087:1088   */\n      dup2\n        /* \"#utility.yul\":1083:1093   */\n      add\n        /* \"#utility.yul\":1078:1093   */\n      swap1\n      pop\n        /* \"#utility.yul\":1054:1167   */\n      jump(tag_25)\n    tag_27:\n        /* \"#utility.yul\":1185:1191   */\n      dup4\n        /* \"#utility.yul\":1182:1183   */\n      dup2\n        /* \"#utility.yul\":1179:1192   */\n      gt\n        /* \"#utility.yul\":1176:1277   */\n      iszero\n      tag_28\n      jumpi\n        /* \"#utility.yul\":1265:1266   */\n      0x00\n        /* \"#utility.yul\":1256:1262   */\n      dup5\n        /* \"#utility.yul\":1251:1254   */\n      dup5\n        /* \"#utility.yul\":1247:1263   */\n      add\n        /* \"#utility.yul\":1240:1267   */\n      mstore\n        /* \"#utility.yul\":1176:1277   */\n    tag_28:\n        /* \"#utility.yul\":1025:1283   */\n      pop\n        /* \"#utility.yul\":976:1283   */\n      pop\n      pop\n      pop\n      jump\t// out\n        /* \"#utility.yul\":1289:1391   */\n    tag_19:\n        /* \"#utility.yul\":1330:1336   */\n      0x00\n        /* \"#utility.yul\":1381:1383   */\n      0x1f\n        /* \"#utility.yul\":1377:1384   */\n      not\n        /* \"#utility.yul\":1372:1374   */\n      0x1f\n        /* \"#utility.yul\":1365:1370   */\n      dup4\n        /* \"#utility.yul\":1361:1375   */\n      add\n        /* \"#utility.yul\":1357:1385   */\n      and\n        /* \"#utility.yul\":1347:1385   */\n      swap1\n      pop\n        /* \"#utility.yul\":1289:1391   */\n      swap2\n      swap1\n      pop\n      jump\t// out\n\n    auxdata: 0xa264697066735822122029065c4b551e11e9e6f07dd041cb1ae1dfe6519ca902c941b48f9530d0f708a964736f6c63430008070033\n}\n",
				"bytecode": {
					"linkReferences": {},
					"object": "608060405234801561001057600080fd5b50610130806100206000396000f3fe6080604052348015600f57600080fd5b506004361060285760003560e01c8063a56dfe4a14602d575b600080fd5b60336047565b604051603e9190607d565b60405180910390f35b606090565b6000605582609d565b605d818560a8565b9350606b81856020860160b9565b60728160e9565b840191505092915050565b6000602082019050818103600083015260958184604c565b905092915050565b600081519050919050565b600082825260208201905092915050565b60005b8381101560d557808201518184015260208101905060bc565b8381111560e3576000848401525b50505050565b6000601f19601f830116905091905056fea264697066735822122029065c4b551e11e9e6f07dd041cb1ae1dfe6519ca902c941b48f9530d0f708a964736f6c63430008070033",
					"opcodes": "PUSH1 0x80 PUSH1 0x40 MSTORE CALLVALUE DUP1 ISZERO PUSH2 0x10 JUMPI PUSH1 0x0 DUP1 REVERT JUMPDEST POP PUSH2 0x130 DUP1 PUSH2 0x20 PUSH1 0x0 CODECOPY PUSH1 0x0 RETURN INVALID PUSH1 0x80 PUSH1 0x40 MSTORE CALLVALUE DUP1 ISZERO PUSH1 0xF JUMPI PUSH1 0x0 DUP1 REVERT JUMPDEST POP PUSH1 0x4 CALLDATASIZE LT PUSH1 0x28 JUMPI PUSH1 0x0 CALLDATALOAD PUSH1 0xE0 SHR DUP1 PUSH4 0xA56DFE4A EQ PUSH1 0x2D JUMPI JUMPDEST PUSH1 0x0 DUP1 REVERT JUMPDEST PUSH1 0x33 PUSH1 0x47 JUMP JUMPDEST PUSH1 0x40 MLOAD PUSH1 0x3E SWAP2 SWAP1 PUSH1 0x7D JUMP JUMPDEST PUSH1 0x40 MLOAD DUP1 SWAP2 SUB SWAP1 RETURN JUMPDEST PUSH1 0x60 SWAP1 JUMP JUMPDEST PUSH1 0x0 PUSH1 0x55 DUP3 PUSH1 0x9D JUMP JUMPDEST PUSH1 0x5D DUP2 DUP6 PUSH1 0xA8 JUMP JUMPDEST SWAP4 POP PUSH1 0x6B DUP2 DUP6 PUSH1 0x20 DUP7 ADD PUSH1 0xB9 JUMP JUMPDEST PUSH1 0x72 DUP2 PUSH1 0xE9 JUMP JUMPDEST DUP5 ADD SWAP2 POP POP SWAP3 SWAP2 POP POP JUMP JUMPDEST PUSH1 0x0 PUSH1 0x20 DUP3 ADD SWAP1 POP DUP2 DUP2 SUB PUSH1 0x0 DUP4 ADD MSTORE PUSH1 0x95 DUP2 DUP5 PUSH1 0x4C JUMP JUMPDEST SWAP1 POP SWAP3 SWAP2 POP POP JUMP JUMPDEST PUSH1 0x0 DUP2 MLOAD SWAP1 POP SWAP2 SWAP1 POP JUMP JUMPDEST PUSH1 0x0 DUP3 DUP3 MSTORE PUSH1 0x20 DUP3 ADD SWAP1 POP SWAP3 SWAP2 POP POP JUMP JUMPDEST PUSH1 0x0 JUMPDEST DUP4 DUP2 LT ISZERO PUSH1 0xD5 JUMPI DUP1 DUP3 ADD MLOAD DUP2 DUP5 ADD MSTORE PUSH1 0x20 DUP2 ADD SWAP1 POP PUSH1 0xBC JUMP JUMPDEST DUP4 DUP2 GT ISZERO PUSH1 0xE3 JUMPI PUSH1 0x0 DUP5 DUP5 ADD MSTORE JUMPDEST POP POP POP POP JUMP JUMPDEST PUSH1 0x0 PUSH1 0x1F NOT PUSH1 0x1F DUP4 ADD AND SWAP1 POP SWAP2 SWAP1 POP JUMP INVALID LOG2 PUSH5 0x6970667358 0x22 SLT KECCAK256 0x29 MOD 0x5C 0x4B SSTORE 0x1E GT 0xE9 0xE6 CREATE PUSH30 0xD041CB1AE1DFE6519CA902C941B48F9530D0F708A964736F6C6343000807 STOP CALLER "
				},
				"gasEstimates": {
					"creation": {
						"codeDepositCost": "60800",
						"executionCost": "111",
						"totalCost": "60911"
					},
					"external": {
						"y()": "infinite"
					}
				},
				"methodIdentifiers": {
					"y()": "a56dfe4a"
				}
			},
			"storageLayout": {
				"storage": [],
				"types": null
			},
			"userdoc": {
				"kind": "user",
				"methods": {},
				"version": 1
			}
		}
	}
}