{
	"advanced_solidity1/inheritance.sol": {
		"B": {
			"abi": [
				{
					"inputs": [],
					"name": "getInnerVal",
					"outputs": [
						{
							"internalType": "uint256",
							"name": "",
							"type": "uint256"
						}
					],
					"stateMutability": "view",
					"type": "function"
				},
				{
					"inputs": [
						{
							"internalType": "uint256",
							"name": "input",
							"type": "uint256"
						}
					],
					"name": "innerAddTen",
					"outputs": [
						{
							"internalType": "uint256",
							"name": "",
							"type": "uint256"
						}
					],
					"stateMutability": "pure",
					"type": "function"
				},
				{
					"inputs": [
						{
							"internalType": "uint256",
							"name": "input",
							"type": "uint256"
						}
					],
					"name": "outerAddTen",
					"outputs": [
						{
							"internalType": "uint256",
							"name": "",
							"type": "uint256"
						}
					],
					"stateMutability": "pure",
					"type": "function"
				}
			],
			"devdoc": {
				"kind": "dev",
				"methods": {},
				"version": 1
			},
			"evm": {
				"assembly": "    /* \"advanced_solidity1/inheritance.sol\":1630:1892  contract B is A {\r... */\n  mstore(0x40, 0x80)\n    /* \"advanced_solidity1/inheritance.sol\":1413:1416  100 */\n  0x64\n    /* \"advanced_solidity1/inheritance.sol\":1397:1416  uint innerVal = 100 */\n  0x00\n  sstore\n    /* \"advanced_solidity1/inheritance.sol\":1630:1892  contract B is A {\r... */\n  callvalue\n  dup1\n  iszero\n  tag_1\n  jumpi\n  0x00\n  dup1\n  revert\ntag_1:\n  pop\n  dataSize(sub_0)\n  dup1\n  dataOffset(sub_0)\n  0x00\n  codecopy\n  0x00\n  return\nstop\n\nsub_0: assembly {\n        /* \"advanced_solidity1/inheritance.sol\":1630:1892  contract B is A {\r... */\n      mstore(0x40, 0x80)\n      callvalue\n      dup1\n      iszero\n      tag_1\n      jumpi\n      0x00\n      dup1\n      revert\n    tag_1:\n      pop\n      jumpi(tag_2, lt(calldatasize, 0x04))\n      shr(0xe0, calldataload(0x00))\n      dup1\n      0x0d2069ad\n      eq\n      tag_3\n      jumpi\n      dup1\n      0x65b92b70\n      eq\n      tag_4\n      jumpi\n      dup1\n      0x876fe953\n      eq\n      tag_5\n      jumpi\n    tag_2:\n      0x00\n      dup1\n      revert\n        /* \"advanced_solidity1/inheritance.sol\":1803:1887  function getInnerVal()public view returns(uint) {\r... */\n    tag_3:\n      tag_6\n      tag_7\n      jump\t// in\n    tag_6:\n      mload(0x40)\n      tag_8\n      swap2\n      swap1\n      tag_9\n      jump\t// in\n    tag_8:\n      mload(0x40)\n      dup1\n      swap2\n      sub\n      swap1\n      return\n        /* \"advanced_solidity1/inheritance.sol\":1653:1797  function outerAddTen(uint input) public pure returns(uint){\r... */\n    tag_4:\n      tag_10\n      0x04\n      dup1\n      calldatasize\n      sub\n      dup2\n      add\n      swap1\n      tag_11\n      swap2\n      swap1\n      tag_12\n      jump\t// in\n    tag_11:\n      tag_13\n      jump\t// in\n    tag_10:\n      mload(0x40)\n      tag_14\n      swap2\n      swap1\n      tag_9\n      jump\t// in\n    tag_14:\n      mload(0x40)\n      dup1\n      swap2\n      sub\n      swap1\n      return\n        /* \"advanced_solidity1/inheritance.sol\":1425:1621  function innerAddTen(uint input) public pure returns(uint){  // read only --> pure, we are returning a calculation and we are not going to change the calculation\r... */\n    tag_5:\n      tag_15\n      0x04\n      dup1\n      calldatasize\n      sub\n      dup2\n      add\n      swap1\n      tag_16\n      swap2\n      swap1\n      tag_12\n      jump\t// in\n    tag_16:\n      tag_17\n      jump\t// in\n    tag_15:\n      mload(0x40)\n      tag_18\n      swap2\n      swap1\n      tag_9\n      jump\t// in\n    tag_18:\n      mload(0x40)\n      dup1\n      swap2\n      sub\n      swap1\n      return\n        /* \"advanced_solidity1/inheritance.sol\":1803:1887  function getInnerVal()public view returns(uint) {\r... */\n    tag_7:\n        /* \"advanced_solidity1/inheritance.sol\":1845:1849  uint */\n      0x00\n        /* \"advanced_solidity1/inheritance.sol\":1869:1879  A.innerVal */\n      dup1\n      sload\n        /* \"advanced_solidity1/inheritance.sol\":1862:1879  return A.innerVal */\n      swap1\n      pop\n        /* \"advanced_solidity1/inheritance.sol\":1803:1887  function getInnerVal()public view returns(uint) {\r... */\n      swap1\n      jump\t// out\n        /* \"advanced_solidity1/inheritance.sol\":1653:1797  function outerAddTen(uint input) public pure returns(uint){\r... */\n    tag_13:\n        /* \"advanced_solidity1/inheritance.sol\":1706:1710  uint */\n      0x00\n        /* \"advanced_solidity1/inheritance.sol\":1729:1749  A.innerAddTen(input) */\n      tag_21\n        /* \"advanced_solidity1/inheritance.sol\":1743:1748  input */\n      dup3\n        /* \"advanced_solidity1/inheritance.sol\":1729:1742  A.innerAddTen */\n      tag_17\n        /* \"advanced_solidity1/inheritance.sol\":1729:1749  A.innerAddTen(input) */\n      jump\t// in\n    tag_21:\n        /* \"advanced_solidity1/inheritance.sol\":1722:1749  return A.innerAddTen(input) */\n      swap1\n      pop\n        /* \"advanced_solidity1/inheritance.sol\":1653:1797  function outerAddTen(uint input) public pure returns(uint){\r... */\n      swap2\n      swap1\n      pop\n      jump\t// out\n        /* \"advanced_solidity1/inheritance.sol\":1425:1621  function innerAddTen(uint input) public pure returns(uint){  // read only --> pure, we are returning a calculation and we are not going to change the calculation\r... */\n    tag_17:\n        /* \"advanced_solidity1/inheritance.sol\":1478:1482  uint */\n      0x00\n        /* \"advanced_solidity1/inheritance.sol\":1611:1613  10 */\n      0x0a\n        /* \"advanced_solidity1/inheritance.sol\":1603:1608  input */\n      dup3\n        /* \"advanced_solidity1/inheritance.sol\":1603:1613  input + 10 */\n      tag_23\n      swap2\n      swap1\n      tag_24\n      jump\t// in\n    tag_23:\n        /* \"advanced_solidity1/inheritance.sol\":1596:1613  return input + 10 */\n      swap1\n      pop\n        /* \"advanced_solidity1/inheritance.sol\":1425:1621  function innerAddTen(uint input) public pure returns(uint){  // read only --> pure, we are returning a calculation and we are not going to change the calculation\r... */\n      swap2\n      swap1\n      pop\n      jump\t// out\n        /* \"#utility.yul\":7:146   */\n    tag_26:\n        /* \"#utility.yul\":53:58   */\n      0x00\n        /* \"#utility.yul\":91:97   */\n      dup2\n        /* \"#utility.yul\":78:98   */\n      calldataload\n        /* \"#utility.yul\":69:98   */\n      swap1\n      pop\n        /* \"#utility.yul\":107:140   */\n      tag_28\n        /* \"#utility.yul\":134:139   */\n      dup2\n        /* \"#utility.yul\":107:140   */\n      tag_29\n      jump\t// in\n    tag_28:\n        /* \"#utility.yul\":7:146   */\n      swap3\n      swap2\n      pop\n      pop\n      jump\t// out\n        /* \"#utility.yul\":152:481   */\n    tag_12:\n        /* \"#utility.yul\":211:217   */\n      0x00\n        /* \"#utility.yul\":260:262   */\n      0x20\n        /* \"#utility.yul\":248:257   */\n      dup3\n        /* \"#utility.yul\":239:246   */\n      dup5\n        /* \"#utility.yul\":235:258   */\n      sub\n        /* \"#utility.yul\":231:263   */\n      slt\n        /* \"#utility.yul\":228:347   */\n      iszero\n      tag_31\n      jumpi\n        /* \"#utility.yul\":266:345   */\n      tag_32\n      tag_33\n      jump\t// in\n    tag_32:\n        /* \"#utility.yul\":228:347   */\n    tag_31:\n        /* \"#utility.yul\":386:387   */\n      0x00\n        /* \"#utility.yul\":411:464   */\n      tag_34\n        /* \"#utility.yul\":456:463   */\n      dup5\n        /* \"#utility.yul\":447:453   */\n      dup3\n        /* \"#utility.yul\":436:445   */\n      dup6\n        /* \"#utility.yul\":432:454   */\n      add\n        /* \"#utility.yul\":411:464   */\n      tag_26\n      jump\t// in\n    tag_34:\n        /* \"#utility.yul\":401:464   */\n      swap2\n      pop\n        /* \"#utility.yul\":357:474   */\n      pop\n        /* \"#utility.yul\":152:481   */\n      swap3\n      swap2\n      pop\n      pop\n      jump\t// out\n        /* \"#utility.yul\":487:605   */\n    tag_35:\n        /* \"#utility.yul\":574:598   */\n      tag_37\n        /* \"#utility.yul\":592:597   */\n      dup2\n        /* \"#utility.yul\":574:598   */\n      tag_38\n      jump\t// in\n    tag_37:\n        /* \"#utility.yul\":569:572   */\n      dup3\n        /* \"#utility.yul\":562:599   */\n      mstore\n        /* \"#utility.yul\":487:605   */\n      pop\n      pop\n      jump\t// out\n        /* \"#utility.yul\":611:833   */\n    tag_9:\n        /* \"#utility.yul\":704:708   */\n      0x00\n        /* \"#utility.yul\":742:744   */\n      0x20\n        /* \"#utility.yul\":731:740   */\n      dup3\n        /* \"#utility.yul\":727:745   */\n      add\n        /* \"#utility.yul\":719:745   */\n      swap1\n      pop\n        /* \"#utility.yul\":755:826   */\n      tag_40\n        /* \"#utility.yul\":823:824   */\n      0x00\n        /* \"#utility.yul\":812:821   */\n      dup4\n        /* \"#utility.yul\":808:825   */\n      add\n        /* \"#utility.yul\":799:805   */\n      dup5\n        /* \"#utility.yul\":755:826   */\n      tag_35\n      jump\t// in\n    tag_40:\n        /* \"#utility.yul\":611:833   */\n      swap3\n      swap2\n      pop\n      pop\n      jump\t// out\n        /* \"#utility.yul\":920:1225   */\n    tag_24:\n        /* \"#utility.yul\":960:963   */\n      0x00\n        /* \"#utility.yul\":979:999   */\n      tag_44\n        /* \"#utility.yul\":997:998   */\n      dup3\n        /* \"#utility.yul\":979:999   */\n      tag_38\n      jump\t// in\n    tag_44:\n        /* \"#utility.yul\":974:999   */\n      swap2\n      pop\n        /* \"#utility.yul\":1013:1033   */\n      tag_45\n        /* \"#utility.yul\":1031:1032   */\n      dup4\n        /* \"#utility.yul\":1013:1033   */\n      tag_38\n      jump\t// in\n    tag_45:\n        /* \"#utility.yul\":1008:1033   */\n      swap3\n      pop\n        /* \"#utility.yul\":1167:1168   */\n      dup3\n        /* \"#utility.yul\":1099:1165   */\n      0xffffffffffffffffffffffffffffffffffffffffffffffffffffffffffffffff\n        /* \"#utility.yul\":1095:1169   */\n      sub\n        /* \"#utility.yul\":1092:1093   */\n      dup3\n        /* \"#utility.yul\":1089:1170   */\n      gt\n        /* \"#utility.yul\":1086:1193   */\n      iszero\n      tag_46\n      jumpi\n        /* \"#utility.yul\":1173:1191   */\n      tag_47\n      tag_48\n      jump\t// in\n    tag_47:\n        /* \"#utility.yul\":1086:1193   */\n    tag_46:\n        /* \"#utility.yul\":1217:1218   */\n      dup3\n        /* \"#utility.yul\":1214:1215   */\n      dup3\n        /* \"#utility.yul\":1210:1219   */\n      add\n        /* \"#utility.yul\":1203:1219   */\n      swap1\n      pop\n        /* \"#utility.yul\":920:1225   */\n      swap3\n      swap2\n      pop\n      pop\n      jump\t// out\n        /* \"#utility.yul\":1231:1308   */\n    tag_38:\n        /* \"#utility.yul\":1268:1275   */\n      0x00\n        /* \"#utility.yul\":1297:1302   */\n      dup2\n        /* \"#utility.yul\":1286:1302   */\n      swap1\n      pop\n        /* \"#utility.yul\":1231:1308   */\n      swap2\n      swap1\n      pop\n      jump\t// out\n        /* \"#utility.yul\":1314:1494   */\n    tag_48:\n        /* \"#utility.yul\":1362:1439   */\n      0x4e487b7100000000000000000000000000000000000000000000000000000000\n        /* \"#utility.yul\":1359:1360   */\n      0x00\n        /* \"#utility.yul\":1352:1440   */\n      mstore\n        /* \"#utility.yul\":1459:1463   */\n      0x11\n        /* \"#utility.yul\":1456:1457   */\n      0x04\n        /* \"#utility.yul\":1449:1464   */\n      mstore\n        /* \"#utility.yul\":1483:1487   */\n      0x24\n        /* \"#utility.yul\":1480:1481   */\n      0x00\n        /* \"#utility.yul\":1473:1488   */\n      revert\n        /* \"#utility.yul\":1623:1740   */\n    tag_33:\n        /* \"#utility.yul\":1732:1733   */\n      0x00\n        /* \"#utility.yul\":1729:1730   */\n      dup1\n        /* \"#utility.yul\":1722:1734   */\n      revert\n        /* \"#utility.yul\":1746:1868   */\n    tag_29:\n        /* \"#utility.yul\":1819:1843   */\n      tag_55\n        /* \"#utility.yul\":1837:1842   */\n      dup2\n        /* \"#utility.yul\":1819:1843   */\n      tag_38\n      jump\t// in\n    tag_55:\n        /* \"#utility.yul\":1812:1817   */\n      dup2\n        /* \"#utility.yul\":1809:1844   */\n      eq\n        /* \"#utility.yul\":1799:1862   */\n      tag_56\n      jumpi\n        /* \"#utility.yul\":1858:1859   */\n      0x00\n        /* \"#utility.yul\":1855:1856   */\n      dup1\n        /* \"#utility.yul\":1848:1860   */\n      revert\n        /* \"#utility.yul\":1799:1862   */\n    tag_56:\n        /* \"#utility.yul\":1746:1868   */\n      pop\n      jump\t// out\n\n    auxdata: 0xa2646970667358221220191d38ed0dc2681ad228015c2278cd469c7721d3d20122a4f95873395057da5564736f6c63430008070033\n}\n",
				"bytecode": {
					"linkReferences": {},
					"object": "6080604052606460005534801561001557600080fd5b50610242806100256000396000f3fe608060405234801561001057600080fd5b50600436106100415760003560e01c80630d2069ad1461004657806365b92b7014610064578063876fe95314610094575b600080fd5b61004e6100c4565b60405161005b9190610146565b60405180910390f35b61007e6004803603810190610079919061010a565b6100cd565b60405161008b9190610146565b60405180910390f35b6100ae60048036038101906100a9919061010a565b6100df565b6040516100bb9190610146565b60405180910390f35b60008054905090565b60006100d8826100df565b9050919050565b6000600a826100ee9190610161565b9050919050565b600081359050610104816101f5565b92915050565b6000602082840312156101205761011f6101f0565b5b600061012e848285016100f5565b91505092915050565b610140816101b7565b82525050565b600060208201905061015b6000830184610137565b92915050565b600061016c826101b7565b9150610177836101b7565b9250827fffffffffffffffffffffffffffffffffffffffffffffffffffffffffffffffff038211156101ac576101ab6101c1565b5b828201905092915050565b6000819050919050565b7f4e487b7100000000000000000000000000000000000000000000000000000000600052601160045260246000fd5b600080fd5b6101fe816101b7565b811461020957600080fd5b5056fea2646970667358221220191d38ed0dc2681ad228015c2278cd469c7721d3d20122a4f95873395057da5564736f6c63430008070033",
					"opcodes": "PUSH1 0x80 PUSH1 0x40 MSTORE PUSH1 0x64 PUSH1 0x0 SSTORE CALLVALUE DUP1 ISZERO PUSH2 0x15 JUMPI PUSH1 0x0 DUP1 REVERT JUMPDEST POP PUSH2 0x242 DUP1 PUSH2 0x25 PUSH1 0x0 CODECOPY PUSH1 0x0 RETURN INVALID PUSH1 0x80 PUSH1 0x40 MSTORE CALLVALUE DUP1 ISZERO PUSH2 0x10 JUMPI PUSH1 0x0 DUP1 REVERT JUMPDEST POP PUSH1 0x4 CALLDATASIZE LT PUSH2 0x41 JUMPI PUSH1 0x0 CALLDATALOAD PUSH1 0xE0 SHR DUP1 PUSH4 0xD2069AD EQ PUSH2 0x46 JUMPI DUP1 PUSH4 0x65B92B70 EQ PUSH2 0x64 JUMPI DUP1 PUSH4 0x876FE953 EQ PUSH2 0x94 JUMPI JUMPDEST PUSH1 0x0 DUP1 REVERT JUMPDEST PUSH2 0x4E PUSH2 0xC4 JUMP JUMPDEST PUSH1 0x40 MLOAD PUSH2 0x5B SWAP2 SWAP1 PUSH2 0x146 JUMP JUMPDEST PUSH1 0x40 MLOAD DUP1 SWAP2 SUB SWAP1 RETURN JUMPDEST PUSH2 0x7E PUSH1 0x4 DUP1 CALLDATASIZE SUB DUP2 ADD SWAP1 PUSH2 0x79 SWAP2 SWAP1 PUSH2 0x10A JUMP JUMPDEST PUSH2 0xCD JUMP JUMPDEST PUSH1 0x40 MLOAD PUSH2 0x8B SWAP2 SWAP1 PUSH2 0x146 JUMP JUMPDEST PUSH1 0x40 MLOAD DUP1 SWAP2 SUB SWAP1 RETURN JUMPDEST PUSH2 0xAE PUSH1 0x4 DUP1 CALLDATASIZE SUB DUP2 ADD SWAP1 PUSH2 0xA9 SWAP2 SWAP1 PUSH2 0x10A JUMP JUMPDEST PUSH2 0xDF JUMP JUMPDEST PUSH1 0x40 MLOAD PUSH2 0xBB SWAP2 SWAP1 PUSH2 0x146 JUMP JUMPDEST PUSH1 0x40 MLOAD DUP1 SWAP2 SUB SWAP1 RETURN JUMPDEST PUSH1 0x0 DUP1 SLOAD SWAP1 POP SWAP1 JUMP JUMPDEST PUSH1 0x0 PUSH2 0xD8 DUP3 PUSH2 0xDF JUMP JUMPDEST SWAP1 POP SWAP2 SWAP1 POP JUMP JUMPDEST PUSH1 0x0 PUSH1 0xA DUP3 PUSH2 0xEE SWAP2 SWAP1 PUSH2 0x161 JUMP JUMPDEST SWAP1 POP SWAP2 SWAP1 POP JUMP JUMPDEST PUSH1 0x0 DUP2 CALLDATALOAD SWAP1 POP PUSH2 0x104 DUP2 PUSH2 0x1F5 JUMP JUMPDEST SWAP3 SWAP2 POP POP JUMP JUMPDEST PUSH1 0x0 PUSH1 0x20 DUP3 DUP5 SUB SLT ISZERO PUSH2 0x120 JUMPI PUSH2 0x11F PUSH2 0x1F0 JUMP JUMPDEST JUMPDEST PUSH1 0x0 PUSH2 0x12E DUP5 DUP3 DUP6 ADD PUSH2 0xF5 JUMP JUMPDEST SWAP2 POP POP SWAP3 SWAP2 POP POP JUMP JUMPDEST PUSH2 0x140 DUP2 PUSH2 0x1B7 JUMP JUMPDEST DUP3 MSTORE POP POP JUMP JUMPDEST PUSH1 0x0 PUSH1 0x20 DUP3 ADD SWAP1 POP PUSH2 0x15B PUSH1 0x0 DUP4 ADD DUP5 PUSH2 0x137 JUMP JUMPDEST SWAP3 SWAP2 POP POP JUMP JUMPDEST PUSH1 0x0 PUSH2 0x16C DUP3 PUSH2 0x1B7 JUMP JUMPDEST SWAP2 POP PUSH2 0x177 DUP4 PUSH2 0x1B7 JUMP JUMPDEST SWAP3 POP DUP3 PUSH32 0xFFFFFFFFFFFFFFFFFFFFFFFFFFFFFFFFFFFFFFFFFFFFFFFFFFFFFFFFFFFFFFFF SUB DUP3 GT ISZERO PUSH2 0x1AC JUMPI PUSH2 0x1AB PUSH2 0x1C1 JUMP JUMPDEST JUMPDEST DUP3 DUP3 ADD SWAP1 POP SWAP3 SWAP2 POP POP JUMP JUMPDEST PUSH1 0x0 DUP2 SWAP1 POP SWAP2 SWAP1 POP JUMP JUMPDEST PUSH32 0x4E487B7100000000000000000000000000000000000000000000000000000000 PUSH1 0x0 MSTORE PUSH1 0x11 PUSH1 0x4 MSTORE PUSH1 0x24 PUSH1 0x0 REVERT JUMPDEST PUSH1 0x0 DUP1 REVERT JUMPDEST PUSH2 0x1FE DUP2 PUSH2 0x1B7 JUMP JUMPDEST DUP2 EQ PUSH2 0x209 JUMPI PUSH1 0x0 DUP1 REVERT JUMPDEST POP JUMP INVALID LOG2 PUSH5 0x6970667358 0x22 SLT KECCAK256 NOT SAR CODESIZE 0xED 0xD 0xC2 PUSH9 0x1AD228015C2278CD46 SWAP13 PUSH24 0x21D3D20122A4F95873395057DA5564736F6C634300080700 CALLER "
				},
				"gasEstimates": {
					"creation": {
						"codeDepositCost": "115600",
						"executionCost": "22271",
						"totalCost": "137871"
					},
					"external": {
						"getInnerVal()": "2415",
						"innerAddTen(uint256)": "infinite",
						"outerAddTen(uint256)": "infinite"
					}
				},
				"methodIdentifiers": {
					"getInnerVal()": "0d2069ad",
					"innerAddTen(uint256)": "876fe953",
					"outerAddTen(uint256)": "65b92b70"
				}
			},
			"storageLayout": {
				"storage": [
					{
						"astId": 4,
						"contract": "advanced_solidity1/inheritance.sol:B",
						"label": "innerVal",
						"offset": 0,
						"slot": "0",
						"type": "t_uint256"
					}
				],
				"types": {
					"t_uint256": {
						"encoding": "inplace",
						"label": "uint256",
						"numberOfBytes": "32"
					}
				}
			},
			"userdoc": {
				"kind": "user",
				"methods": {},
				"version": 1
			}
		}
	}
}