{
	"Functions/oracles.sol": {
		"GenerateRandomNumber": {
			"abi": [
				{
					"inputs": [
						{
							"internalType": "address",
							"name": "oracleAddress",
							"type": "address"
						}
					],
					"stateMutability": "nonpayable",
					"type": "constructor"
				},
				{
					"inputs": [
						{
							"internalType": "uint256",
							"name": "_rand",
							"type": "uint256"
						}
					],
					"name": "feedRand",
					"outputs": [],
					"stateMutability": "nonpayable",
					"type": "function"
				},
				{
					"inputs": [],
					"name": "rand",
					"outputs": [
						{
							"internalType": "uint256",
							"name": "",
							"type": "uint256"
						}
					],
					"stateMutability": "view",
					"type": "function"
				},
				{
					"inputs": [
						{
							"internalType": "uint256",
							"name": "range",
							"type": "uint256"
						}
					],
					"name": "randMod",
					"outputs": [
						{
							"internalType": "uint256",
							"name": "",
							"type": "uint256"
						}
					],
					"stateMutability": "view",
					"type": "function"
				}
			],
			"devdoc": {
				"kind": "dev",
				"methods": {},
				"version": 1
			},
			"evm": {
				"assembly": "    /* \"Functions/oracles.sol\":2485:3102  contract GenerateRandomNumber is Oracle {\r... */\n  mstore(0x40, 0x80)\n    /* \"Functions/oracles.sol\":2639:2722  constructor(address oracleAddress){\r... */\n  callvalue\n  dup1\n  iszero\n  tag_1\n  jumpi\n  0x00\n  dup1\n  revert\ntag_1:\n  pop\n  mload(0x40)\n  sub(codesize, bytecodeSize)\n  dup1\n  bytecodeSize\n  dup4\n  codecopy\n  dup2\n  dup2\n  add\n  0x40\n  mstore\n  dup2\n  add\n  swap1\n  tag_2\n  swap2\n  swap1\n  tag_3\n  jump\t// in\ntag_2:\n    /* \"Functions/oracles.sol\":2067:2077  msg.sender */\n  caller\n    /* \"Functions/oracles.sol\":2059:2064  admin */\n  0x00\n  dup1\n    /* \"Functions/oracles.sol\":2059:2077  admin = msg.sender */\n  0x0100\n  exp\n  dup2\n  sload\n  dup2\n  0xffffffffffffffffffffffffffffffffffffffff\n  mul\n  not\n  and\n  swap1\n  dup4\n  0xffffffffffffffffffffffffffffffffffffffff\n  and\n  mul\n  or\n  swap1\n  sstore\n  pop\n    /* \"Functions/oracles.sol\":2700:2713  oracleAddress */\n  dup1\n    /* \"Functions/oracles.sol\":2684:2690  oracle */\n  0x02\n  0x00\n    /* \"Functions/oracles.sol\":2684:2714  oracle = Oracle(oracleAddress) */\n  0x0100\n  exp\n  dup2\n  sload\n  dup2\n  0xffffffffffffffffffffffffffffffffffffffff\n  mul\n  not\n  and\n  swap1\n  dup4\n  0xffffffffffffffffffffffffffffffffffffffff\n  and\n  mul\n  or\n  swap1\n  sstore\n  pop\n    /* \"Functions/oracles.sol\":2639:2722  constructor(address oracleAddress){\r... */\n  pop\n    /* \"Functions/oracles.sol\":2485:3102  contract GenerateRandomNumber is Oracle {\r... */\n  jump(tag_8)\n    /* \"#utility.yul\":7:150   */\ntag_10:\n    /* \"#utility.yul\":64:69   */\n  0x00\n    /* \"#utility.yul\":95:101   */\n  dup2\n    /* \"#utility.yul\":89:102   */\n  mload\n    /* \"#utility.yul\":80:102   */\n  swap1\n  pop\n    /* \"#utility.yul\":111:144   */\n  tag_12\n    /* \"#utility.yul\":138:143   */\n  dup2\n    /* \"#utility.yul\":111:144   */\n  tag_13\n  jump\t// in\ntag_12:\n    /* \"#utility.yul\":7:150   */\n  swap3\n  swap2\n  pop\n  pop\n  jump\t// out\n    /* \"#utility.yul\":156:507   */\ntag_3:\n    /* \"#utility.yul\":226:232   */\n  0x00\n    /* \"#utility.yul\":275:277   */\n  0x20\n    /* \"#utility.yul\":263:272   */\n  dup3\n    /* \"#utility.yul\":254:261   */\n  dup5\n    /* \"#utility.yul\":250:273   */\n  sub\n    /* \"#utility.yul\":246:278   */\n  slt\n    /* \"#utility.yul\":243:362   */\n  iszero\n  tag_15\n  jumpi\n    /* \"#utility.yul\":281:360   */\n  tag_16\n  tag_17\n  jump\t// in\ntag_16:\n    /* \"#utility.yul\":243:362   */\ntag_15:\n    /* \"#utility.yul\":401:402   */\n  0x00\n    /* \"#utility.yul\":426:490   */\n  tag_18\n    /* \"#utility.yul\":482:489   */\n  dup5\n    /* \"#utility.yul\":473:479   */\n  dup3\n    /* \"#utility.yul\":462:471   */\n  dup6\n    /* \"#utility.yul\":458:480   */\n  add\n    /* \"#utility.yul\":426:490   */\n  tag_10\n  jump\t// in\ntag_18:\n    /* \"#utility.yul\":416:490   */\n  swap2\n  pop\n    /* \"#utility.yul\":372:500   */\n  pop\n    /* \"#utility.yul\":156:507   */\n  swap3\n  swap2\n  pop\n  pop\n  jump\t// out\n    /* \"#utility.yul\":594:690   */\ntag_21:\n    /* \"#utility.yul\":631:638   */\n  0x00\n    /* \"#utility.yul\":660:684   */\n  tag_23\n    /* \"#utility.yul\":678:683   */\n  dup3\n    /* \"#utility.yul\":660:684   */\n  tag_24\n  jump\t// in\ntag_23:\n    /* \"#utility.yul\":649:684   */\n  swap1\n  pop\n    /* \"#utility.yul\":594:690   */\n  swap2\n  swap1\n  pop\n  jump\t// out\n    /* \"#utility.yul\":696:822   */\ntag_24:\n    /* \"#utility.yul\":733:740   */\n  0x00\n    /* \"#utility.yul\":773:815   */\n  0xffffffffffffffffffffffffffffffffffffffff\n    /* \"#utility.yul\":766:771   */\n  dup3\n    /* \"#utility.yul\":762:816   */\n  and\n    /* \"#utility.yul\":751:816   */\n  swap1\n  pop\n    /* \"#utility.yul\":696:822   */\n  swap2\n  swap1\n  pop\n  jump\t// out\n    /* \"#utility.yul\":951:1068   */\ntag_17:\n    /* \"#utility.yul\":1060:1061   */\n  0x00\n    /* \"#utility.yul\":1057:1058   */\n  dup1\n    /* \"#utility.yul\":1050:1062   */\n  revert\n    /* \"#utility.yul\":1074:1196   */\ntag_13:\n    /* \"#utility.yul\":1147:1171   */\n  tag_30\n    /* \"#utility.yul\":1165:1170   */\n  dup2\n    /* \"#utility.yul\":1147:1171   */\n  tag_21\n  jump\t// in\ntag_30:\n    /* \"#utility.yul\":1140:1145   */\n  dup2\n    /* \"#utility.yul\":1137:1172   */\n  eq\n    /* \"#utility.yul\":1127:1190   */\n  tag_31\n  jumpi\n    /* \"#utility.yul\":1186:1187   */\n  0x00\n    /* \"#utility.yul\":1183:1184   */\n  dup1\n    /* \"#utility.yul\":1176:1188   */\n  revert\n    /* \"#utility.yul\":1127:1190   */\ntag_31:\n    /* \"#utility.yul\":1074:1196   */\n  pop\n  jump\t// out\n    /* \"Functions/oracles.sol\":2485:3102  contract GenerateRandomNumber is Oracle {\r... */\ntag_8:\n  dataSize(sub_0)\n  dup1\n  dataOffset(sub_0)\n  0x00\n  codecopy\n  0x00\n  return\nstop\n\nsub_0: assembly {\n        /* \"Functions/oracles.sol\":2485:3102  contract GenerateRandomNumber is Oracle {\r... */\n      mstore(0x40, 0x80)\n      callvalue\n      dup1\n      iszero\n      tag_1\n      jumpi\n      0x00\n      dup1\n      revert\n    tag_1:\n      pop\n      jumpi(tag_2, lt(calldatasize, 0x04))\n      shr(0xe0, calldataload(0x00))\n      dup1\n      0x3b3dca76\n      eq\n      tag_3\n      jumpi\n      dup1\n      0x805553e8\n      eq\n      tag_4\n      jumpi\n      dup1\n      0xf3a6657c\n      eq\n      tag_5\n      jumpi\n    tag_2:\n      0x00\n      dup1\n      revert\n        /* \"Functions/oracles.sol\":2008:2024  uint public rand */\n    tag_3:\n      tag_6\n      tag_7\n      jump\t// in\n    tag_6:\n      mload(0x40)\n      tag_8\n      swap2\n      swap1\n      tag_9\n      jump\t// in\n    tag_8:\n      mload(0x40)\n      dup1\n      swap2\n      sub\n      swap1\n      return\n        /* \"Functions/oracles.sol\":2730:3099  function randMod(uint range) external view returns(uint){\r... */\n    tag_4:\n      tag_10\n      0x04\n      dup1\n      calldatasize\n      sub\n      dup2\n      add\n      swap1\n      tag_11\n      swap2\n      swap1\n      tag_12\n      jump\t// in\n    tag_11:\n      tag_13\n      jump\t// in\n    tag_10:\n      mload(0x40)\n      tag_14\n      swap2\n      swap1\n      tag_9\n      jump\t// in\n    tag_14:\n      mload(0x40)\n      dup1\n      swap2\n      sub\n      swap1\n      return\n        /* \"Functions/oracles.sol\":2265:2478  function feedRand (uint _rand) external { // same as public but we call it externally not internally\r... */\n    tag_5:\n      tag_15\n      0x04\n      dup1\n      calldatasize\n      sub\n      dup2\n      add\n      swap1\n      tag_16\n      swap2\n      swap1\n      tag_12\n      jump\t// in\n    tag_16:\n      tag_17\n      jump\t// in\n    tag_15:\n      stop\n        /* \"Functions/oracles.sol\":2008:2024  uint public rand */\n    tag_7:\n      sload(0x01)\n      dup2\n      jump\t// out\n        /* \"Functions/oracles.sol\":2730:3099  function randMod(uint range) external view returns(uint){\r... */\n    tag_13:\n        /* \"Functions/oracles.sol\":2781:2785  uint */\n      0x00\n        /* \"Functions/oracles.sol\":3086:3091  range */\n      dup2\n        /* \"Functions/oracles.sol\":3020:3026  oracle */\n      0x02\n      0x00\n      swap1\n      sload\n      swap1\n      0x0100\n      exp\n      swap1\n      div\n      0xffffffffffffffffffffffffffffffffffffffff\n      and\n        /* \"Functions/oracles.sol\":3020:3031  oracle.rand */\n      0xffffffffffffffffffffffffffffffffffffffff\n      and\n      0x3b3dca76\n        /* \"Functions/oracles.sol\":3020:3033  oracle.rand() */\n      mload(0x40)\n      dup2\n      0xffffffff\n      and\n      0xe0\n      shl\n      dup2\n      mstore\n      0x04\n      add\n      0x20\n      mload(0x40)\n      dup1\n      dup4\n      sub\n      dup2\n      dup7\n      dup1\n      extcodesize\n      iszero\n      dup1\n      iszero\n      tag_19\n      jumpi\n      0x00\n      dup1\n      revert\n    tag_19:\n      pop\n      gas\n      staticcall\n      iszero\n      dup1\n      iszero\n      tag_21\n      jumpi\n      returndatasize\n      0x00\n      dup1\n      returndatacopy\n      revert(0x00, returndatasize)\n    tag_21:\n      pop\n      pop\n      pop\n      pop\n      mload(0x40)\n      returndatasize\n      not(0x1f)\n      0x1f\n      dup3\n      add\n      and\n      dup3\n      add\n      dup1\n      0x40\n      mstore\n      pop\n      dup2\n      add\n      swap1\n      tag_22\n      swap2\n      swap1\n      tag_23\n      jump\t// in\n    tag_22:\n        /* \"Functions/oracles.sol\":3035:3050  block.timestamp */\n      timestamp\n        /* \"Functions/oracles.sol\":3052:3068  block.difficulty */\n      difficulty\n        /* \"Functions/oracles.sol\":3070:3080  msg.sender */\n      caller\n        /* \"Functions/oracles.sol\":3003:3081  abi.encodePacked(oracle.rand(), block.timestamp, block.difficulty, msg.sender) */\n      add(0x20, mload(0x40))\n      tag_24\n      swap5\n      swap4\n      swap3\n      swap2\n      swap1\n      tag_25\n      jump\t// in\n    tag_24:\n      mload(0x40)\n      0x20\n      dup2\n      dup4\n      sub\n      sub\n      dup2\n      mstore\n      swap1\n      0x40\n      mstore\n        /* \"Functions/oracles.sol\":2993:3082  keccak256(abi.encodePacked(oracle.rand(), block.timestamp, block.difficulty, msg.sender)) */\n      dup1\n      mload\n      swap1\n      0x20\n      add\n      keccak256\n        /* \"Functions/oracles.sol\":2988:3083  uint(keccak256(abi.encodePacked(oracle.rand(), block.timestamp, block.difficulty, msg.sender))) */\n      0x00\n      shr\n        /* \"Functions/oracles.sol\":2988:3091  uint(keccak256(abi.encodePacked(oracle.rand(), block.timestamp, block.difficulty, msg.sender))) % range */\n      tag_26\n      swap2\n      swap1\n      tag_27\n      jump\t// in\n    tag_26:\n        /* \"Functions/oracles.sol\":2981:3091  return uint(keccak256(abi.encodePacked(oracle.rand(), block.timestamp, block.difficulty, msg.sender))) % range */\n      swap1\n      pop\n        /* \"Functions/oracles.sol\":2730:3099  function randMod(uint range) external view returns(uint){\r... */\n      swap2\n      swap1\n      pop\n      jump\t// out\n        /* \"Functions/oracles.sol\":2265:2478  function feedRand (uint _rand) external { // same as public but we call it externally not internally\r... */\n    tag_17:\n        /* \"Functions/oracles.sol\":2399:2404  admin */\n      0x00\n      dup1\n      sload\n      swap1\n      0x0100\n      exp\n      swap1\n      div\n      0xffffffffffffffffffffffffffffffffffffffff\n      and\n        /* \"Functions/oracles.sol\":2385:2404  msg.sender == admin */\n      0xffffffffffffffffffffffffffffffffffffffff\n      and\n        /* \"Functions/oracles.sol\":2385:2395  msg.sender */\n      caller\n        /* \"Functions/oracles.sol\":2385:2404  msg.sender == admin */\n      0xffffffffffffffffffffffffffffffffffffffff\n      and\n      eq\n        /* \"Functions/oracles.sol\":2377:2445  require(msg.sender == admin, \"Sorry you are not the current caller\") */\n      tag_29\n      jumpi\n      mload(0x40)\n      0x08c379a000000000000000000000000000000000000000000000000000000000\n      dup2\n      mstore\n      0x04\n      add\n      tag_30\n      swap1\n      tag_31\n      jump\t// in\n    tag_30:\n      mload(0x40)\n      dup1\n      swap2\n      sub\n      swap1\n      revert\n    tag_29:\n        /* \"Functions/oracles.sol\":2463:2468  _rand */\n      dup1\n        /* \"Functions/oracles.sol\":2456:2460  rand */\n      0x01\n        /* \"Functions/oracles.sol\":2456:2468  rand = _rand */\n      dup2\n      swap1\n      sstore\n      pop\n        /* \"Functions/oracles.sol\":2265:2478  function feedRand (uint _rand) external { // same as public but we call it externally not internally\r... */\n      pop\n      jump\t// out\n        /* \"#utility.yul\":7:146   */\n    tag_33:\n        /* \"#utility.yul\":53:58   */\n      0x00\n        /* \"#utility.yul\":91:97   */\n      dup2\n        /* \"#utility.yul\":78:98   */\n      calldataload\n        /* \"#utility.yul\":69:98   */\n      swap1\n      pop\n        /* \"#utility.yul\":107:140   */\n      tag_35\n        /* \"#utility.yul\":134:139   */\n      dup2\n        /* \"#utility.yul\":107:140   */\n      tag_36\n      jump\t// in\n    tag_35:\n        /* \"#utility.yul\":7:146   */\n      swap3\n      swap2\n      pop\n      pop\n      jump\t// out\n        /* \"#utility.yul\":152:295   */\n    tag_37:\n        /* \"#utility.yul\":209:214   */\n      0x00\n        /* \"#utility.yul\":240:246   */\n      dup2\n        /* \"#utility.yul\":234:247   */\n      mload\n        /* \"#utility.yul\":225:247   */\n      swap1\n      pop\n        /* \"#utility.yul\":256:289   */\n      tag_39\n        /* \"#utility.yul\":283:288   */\n      dup2\n        /* \"#utility.yul\":256:289   */\n      tag_36\n      jump\t// in\n    tag_39:\n        /* \"#utility.yul\":152:295   */\n      swap3\n      swap2\n      pop\n      pop\n      jump\t// out\n        /* \"#utility.yul\":301:630   */\n    tag_12:\n        /* \"#utility.yul\":360:366   */\n      0x00\n        /* \"#utility.yul\":409:411   */\n      0x20\n        /* \"#utility.yul\":397:406   */\n      dup3\n        /* \"#utility.yul\":388:395   */\n      dup5\n        /* \"#utility.yul\":384:407   */\n      sub\n        /* \"#utility.yul\":380:412   */\n      slt\n        /* \"#utility.yul\":377:496   */\n      iszero\n      tag_41\n      jumpi\n        /* \"#utility.yul\":415:494   */\n      tag_42\n      tag_43\n      jump\t// in\n    tag_42:\n        /* \"#utility.yul\":377:496   */\n    tag_41:\n        /* \"#utility.yul\":535:536   */\n      0x00\n        /* \"#utility.yul\":560:613   */\n      tag_44\n        /* \"#utility.yul\":605:612   */\n      dup5\n        /* \"#utility.yul\":596:602   */\n      dup3\n        /* \"#utility.yul\":585:594   */\n      dup6\n        /* \"#utility.yul\":581:603   */\n      add\n        /* \"#utility.yul\":560:613   */\n      tag_33\n      jump\t// in\n    tag_44:\n        /* \"#utility.yul\":550:613   */\n      swap2\n      pop\n        /* \"#utility.yul\":506:623   */\n      pop\n        /* \"#utility.yul\":301:630   */\n      swap3\n      swap2\n      pop\n      pop\n      jump\t// out\n        /* \"#utility.yul\":636:987   */\n    tag_23:\n        /* \"#utility.yul\":706:712   */\n      0x00\n        /* \"#utility.yul\":755:757   */\n      0x20\n        /* \"#utility.yul\":743:752   */\n      dup3\n        /* \"#utility.yul\":734:741   */\n      dup5\n        /* \"#utility.yul\":730:753   */\n      sub\n        /* \"#utility.yul\":726:758   */\n      slt\n        /* \"#utility.yul\":723:842   */\n      iszero\n      tag_46\n      jumpi\n        /* \"#utility.yul\":761:840   */\n      tag_47\n      tag_43\n      jump\t// in\n    tag_47:\n        /* \"#utility.yul\":723:842   */\n    tag_46:\n        /* \"#utility.yul\":881:882   */\n      0x00\n        /* \"#utility.yul\":906:970   */\n      tag_48\n        /* \"#utility.yul\":962:969   */\n      dup5\n        /* \"#utility.yul\":953:959   */\n      dup3\n        /* \"#utility.yul\":942:951   */\n      dup6\n        /* \"#utility.yul\":938:960   */\n      add\n        /* \"#utility.yul\":906:970   */\n      tag_37\n      jump\t// in\n    tag_48:\n        /* \"#utility.yul\":896:970   */\n      swap2\n      pop\n        /* \"#utility.yul\":852:980   */\n      pop\n        /* \"#utility.yul\":636:987   */\n      swap3\n      swap2\n      pop\n      pop\n      jump\t// out\n        /* \"#utility.yul\":993:1150   */\n    tag_49:\n        /* \"#utility.yul\":1098:1143   */\n      tag_51\n        /* \"#utility.yul\":1118:1142   */\n      tag_52\n        /* \"#utility.yul\":1136:1141   */\n      dup3\n        /* \"#utility.yul\":1118:1142   */\n      tag_53\n      jump\t// in\n    tag_52:\n        /* \"#utility.yul\":1098:1143   */\n      tag_54\n      jump\t// in\n    tag_51:\n        /* \"#utility.yul\":1093:1096   */\n      dup3\n        /* \"#utility.yul\":1086:1144   */\n      mstore\n        /* \"#utility.yul\":993:1150   */\n      pop\n      pop\n      jump\t// out\n        /* \"#utility.yul\":1156:1522   */\n    tag_55:\n        /* \"#utility.yul\":1298:1301   */\n      0x00\n        /* \"#utility.yul\":1319:1386   */\n      tag_57\n        /* \"#utility.yul\":1383:1385   */\n      0x24\n        /* \"#utility.yul\":1378:1381   */\n      dup4\n        /* \"#utility.yul\":1319:1386   */\n      tag_58\n      jump\t// in\n    tag_57:\n        /* \"#utility.yul\":1312:1386   */\n      swap2\n      pop\n        /* \"#utility.yul\":1395:1488   */\n      tag_59\n        /* \"#utility.yul\":1484:1487   */\n      dup3\n        /* \"#utility.yul\":1395:1488   */\n      tag_60\n      jump\t// in\n    tag_59:\n        /* \"#utility.yul\":1513:1515   */\n      0x40\n        /* \"#utility.yul\":1508:1511   */\n      dup3\n        /* \"#utility.yul\":1504:1516   */\n      add\n        /* \"#utility.yul\":1497:1516   */\n      swap1\n      pop\n        /* \"#utility.yul\":1156:1522   */\n      swap2\n      swap1\n      pop\n      jump\t// out\n        /* \"#utility.yul\":1528:1646   */\n    tag_61:\n        /* \"#utility.yul\":1615:1639   */\n      tag_63\n        /* \"#utility.yul\":1633:1638   */\n      dup2\n        /* \"#utility.yul\":1615:1639   */\n      tag_64\n      jump\t// in\n    tag_63:\n        /* \"#utility.yul\":1610:1613   */\n      dup3\n        /* \"#utility.yul\":1603:1640   */\n      mstore\n        /* \"#utility.yul\":1528:1646   */\n      pop\n      pop\n      jump\t// out\n        /* \"#utility.yul\":1652:1809   */\n    tag_65:\n        /* \"#utility.yul\":1757:1802   */\n      tag_67\n        /* \"#utility.yul\":1777:1801   */\n      tag_68\n        /* \"#utility.yul\":1795:1800   */\n      dup3\n        /* \"#utility.yul\":1777:1801   */\n      tag_64\n      jump\t// in\n    tag_68:\n        /* \"#utility.yul\":1757:1802   */\n      tag_69\n      jump\t// in\n    tag_67:\n        /* \"#utility.yul\":1752:1755   */\n      dup3\n        /* \"#utility.yul\":1745:1803   */\n      mstore\n        /* \"#utility.yul\":1652:1809   */\n      pop\n      pop\n      jump\t// out\n        /* \"#utility.yul\":1815:2494   */\n    tag_25:\n        /* \"#utility.yul\":2011:2014   */\n      0x00\n        /* \"#utility.yul\":2026:2101   */\n      tag_71\n        /* \"#utility.yul\":2097:2100   */\n      dup3\n        /* \"#utility.yul\":2088:2094   */\n      dup8\n        /* \"#utility.yul\":2026:2101   */\n      tag_65\n      jump\t// in\n    tag_71:\n        /* \"#utility.yul\":2126:2128   */\n      0x20\n        /* \"#utility.yul\":2121:2124   */\n      dup3\n        /* \"#utility.yul\":2117:2129   */\n      add\n        /* \"#utility.yul\":2110:2129   */\n      swap2\n      pop\n        /* \"#utility.yul\":2139:2214   */\n      tag_72\n        /* \"#utility.yul\":2210:2213   */\n      dup3\n        /* \"#utility.yul\":2201:2207   */\n      dup7\n        /* \"#utility.yul\":2139:2214   */\n      tag_65\n      jump\t// in\n    tag_72:\n        /* \"#utility.yul\":2239:2241   */\n      0x20\n        /* \"#utility.yul\":2234:2237   */\n      dup3\n        /* \"#utility.yul\":2230:2242   */\n      add\n        /* \"#utility.yul\":2223:2242   */\n      swap2\n      pop\n        /* \"#utility.yul\":2252:2327   */\n      tag_73\n        /* \"#utility.yul\":2323:2326   */\n      dup3\n        /* \"#utility.yul\":2314:2320   */\n      dup6\n        /* \"#utility.yul\":2252:2327   */\n      tag_65\n      jump\t// in\n    tag_73:\n        /* \"#utility.yul\":2352:2354   */\n      0x20\n        /* \"#utility.yul\":2347:2350   */\n      dup3\n        /* \"#utility.yul\":2343:2355   */\n      add\n        /* \"#utility.yul\":2336:2355   */\n      swap2\n      pop\n        /* \"#utility.yul\":2365:2440   */\n      tag_74\n        /* \"#utility.yul\":2436:2439   */\n      dup3\n        /* \"#utility.yul\":2427:2433   */\n      dup5\n        /* \"#utility.yul\":2365:2440   */\n      tag_49\n      jump\t// in\n    tag_74:\n        /* \"#utility.yul\":2465:2467   */\n      0x14\n        /* \"#utility.yul\":2460:2463   */\n      dup3\n        /* \"#utility.yul\":2456:2468   */\n      add\n        /* \"#utility.yul\":2449:2468   */\n      swap2\n      pop\n        /* \"#utility.yul\":2485:2488   */\n      dup2\n        /* \"#utility.yul\":2478:2488   */\n      swap1\n      pop\n        /* \"#utility.yul\":1815:2494   */\n      swap6\n      swap5\n      pop\n      pop\n      pop\n      pop\n      pop\n      jump\t// out\n        /* \"#utility.yul\":2500:2919   */\n    tag_31:\n        /* \"#utility.yul\":2666:2670   */\n      0x00\n        /* \"#utility.yul\":2704:2706   */\n      0x20\n        /* \"#utility.yul\":2693:2702   */\n      dup3\n        /* \"#utility.yul\":2689:2707   */\n      add\n        /* \"#utility.yul\":2681:2707   */\n      swap1\n      pop\n        /* \"#utility.yul\":2753:2762   */\n      dup2\n        /* \"#utility.yul\":2747:2751   */\n      dup2\n        /* \"#utility.yul\":2743:2763   */\n      sub\n        /* \"#utility.yul\":2739:2740   */\n      0x00\n        /* \"#utility.yul\":2728:2737   */\n      dup4\n        /* \"#utility.yul\":2724:2741   */\n      add\n        /* \"#utility.yul\":2717:2764   */\n      mstore\n        /* \"#utility.yul\":2781:2912   */\n      tag_76\n        /* \"#utility.yul\":2907:2911   */\n      dup2\n        /* \"#utility.yul\":2781:2912   */\n      tag_55\n      jump\t// in\n    tag_76:\n        /* \"#utility.yul\":2773:2912   */\n      swap1\n      pop\n        /* \"#utility.yul\":2500:2919   */\n      swap2\n      swap1\n      pop\n      jump\t// out\n        /* \"#utility.yul\":2925:3147   */\n    tag_9:\n        /* \"#utility.yul\":3018:3022   */\n      0x00\n        /* \"#utility.yul\":3056:3058   */\n      0x20\n        /* \"#utility.yul\":3045:3054   */\n      dup3\n        /* \"#utility.yul\":3041:3059   */\n      add\n        /* \"#utility.yul\":3033:3059   */\n      swap1\n      pop\n        /* \"#utility.yul\":3069:3140   */\n      tag_78\n        /* \"#utility.yul\":3137:3138   */\n      0x00\n        /* \"#utility.yul\":3126:3135   */\n      dup4\n        /* \"#utility.yul\":3122:3139   */\n      add\n        /* \"#utility.yul\":3113:3119   */\n      dup5\n        /* \"#utility.yul\":3069:3140   */\n      tag_61\n      jump\t// in\n    tag_78:\n        /* \"#utility.yul\":2925:3147   */\n      swap3\n      swap2\n      pop\n      pop\n      jump\t// out\n        /* \"#utility.yul\":3234:3403   */\n    tag_58:\n        /* \"#utility.yul\":3318:3329   */\n      0x00\n        /* \"#utility.yul\":3352:3358   */\n      dup3\n        /* \"#utility.yul\":3347:3350   */\n      dup3\n        /* \"#utility.yul\":3340:3359   */\n      mstore\n        /* \"#utility.yul\":3392:3396   */\n      0x20\n        /* \"#utility.yul\":3387:3390   */\n      dup3\n        /* \"#utility.yul\":3383:3397   */\n      add\n        /* \"#utility.yul\":3368:3397   */\n      swap1\n      pop\n        /* \"#utility.yul\":3234:3403   */\n      swap3\n      swap2\n      pop\n      pop\n      jump\t// out\n        /* \"#utility.yul\":3409:3505   */\n    tag_53:\n        /* \"#utility.yul\":3446:3453   */\n      0x00\n        /* \"#utility.yul\":3475:3499   */\n      tag_83\n        /* \"#utility.yul\":3493:3498   */\n      dup3\n        /* \"#utility.yul\":3475:3499   */\n      tag_84\n      jump\t// in\n    tag_83:\n        /* \"#utility.yul\":3464:3499   */\n      swap1\n      pop\n        /* \"#utility.yul\":3409:3505   */\n      swap2\n      swap1\n      pop\n      jump\t// out\n        /* \"#utility.yul\":3511:3637   */\n    tag_84:\n        /* \"#utility.yul\":3548:3555   */\n      0x00\n        /* \"#utility.yul\":3588:3630   */\n      0xffffffffffffffffffffffffffffffffffffffff\n        /* \"#utility.yul\":3581:3586   */\n      dup3\n        /* \"#utility.yul\":3577:3631   */\n      and\n        /* \"#utility.yul\":3566:3631   */\n      swap1\n      pop\n        /* \"#utility.yul\":3511:3637   */\n      swap2\n      swap1\n      pop\n      jump\t// out\n        /* \"#utility.yul\":3643:3720   */\n    tag_64:\n        /* \"#utility.yul\":3680:3687   */\n      0x00\n        /* \"#utility.yul\":3709:3714   */\n      dup2\n        /* \"#utility.yul\":3698:3714   */\n      swap1\n      pop\n        /* \"#utility.yul\":3643:3720   */\n      swap2\n      swap1\n      pop\n      jump\t// out\n        /* \"#utility.yul\":3726:3826   */\n    tag_54:\n        /* \"#utility.yul\":3765:3772   */\n      0x00\n        /* \"#utility.yul\":3794:3820   */\n      tag_88\n        /* \"#utility.yul\":3814:3819   */\n      dup3\n        /* \"#utility.yul\":3794:3820   */\n      tag_89\n      jump\t// in\n    tag_88:\n        /* \"#utility.yul\":3783:3820   */\n      swap1\n      pop\n        /* \"#utility.yul\":3726:3826   */\n      swap2\n      swap1\n      pop\n      jump\t// out\n        /* \"#utility.yul\":3832:3926   */\n    tag_89:\n        /* \"#utility.yul\":3871:3878   */\n      0x00\n        /* \"#utility.yul\":3900:3920   */\n      tag_91\n        /* \"#utility.yul\":3914:3919   */\n      dup3\n        /* \"#utility.yul\":3900:3920   */\n      tag_92\n      jump\t// in\n    tag_91:\n        /* \"#utility.yul\":3889:3920   */\n      swap1\n      pop\n        /* \"#utility.yul\":3832:3926   */\n      swap2\n      swap1\n      pop\n      jump\t// out\n        /* \"#utility.yul\":3932:4011   */\n    tag_69:\n        /* \"#utility.yul\":3971:3978   */\n      0x00\n        /* \"#utility.yul\":4000:4005   */\n      dup2\n        /* \"#utility.yul\":3989:4005   */\n      swap1\n      pop\n        /* \"#utility.yul\":3932:4011   */\n      swap2\n      swap1\n      pop\n      jump\t// out\n        /* \"#utility.yul\":4017:4193   */\n    tag_27:\n        /* \"#utility.yul\":4049:4050   */\n      0x00\n        /* \"#utility.yul\":4066:4086   */\n      tag_95\n        /* \"#utility.yul\":4084:4085   */\n      dup3\n        /* \"#utility.yul\":4066:4086   */\n      tag_64\n      jump\t// in\n    tag_95:\n        /* \"#utility.yul\":4061:4086   */\n      swap2\n      pop\n        /* \"#utility.yul\":4100:4120   */\n      tag_96\n        /* \"#utility.yul\":4118:4119   */\n      dup4\n        /* \"#utility.yul\":4100:4120   */\n      tag_64\n      jump\t// in\n    tag_96:\n        /* \"#utility.yul\":4095:4120   */\n      swap3\n      pop\n        /* \"#utility.yul\":4139:4140   */\n      dup3\n        /* \"#utility.yul\":4129:4164   */\n      tag_97\n      jumpi\n        /* \"#utility.yul\":4144:4162   */\n      tag_98\n      tag_99\n      jump\t// in\n    tag_98:\n        /* \"#utility.yul\":4129:4164   */\n    tag_97:\n        /* \"#utility.yul\":4185:4186   */\n      dup3\n        /* \"#utility.yul\":4182:4183   */\n      dup3\n        /* \"#utility.yul\":4178:4187   */\n      mod\n        /* \"#utility.yul\":4173:4187   */\n      swap1\n      pop\n        /* \"#utility.yul\":4017:4193   */\n      swap3\n      swap2\n      pop\n      pop\n      jump\t// out\n        /* \"#utility.yul\":4199:4379   */\n    tag_99:\n        /* \"#utility.yul\":4247:4324   */\n      0x4e487b7100000000000000000000000000000000000000000000000000000000\n        /* \"#utility.yul\":4244:4245   */\n      0x00\n        /* \"#utility.yul\":4237:4325   */\n      mstore\n        /* \"#utility.yul\":4344:4348   */\n      0x12\n        /* \"#utility.yul\":4341:4342   */\n      0x04\n        /* \"#utility.yul\":4334:4349   */\n      mstore\n        /* \"#utility.yul\":4368:4372   */\n      0x24\n        /* \"#utility.yul\":4365:4366   */\n      0x00\n        /* \"#utility.yul\":4358:4373   */\n      revert\n        /* \"#utility.yul\":4508:4625   */\n    tag_43:\n        /* \"#utility.yul\":4617:4618   */\n      0x00\n        /* \"#utility.yul\":4614:4615   */\n      dup1\n        /* \"#utility.yul\":4607:4619   */\n      revert\n        /* \"#utility.yul\":4631:4725   */\n    tag_92:\n        /* \"#utility.yul\":4664:4672   */\n      0x00\n        /* \"#utility.yul\":4712:4717   */\n      dup2\n        /* \"#utility.yul\":4708:4710   */\n      0x60\n        /* \"#utility.yul\":4704:4718   */\n      shl\n        /* \"#utility.yul\":4683:4718   */\n      swap1\n      pop\n        /* \"#utility.yul\":4631:4725   */\n      swap2\n      swap1\n      pop\n      jump\t// out\n        /* \"#utility.yul\":4731:4954   */\n    tag_60:\n        /* \"#utility.yul\":4871:4905   */\n      0x536f72727920796f7520617265206e6f74207468652063757272656e74206361\n        /* \"#utility.yul\":4867:4868   */\n      0x00\n        /* \"#utility.yul\":4859:4865   */\n      dup3\n        /* \"#utility.yul\":4855:4869   */\n      add\n        /* \"#utility.yul\":4848:4906   */\n      mstore\n        /* \"#utility.yul\":4940:4946   */\n      0x6c6c657200000000000000000000000000000000000000000000000000000000\n        /* \"#utility.yul\":4935:4937   */\n      0x20\n        /* \"#utility.yul\":4927:4933   */\n      dup3\n        /* \"#utility.yul\":4923:4938   */\n      add\n        /* \"#utility.yul\":4916:4947   */\n      mstore\n        /* \"#utility.yul\":4731:4954   */\n      pop\n      jump\t// out\n        /* \"#utility.yul\":4960:5082   */\n    tag_36:\n        /* \"#utility.yul\":5033:5057   */\n      tag_107\n        /* \"#utility.yul\":5051:5056   */\n      dup2\n        /* \"#utility.yul\":5033:5057   */\n      tag_64\n      jump\t// in\n    tag_107:\n        /* \"#utility.yul\":5026:5031   */\n      dup2\n        /* \"#utility.yul\":5023:5058   */\n      eq\n        /* \"#utility.yul\":5013:5076   */\n      tag_108\n      jumpi\n        /* \"#utility.yul\":5072:5073   */\n      0x00\n        /* \"#utility.yul\":5069:5070   */\n      dup1\n        /* \"#utility.yul\":5062:5074   */\n      revert\n        /* \"#utility.yul\":5013:5076   */\n    tag_108:\n        /* \"#utility.yul\":4960:5082   */\n      pop\n      jump\t// out\n\n    auxdata: 0xa2646970667358221220974133a52a4f9ad940b3d7a8558a3753a2d7f92def5ffe80b2fafd647d09387464736f6c63430008070033\n}\n",
				"bytecode": {
					"linkReferences": {},
					"object": "608060405234801561001057600080fd5b5060405161067f38038061067f833981810160405281019061003291906100ce565b336000806101000a81548173ffffffffffffffffffffffffffffffffffffffff021916908373ffffffffffffffffffffffffffffffffffffffff16021790555080600260006101000a81548173ffffffffffffffffffffffffffffffffffffffff021916908373ffffffffffffffffffffffffffffffffffffffff16021790555050610149565b6000815190506100c881610132565b92915050565b6000602082840312156100e4576100e361012d565b5b60006100f2848285016100b9565b91505092915050565b60006101068261010d565b9050919050565b600073ffffffffffffffffffffffffffffffffffffffff82169050919050565b600080fd5b61013b816100fb565b811461014657600080fd5b50565b610527806101586000396000f3fe608060405234801561001057600080fd5b50600436106100415760003560e01c80633b3dca7614610046578063805553e814610064578063f3a6657c14610094575b600080fd5b61004e6100b0565b60405161005b9190610383565b60405180910390f35b61007e6004803603810190610079919061025b565b6100b6565b60405161008b9190610383565b60405180910390f35b6100ae60048036038101906100a9919061025b565b610199565b005b60015481565b600081600260009054906101000a900473ffffffffffffffffffffffffffffffffffffffff1673ffffffffffffffffffffffffffffffffffffffff16633b3dca766040518163ffffffff1660e01b815260040160206040518083038186803b15801561012157600080fd5b505afa158015610135573d6000803e3d6000fd5b505050506040513d601f19601f820116820180604052508101906101599190610288565b42443360405160200161016f9493929190610315565b6040516020818303038152906040528051906020012060001c6101929190610419565b9050919050565b60008054906101000a900473ffffffffffffffffffffffffffffffffffffffff1673ffffffffffffffffffffffffffffffffffffffff163373ffffffffffffffffffffffffffffffffffffffff1614610227576040517f08c379a000000000000000000000000000000000000000000000000000000000815260040161021e90610363565b60405180910390fd5b8060018190555050565b600081359050610240816104da565b92915050565b600081519050610255816104da565b92915050565b60006020828403121561027157610270610479565b5b600061027f84828501610231565b91505092915050565b60006020828403121561029e5761029d610479565b5b60006102ac84828501610246565b91505092915050565b6102c66102c1826103af565b6103eb565b82525050565b60006102d960248361039e565b91506102e48261048b565b604082019050919050565b6102f8816103e1565b82525050565b61030f61030a826103e1565b61040f565b82525050565b600061032182876102fe565b60208201915061033182866102fe565b60208201915061034182856102fe565b60208201915061035182846102b5565b60148201915081905095945050505050565b6000602082019050818103600083015261037c816102cc565b9050919050565b600060208201905061039860008301846102ef565b92915050565b600082825260208201905092915050565b60006103ba826103c1565b9050919050565b600073ffffffffffffffffffffffffffffffffffffffff82169050919050565b6000819050919050565b60006103f6826103fd565b9050919050565b60006104088261047e565b9050919050565b6000819050919050565b6000610424826103e1565b915061042f836103e1565b92508261043f5761043e61044a565b5b828206905092915050565b7f4e487b7100000000000000000000000000000000000000000000000000000000600052601260045260246000fd5b600080fd5b60008160601b9050919050565b7f536f72727920796f7520617265206e6f74207468652063757272656e7420636160008201527f6c6c657200000000000000000000000000000000000000000000000000000000602082015250565b6104e3816103e1565b81146104ee57600080fd5b5056fea2646970667358221220974133a52a4f9ad940b3d7a8558a3753a2d7f92def5ffe80b2fafd647d09387464736f6c63430008070033",
					"opcodes": "PUSH1 0x80 PUSH1 0x40 MSTORE CALLVALUE DUP1 ISZERO PUSH2 0x10 JUMPI PUSH1 0x0 DUP1 REVERT JUMPDEST POP PUSH1 0x40 MLOAD PUSH2 0x67F CODESIZE SUB DUP1 PUSH2 0x67F DUP4 CODECOPY DUP2 DUP2 ADD PUSH1 0x40 MSTORE DUP2 ADD SWAP1 PUSH2 0x32 SWAP2 SWAP1 PUSH2 0xCE JUMP JUMPDEST CALLER PUSH1 0x0 DUP1 PUSH2 0x100 EXP DUP2 SLOAD DUP2 PUSH20 0xFFFFFFFFFFFFFFFFFFFFFFFFFFFFFFFFFFFFFFFF MUL NOT AND SWAP1 DUP4 PUSH20 0xFFFFFFFFFFFFFFFFFFFFFFFFFFFFFFFFFFFFFFFF AND MUL OR SWAP1 SSTORE POP DUP1 PUSH1 0x2 PUSH1 0x0 PUSH2 0x100 EXP DUP2 SLOAD DUP2 PUSH20 0xFFFFFFFFFFFFFFFFFFFFFFFFFFFFFFFFFFFFFFFF MUL NOT AND SWAP1 DUP4 PUSH20 0xFFFFFFFFFFFFFFFFFFFFFFFFFFFFFFFFFFFFFFFF AND MUL OR SWAP1 SSTORE POP POP PUSH2 0x149 JUMP JUMPDEST PUSH1 0x0 DUP2 MLOAD SWAP1 POP PUSH2 0xC8 DUP2 PUSH2 0x132 JUMP JUMPDEST SWAP3 SWAP2 POP POP JUMP JUMPDEST PUSH1 0x0 PUSH1 0x20 DUP3 DUP5 SUB SLT ISZERO PUSH2 0xE4 JUMPI PUSH2 0xE3 PUSH2 0x12D JUMP JUMPDEST JUMPDEST PUSH1 0x0 PUSH2 0xF2 DUP5 DUP3 DUP6 ADD PUSH2 0xB9 JUMP JUMPDEST SWAP2 POP POP SWAP3 SWAP2 POP POP JUMP JUMPDEST PUSH1 0x0 PUSH2 0x106 DUP3 PUSH2 0x10D JUMP JUMPDEST SWAP1 POP SWAP2 SWAP1 POP JUMP JUMPDEST PUSH1 0x0 PUSH20 0xFFFFFFFFFFFFFFFFFFFFFFFFFFFFFFFFFFFFFFFF DUP3 AND SWAP1 POP SWAP2 SWAP1 POP JUMP JUMPDEST PUSH1 0x0 DUP1 REVERT JUMPDEST PUSH2 0x13B DUP2 PUSH2 0xFB JUMP JUMPDEST DUP2 EQ PUSH2 0x146 JUMPI PUSH1 0x0 DUP1 REVERT JUMPDEST POP JUMP JUMPDEST PUSH2 0x527 DUP1 PUSH2 0x158 PUSH1 0x0 CODECOPY PUSH1 0x0 RETURN INVALID PUSH1 0x80 PUSH1 0x40 MSTORE CALLVALUE DUP1 ISZERO PUSH2 0x10 JUMPI PUSH1 0x0 DUP1 REVERT JUMPDEST POP PUSH1 0x4 CALLDATASIZE LT PUSH2 0x41 JUMPI PUSH1 0x0 CALLDATALOAD PUSH1 0xE0 SHR DUP1 PUSH4 0x3B3DCA76 EQ PUSH2 0x46 JUMPI DUP1 PUSH4 0x805553E8 EQ PUSH2 0x64 JUMPI DUP1 PUSH4 0xF3A6657C EQ PUSH2 0x94 JUMPI JUMPDEST PUSH1 0x0 DUP1 REVERT JUMPDEST PUSH2 0x4E PUSH2 0xB0 JUMP JUMPDEST PUSH1 0x40 MLOAD PUSH2 0x5B SWAP2 SWAP1 PUSH2 0x383 JUMP JUMPDEST PUSH1 0x40 MLOAD DUP1 SWAP2 SUB SWAP1 RETURN JUMPDEST PUSH2 0x7E PUSH1 0x4 DUP1 CALLDATASIZE SUB DUP2 ADD SWAP1 PUSH2 0x79 SWAP2 SWAP1 PUSH2 0x25B JUMP JUMPDEST PUSH2 0xB6 JUMP JUMPDEST PUSH1 0x40 MLOAD PUSH2 0x8B SWAP2 SWAP1 PUSH2 0x383 JUMP JUMPDEST PUSH1 0x40 MLOAD DUP1 SWAP2 SUB SWAP1 RETURN JUMPDEST PUSH2 0xAE PUSH1 0x4 DUP1 CALLDATASIZE SUB DUP2 ADD SWAP1 PUSH2 0xA9 SWAP2 SWAP1 PUSH2 0x25B JUMP JUMPDEST PUSH2 0x199 JUMP JUMPDEST STOP JUMPDEST PUSH1 0x1 SLOAD DUP2 JUMP JUMPDEST PUSH1 0x0 DUP2 PUSH1 0x2 PUSH1 0x0 SWAP1 SLOAD SWAP1 PUSH2 0x100 EXP SWAP1 DIV PUSH20 0xFFFFFFFFFFFFFFFFFFFFFFFFFFFFFFFFFFFFFFFF AND PUSH20 0xFFFFFFFFFFFFFFFFFFFFFFFFFFFFFFFFFFFFFFFF AND PUSH4 0x3B3DCA76 PUSH1 0x40 MLOAD DUP2 PUSH4 0xFFFFFFFF AND PUSH1 0xE0 SHL DUP2 MSTORE PUSH1 0x4 ADD PUSH1 0x20 PUSH1 0x40 MLOAD DUP1 DUP4 SUB DUP2 DUP7 DUP1 EXTCODESIZE ISZERO DUP1 ISZERO PUSH2 0x121 JUMPI PUSH1 0x0 DUP1 REVERT JUMPDEST POP GAS STATICCALL ISZERO DUP1 ISZERO PUSH2 0x135 JUMPI RETURNDATASIZE PUSH1 0x0 DUP1 RETURNDATACOPY RETURNDATASIZE PUSH1 0x0 REVERT JUMPDEST POP POP POP POP PUSH1 0x40 MLOAD RETURNDATASIZE PUSH1 0x1F NOT PUSH1 0x1F DUP3 ADD AND DUP3 ADD DUP1 PUSH1 0x40 MSTORE POP DUP2 ADD SWAP1 PUSH2 0x159 SWAP2 SWAP1 PUSH2 0x288 JUMP JUMPDEST TIMESTAMP DIFFICULTY CALLER PUSH1 0x40 MLOAD PUSH1 0x20 ADD PUSH2 0x16F SWAP5 SWAP4 SWAP3 SWAP2 SWAP1 PUSH2 0x315 JUMP JUMPDEST PUSH1 0x40 MLOAD PUSH1 0x20 DUP2 DUP4 SUB SUB DUP2 MSTORE SWAP1 PUSH1 0x40 MSTORE DUP1 MLOAD SWAP1 PUSH1 0x20 ADD KECCAK256 PUSH1 0x0 SHR PUSH2 0x192 SWAP2 SWAP1 PUSH2 0x419 JUMP JUMPDEST SWAP1 POP SWAP2 SWAP1 POP JUMP JUMPDEST PUSH1 0x0 DUP1 SLOAD SWAP1 PUSH2 0x100 EXP SWAP1 DIV PUSH20 0xFFFFFFFFFFFFFFFFFFFFFFFFFFFFFFFFFFFFFFFF AND PUSH20 0xFFFFFFFFFFFFFFFFFFFFFFFFFFFFFFFFFFFFFFFF AND CALLER PUSH20 0xFFFFFFFFFFFFFFFFFFFFFFFFFFFFFFFFFFFFFFFF AND EQ PUSH2 0x227 JUMPI PUSH1 0x40 MLOAD PUSH32 0x8C379A000000000000000000000000000000000000000000000000000000000 DUP2 MSTORE PUSH1 0x4 ADD PUSH2 0x21E SWAP1 PUSH2 0x363 JUMP JUMPDEST PUSH1 0x40 MLOAD DUP1 SWAP2 SUB SWAP1 REVERT JUMPDEST DUP1 PUSH1 0x1 DUP2 SWAP1 SSTORE POP POP JUMP JUMPDEST PUSH1 0x0 DUP2 CALLDATALOAD SWAP1 POP PUSH2 0x240 DUP2 PUSH2 0x4DA JUMP JUMPDEST SWAP3 SWAP2 POP POP JUMP JUMPDEST PUSH1 0x0 DUP2 MLOAD SWAP1 POP PUSH2 0x255 DUP2 PUSH2 0x4DA JUMP JUMPDEST SWAP3 SWAP2 POP POP JUMP JUMPDEST PUSH1 0x0 PUSH1 0x20 DUP3 DUP5 SUB SLT ISZERO PUSH2 0x271 JUMPI PUSH2 0x270 PUSH2 0x479 JUMP JUMPDEST JUMPDEST PUSH1 0x0 PUSH2 0x27F DUP5 DUP3 DUP6 ADD PUSH2 0x231 JUMP JUMPDEST SWAP2 POP POP SWAP3 SWAP2 POP POP JUMP JUMPDEST PUSH1 0x0 PUSH1 0x20 DUP3 DUP5 SUB SLT ISZERO PUSH2 0x29E JUMPI PUSH2 0x29D PUSH2 0x479 JUMP JUMPDEST JUMPDEST PUSH1 0x0 PUSH2 0x2AC DUP5 DUP3 DUP6 ADD PUSH2 0x246 JUMP JUMPDEST SWAP2 POP POP SWAP3 SWAP2 POP POP JUMP JUMPDEST PUSH2 0x2C6 PUSH2 0x2C1 DUP3 PUSH2 0x3AF JUMP JUMPDEST PUSH2 0x3EB JUMP JUMPDEST DUP3 MSTORE POP POP JUMP JUMPDEST PUSH1 0x0 PUSH2 0x2D9 PUSH1 0x24 DUP4 PUSH2 0x39E JUMP JUMPDEST SWAP2 POP PUSH2 0x2E4 DUP3 PUSH2 0x48B JUMP JUMPDEST PUSH1 0x40 DUP3 ADD SWAP1 POP SWAP2 SWAP1 POP JUMP JUMPDEST PUSH2 0x2F8 DUP2 PUSH2 0x3E1 JUMP JUMPDEST DUP3 MSTORE POP POP JUMP JUMPDEST PUSH2 0x30F PUSH2 0x30A DUP3 PUSH2 0x3E1 JUMP JUMPDEST PUSH2 0x40F JUMP JUMPDEST DUP3 MSTORE POP POP JUMP JUMPDEST PUSH1 0x0 PUSH2 0x321 DUP3 DUP8 PUSH2 0x2FE JUMP JUMPDEST PUSH1 0x20 DUP3 ADD SWAP2 POP PUSH2 0x331 DUP3 DUP7 PUSH2 0x2FE JUMP JUMPDEST PUSH1 0x20 DUP3 ADD SWAP2 POP PUSH2 0x341 DUP3 DUP6 PUSH2 0x2FE JUMP JUMPDEST PUSH1 0x20 DUP3 ADD SWAP2 POP PUSH2 0x351 DUP3 DUP5 PUSH2 0x2B5 JUMP JUMPDEST PUSH1 0x14 DUP3 ADD SWAP2 POP DUP2 SWAP1 POP SWAP6 SWAP5 POP POP POP POP POP JUMP JUMPDEST PUSH1 0x0 PUSH1 0x20 DUP3 ADD SWAP1 POP DUP2 DUP2 SUB PUSH1 0x0 DUP4 ADD MSTORE PUSH2 0x37C DUP2 PUSH2 0x2CC JUMP JUMPDEST SWAP1 POP SWAP2 SWAP1 POP JUMP JUMPDEST PUSH1 0x0 PUSH1 0x20 DUP3 ADD SWAP1 POP PUSH2 0x398 PUSH1 0x0 DUP4 ADD DUP5 PUSH2 0x2EF JUMP JUMPDEST SWAP3 SWAP2 POP POP JUMP JUMPDEST PUSH1 0x0 DUP3 DUP3 MSTORE PUSH1 0x20 DUP3 ADD SWAP1 POP SWAP3 SWAP2 POP POP JUMP JUMPDEST PUSH1 0x0 PUSH2 0x3BA DUP3 PUSH2 0x3C1 JUMP JUMPDEST SWAP1 POP SWAP2 SWAP1 POP JUMP JUMPDEST PUSH1 0x0 PUSH20 0xFFFFFFFFFFFFFFFFFFFFFFFFFFFFFFFFFFFFFFFF DUP3 AND SWAP1 POP SWAP2 SWAP1 POP JUMP JUMPDEST PUSH1 0x0 DUP2 SWAP1 POP SWAP2 SWAP1 POP JUMP JUMPDEST PUSH1 0x0 PUSH2 0x3F6 DUP3 PUSH2 0x3FD JUMP JUMPDEST SWAP1 POP SWAP2 SWAP1 POP JUMP JUMPDEST PUSH1 0x0 PUSH2 0x408 DUP3 PUSH2 0x47E JUMP JUMPDEST SWAP1 POP SWAP2 SWAP1 POP JUMP JUMPDEST PUSH1 0x0 DUP2 SWAP1 POP SWAP2 SWAP1 POP JUMP JUMPDEST PUSH1 0x0 PUSH2 0x424 DUP3 PUSH2 0x3E1 JUMP JUMPDEST SWAP2 POP PUSH2 0x42F DUP4 PUSH2 0x3E1 JUMP JUMPDEST SWAP3 POP DUP3 PUSH2 0x43F JUMPI PUSH2 0x43E PUSH2 0x44A JUMP JUMPDEST JUMPDEST DUP3 DUP3 MOD SWAP1 POP SWAP3 SWAP2 POP POP JUMP JUMPDEST PUSH32 0x4E487B7100000000000000000000000000000000000000000000000000000000 PUSH1 0x0 MSTORE PUSH1 0x12 PUSH1 0x4 MSTORE PUSH1 0x24 PUSH1 0x0 REVERT JUMPDEST PUSH1 0x0 DUP1 REVERT JUMPDEST PUSH1 0x0 DUP2 PUSH1 0x60 SHL SWAP1 POP SWAP2 SWAP1 POP JUMP JUMPDEST PUSH32 0x536F72727920796F7520617265206E6F74207468652063757272656E74206361 PUSH1 0x0 DUP3 ADD MSTORE PUSH32 0x6C6C657200000000000000000000000000000000000000000000000000000000 PUSH1 0x20 DUP3 ADD MSTORE POP JUMP JUMPDEST PUSH2 0x4E3 DUP2 PUSH2 0x3E1 JUMP JUMPDEST DUP2 EQ PUSH2 0x4EE JUMPI PUSH1 0x0 DUP1 REVERT JUMPDEST POP JUMP INVALID LOG2 PUSH5 0x6970667358 0x22 SLT KECCAK256 SWAP8 COINBASE CALLER 0xA5 0x2A 0x4F SWAP11 0xD9 BLOCKHASH 0xB3 0xD7 0xA8 SSTORE DUP11 CALLDATACOPY MSTORE8 LOG2 0xD7 0xF9 0x2D 0xEF 0x5F INVALID DUP1 0xB2 STATICCALL REVERT PUSH5 0x7D09387464 PUSH20 0x6F6C634300080700330000000000000000000000 "
				},
				"gasEstimates": {
					"creation": {
						"codeDepositCost": "263800",
						"executionCost": "infinite",
						"totalCost": "infinite"
					},
					"external": {
						"feedRand(uint256)": "24709",
						"rand()": "2407",
						"randMod(uint256)": "infinite"
					}
				},
				"methodIdentifiers": {
					"feedRand(uint256)": "f3a6657c",
					"rand()": "3b3dca76",
					"randMod(uint256)": "805553e8"
				}
			},
			"storageLayout": {
				"storage": [
					{
						"astId": 3,
						"contract": "Functions/oracles.sol:GenerateRandomNumber",
						"label": "admin",
						"offset": 0,
						"slot": "0",
						"type": "t_address"
					},
					{
						"astId": 5,
						"contract": "Functions/oracles.sol:GenerateRandomNumber",
						"label": "rand",
						"offset": 0,
						"slot": "1",
						"type": "t_uint256"
					},
					{
						"astId": 38,
						"contract": "Functions/oracles.sol:GenerateRandomNumber",
						"label": "oracle",
						"offset": 0,
						"slot": "2",
						"type": "t_contract(Oracle)33"
					}
				],
				"types": {
					"t_address": {
						"encoding": "inplace",
						"label": "address",
						"numberOfBytes": "20"
					},
					"t_contract(Oracle)33": {
						"encoding": "inplace",
						"label": "contract Oracle",
						"numberOfBytes": "20"
					},
					"t_uint256": {
						"encoding": "inplace",
						"label": "uint256",
						"numberOfBytes": "32"
					}
				}
			},
			"userdoc": {
				"kind": "user",
				"methods": {},
				"version": 1
			}
		}
	}
}