{
	"Functions/oracles.sol": {
		"Oracle": {
			"abi": [
				{
					"inputs": [],
					"stateMutability": "nonpayable",
					"type": "constructor"
				},
				{
					"inputs": [
						{
							"internalType": "uint256",
							"name": "_rand",
							"type": "uint256"
						}
					],
					"name": "feedRand",
					"outputs": [],
					"stateMutability": "nonpayable",
					"type": "function"
				},
				{
					"inputs": [],
					"name": "rand",
					"outputs": [
						{
							"internalType": "uint256",
							"name": "",
							"type": "uint256"
						}
					],
					"stateMutability": "view",
					"type": "function"
				}
			],
			"devdoc": {
				"kind": "dev",
				"methods": {},
				"version": 1
			},
			"evm": {
				"assembly": "    /* \"Functions/oracles.sol\":1961:2481  contract Oracle {\r... */\n  mstore(0x40, 0x80)\n    /* \"Functions/oracles.sol\":2033:2257  constructor () {\r... */\n  callvalue\n  dup1\n  iszero\n  tag_1\n  jumpi\n  0x00\n  dup1\n  revert\ntag_1:\n  pop\n    /* \"Functions/oracles.sol\":2067:2077  msg.sender */\n  caller\n    /* \"Functions/oracles.sol\":2059:2064  admin */\n  0x00\n  dup1\n    /* \"Functions/oracles.sol\":2059:2077  admin = msg.sender */\n  0x0100\n  exp\n  dup2\n  sload\n  dup2\n  0xffffffffffffffffffffffffffffffffffffffff\n  mul\n  not\n  and\n  swap1\n  dup4\n  0xffffffffffffffffffffffffffffffffffffffff\n  and\n  mul\n  or\n  swap1\n  sstore\n  pop\n    /* \"Functions/oracles.sol\":1961:2481  contract Oracle {\r... */\n  dataSize(sub_0)\n  dup1\n  dataOffset(sub_0)\n  0x00\n  codecopy\n  0x00\n  return\nstop\n\nsub_0: assembly {\n        /* \"Functions/oracles.sol\":1961:2481  contract Oracle {\r... */\n      mstore(0x40, 0x80)\n      callvalue\n      dup1\n      iszero\n      tag_1\n      jumpi\n      0x00\n      dup1\n      revert\n    tag_1:\n      pop\n      jumpi(tag_2, lt(calldatasize, 0x04))\n      shr(0xe0, calldataload(0x00))\n      dup1\n      0x3b3dca76\n      eq\n      tag_3\n      jumpi\n      dup1\n      0xf3a6657c\n      eq\n      tag_4\n      jumpi\n    tag_2:\n      0x00\n      dup1\n      revert\n        /* \"Functions/oracles.sol\":2008:2024  uint public rand */\n    tag_3:\n      tag_5\n      tag_6\n      jump\t// in\n    tag_5:\n      mload(0x40)\n      tag_7\n      swap2\n      swap1\n      tag_8\n      jump\t// in\n    tag_7:\n      mload(0x40)\n      dup1\n      swap2\n      sub\n      swap1\n      return\n        /* \"Functions/oracles.sol\":2265:2478  function feedRand (uint _rand) external { // same as public but we call it externally not internally\r... */\n    tag_4:\n      tag_9\n      0x04\n      dup1\n      calldatasize\n      sub\n      dup2\n      add\n      swap1\n      tag_10\n      swap2\n      swap1\n      tag_11\n      jump\t// in\n    tag_10:\n      tag_12\n      jump\t// in\n    tag_9:\n      stop\n        /* \"Functions/oracles.sol\":2008:2024  uint public rand */\n    tag_6:\n      sload(0x01)\n      dup2\n      jump\t// out\n        /* \"Functions/oracles.sol\":2265:2478  function feedRand (uint _rand) external { // same as public but we call it externally not internally\r... */\n    tag_12:\n        /* \"Functions/oracles.sol\":2399:2404  admin */\n      0x00\n      dup1\n      sload\n      swap1\n      0x0100\n      exp\n      swap1\n      div\n      0xffffffffffffffffffffffffffffffffffffffff\n      and\n        /* \"Functions/oracles.sol\":2385:2404  msg.sender == admin */\n      0xffffffffffffffffffffffffffffffffffffffff\n      and\n        /* \"Functions/oracles.sol\":2385:2395  msg.sender */\n      caller\n        /* \"Functions/oracles.sol\":2385:2404  msg.sender == admin */\n      0xffffffffffffffffffffffffffffffffffffffff\n      and\n      eq\n        /* \"Functions/oracles.sol\":2377:2445  require(msg.sender == admin, \"Sorry you are not the current caller\") */\n      tag_14\n      jumpi\n      mload(0x40)\n      0x08c379a000000000000000000000000000000000000000000000000000000000\n      dup2\n      mstore\n      0x04\n      add\n      tag_15\n      swap1\n      tag_16\n      jump\t// in\n    tag_15:\n      mload(0x40)\n      dup1\n      swap2\n      sub\n      swap1\n      revert\n    tag_14:\n        /* \"Functions/oracles.sol\":2463:2468  _rand */\n      dup1\n        /* \"Functions/oracles.sol\":2456:2460  rand */\n      0x01\n        /* \"Functions/oracles.sol\":2456:2468  rand = _rand */\n      dup2\n      swap1\n      sstore\n      pop\n        /* \"Functions/oracles.sol\":2265:2478  function feedRand (uint _rand) external { // same as public but we call it externally not internally\r... */\n      pop\n      jump\t// out\n        /* \"#utility.yul\":7:146   */\n    tag_18:\n        /* \"#utility.yul\":53:58   */\n      0x00\n        /* \"#utility.yul\":91:97   */\n      dup2\n        /* \"#utility.yul\":78:98   */\n      calldataload\n        /* \"#utility.yul\":69:98   */\n      swap1\n      pop\n        /* \"#utility.yul\":107:140   */\n      tag_20\n        /* \"#utility.yul\":134:139   */\n      dup2\n        /* \"#utility.yul\":107:140   */\n      tag_21\n      jump\t// in\n    tag_20:\n        /* \"#utility.yul\":7:146   */\n      swap3\n      swap2\n      pop\n      pop\n      jump\t// out\n        /* \"#utility.yul\":152:481   */\n    tag_11:\n        /* \"#utility.yul\":211:217   */\n      0x00\n        /* \"#utility.yul\":260:262   */\n      0x20\n        /* \"#utility.yul\":248:257   */\n      dup3\n        /* \"#utility.yul\":239:246   */\n      dup5\n        /* \"#utility.yul\":235:258   */\n      sub\n        /* \"#utility.yul\":231:263   */\n      slt\n        /* \"#utility.yul\":228:347   */\n      iszero\n      tag_23\n      jumpi\n        /* \"#utility.yul\":266:345   */\n      tag_24\n      tag_25\n      jump\t// in\n    tag_24:\n        /* \"#utility.yul\":228:347   */\n    tag_23:\n        /* \"#utility.yul\":386:387   */\n      0x00\n        /* \"#utility.yul\":411:464   */\n      tag_26\n        /* \"#utility.yul\":456:463   */\n      dup5\n        /* \"#utility.yul\":447:453   */\n      dup3\n        /* \"#utility.yul\":436:445   */\n      dup6\n        /* \"#utility.yul\":432:454   */\n      add\n        /* \"#utility.yul\":411:464   */\n      tag_18\n      jump\t// in\n    tag_26:\n        /* \"#utility.yul\":401:464   */\n      swap2\n      pop\n        /* \"#utility.yul\":357:474   */\n      pop\n        /* \"#utility.yul\":152:481   */\n      swap3\n      swap2\n      pop\n      pop\n      jump\t// out\n        /* \"#utility.yul\":487:853   */\n    tag_27:\n        /* \"#utility.yul\":629:632   */\n      0x00\n        /* \"#utility.yul\":650:717   */\n      tag_29\n        /* \"#utility.yul\":714:716   */\n      0x24\n        /* \"#utility.yul\":709:712   */\n      dup4\n        /* \"#utility.yul\":650:717   */\n      tag_30\n      jump\t// in\n    tag_29:\n        /* \"#utility.yul\":643:717   */\n      swap2\n      pop\n        /* \"#utility.yul\":726:819   */\n      tag_31\n        /* \"#utility.yul\":815:818   */\n      dup3\n        /* \"#utility.yul\":726:819   */\n      tag_32\n      jump\t// in\n    tag_31:\n        /* \"#utility.yul\":844:846   */\n      0x40\n        /* \"#utility.yul\":839:842   */\n      dup3\n        /* \"#utility.yul\":835:847   */\n      add\n        /* \"#utility.yul\":828:847   */\n      swap1\n      pop\n        /* \"#utility.yul\":487:853   */\n      swap2\n      swap1\n      pop\n      jump\t// out\n        /* \"#utility.yul\":859:977   */\n    tag_33:\n        /* \"#utility.yul\":946:970   */\n      tag_35\n        /* \"#utility.yul\":964:969   */\n      dup2\n        /* \"#utility.yul\":946:970   */\n      tag_36\n      jump\t// in\n    tag_35:\n        /* \"#utility.yul\":941:944   */\n      dup3\n        /* \"#utility.yul\":934:971   */\n      mstore\n        /* \"#utility.yul\":859:977   */\n      pop\n      pop\n      jump\t// out\n        /* \"#utility.yul\":983:1402   */\n    tag_16:\n        /* \"#utility.yul\":1149:1153   */\n      0x00\n        /* \"#utility.yul\":1187:1189   */\n      0x20\n        /* \"#utility.yul\":1176:1185   */\n      dup3\n        /* \"#utility.yul\":1172:1190   */\n      add\n        /* \"#utility.yul\":1164:1190   */\n      swap1\n      pop\n        /* \"#utility.yul\":1236:1245   */\n      dup2\n        /* \"#utility.yul\":1230:1234   */\n      dup2\n        /* \"#utility.yul\":1226:1246   */\n      sub\n        /* \"#utility.yul\":1222:1223   */\n      0x00\n        /* \"#utility.yul\":1211:1220   */\n      dup4\n        /* \"#utility.yul\":1207:1224   */\n      add\n        /* \"#utility.yul\":1200:1247   */\n      mstore\n        /* \"#utility.yul\":1264:1395   */\n      tag_38\n        /* \"#utility.yul\":1390:1394   */\n      dup2\n        /* \"#utility.yul\":1264:1395   */\n      tag_27\n      jump\t// in\n    tag_38:\n        /* \"#utility.yul\":1256:1395   */\n      swap1\n      pop\n        /* \"#utility.yul\":983:1402   */\n      swap2\n      swap1\n      pop\n      jump\t// out\n        /* \"#utility.yul\":1408:1630   */\n    tag_8:\n        /* \"#utility.yul\":1501:1505   */\n      0x00\n        /* \"#utility.yul\":1539:1541   */\n      0x20\n        /* \"#utility.yul\":1528:1537   */\n      dup3\n        /* \"#utility.yul\":1524:1542   */\n      add\n        /* \"#utility.yul\":1516:1542   */\n      swap1\n      pop\n        /* \"#utility.yul\":1552:1623   */\n      tag_40\n        /* \"#utility.yul\":1620:1621   */\n      0x00\n        /* \"#utility.yul\":1609:1618   */\n      dup4\n        /* \"#utility.yul\":1605:1622   */\n      add\n        /* \"#utility.yul\":1596:1602   */\n      dup5\n        /* \"#utility.yul\":1552:1623   */\n      tag_33\n      jump\t// in\n    tag_40:\n        /* \"#utility.yul\":1408:1630   */\n      swap3\n      swap2\n      pop\n      pop\n      jump\t// out\n        /* \"#utility.yul\":1717:1886   */\n    tag_30:\n        /* \"#utility.yul\":1801:1812   */\n      0x00\n        /* \"#utility.yul\":1835:1841   */\n      dup3\n        /* \"#utility.yul\":1830:1833   */\n      dup3\n        /* \"#utility.yul\":1823:1842   */\n      mstore\n        /* \"#utility.yul\":1875:1879   */\n      0x20\n        /* \"#utility.yul\":1870:1873   */\n      dup3\n        /* \"#utility.yul\":1866:1880   */\n      add\n        /* \"#utility.yul\":1851:1880   */\n      swap1\n      pop\n        /* \"#utility.yul\":1717:1886   */\n      swap3\n      swap2\n      pop\n      pop\n      jump\t// out\n        /* \"#utility.yul\":1892:1969   */\n    tag_36:\n        /* \"#utility.yul\":1929:1936   */\n      0x00\n        /* \"#utility.yul\":1958:1963   */\n      dup2\n        /* \"#utility.yul\":1947:1963   */\n      swap1\n      pop\n        /* \"#utility.yul\":1892:1969   */\n      swap2\n      swap1\n      pop\n      jump\t// out\n        /* \"#utility.yul\":2098:2215   */\n    tag_25:\n        /* \"#utility.yul\":2207:2208   */\n      0x00\n        /* \"#utility.yul\":2204:2205   */\n      dup1\n        /* \"#utility.yul\":2197:2209   */\n      revert\n        /* \"#utility.yul\":2221:2444   */\n    tag_32:\n        /* \"#utility.yul\":2361:2395   */\n      0x536f72727920796f7520617265206e6f74207468652063757272656e74206361\n        /* \"#utility.yul\":2357:2358   */\n      0x00\n        /* \"#utility.yul\":2349:2355   */\n      dup3\n        /* \"#utility.yul\":2345:2359   */\n      add\n        /* \"#utility.yul\":2338:2396   */\n      mstore\n        /* \"#utility.yul\":2430:2436   */\n      0x6c6c657200000000000000000000000000000000000000000000000000000000\n        /* \"#utility.yul\":2425:2427   */\n      0x20\n        /* \"#utility.yul\":2417:2423   */\n      dup3\n        /* \"#utility.yul\":2413:2428   */\n      add\n        /* \"#utility.yul\":2406:2437   */\n      mstore\n        /* \"#utility.yul\":2221:2444   */\n      pop\n      jump\t// out\n        /* \"#utility.yul\":2450:2572   */\n    tag_21:\n        /* \"#utility.yul\":2523:2547   */\n      tag_50\n        /* \"#utility.yul\":2541:2546   */\n      dup2\n        /* \"#utility.yul\":2523:2547   */\n      tag_36\n      jump\t// in\n    tag_50:\n        /* \"#utility.yul\":2516:2521   */\n      dup2\n        /* \"#utility.yul\":2513:2548   */\n      eq\n        /* \"#utility.yul\":2503:2566   */\n      tag_51\n      jumpi\n        /* \"#utility.yul\":2562:2563   */\n      0x00\n        /* \"#utility.yul\":2559:2560   */\n      dup1\n        /* \"#utility.yul\":2552:2564   */\n      revert\n        /* \"#utility.yul\":2503:2566   */\n    tag_51:\n        /* \"#utility.yul\":2450:2572   */\n      pop\n      jump\t// out\n\n    auxdata: 0xa2646970667358221220178c9375d9f0a9b715b4a2d78b10391bd6ba138f1ddc11623368585d3b64ea2464736f6c63430008070033\n}\n",
				"bytecode": {
					"linkReferences": {},
					"object": "608060405234801561001057600080fd5b50336000806101000a81548173ffffffffffffffffffffffffffffffffffffffff021916908373ffffffffffffffffffffffffffffffffffffffff16021790555061027e806100606000396000f3fe608060405234801561001057600080fd5b50600436106100365760003560e01c80633b3dca761461003b578063f3a6657c14610059575b600080fd5b610043610075565b60405161005091906101a7565b60405180910390f35b610073600480360381019061006e9190610128565b61007b565b005b60015481565b60008054906101000a900473ffffffffffffffffffffffffffffffffffffffff1673ffffffffffffffffffffffffffffffffffffffff163373ffffffffffffffffffffffffffffffffffffffff1614610109576040517f08c379a000000000000000000000000000000000000000000000000000000000815260040161010090610187565b60405180910390fd5b8060018190555050565b60008135905061012281610231565b92915050565b60006020828403121561013e5761013d6101dd565b5b600061014c84828501610113565b91505092915050565b60006101626024836101c2565b915061016d826101e2565b604082019050919050565b610181816101d3565b82525050565b600060208201905081810360008301526101a081610155565b9050919050565b60006020820190506101bc6000830184610178565b92915050565b600082825260208201905092915050565b6000819050919050565b600080fd5b7f536f72727920796f7520617265206e6f74207468652063757272656e7420636160008201527f6c6c657200000000000000000000000000000000000000000000000000000000602082015250565b61023a816101d3565b811461024557600080fd5b5056fea2646970667358221220178c9375d9f0a9b715b4a2d78b10391bd6ba138f1ddc11623368585d3b64ea2464736f6c63430008070033",
					"opcodes": "PUSH1 0x80 PUSH1 0x40 MSTORE CALLVALUE DUP1 ISZERO PUSH2 0x10 JUMPI PUSH1 0x0 DUP1 REVERT JUMPDEST POP CALLER PUSH1 0x0 DUP1 PUSH2 0x100 EXP DUP2 SLOAD DUP2 PUSH20 0xFFFFFFFFFFFFFFFFFFFFFFFFFFFFFFFFFFFFFFFF MUL NOT AND SWAP1 DUP4 PUSH20 0xFFFFFFFFFFFFFFFFFFFFFFFFFFFFFFFFFFFFFFFF AND MUL OR SWAP1 SSTORE POP PUSH2 0x27E DUP1 PUSH2 0x60 PUSH1 0x0 CODECOPY PUSH1 0x0 RETURN INVALID PUSH1 0x80 PUSH1 0x40 MSTORE CALLVALUE DUP1 ISZERO PUSH2 0x10 JUMPI PUSH1 0x0 DUP1 REVERT JUMPDEST POP PUSH1 0x4 CALLDATASIZE LT PUSH2 0x36 JUMPI PUSH1 0x0 CALLDATALOAD PUSH1 0xE0 SHR DUP1 PUSH4 0x3B3DCA76 EQ PUSH2 0x3B JUMPI DUP1 PUSH4 0xF3A6657C EQ PUSH2 0x59 JUMPI JUMPDEST PUSH1 0x0 DUP1 REVERT JUMPDEST PUSH2 0x43 PUSH2 0x75 JUMP JUMPDEST PUSH1 0x40 MLOAD PUSH2 0x50 SWAP2 SWAP1 PUSH2 0x1A7 JUMP JUMPDEST PUSH1 0x40 MLOAD DUP1 SWAP2 SUB SWAP1 RETURN JUMPDEST PUSH2 0x73 PUSH1 0x4 DUP1 CALLDATASIZE SUB DUP2 ADD SWAP1 PUSH2 0x6E SWAP2 SWAP1 PUSH2 0x128 JUMP JUMPDEST PUSH2 0x7B JUMP JUMPDEST STOP JUMPDEST PUSH1 0x1 SLOAD DUP2 JUMP JUMPDEST PUSH1 0x0 DUP1 SLOAD SWAP1 PUSH2 0x100 EXP SWAP1 DIV PUSH20 0xFFFFFFFFFFFFFFFFFFFFFFFFFFFFFFFFFFFFFFFF AND PUSH20 0xFFFFFFFFFFFFFFFFFFFFFFFFFFFFFFFFFFFFFFFF AND CALLER PUSH20 0xFFFFFFFFFFFFFFFFFFFFFFFFFFFFFFFFFFFFFFFF AND EQ PUSH2 0x109 JUMPI PUSH1 0x40 MLOAD PUSH32 0x8C379A000000000000000000000000000000000000000000000000000000000 DUP2 MSTORE PUSH1 0x4 ADD PUSH2 0x100 SWAP1 PUSH2 0x187 JUMP JUMPDEST PUSH1 0x40 MLOAD DUP1 SWAP2 SUB SWAP1 REVERT JUMPDEST DUP1 PUSH1 0x1 DUP2 SWAP1 SSTORE POP POP JUMP JUMPDEST PUSH1 0x0 DUP2 CALLDATALOAD SWAP1 POP PUSH2 0x122 DUP2 PUSH2 0x231 JUMP JUMPDEST SWAP3 SWAP2 POP POP JUMP JUMPDEST PUSH1 0x0 PUSH1 0x20 DUP3 DUP5 SUB SLT ISZERO PUSH2 0x13E JUMPI PUSH2 0x13D PUSH2 0x1DD JUMP JUMPDEST JUMPDEST PUSH1 0x0 PUSH2 0x14C DUP5 DUP3 DUP6 ADD PUSH2 0x113 JUMP JUMPDEST SWAP2 POP POP SWAP3 SWAP2 POP POP JUMP JUMPDEST PUSH1 0x0 PUSH2 0x162 PUSH1 0x24 DUP4 PUSH2 0x1C2 JUMP JUMPDEST SWAP2 POP PUSH2 0x16D DUP3 PUSH2 0x1E2 JUMP JUMPDEST PUSH1 0x40 DUP3 ADD SWAP1 POP SWAP2 SWAP1 POP JUMP JUMPDEST PUSH2 0x181 DUP2 PUSH2 0x1D3 JUMP JUMPDEST DUP3 MSTORE POP POP JUMP JUMPDEST PUSH1 0x0 PUSH1 0x20 DUP3 ADD SWAP1 POP DUP2 DUP2 SUB PUSH1 0x0 DUP4 ADD MSTORE PUSH2 0x1A0 DUP2 PUSH2 0x155 JUMP JUMPDEST SWAP1 POP SWAP2 SWAP1 POP JUMP JUMPDEST PUSH1 0x0 PUSH1 0x20 DUP3 ADD SWAP1 POP PUSH2 0x1BC PUSH1 0x0 DUP4 ADD DUP5 PUSH2 0x178 JUMP JUMPDEST SWAP3 SWAP2 POP POP JUMP JUMPDEST PUSH1 0x0 DUP3 DUP3 MSTORE PUSH1 0x20 DUP3 ADD SWAP1 POP SWAP3 SWAP2 POP POP JUMP JUMPDEST PUSH1 0x0 DUP2 SWAP1 POP SWAP2 SWAP1 POP JUMP JUMPDEST PUSH1 0x0 DUP1 REVERT JUMPDEST PUSH32 0x536F72727920796F7520617265206E6F74207468652063757272656E74206361 PUSH1 0x0 DUP3 ADD MSTORE PUSH32 0x6C6C657200000000000000000000000000000000000000000000000000000000 PUSH1 0x20 DUP3 ADD MSTORE POP JUMP JUMPDEST PUSH2 0x23A DUP2 PUSH2 0x1D3 JUMP JUMPDEST DUP2 EQ PUSH2 0x245 JUMPI PUSH1 0x0 DUP1 REVERT JUMPDEST POP JUMP INVALID LOG2 PUSH5 0x6970667358 0x22 SLT KECCAK256 OR DUP13 SWAP4 PUSH22 0xD9F0A9B715B4A2D78B10391BD6BA138F1DDC11623368 PC 0x5D EXTCODESIZE PUSH5 0xEA2464736F PUSH13 0x63430008070033000000000000 "
				},
				"gasEstimates": {
					"creation": {
						"codeDepositCost": "127600",
						"executionCost": "24437",
						"totalCost": "152037"
					},
					"external": {
						"feedRand(uint256)": "24687",
						"rand()": "2407"
					}
				},
				"methodIdentifiers": {
					"feedRand(uint256)": "f3a6657c",
					"rand()": "3b3dca76"
				}
			},
			"storageLayout": {
				"storage": [
					{
						"astId": 3,
						"contract": "Functions/oracles.sol:Oracle",
						"label": "admin",
						"offset": 0,
						"slot": "0",
						"type": "t_address"
					},
					{
						"astId": 5,
						"contract": "Functions/oracles.sol:Oracle",
						"label": "rand",
						"offset": 0,
						"slot": "1",
						"type": "t_uint256"
					}
				],
				"types": {
					"t_address": {
						"encoding": "inplace",
						"label": "address",
						"numberOfBytes": "20"
					},
					"t_uint256": {
						"encoding": "inplace",
						"label": "uint256",
						"numberOfBytes": "32"
					}
				}
			},
			"userdoc": {
				"kind": "user",
				"methods": {},
				"version": 1
			}
		}
	}
}