{
	"Functions/view_pure_constant_modifiers.sol": {
		"MyContract": {
			"abi": [
				{
					"inputs": [],
					"name": "getNewValue",
					"outputs": [
						{
							"internalType": "uint256",
							"name": "",
							"type": "uint256"
						}
					],
					"stateMutability": "pure",
					"type": "function"
				},
				{
					"inputs": [],
					"name": "getValue",
					"outputs": [
						{
							"internalType": "uint256",
							"name": "",
							"type": "uint256"
						}
					],
					"stateMutability": "view",
					"type": "function"
				},
				{
					"inputs": [],
					"name": "multiply",
					"outputs": [
						{
							"internalType": "uint256",
							"name": "",
							"type": "uint256"
						}
					],
					"stateMutability": "pure",
					"type": "function"
				},
				{
					"inputs": [
						{
							"internalType": "uint256",
							"name": "_value",
							"type": "uint256"
						}
					],
					"name": "setValue",
					"outputs": [],
					"stateMutability": "nonpayable",
					"type": "function"
				},
				{
					"inputs": [],
					"name": "valuePlusThree",
					"outputs": [
						{
							"internalType": "uint256",
							"name": "",
							"type": "uint256"
						}
					],
					"stateMutability": "view",
					"type": "function"
				}
			],
			"devdoc": {
				"kind": "dev",
				"methods": {},
				"version": 1
			},
			"evm": {
				"assembly": "    /* \"Functions/view_pure_constant_modifiers.sol\":321:1380  contract MyContract {\r... */\n  mstore(0x40, 0x80)\n  callvalue\n  dup1\n  iszero\n  tag_1\n  jumpi\n  0x00\n  dup1\n  revert\ntag_1:\n  pop\n  dataSize(sub_0)\n  dup1\n  dataOffset(sub_0)\n  0x00\n  codecopy\n  0x00\n  return\nstop\n\nsub_0: assembly {\n        /* \"Functions/view_pure_constant_modifiers.sol\":321:1380  contract MyContract {\r... */\n      mstore(0x40, 0x80)\n      callvalue\n      dup1\n      iszero\n      tag_1\n      jumpi\n      0x00\n      dup1\n      revert\n    tag_1:\n      pop\n      jumpi(tag_2, lt(calldatasize, 0x04))\n      shr(0xe0, calldataload(0x00))\n      dup1\n      0x20965255\n      eq\n      tag_3\n      jumpi\n      dup1\n      0x54fee644\n      eq\n      tag_4\n      jumpi\n      dup1\n      0x55241077\n      eq\n      tag_5\n      jumpi\n      dup1\n      0x98b10823\n      eq\n      tag_6\n      jumpi\n      dup1\n      0xf3593cd0\n      eq\n      tag_7\n      jumpi\n    tag_2:\n      0x00\n      dup1\n      revert\n        /* \"Functions/view_pure_constant_modifiers.sol\":709:787  function getValue() external view returns(uint){\r... */\n    tag_3:\n      tag_8\n      tag_9\n      jump\t// in\n    tag_8:\n      mload(0x40)\n      tag_10\n      swap2\n      swap1\n      tag_11\n      jump\t// in\n    tag_10:\n      mload(0x40)\n      dup1\n      swap2\n      sub\n      swap1\n      return\n        /* \"Functions/view_pure_constant_modifiers.sol\":795:908  function getNewValue() external pure returns(uint){\r... */\n    tag_4:\n      tag_12\n      tag_13\n      jump\t// in\n    tag_12:\n      mload(0x40)\n      tag_14\n      swap2\n      swap1\n      tag_11\n      jump\t// in\n    tag_14:\n      mload(0x40)\n      dup1\n      swap2\n      sub\n      swap1\n      return\n        /* \"Functions/view_pure_constant_modifiers.sol\":1092:1165  function setValue(uint _value) external {\r... */\n    tag_5:\n      tag_15\n      0x04\n      dup1\n      calldatasize\n      sub\n      dup2\n      add\n      swap1\n      tag_16\n      swap2\n      swap1\n      tag_17\n      jump\t// in\n    tag_16:\n      tag_18\n      jump\t// in\n    tag_15:\n      stop\n        /* \"Functions/view_pure_constant_modifiers.sol\":1289:1377  function valuePlusThree() external view  returns(uint){\r... */\n    tag_6:\n      tag_19\n      tag_20\n      jump\t// in\n    tag_19:\n      mload(0x40)\n      tag_21\n      swap2\n      swap1\n      tag_11\n      jump\t// in\n    tag_21:\n      mload(0x40)\n      dup1\n      swap2\n      sub\n      swap1\n      return\n        /* \"Functions/view_pure_constant_modifiers.sol\":1173:1281  function multiply() external pure returns(uint) { // external = scope/visibility\r... */\n    tag_7:\n      tag_22\n      tag_23\n      jump\t// in\n    tag_22:\n      mload(0x40)\n      tag_24\n      swap2\n      swap1\n      tag_11\n      jump\t// in\n    tag_24:\n      mload(0x40)\n      dup1\n      swap2\n      sub\n      swap1\n      return\n        /* \"Functions/view_pure_constant_modifiers.sol\":709:787  function getValue() external view returns(uint){\r... */\n    tag_9:\n        /* \"Functions/view_pure_constant_modifiers.sol\":751:755  uint */\n      0x00\n        /* \"Functions/view_pure_constant_modifiers.sol\":774:779  value */\n      dup1\n      sload\n        /* \"Functions/view_pure_constant_modifiers.sol\":767:779  return value */\n      swap1\n      pop\n        /* \"Functions/view_pure_constant_modifiers.sol\":709:787  function getValue() external view returns(uint){\r... */\n      swap1\n      jump\t// out\n        /* \"Functions/view_pure_constant_modifiers.sol\":795:908  function getNewValue() external pure returns(uint){\r... */\n    tag_13:\n        /* \"Functions/view_pure_constant_modifiers.sol\":840:844  uint */\n      0x00\n        /* \"Functions/view_pure_constant_modifiers.sol\":863:866  3+3 */\n      0x06\n        /* \"Functions/view_pure_constant_modifiers.sol\":856:866  return 3+3 */\n      swap1\n      pop\n        /* \"Functions/view_pure_constant_modifiers.sol\":795:908  function getNewValue() external pure returns(uint){\r... */\n      swap1\n      jump\t// out\n        /* \"Functions/view_pure_constant_modifiers.sol\":1092:1165  function setValue(uint _value) external {\r... */\n    tag_18:\n        /* \"Functions/view_pure_constant_modifiers.sol\":1151:1157  _value */\n      dup1\n        /* \"Functions/view_pure_constant_modifiers.sol\":1143:1148  value */\n      0x00\n        /* \"Functions/view_pure_constant_modifiers.sol\":1143:1157  value = _value */\n      dup2\n      swap1\n      sstore\n      pop\n        /* \"Functions/view_pure_constant_modifiers.sol\":1092:1165  function setValue(uint _value) external {\r... */\n      pop\n      jump\t// out\n        /* \"Functions/view_pure_constant_modifiers.sol\":1289:1377  function valuePlusThree() external view  returns(uint){\r... */\n    tag_20:\n        /* \"Functions/view_pure_constant_modifiers.sol\":1338:1342  uint */\n      0x00\n        /* \"Functions/view_pure_constant_modifiers.sol\":1368:1369  3 */\n      0x03\n        /* \"Functions/view_pure_constant_modifiers.sol\":1361:1366  value */\n      sload(0x00)\n        /* \"Functions/view_pure_constant_modifiers.sol\":1361:1369  value +3 */\n      tag_29\n      swap2\n      swap1\n      tag_30\n      jump\t// in\n    tag_29:\n        /* \"Functions/view_pure_constant_modifiers.sol\":1354:1369  return value +3 */\n      swap1\n      pop\n        /* \"Functions/view_pure_constant_modifiers.sol\":1289:1377  function valuePlusThree() external view  returns(uint){\r... */\n      swap1\n      jump\t// out\n        /* \"Functions/view_pure_constant_modifiers.sol\":1173:1281  function multiply() external pure returns(uint) { // external = scope/visibility\r... */\n    tag_23:\n        /* \"Functions/view_pure_constant_modifiers.sol\":1215:1219  uint */\n      0x00\n        /* \"Functions/view_pure_constant_modifiers.sol\":1270:1273  3*7 */\n      0x15\n        /* \"Functions/view_pure_constant_modifiers.sol\":1263:1273  return 3*7 */\n      swap1\n      pop\n        /* \"Functions/view_pure_constant_modifiers.sol\":1173:1281  function multiply() external pure returns(uint) { // external = scope/visibility\r... */\n      swap1\n      jump\t// out\n        /* \"#utility.yul\":7:146   */\n    tag_33:\n        /* \"#utility.yul\":53:58   */\n      0x00\n        /* \"#utility.yul\":91:97   */\n      dup2\n        /* \"#utility.yul\":78:98   */\n      calldataload\n        /* \"#utility.yul\":69:98   */\n      swap1\n      pop\n        /* \"#utility.yul\":107:140   */\n      tag_35\n        /* \"#utility.yul\":134:139   */\n      dup2\n        /* \"#utility.yul\":107:140   */\n      tag_36\n      jump\t// in\n    tag_35:\n        /* \"#utility.yul\":7:146   */\n      swap3\n      swap2\n      pop\n      pop\n      jump\t// out\n        /* \"#utility.yul\":152:481   */\n    tag_17:\n        /* \"#utility.yul\":211:217   */\n      0x00\n        /* \"#utility.yul\":260:262   */\n      0x20\n        /* \"#utility.yul\":248:257   */\n      dup3\n        /* \"#utility.yul\":239:246   */\n      dup5\n        /* \"#utility.yul\":235:258   */\n      sub\n        /* \"#utility.yul\":231:263   */\n      slt\n        /* \"#utility.yul\":228:347   */\n      iszero\n      tag_38\n      jumpi\n        /* \"#utility.yul\":266:345   */\n      tag_39\n      tag_40\n      jump\t// in\n    tag_39:\n        /* \"#utility.yul\":228:347   */\n    tag_38:\n        /* \"#utility.yul\":386:387   */\n      0x00\n        /* \"#utility.yul\":411:464   */\n      tag_41\n        /* \"#utility.yul\":456:463   */\n      dup5\n        /* \"#utility.yul\":447:453   */\n      dup3\n        /* \"#utility.yul\":436:445   */\n      dup6\n        /* \"#utility.yul\":432:454   */\n      add\n        /* \"#utility.yul\":411:464   */\n      tag_33\n      jump\t// in\n    tag_41:\n        /* \"#utility.yul\":401:464   */\n      swap2\n      pop\n        /* \"#utility.yul\":357:474   */\n      pop\n        /* \"#utility.yul\":152:481   */\n      swap3\n      swap2\n      pop\n      pop\n      jump\t// out\n        /* \"#utility.yul\":487:605   */\n    tag_42:\n        /* \"#utility.yul\":574:598   */\n      tag_44\n        /* \"#utility.yul\":592:597   */\n      dup2\n        /* \"#utility.yul\":574:598   */\n      tag_45\n      jump\t// in\n    tag_44:\n        /* \"#utility.yul\":569:572   */\n      dup3\n        /* \"#utility.yul\":562:599   */\n      mstore\n        /* \"#utility.yul\":487:605   */\n      pop\n      pop\n      jump\t// out\n        /* \"#utility.yul\":611:833   */\n    tag_11:\n        /* \"#utility.yul\":704:708   */\n      0x00\n        /* \"#utility.yul\":742:744   */\n      0x20\n        /* \"#utility.yul\":731:740   */\n      dup3\n        /* \"#utility.yul\":727:745   */\n      add\n        /* \"#utility.yul\":719:745   */\n      swap1\n      pop\n        /* \"#utility.yul\":755:826   */\n      tag_47\n        /* \"#utility.yul\":823:824   */\n      0x00\n        /* \"#utility.yul\":812:821   */\n      dup4\n        /* \"#utility.yul\":808:825   */\n      add\n        /* \"#utility.yul\":799:805   */\n      dup5\n        /* \"#utility.yul\":755:826   */\n      tag_42\n      jump\t// in\n    tag_47:\n        /* \"#utility.yul\":611:833   */\n      swap3\n      swap2\n      pop\n      pop\n      jump\t// out\n        /* \"#utility.yul\":920:1225   */\n    tag_30:\n        /* \"#utility.yul\":960:963   */\n      0x00\n        /* \"#utility.yul\":979:999   */\n      tag_51\n        /* \"#utility.yul\":997:998   */\n      dup3\n        /* \"#utility.yul\":979:999   */\n      tag_45\n      jump\t// in\n    tag_51:\n        /* \"#utility.yul\":974:999   */\n      swap2\n      pop\n        /* \"#utility.yul\":1013:1033   */\n      tag_52\n        /* \"#utility.yul\":1031:1032   */\n      dup4\n        /* \"#utility.yul\":1013:1033   */\n      tag_45\n      jump\t// in\n    tag_52:\n        /* \"#utility.yul\":1008:1033   */\n      swap3\n      pop\n        /* \"#utility.yul\":1167:1168   */\n      dup3\n        /* \"#utility.yul\":1099:1165   */\n      0xffffffffffffffffffffffffffffffffffffffffffffffffffffffffffffffff\n        /* \"#utility.yul\":1095:1169   */\n      sub\n        /* \"#utility.yul\":1092:1093   */\n      dup3\n        /* \"#utility.yul\":1089:1170   */\n      gt\n        /* \"#utility.yul\":1086:1193   */\n      iszero\n      tag_53\n      jumpi\n        /* \"#utility.yul\":1173:1191   */\n      tag_54\n      tag_55\n      jump\t// in\n    tag_54:\n        /* \"#utility.yul\":1086:1193   */\n    tag_53:\n        /* \"#utility.yul\":1217:1218   */\n      dup3\n        /* \"#utility.yul\":1214:1215   */\n      dup3\n        /* \"#utility.yul\":1210:1219   */\n      add\n        /* \"#utility.yul\":1203:1219   */\n      swap1\n      pop\n        /* \"#utility.yul\":920:1225   */\n      swap3\n      swap2\n      pop\n      pop\n      jump\t// out\n        /* \"#utility.yul\":1231:1308   */\n    tag_45:\n        /* \"#utility.yul\":1268:1275   */\n      0x00\n        /* \"#utility.yul\":1297:1302   */\n      dup2\n        /* \"#utility.yul\":1286:1302   */\n      swap1\n      pop\n        /* \"#utility.yul\":1231:1308   */\n      swap2\n      swap1\n      pop\n      jump\t// out\n        /* \"#utility.yul\":1314:1494   */\n    tag_55:\n        /* \"#utility.yul\":1362:1439   */\n      0x4e487b7100000000000000000000000000000000000000000000000000000000\n        /* \"#utility.yul\":1359:1360   */\n      0x00\n        /* \"#utility.yul\":1352:1440   */\n      mstore\n        /* \"#utility.yul\":1459:1463   */\n      0x11\n        /* \"#utility.yul\":1456:1457   */\n      0x04\n        /* \"#utility.yul\":1449:1464   */\n      mstore\n        /* \"#utility.yul\":1483:1487   */\n      0x24\n        /* \"#utility.yul\":1480:1481   */\n      0x00\n        /* \"#utility.yul\":1473:1488   */\n      revert\n        /* \"#utility.yul\":1623:1740   */\n    tag_40:\n        /* \"#utility.yul\":1732:1733   */\n      0x00\n        /* \"#utility.yul\":1729:1730   */\n      dup1\n        /* \"#utility.yul\":1722:1734   */\n      revert\n        /* \"#utility.yul\":1746:1868   */\n    tag_36:\n        /* \"#utility.yul\":1819:1843   */\n      tag_62\n        /* \"#utility.yul\":1837:1842   */\n      dup2\n        /* \"#utility.yul\":1819:1843   */\n      tag_45\n      jump\t// in\n    tag_62:\n        /* \"#utility.yul\":1812:1817   */\n      dup2\n        /* \"#utility.yul\":1809:1844   */\n      eq\n        /* \"#utility.yul\":1799:1862   */\n      tag_63\n      jumpi\n        /* \"#utility.yul\":1858:1859   */\n      0x00\n        /* \"#utility.yul\":1855:1856   */\n      dup1\n        /* \"#utility.yul\":1848:1860   */\n      revert\n        /* \"#utility.yul\":1799:1862   */\n    tag_63:\n        /* \"#utility.yul\":1746:1868   */\n      pop\n      jump\t// out\n\n    auxdata: 0xa26469706673582212203742152a2adaba5e03192fbf0aea862caa4d8ea04c3b01a196a485f54e7b204f64736f6c63430008070033\n}\n",
				"bytecode": {
					"linkReferences": {},
					"object": "608060405234801561001057600080fd5b50610278806100206000396000f3fe608060405234801561001057600080fd5b50600436106100575760003560e01c8063209652551461005c57806354fee6441461007a578063552410771461009857806398b10823146100b4578063f3593cd0146100d2575b600080fd5b6100646100f0565b604051610071919061017c565b60405180910390f35b6100826100f9565b60405161008f919061017c565b60405180910390f35b6100b260048036038101906100ad9190610140565b610102565b005b6100bc61010c565b6040516100c9919061017c565b60405180910390f35b6100da610122565b6040516100e7919061017c565b60405180910390f35b60008054905090565b60006006905090565b8060008190555050565b6000600360005461011d9190610197565b905090565b60006015905090565b60008135905061013a8161022b565b92915050565b60006020828403121561015657610155610226565b5b60006101648482850161012b565b91505092915050565b610176816101ed565b82525050565b6000602082019050610191600083018461016d565b92915050565b60006101a2826101ed565b91506101ad836101ed565b9250827fffffffffffffffffffffffffffffffffffffffffffffffffffffffffffffffff038211156101e2576101e16101f7565b5b828201905092915050565b6000819050919050565b7f4e487b7100000000000000000000000000000000000000000000000000000000600052601160045260246000fd5b600080fd5b610234816101ed565b811461023f57600080fd5b5056fea26469706673582212203742152a2adaba5e03192fbf0aea862caa4d8ea04c3b01a196a485f54e7b204f64736f6c63430008070033",
					"opcodes": "PUSH1 0x80 PUSH1 0x40 MSTORE CALLVALUE DUP1 ISZERO PUSH2 0x10 JUMPI PUSH1 0x0 DUP1 REVERT JUMPDEST POP PUSH2 0x278 DUP1 PUSH2 0x20 PUSH1 0x0 CODECOPY PUSH1 0x0 RETURN INVALID PUSH1 0x80 PUSH1 0x40 MSTORE CALLVALUE DUP1 ISZERO PUSH2 0x10 JUMPI PUSH1 0x0 DUP1 REVERT JUMPDEST POP PUSH1 0x4 CALLDATASIZE LT PUSH2 0x57 JUMPI PUSH1 0x0 CALLDATALOAD PUSH1 0xE0 SHR DUP1 PUSH4 0x20965255 EQ PUSH2 0x5C JUMPI DUP1 PUSH4 0x54FEE644 EQ PUSH2 0x7A JUMPI DUP1 PUSH4 0x55241077 EQ PUSH2 0x98 JUMPI DUP1 PUSH4 0x98B10823 EQ PUSH2 0xB4 JUMPI DUP1 PUSH4 0xF3593CD0 EQ PUSH2 0xD2 JUMPI JUMPDEST PUSH1 0x0 DUP1 REVERT JUMPDEST PUSH2 0x64 PUSH2 0xF0 JUMP JUMPDEST PUSH1 0x40 MLOAD PUSH2 0x71 SWAP2 SWAP1 PUSH2 0x17C JUMP JUMPDEST PUSH1 0x40 MLOAD DUP1 SWAP2 SUB SWAP1 RETURN JUMPDEST PUSH2 0x82 PUSH2 0xF9 JUMP JUMPDEST PUSH1 0x40 MLOAD PUSH2 0x8F SWAP2 SWAP1 PUSH2 0x17C JUMP JUMPDEST PUSH1 0x40 MLOAD DUP1 SWAP2 SUB SWAP1 RETURN JUMPDEST PUSH2 0xB2 PUSH1 0x4 DUP1 CALLDATASIZE SUB DUP2 ADD SWAP1 PUSH2 0xAD SWAP2 SWAP1 PUSH2 0x140 JUMP JUMPDEST PUSH2 0x102 JUMP JUMPDEST STOP JUMPDEST PUSH2 0xBC PUSH2 0x10C JUMP JUMPDEST PUSH1 0x40 MLOAD PUSH2 0xC9 SWAP2 SWAP1 PUSH2 0x17C JUMP JUMPDEST PUSH1 0x40 MLOAD DUP1 SWAP2 SUB SWAP1 RETURN JUMPDEST PUSH2 0xDA PUSH2 0x122 JUMP JUMPDEST PUSH1 0x40 MLOAD PUSH2 0xE7 SWAP2 SWAP1 PUSH2 0x17C JUMP JUMPDEST PUSH1 0x40 MLOAD DUP1 SWAP2 SUB SWAP1 RETURN JUMPDEST PUSH1 0x0 DUP1 SLOAD SWAP1 POP SWAP1 JUMP JUMPDEST PUSH1 0x0 PUSH1 0x6 SWAP1 POP SWAP1 JUMP JUMPDEST DUP1 PUSH1 0x0 DUP2 SWAP1 SSTORE POP POP JUMP JUMPDEST PUSH1 0x0 PUSH1 0x3 PUSH1 0x0 SLOAD PUSH2 0x11D SWAP2 SWAP1 PUSH2 0x197 JUMP JUMPDEST SWAP1 POP SWAP1 JUMP JUMPDEST PUSH1 0x0 PUSH1 0x15 SWAP1 POP SWAP1 JUMP JUMPDEST PUSH1 0x0 DUP2 CALLDATALOAD SWAP1 POP PUSH2 0x13A DUP2 PUSH2 0x22B JUMP JUMPDEST SWAP3 SWAP2 POP POP JUMP JUMPDEST PUSH1 0x0 PUSH1 0x20 DUP3 DUP5 SUB SLT ISZERO PUSH2 0x156 JUMPI PUSH2 0x155 PUSH2 0x226 JUMP JUMPDEST JUMPDEST PUSH1 0x0 PUSH2 0x164 DUP5 DUP3 DUP6 ADD PUSH2 0x12B JUMP JUMPDEST SWAP2 POP POP SWAP3 SWAP2 POP POP JUMP JUMPDEST PUSH2 0x176 DUP2 PUSH2 0x1ED JUMP JUMPDEST DUP3 MSTORE POP POP JUMP JUMPDEST PUSH1 0x0 PUSH1 0x20 DUP3 ADD SWAP1 POP PUSH2 0x191 PUSH1 0x0 DUP4 ADD DUP5 PUSH2 0x16D JUMP JUMPDEST SWAP3 SWAP2 POP POP JUMP JUMPDEST PUSH1 0x0 PUSH2 0x1A2 DUP3 PUSH2 0x1ED JUMP JUMPDEST SWAP2 POP PUSH2 0x1AD DUP4 PUSH2 0x1ED JUMP JUMPDEST SWAP3 POP DUP3 PUSH32 0xFFFFFFFFFFFFFFFFFFFFFFFFFFFFFFFFFFFFFFFFFFFFFFFFFFFFFFFFFFFFFFFF SUB DUP3 GT ISZERO PUSH2 0x1E2 JUMPI PUSH2 0x1E1 PUSH2 0x1F7 JUMP JUMPDEST JUMPDEST DUP3 DUP3 ADD SWAP1 POP SWAP3 SWAP2 POP POP JUMP JUMPDEST PUSH1 0x0 DUP2 SWAP1 POP SWAP2 SWAP1 POP JUMP JUMPDEST PUSH32 0x4E487B7100000000000000000000000000000000000000000000000000000000 PUSH1 0x0 MSTORE PUSH1 0x11 PUSH1 0x4 MSTORE PUSH1 0x24 PUSH1 0x0 REVERT JUMPDEST PUSH1 0x0 DUP1 REVERT JUMPDEST PUSH2 0x234 DUP2 PUSH2 0x1ED JUMP JUMPDEST DUP2 EQ PUSH2 0x23F JUMPI PUSH1 0x0 DUP1 REVERT JUMPDEST POP JUMP INVALID LOG2 PUSH5 0x6970667358 0x22 SLT KECCAK256 CALLDATACOPY TIMESTAMP ISZERO 0x2A 0x2A 0xDA 0xBA 0x5E SUB NOT 0x2F 0xBF EXP 0xEA DUP7 0x2C 0xAA 0x4D DUP15 LOG0 0x4C EXTCODESIZE ADD LOG1 SWAP7 LOG4 DUP6 CREATE2 0x4E PUSH28 0x204F64736F6C63430008070033000000000000000000000000000000 "
				},
				"gasEstimates": {
					"creation": {
						"codeDepositCost": "126400",
						"executionCost": "171",
						"totalCost": "126571"
					},
					"external": {
						"getNewValue()": "337",
						"getValue()": "2415",
						"multiply()": "403",
						"setValue(uint256)": "22542",
						"valuePlusThree()": "infinite"
					}
				},
				"methodIdentifiers": {
					"getNewValue()": "54fee644",
					"getValue()": "20965255",
					"multiply()": "f3593cd0",
					"setValue(uint256)": "55241077",
					"valuePlusThree()": "98b10823"
				}
			},
			"storageLayout": {
				"storage": [
					{
						"astId": 3,
						"contract": "Functions/view_pure_constant_modifiers.sol:MyContract",
						"label": "value",
						"offset": 0,
						"slot": "0",
						"type": "t_uint256"
					}
				],
				"types": {
					"t_uint256": {
						"encoding": "inplace",
						"label": "uint256",
						"numberOfBytes": "32"
					}
				}
			},
			"userdoc": {
				"kind": "user",
				"methods": {},
				"version": 1
			}
		}
	}
}