{
	"data": {
		"bytecode": {
			"linkReferences": {},
			"object": "6080604052600a60005534801561001557600080fd5b5060e8806100246000396000f3fe6080604052348015600f57600080fd5b506004361060325760003560e01c80630c55699c146037578063a56dfe4a146051575b600080fd5b603d606b565b60405160489190608f565b60405180910390f35b60576079565b60405160629190608f565b60405180910390f35b600080601190508091505090565b60008054905090565b60898160a8565b82525050565b600060208201905060a260008301846082565b92915050565b600081905091905056fea264697066735822122023ccd429e19cb1cdf29fbd7a1ecc7270abdedd0eb355301b9895fbf1bb3ecbfb64736f6c63430008070033",
			"opcodes": "PUSH1 0x80 PUSH1 0x40 MSTORE PUSH1 0xA PUSH1 0x0 SSTORE CALLVALUE DUP1 ISZERO PUSH2 0x15 JUMPI PUSH1 0x0 DUP1 REVERT JUMPDEST POP PUSH1 0xE8 DUP1 PUSH2 0x24 PUSH1 0x0 CODECOPY PUSH1 0x0 RETURN INVALID PUSH1 0x80 PUSH1 0x40 MSTORE CALLVALUE DUP1 ISZERO PUSH1 0xF JUMPI PUSH1 0x0 DUP1 REVERT JUMPDEST POP PUSH1 0x4 CALLDATASIZE LT PUSH1 0x32 JUMPI PUSH1 0x0 CALLDATALOAD PUSH1 0xE0 SHR DUP1 PUSH4 0xC55699C EQ PUSH1 0x37 JUMPI DUP1 PUSH4 0xA56DFE4A EQ PUSH1 0x51 JUMPI JUMPDEST PUSH1 0x0 DUP1 REVERT JUMPDEST PUSH1 0x3D PUSH1 0x6B JUMP JUMPDEST PUSH1 0x40 MLOAD PUSH1 0x48 SWAP2 SWAP1 PUSH1 0x8F JUMP JUMPDEST PUSH1 0x40 MLOAD DUP1 SWAP2 SUB SWAP1 RETURN JUMPDEST PUSH1 0x57 PUSH1 0x79 JUMP JUMPDEST PUSH1 0x40 MLOAD PUSH1 0x62 SWAP2 SWAP1 PUSH1 0x8F JUMP JUMPDEST PUSH1 0x40 MLOAD DUP1 SWAP2 SUB SWAP1 RETURN JUMPDEST PUSH1 0x0 DUP1 PUSH1 0x11 SWAP1 POP DUP1 SWAP2 POP POP SWAP1 JUMP JUMPDEST PUSH1 0x0 DUP1 SLOAD SWAP1 POP SWAP1 JUMP JUMPDEST PUSH1 0x89 DUP2 PUSH1 0xA8 JUMP JUMPDEST DUP3 MSTORE POP POP JUMP JUMPDEST PUSH1 0x0 PUSH1 0x20 DUP3 ADD SWAP1 POP PUSH1 0xA2 PUSH1 0x0 DUP4 ADD DUP5 PUSH1 0x82 JUMP JUMPDEST SWAP3 SWAP2 POP POP JUMP JUMPDEST PUSH1 0x0 DUP2 SWAP1 POP SWAP2 SWAP1 POP JUMP INVALID LOG2 PUSH5 0x6970667358 0x22 SLT KECCAK256 0x23 0xCC 0xD4 0x29 0xE1 SWAP13 0xB1 0xCD CALLCODE SWAP16 0xBD PUSH27 0x1ECC7270ABDEDD0EB355301B9895FBF1BB3ECBFB64736F6C634300 ADDMOD SMOD STOP CALLER "
		},
		"gasEstimates": {
			"creation": {
				"codeDepositCost": "46400",
				"executionCost": "22205",
				"totalCost": "68605"
			},
			"external": {
				"x()": "328",
				"y()": "2437"
			}
		},
		"methodIdentifiers": {
			"x()": "0c55699c",
			"y()": "a56dfe4a"
		}
	},
	"abi": [
		{
			"inputs": [],
			"name": "x",
			"outputs": [
				{
					"internalType": "uint256",
					"name": "",
					"type": "uint256"
				}
			],
			"stateMutability": "view",
			"type": "function"
		},
		{
			"inputs": [],
			"name": "y",
			"outputs": [
				{
					"internalType": "uint256",
					"name": "",
					"type": "uint256"
				}
			],
			"stateMutability": "view",
			"type": "function"
		}
	]
}