{
	"data": {
		"bytecode": {
			"linkReferences": {},
			"object": "6080604052348015600f57600080fd5b50606d80601d6000396000f3fe6080604052348015600f57600080fd5b506004361060285760003560e01c8063060a0b0214602d575b600080fd5b60336035565b005b56fea2646970667358221220cb6c5686d438aabb578fe207ebedd689eb64a20113c10dc5361ce106009965bb64736f6c63430008070033",
			"opcodes": "PUSH1 0x80 PUSH1 0x40 MSTORE CALLVALUE DUP1 ISZERO PUSH1 0xF JUMPI PUSH1 0x0 DUP1 REVERT JUMPDEST POP PUSH1 0x6D DUP1 PUSH1 0x1D PUSH1 0x0 CODECOPY PUSH1 0x0 RETURN INVALID PUSH1 0x80 PUSH1 0x40 MSTORE CALLVALUE DUP1 ISZERO PUSH1 0xF JUMPI PUSH1 0x0 DUP1 REVERT JUMPDEST POP PUSH1 0x4 CALLDATASIZE LT PUSH1 0x28 JUMPI PUSH1 0x0 CALLDATALOAD PUSH1 0xE0 SHR DUP1 PUSH4 0x60A0B02 EQ PUSH1 0x2D JUMPI JUMPDEST PUSH1 0x0 DUP1 REVERT JUMPDEST PUSH1 0x33 PUSH1 0x35 JUMP JUMPDEST STOP JUMPDEST JUMP INVALID LOG2 PUSH5 0x6970667358 0x22 SLT KECCAK256 0xCB PUSH13 0x5686D438AABB578FE207EBEDD6 DUP10 0xEB PUSH5 0xA20113C10D 0xC5 CALLDATASIZE SHR 0xE1 MOD STOP SWAP10 PUSH6 0xBB64736F6C63 NUMBER STOP ADDMOD SMOD STOP CALLER "
		},
		"gasEstimates": {
			"creation": {
				"codeDepositCost": "21800",
				"executionCost": "75",
				"totalCost": "21875"
			},
			"external": {
				"calculus()": "122"
			}
		},
		"methodIdentifiers": {
			"calculus()": "060a0b02"
		}
	},
	"abi": [
		{
			"inputs": [],
			"name": "calculus",
			"outputs": [],
			"stateMutability": "view",
			"type": "function"
		}
	]
}