{
	"data": {
		"bytecode": {
			"linkReferences": {},
			"object": "60806040526005600055600a60015534801561001a57600080fd5b5060e6806100296000396000f3fe6080604052348015600f57600080fd5b506004361060325760003560e01c8063b4a4fad8146037578063ca5d0880146055575b600080fd5b603d6071565b60405180821515815260200191505060405180910390f35b605b608d565b6040518082815260200191505060405180910390f35b60006005600054141560855760019050608a565b600090505b90565b6000600a600154141560a557600a60015401905060ad565b600180540190505b9056fea264697066735822122030216006373fda3c310ab64ff0fff686997c4280d656564dc4d84f3941e142c764736f6c63430007000033",
			"opcodes": "PUSH1 0x80 PUSH1 0x40 MSTORE PUSH1 0x5 PUSH1 0x0 SSTORE PUSH1 0xA PUSH1 0x1 SSTORE CALLVALUE DUP1 ISZERO PUSH2 0x1A JUMPI PUSH1 0x0 DUP1 REVERT JUMPDEST POP PUSH1 0xE6 DUP1 PUSH2 0x29 PUSH1 0x0 CODECOPY PUSH1 0x0 RETURN INVALID PUSH1 0x80 PUSH1 0x40 MSTORE CALLVALUE DUP1 ISZERO PUSH1 0xF JUMPI PUSH1 0x0 DUP1 REVERT JUMPDEST POP PUSH1 0x4 CALLDATASIZE LT PUSH1 0x32 JUMPI PUSH1 0x0 CALLDATALOAD PUSH1 0xE0 SHR DUP1 PUSH4 0xB4A4FAD8 EQ PUSH1 0x37 JUMPI DUP1 PUSH4 0xCA5D0880 EQ PUSH1 0x55 JUMPI JUMPDEST PUSH1 0x0 DUP1 REVERT JUMPDEST PUSH1 0x3D PUSH1 0x71 JUMP JUMPDEST PUSH1 0x40 MLOAD DUP1 DUP3 ISZERO ISZERO DUP2 MSTORE PUSH1 0x20 ADD SWAP2 POP POP PUSH1 0x40 MLOAD DUP1 SWAP2 SUB SWAP1 RETURN JUMPDEST PUSH1 0x5B PUSH1 0x8D JUMP JUMPDEST PUSH1 0x40 MLOAD DUP1 DUP3 DUP2 MSTORE PUSH1 0x20 ADD SWAP2 POP POP PUSH1 0x40 MLOAD DUP1 SWAP2 SUB SWAP1 RETURN JUMPDEST PUSH1 0x0 PUSH1 0x5 PUSH1 0x0 SLOAD EQ ISZERO PUSH1 0x85 JUMPI PUSH1 0x1 SWAP1 POP PUSH1 0x8A JUMP JUMPDEST PUSH1 0x0 SWAP1 POP JUMPDEST SWAP1 JUMP JUMPDEST PUSH1 0x0 PUSH1 0xA PUSH1 0x1 SLOAD EQ ISZERO PUSH1 0xA5 JUMPI PUSH1 0xA PUSH1 0x1 SLOAD ADD SWAP1 POP PUSH1 0xAD JUMP JUMPDEST PUSH1 0x1 DUP1 SLOAD ADD SWAP1 POP JUMPDEST SWAP1 JUMP INVALID LOG2 PUSH5 0x6970667358 0x22 SLT KECCAK256 ADDRESS 0x21 PUSH1 0x6 CALLDATACOPY EXTCODEHASH 0xDA EXTCODECOPY BALANCE EXP 0xB6 0x4F CREATE SELFDESTRUCT 0xF6 DUP7 SWAP10 PUSH29 0x4280D656564DC4D84F3941E142C764736F6C6343000700003300000000 "
		},
		"gasEstimates": {
			"creation": {
				"codeDepositCost": "46000",
				"executionCost": "40111",
				"totalCost": "86111"
			},
			"external": {
				"airDrop()": "1856",
				"validateOranges()": "1034"
			}
		},
		"methodIdentifiers": {
			"airDrop()": "ca5d0880",
			"validateOranges()": "b4a4fad8"
		}
	},
	"abi": [
		{
			"inputs": [],
			"name": "airDrop",
			"outputs": [
				{
					"internalType": "uint256",
					"name": "",
					"type": "uint256"
				}
			],
			"stateMutability": "view",
			"type": "function"
		},
		{
			"inputs": [],
			"name": "validateOranges",
			"outputs": [
				{
					"internalType": "bool",
					"name": "",
					"type": "bool"
				}
			],
			"stateMutability": "view",
			"type": "function"
		}
	]
}