{
	"data": {
		"bytecode": {
			"linkReferences": {},
			"object": "608060405234801561001057600080fd5b5061016c806100206000396000f3fe608060405234801561001057600080fd5b50600436106100365760003560e01c8063d32cb0fe1461003b578063f8a8fd6d14610045575b600080fd5b61004361004f565b005b61004d6100ac565b005b603c80146100605761005f610107565b5b62015180801461007357610072610107565b5b62015180801461008657610085610107565b5b62093a80801461009957610098610107565b5b600a80146100aa576100a9610107565b5b565b670de0b6b3a764000080146100c4576100c3610107565b5b600180146100d5576100d4610107565b5b670de0b6b3a764000080146100ed576100ec610107565b5b671bc16d674ec80000801461010557610104610107565b5b565b7f4e487b7100000000000000000000000000000000000000000000000000000000600052600160045260246000fdfea264697066735822122036851cfeb6e8761c6cb264f5e95e0ea99603b224b8ec59cd01752e518cdfb2d364736f6c63430008070033",
			"opcodes": "PUSH1 0x80 PUSH1 0x40 MSTORE CALLVALUE DUP1 ISZERO PUSH2 0x10 JUMPI PUSH1 0x0 DUP1 REVERT JUMPDEST POP PUSH2 0x16C DUP1 PUSH2 0x20 PUSH1 0x0 CODECOPY PUSH1 0x0 RETURN INVALID PUSH1 0x80 PUSH1 0x40 MSTORE CALLVALUE DUP1 ISZERO PUSH2 0x10 JUMPI PUSH1 0x0 DUP1 REVERT JUMPDEST POP PUSH1 0x4 CALLDATASIZE LT PUSH2 0x36 JUMPI PUSH1 0x0 CALLDATALOAD PUSH1 0xE0 SHR DUP1 PUSH4 0xD32CB0FE EQ PUSH2 0x3B JUMPI DUP1 PUSH4 0xF8A8FD6D EQ PUSH2 0x45 JUMPI JUMPDEST PUSH1 0x0 DUP1 REVERT JUMPDEST PUSH2 0x43 PUSH2 0x4F JUMP JUMPDEST STOP JUMPDEST PUSH2 0x4D PUSH2 0xAC JUMP JUMPDEST STOP JUMPDEST PUSH1 0x3C DUP1 EQ PUSH2 0x60 JUMPI PUSH2 0x5F PUSH2 0x107 JUMP JUMPDEST JUMPDEST PUSH3 0x15180 DUP1 EQ PUSH2 0x73 JUMPI PUSH2 0x72 PUSH2 0x107 JUMP JUMPDEST JUMPDEST PUSH3 0x15180 DUP1 EQ PUSH2 0x86 JUMPI PUSH2 0x85 PUSH2 0x107 JUMP JUMPDEST JUMPDEST PUSH3 0x93A80 DUP1 EQ PUSH2 0x99 JUMPI PUSH2 0x98 PUSH2 0x107 JUMP JUMPDEST JUMPDEST PUSH1 0xA DUP1 EQ PUSH2 0xAA JUMPI PUSH2 0xA9 PUSH2 0x107 JUMP JUMPDEST JUMPDEST JUMP JUMPDEST PUSH8 0xDE0B6B3A7640000 DUP1 EQ PUSH2 0xC4 JUMPI PUSH2 0xC3 PUSH2 0x107 JUMP JUMPDEST JUMPDEST PUSH1 0x1 DUP1 EQ PUSH2 0xD5 JUMPI PUSH2 0xD4 PUSH2 0x107 JUMP JUMPDEST JUMPDEST PUSH8 0xDE0B6B3A7640000 DUP1 EQ PUSH2 0xED JUMPI PUSH2 0xEC PUSH2 0x107 JUMP JUMPDEST JUMPDEST PUSH8 0x1BC16D674EC80000 DUP1 EQ PUSH2 0x105 JUMPI PUSH2 0x104 PUSH2 0x107 JUMP JUMPDEST JUMPDEST JUMP JUMPDEST PUSH32 0x4E487B7100000000000000000000000000000000000000000000000000000000 PUSH1 0x0 MSTORE PUSH1 0x1 PUSH1 0x4 MSTORE PUSH1 0x24 PUSH1 0x0 REVERT INVALID LOG2 PUSH5 0x6970667358 0x22 SLT KECCAK256 CALLDATASIZE DUP6 SHR INVALID 0xB6 0xE8 PUSH23 0x1C6CB264F5E95E0EA99603B224B8EC59CD01752E518CDF 0xB2 0xD3 PUSH5 0x736F6C6343 STOP ADDMOD SMOD STOP CALLER "
		},
		"gasEstimates": {
			"creation": {
				"codeDepositCost": "72800",
				"executionCost": "123",
				"totalCost": "72923"
			},
			"external": {
				"exercise()": "237",
				"test()": "236"
			}
		},
		"methodIdentifiers": {
			"exercise()": "d32cb0fe",
			"test()": "f8a8fd6d"
		}
	},
	"abi": [
		{
			"inputs": [],
			"name": "exercise",
			"outputs": [],
			"stateMutability": "nonpayable",
			"type": "function"
		},
		{
			"inputs": [],
			"name": "test",
			"outputs": [],
			"stateMutability": "nonpayable",
			"type": "function"
		}
	]
}