{
	"data": {
		"bytecode": {
			"linkReferences": {},
			"object": "608060405234801561001057600080fd5b50610acf806100206000396000f3fe608060405234801561001057600080fd5b50600436106100625760003560e01c806327cbd529146100675780634ba79dfe1461009757806370db6902146100b3578063ae22c57d146100cf578063d87ec417146100ff578063f40f48c914610130575b600080fd5b610081600480360381019061007c919061043a565b61014c565b60405161008e9190610480565b60405180910390f35b6100b160048036038101906100ac919061043a565b610164565b005b6100cd60048036038101906100c891906104c7565b6101a9565b005b6100e960048036038101906100e4919061043a565b6101f0565b6040516100f69190610480565b60405180910390f35b61011960048036038101906101149190610507565b610238565b6040516101279291906105c4565b60405180910390f35b61014a60048036038101906101459190610730565b61036c565b005b60006020528060005260406000206000915090505481565b6000808273ffffffffffffffffffffffffffffffffffffffff1673ffffffffffffffffffffffffffffffffffffffff1681526020019081526020016000206000905550565b806000808473ffffffffffffffffffffffffffffffffffffffff1673ffffffffffffffffffffffffffffffffffffffff168152602001908152602001600020819055505050565b60008060008373ffffffffffffffffffffffffffffffffffffffff1673ffffffffffffffffffffffffffffffffffffffff168152602001908152602001600020549050919050565b600160205280600052604060002060009150905080600001805461025b906107ea565b80601f0160208091040260200160405190810160405280929190818152602001828054610287906107ea565b80156102d45780601f106102a9576101008083540402835291602001916102d4565b820191906000526020600020905b8154815290600101906020018083116102b757829003601f168201915b5050505050908060010180546102e9906107ea565b80601f0160208091040260200160405190810160405280929190818152602001828054610315906107ea565b80156103625780601f1061033757610100808354040283529160200191610362565b820191906000526020600020905b81548152906001019060200180831161034557829003601f168201915b5050505050905082565b6040518060400160405280838152602001828152506001600085815260200190815260200160002060008201518160000190816103a991906109c7565b5060208201518160010190816103bf91906109c7565b50905050505050565b6000604051905090565b600080fd5b600080fd5b600073ffffffffffffffffffffffffffffffffffffffff82169050919050565b6000610407826103dc565b9050919050565b610417816103fc565b811461042257600080fd5b50565b6000813590506104348161040e565b92915050565b6000602082840312156104505761044f6103d2565b5b600061045e84828501610425565b91505092915050565b6000819050919050565b61047a81610467565b82525050565b60006020820190506104956000830184610471565b92915050565b6104a481610467565b81146104af57600080fd5b50565b6000813590506104c18161049b565b92915050565b600080604083850312156104de576104dd6103d2565b5b60006104ec85828601610425565b92505060206104fd858286016104b2565b9150509250929050565b60006020828403121561051d5761051c6103d2565b5b600061052b848285016104b2565b91505092915050565b600081519050919050565b600082825260208201905092915050565b60005b8381101561056e578082015181840152602081019050610553565b60008484015250505050565b6000601f19601f8301169050919050565b600061059682610534565b6105a0818561053f565b93506105b0818560208601610550565b6105b98161057a565b840191505092915050565b600060408201905081810360008301526105de818561058b565b905081810360208301526105f2818461058b565b90509392505050565b600080fd5b600080fd5b7f4e487b7100000000000000000000000000000000000000000000000000000000600052604160045260246000fd5b61063d8261057a565b810181811067ffffffffffffffff8211171561065c5761065b610605565b5b80604052505050565b600061066f6103c8565b905061067b8282610634565b919050565b600067ffffffffffffffff82111561069b5761069a610605565b5b6106a48261057a565b9050602081019050919050565b82818337600083830152505050565b60006106d36106ce84610680565b610665565b9050828152602081018484840111156106ef576106ee610600565b5b6106fa8482856106b1565b509392505050565b600082601f830112610717576107166105fb565b5b81356107278482602086016106c0565b91505092915050565b600080600060608486031215610749576107486103d2565b5b6000610757868287016104b2565b935050602084013567ffffffffffffffff811115610778576107776103d7565b5b61078486828701610702565b925050604084013567ffffffffffffffff8111156107a5576107a46103d7565b5b6107b186828701610702565b9150509250925092565b7f4e487b7100000000000000000000000000000000000000000000000000000000600052602260045260246000fd5b6000600282049050600182168061080257607f821691505b602082108103610815576108146107bb565b5b50919050565b60008190508160005260206000209050919050565b60006020601f8301049050919050565b600082821b905092915050565b60006008830261087d7fffffffffffffffffffffffffffffffffffffffffffffffffffffffffffffffff82610840565b6108878683610840565b95508019841693508086168417925050509392505050565b6000819050919050565b60006108c46108bf6108ba84610467565b61089f565b610467565b9050919050565b6000819050919050565b6108de836108a9565b6108f26108ea826108cb565b84845461084d565b825550505050565b600090565b6109076108fa565b6109128184846108d5565b505050565b5b818110156109365761092b6000826108ff565b600181019050610918565b5050565b601f82111561097b5761094c8161081b565b61095584610830565b81016020851015610964578190505b61097861097085610830565b830182610917565b50505b505050565b600082821c905092915050565b600061099e60001984600802610980565b1980831691505092915050565b60006109b7838361098d565b9150826002028217905092915050565b6109d082610534565b67ffffffffffffffff8111156109e9576109e8610605565b5b6109f382546107ea565b6109fe82828561093a565b600060209050601f831160018114610a315760008415610a1f578287015190505b610a2985826109ab565b865550610a91565b601f198416610a3f8661081b565b60005b82811015610a6757848901518255600182019150602085019450602081019050610a42565b86831015610a845784890151610a80601f89168261098d565b8355505b6001600288020188555050505b50505050505056fea26469706673582212204374d1a04ff94204796fcaa3f5e1160df70cdd9a9f13644f3fdaca12af810ceb64736f6c63430008110033",
			"opcodes": "PUSH1 0x80 PUSH1 0x40 MSTORE CALLVALUE DUP1 ISZERO PUSH2 0x10 JUMPI PUSH1 0x0 DUP1 REVERT JUMPDEST POP PUSH2 0xACF DUP1 PUSH2 0x20 PUSH1 0x0 CODECOPY PUSH1 0x0 RETURN INVALID PUSH1 0x80 PUSH1 0x40 MSTORE CALLVALUE DUP1 ISZERO PUSH2 0x10 JUMPI PUSH1 0x0 DUP1 REVERT JUMPDEST POP PUSH1 0x4 CALLDATASIZE LT PUSH2 0x62 JUMPI PUSH1 0x0 CALLDATALOAD PUSH1 0xE0 SHR DUP1 PUSH4 0x27CBD529 EQ PUSH2 0x67 JUMPI DUP1 PUSH4 0x4BA79DFE EQ PUSH2 0x97 JUMPI DUP1 PUSH4 0x70DB6902 EQ PUSH2 0xB3 JUMPI DUP1 PUSH4 0xAE22C57D EQ PUSH2 0xCF JUMPI DUP1 PUSH4 0xD87EC417 EQ PUSH2 0xFF JUMPI DUP1 PUSH4 0xF40F48C9 EQ PUSH2 0x130 JUMPI JUMPDEST PUSH1 0x0 DUP1 REVERT JUMPDEST PUSH2 0x81 PUSH1 0x4 DUP1 CALLDATASIZE SUB DUP2 ADD SWAP1 PUSH2 0x7C SWAP2 SWAP1 PUSH2 0x43A JUMP JUMPDEST PUSH2 0x14C JUMP JUMPDEST PUSH1 0x40 MLOAD PUSH2 0x8E SWAP2 SWAP1 PUSH2 0x480 JUMP JUMPDEST PUSH1 0x40 MLOAD DUP1 SWAP2 SUB SWAP1 RETURN JUMPDEST PUSH2 0xB1 PUSH1 0x4 DUP1 CALLDATASIZE SUB DUP2 ADD SWAP1 PUSH2 0xAC SWAP2 SWAP1 PUSH2 0x43A JUMP JUMPDEST PUSH2 0x164 JUMP JUMPDEST STOP JUMPDEST PUSH2 0xCD PUSH1 0x4 DUP1 CALLDATASIZE SUB DUP2 ADD SWAP1 PUSH2 0xC8 SWAP2 SWAP1 PUSH2 0x4C7 JUMP JUMPDEST PUSH2 0x1A9 JUMP JUMPDEST STOP JUMPDEST PUSH2 0xE9 PUSH1 0x4 DUP1 CALLDATASIZE SUB DUP2 ADD SWAP1 PUSH2 0xE4 SWAP2 SWAP1 PUSH2 0x43A JUMP JUMPDEST PUSH2 0x1F0 JUMP JUMPDEST PUSH1 0x40 MLOAD PUSH2 0xF6 SWAP2 SWAP1 PUSH2 0x480 JUMP JUMPDEST PUSH1 0x40 MLOAD DUP1 SWAP2 SUB SWAP1 RETURN JUMPDEST PUSH2 0x119 PUSH1 0x4 DUP1 CALLDATASIZE SUB DUP2 ADD SWAP1 PUSH2 0x114 SWAP2 SWAP1 PUSH2 0x507 JUMP JUMPDEST PUSH2 0x238 JUMP JUMPDEST PUSH1 0x40 MLOAD PUSH2 0x127 SWAP3 SWAP2 SWAP1 PUSH2 0x5C4 JUMP JUMPDEST PUSH1 0x40 MLOAD DUP1 SWAP2 SUB SWAP1 RETURN JUMPDEST PUSH2 0x14A PUSH1 0x4 DUP1 CALLDATASIZE SUB DUP2 ADD SWAP1 PUSH2 0x145 SWAP2 SWAP1 PUSH2 0x730 JUMP JUMPDEST PUSH2 0x36C JUMP JUMPDEST STOP JUMPDEST PUSH1 0x0 PUSH1 0x20 MSTORE DUP1 PUSH1 0x0 MSTORE PUSH1 0x40 PUSH1 0x0 KECCAK256 PUSH1 0x0 SWAP2 POP SWAP1 POP SLOAD DUP2 JUMP JUMPDEST PUSH1 0x0 DUP1 DUP3 PUSH20 0xFFFFFFFFFFFFFFFFFFFFFFFFFFFFFFFFFFFFFFFF AND PUSH20 0xFFFFFFFFFFFFFFFFFFFFFFFFFFFFFFFFFFFFFFFF AND DUP2 MSTORE PUSH1 0x20 ADD SWAP1 DUP2 MSTORE PUSH1 0x20 ADD PUSH1 0x0 KECCAK256 PUSH1 0x0 SWAP1 SSTORE POP JUMP JUMPDEST DUP1 PUSH1 0x0 DUP1 DUP5 PUSH20 0xFFFFFFFFFFFFFFFFFFFFFFFFFFFFFFFFFFFFFFFF AND PUSH20 0xFFFFFFFFFFFFFFFFFFFFFFFFFFFFFFFFFFFFFFFF AND DUP2 MSTORE PUSH1 0x20 ADD SWAP1 DUP2 MSTORE PUSH1 0x20 ADD PUSH1 0x0 KECCAK256 DUP2 SWAP1 SSTORE POP POP POP JUMP JUMPDEST PUSH1 0x0 DUP1 PUSH1 0x0 DUP4 PUSH20 0xFFFFFFFFFFFFFFFFFFFFFFFFFFFFFFFFFFFFFFFF AND PUSH20 0xFFFFFFFFFFFFFFFFFFFFFFFFFFFFFFFFFFFFFFFF AND DUP2 MSTORE PUSH1 0x20 ADD SWAP1 DUP2 MSTORE PUSH1 0x20 ADD PUSH1 0x0 KECCAK256 SLOAD SWAP1 POP SWAP2 SWAP1 POP JUMP JUMPDEST PUSH1 0x1 PUSH1 0x20 MSTORE DUP1 PUSH1 0x0 MSTORE PUSH1 0x40 PUSH1 0x0 KECCAK256 PUSH1 0x0 SWAP2 POP SWAP1 POP DUP1 PUSH1 0x0 ADD DUP1 SLOAD PUSH2 0x25B SWAP1 PUSH2 0x7EA JUMP JUMPDEST DUP1 PUSH1 0x1F ADD PUSH1 0x20 DUP1 SWAP2 DIV MUL PUSH1 0x20 ADD PUSH1 0x40 MLOAD SWAP1 DUP2 ADD PUSH1 0x40 MSTORE DUP1 SWAP3 SWAP2 SWAP1 DUP2 DUP2 MSTORE PUSH1 0x20 ADD DUP3 DUP1 SLOAD PUSH2 0x287 SWAP1 PUSH2 0x7EA JUMP JUMPDEST DUP1 ISZERO PUSH2 0x2D4 JUMPI DUP1 PUSH1 0x1F LT PUSH2 0x2A9 JUMPI PUSH2 0x100 DUP1 DUP4 SLOAD DIV MUL DUP4 MSTORE SWAP2 PUSH1 0x20 ADD SWAP2 PUSH2 0x2D4 JUMP JUMPDEST DUP3 ADD SWAP2 SWAP1 PUSH1 0x0 MSTORE PUSH1 0x20 PUSH1 0x0 KECCAK256 SWAP1 JUMPDEST DUP2 SLOAD DUP2 MSTORE SWAP1 PUSH1 0x1 ADD SWAP1 PUSH1 0x20 ADD DUP1 DUP4 GT PUSH2 0x2B7 JUMPI DUP3 SWAP1 SUB PUSH1 0x1F AND DUP3 ADD SWAP2 JUMPDEST POP POP POP POP POP SWAP1 DUP1 PUSH1 0x1 ADD DUP1 SLOAD PUSH2 0x2E9 SWAP1 PUSH2 0x7EA JUMP JUMPDEST DUP1 PUSH1 0x1F ADD PUSH1 0x20 DUP1 SWAP2 DIV MUL PUSH1 0x20 ADD PUSH1 0x40 MLOAD SWAP1 DUP2 ADD PUSH1 0x40 MSTORE DUP1 SWAP3 SWAP2 SWAP1 DUP2 DUP2 MSTORE PUSH1 0x20 ADD DUP3 DUP1 SLOAD PUSH2 0x315 SWAP1 PUSH2 0x7EA JUMP JUMPDEST DUP1 ISZERO PUSH2 0x362 JUMPI DUP1 PUSH1 0x1F LT PUSH2 0x337 JUMPI PUSH2 0x100 DUP1 DUP4 SLOAD DIV MUL DUP4 MSTORE SWAP2 PUSH1 0x20 ADD SWAP2 PUSH2 0x362 JUMP JUMPDEST DUP3 ADD SWAP2 SWAP1 PUSH1 0x0 MSTORE PUSH1 0x20 PUSH1 0x0 KECCAK256 SWAP1 JUMPDEST DUP2 SLOAD DUP2 MSTORE SWAP1 PUSH1 0x1 ADD SWAP1 PUSH1 0x20 ADD DUP1 DUP4 GT PUSH2 0x345 JUMPI DUP3 SWAP1 SUB PUSH1 0x1F AND DUP3 ADD SWAP2 JUMPDEST POP POP POP POP POP SWAP1 POP DUP3 JUMP JUMPDEST PUSH1 0x40 MLOAD DUP1 PUSH1 0x40 ADD PUSH1 0x40 MSTORE DUP1 DUP4 DUP2 MSTORE PUSH1 0x20 ADD DUP3 DUP2 MSTORE POP PUSH1 0x1 PUSH1 0x0 DUP6 DUP2 MSTORE PUSH1 0x20 ADD SWAP1 DUP2 MSTORE PUSH1 0x20 ADD PUSH1 0x0 KECCAK256 PUSH1 0x0 DUP3 ADD MLOAD DUP2 PUSH1 0x0 ADD SWAP1 DUP2 PUSH2 0x3A9 SWAP2 SWAP1 PUSH2 0x9C7 JUMP JUMPDEST POP PUSH1 0x20 DUP3 ADD MLOAD DUP2 PUSH1 0x1 ADD SWAP1 DUP2 PUSH2 0x3BF SWAP2 SWAP1 PUSH2 0x9C7 JUMP JUMPDEST POP SWAP1 POP POP POP POP POP JUMP JUMPDEST PUSH1 0x0 PUSH1 0x40 MLOAD SWAP1 POP SWAP1 JUMP JUMPDEST PUSH1 0x0 DUP1 REVERT JUMPDEST PUSH1 0x0 DUP1 REVERT JUMPDEST PUSH1 0x0 PUSH20 0xFFFFFFFFFFFFFFFFFFFFFFFFFFFFFFFFFFFFFFFF DUP3 AND SWAP1 POP SWAP2 SWAP1 POP JUMP JUMPDEST PUSH1 0x0 PUSH2 0x407 DUP3 PUSH2 0x3DC JUMP JUMPDEST SWAP1 POP SWAP2 SWAP1 POP JUMP JUMPDEST PUSH2 0x417 DUP2 PUSH2 0x3FC JUMP JUMPDEST DUP2 EQ PUSH2 0x422 JUMPI PUSH1 0x0 DUP1 REVERT JUMPDEST POP JUMP JUMPDEST PUSH1 0x0 DUP2 CALLDATALOAD SWAP1 POP PUSH2 0x434 DUP2 PUSH2 0x40E JUMP JUMPDEST SWAP3 SWAP2 POP POP JUMP JUMPDEST PUSH1 0x0 PUSH1 0x20 DUP3 DUP5 SUB SLT ISZERO PUSH2 0x450 JUMPI PUSH2 0x44F PUSH2 0x3D2 JUMP JUMPDEST JUMPDEST PUSH1 0x0 PUSH2 0x45E DUP5 DUP3 DUP6 ADD PUSH2 0x425 JUMP JUMPDEST SWAP2 POP POP SWAP3 SWAP2 POP POP JUMP JUMPDEST PUSH1 0x0 DUP2 SWAP1 POP SWAP2 SWAP1 POP JUMP JUMPDEST PUSH2 0x47A DUP2 PUSH2 0x467 JUMP JUMPDEST DUP3 MSTORE POP POP JUMP JUMPDEST PUSH1 0x0 PUSH1 0x20 DUP3 ADD SWAP1 POP PUSH2 0x495 PUSH1 0x0 DUP4 ADD DUP5 PUSH2 0x471 JUMP JUMPDEST SWAP3 SWAP2 POP POP JUMP JUMPDEST PUSH2 0x4A4 DUP2 PUSH2 0x467 JUMP JUMPDEST DUP2 EQ PUSH2 0x4AF JUMPI PUSH1 0x0 DUP1 REVERT JUMPDEST POP JUMP JUMPDEST PUSH1 0x0 DUP2 CALLDATALOAD SWAP1 POP PUSH2 0x4C1 DUP2 PUSH2 0x49B JUMP JUMPDEST SWAP3 SWAP2 POP POP JUMP JUMPDEST PUSH1 0x0 DUP1 PUSH1 0x40 DUP4 DUP6 SUB SLT ISZERO PUSH2 0x4DE JUMPI PUSH2 0x4DD PUSH2 0x3D2 JUMP JUMPDEST JUMPDEST PUSH1 0x0 PUSH2 0x4EC DUP6 DUP3 DUP7 ADD PUSH2 0x425 JUMP JUMPDEST SWAP3 POP POP PUSH1 0x20 PUSH2 0x4FD DUP6 DUP3 DUP7 ADD PUSH2 0x4B2 JUMP JUMPDEST SWAP2 POP POP SWAP3 POP SWAP3 SWAP1 POP JUMP JUMPDEST PUSH1 0x0 PUSH1 0x20 DUP3 DUP5 SUB SLT ISZERO PUSH2 0x51D JUMPI PUSH2 0x51C PUSH2 0x3D2 JUMP JUMPDEST JUMPDEST PUSH1 0x0 PUSH2 0x52B DUP5 DUP3 DUP6 ADD PUSH2 0x4B2 JUMP JUMPDEST SWAP2 POP POP SWAP3 SWAP2 POP POP JUMP JUMPDEST PUSH1 0x0 DUP2 MLOAD SWAP1 POP SWAP2 SWAP1 POP JUMP JUMPDEST PUSH1 0x0 DUP3 DUP3 MSTORE PUSH1 0x20 DUP3 ADD SWAP1 POP SWAP3 SWAP2 POP POP JUMP JUMPDEST PUSH1 0x0 JUMPDEST DUP4 DUP2 LT ISZERO PUSH2 0x56E JUMPI DUP1 DUP3 ADD MLOAD DUP2 DUP5 ADD MSTORE PUSH1 0x20 DUP2 ADD SWAP1 POP PUSH2 0x553 JUMP JUMPDEST PUSH1 0x0 DUP5 DUP5 ADD MSTORE POP POP POP POP JUMP JUMPDEST PUSH1 0x0 PUSH1 0x1F NOT PUSH1 0x1F DUP4 ADD AND SWAP1 POP SWAP2 SWAP1 POP JUMP JUMPDEST PUSH1 0x0 PUSH2 0x596 DUP3 PUSH2 0x534 JUMP JUMPDEST PUSH2 0x5A0 DUP2 DUP6 PUSH2 0x53F JUMP JUMPDEST SWAP4 POP PUSH2 0x5B0 DUP2 DUP6 PUSH1 0x20 DUP7 ADD PUSH2 0x550 JUMP JUMPDEST PUSH2 0x5B9 DUP2 PUSH2 0x57A JUMP JUMPDEST DUP5 ADD SWAP2 POP POP SWAP3 SWAP2 POP POP JUMP JUMPDEST PUSH1 0x0 PUSH1 0x40 DUP3 ADD SWAP1 POP DUP2 DUP2 SUB PUSH1 0x0 DUP4 ADD MSTORE PUSH2 0x5DE DUP2 DUP6 PUSH2 0x58B JUMP JUMPDEST SWAP1 POP DUP2 DUP2 SUB PUSH1 0x20 DUP4 ADD MSTORE PUSH2 0x5F2 DUP2 DUP5 PUSH2 0x58B JUMP JUMPDEST SWAP1 POP SWAP4 SWAP3 POP POP POP JUMP JUMPDEST PUSH1 0x0 DUP1 REVERT JUMPDEST PUSH1 0x0 DUP1 REVERT JUMPDEST PUSH32 0x4E487B7100000000000000000000000000000000000000000000000000000000 PUSH1 0x0 MSTORE PUSH1 0x41 PUSH1 0x4 MSTORE PUSH1 0x24 PUSH1 0x0 REVERT JUMPDEST PUSH2 0x63D DUP3 PUSH2 0x57A JUMP JUMPDEST DUP2 ADD DUP2 DUP2 LT PUSH8 0xFFFFFFFFFFFFFFFF DUP3 GT OR ISZERO PUSH2 0x65C JUMPI PUSH2 0x65B PUSH2 0x605 JUMP JUMPDEST JUMPDEST DUP1 PUSH1 0x40 MSTORE POP POP POP JUMP JUMPDEST PUSH1 0x0 PUSH2 0x66F PUSH2 0x3C8 JUMP JUMPDEST SWAP1 POP PUSH2 0x67B DUP3 DUP3 PUSH2 0x634 JUMP JUMPDEST SWAP2 SWAP1 POP JUMP JUMPDEST PUSH1 0x0 PUSH8 0xFFFFFFFFFFFFFFFF DUP3 GT ISZERO PUSH2 0x69B JUMPI PUSH2 0x69A PUSH2 0x605 JUMP JUMPDEST JUMPDEST PUSH2 0x6A4 DUP3 PUSH2 0x57A JUMP JUMPDEST SWAP1 POP PUSH1 0x20 DUP2 ADD SWAP1 POP SWAP2 SWAP1 POP JUMP JUMPDEST DUP3 DUP2 DUP4 CALLDATACOPY PUSH1 0x0 DUP4 DUP4 ADD MSTORE POP POP POP JUMP JUMPDEST PUSH1 0x0 PUSH2 0x6D3 PUSH2 0x6CE DUP5 PUSH2 0x680 JUMP JUMPDEST PUSH2 0x665 JUMP JUMPDEST SWAP1 POP DUP3 DUP2 MSTORE PUSH1 0x20 DUP2 ADD DUP5 DUP5 DUP5 ADD GT ISZERO PUSH2 0x6EF JUMPI PUSH2 0x6EE PUSH2 0x600 JUMP JUMPDEST JUMPDEST PUSH2 0x6FA DUP5 DUP3 DUP6 PUSH2 0x6B1 JUMP JUMPDEST POP SWAP4 SWAP3 POP POP POP JUMP JUMPDEST PUSH1 0x0 DUP3 PUSH1 0x1F DUP4 ADD SLT PUSH2 0x717 JUMPI PUSH2 0x716 PUSH2 0x5FB JUMP JUMPDEST JUMPDEST DUP2 CALLDATALOAD PUSH2 0x727 DUP5 DUP3 PUSH1 0x20 DUP7 ADD PUSH2 0x6C0 JUMP JUMPDEST SWAP2 POP POP SWAP3 SWAP2 POP POP JUMP JUMPDEST PUSH1 0x0 DUP1 PUSH1 0x0 PUSH1 0x60 DUP5 DUP7 SUB SLT ISZERO PUSH2 0x749 JUMPI PUSH2 0x748 PUSH2 0x3D2 JUMP JUMPDEST JUMPDEST PUSH1 0x0 PUSH2 0x757 DUP7 DUP3 DUP8 ADD PUSH2 0x4B2 JUMP JUMPDEST SWAP4 POP POP PUSH1 0x20 DUP5 ADD CALLDATALOAD PUSH8 0xFFFFFFFFFFFFFFFF DUP2 GT ISZERO PUSH2 0x778 JUMPI PUSH2 0x777 PUSH2 0x3D7 JUMP JUMPDEST JUMPDEST PUSH2 0x784 DUP7 DUP3 DUP8 ADD PUSH2 0x702 JUMP JUMPDEST SWAP3 POP POP PUSH1 0x40 DUP5 ADD CALLDATALOAD PUSH8 0xFFFFFFFFFFFFFFFF DUP2 GT ISZERO PUSH2 0x7A5 JUMPI PUSH2 0x7A4 PUSH2 0x3D7 JUMP JUMPDEST JUMPDEST PUSH2 0x7B1 DUP7 DUP3 DUP8 ADD PUSH2 0x702 JUMP JUMPDEST SWAP2 POP POP SWAP3 POP SWAP3 POP SWAP3 JUMP JUMPDEST PUSH32 0x4E487B7100000000000000000000000000000000000000000000000000000000 PUSH1 0x0 MSTORE PUSH1 0x22 PUSH1 0x4 MSTORE PUSH1 0x24 PUSH1 0x0 REVERT JUMPDEST PUSH1 0x0 PUSH1 0x2 DUP3 DIV SWAP1 POP PUSH1 0x1 DUP3 AND DUP1 PUSH2 0x802 JUMPI PUSH1 0x7F DUP3 AND SWAP2 POP JUMPDEST PUSH1 0x20 DUP3 LT DUP2 SUB PUSH2 0x815 JUMPI PUSH2 0x814 PUSH2 0x7BB JUMP JUMPDEST JUMPDEST POP SWAP2 SWAP1 POP JUMP JUMPDEST PUSH1 0x0 DUP2 SWAP1 POP DUP2 PUSH1 0x0 MSTORE PUSH1 0x20 PUSH1 0x0 KECCAK256 SWAP1 POP SWAP2 SWAP1 POP JUMP JUMPDEST PUSH1 0x0 PUSH1 0x20 PUSH1 0x1F DUP4 ADD DIV SWAP1 POP SWAP2 SWAP1 POP JUMP JUMPDEST PUSH1 0x0 DUP3 DUP3 SHL SWAP1 POP SWAP3 SWAP2 POP POP JUMP JUMPDEST PUSH1 0x0 PUSH1 0x8 DUP4 MUL PUSH2 0x87D PUSH32 0xFFFFFFFFFFFFFFFFFFFFFFFFFFFFFFFFFFFFFFFFFFFFFFFFFFFFFFFFFFFFFFFF DUP3 PUSH2 0x840 JUMP JUMPDEST PUSH2 0x887 DUP7 DUP4 PUSH2 0x840 JUMP JUMPDEST SWAP6 POP DUP1 NOT DUP5 AND SWAP4 POP DUP1 DUP7 AND DUP5 OR SWAP3 POP POP POP SWAP4 SWAP3 POP POP POP JUMP JUMPDEST PUSH1 0x0 DUP2 SWAP1 POP SWAP2 SWAP1 POP JUMP JUMPDEST PUSH1 0x0 PUSH2 0x8C4 PUSH2 0x8BF PUSH2 0x8BA DUP5 PUSH2 0x467 JUMP JUMPDEST PUSH2 0x89F JUMP JUMPDEST PUSH2 0x467 JUMP JUMPDEST SWAP1 POP SWAP2 SWAP1 POP JUMP JUMPDEST PUSH1 0x0 DUP2 SWAP1 POP SWAP2 SWAP1 POP JUMP JUMPDEST PUSH2 0x8DE DUP4 PUSH2 0x8A9 JUMP JUMPDEST PUSH2 0x8F2 PUSH2 0x8EA DUP3 PUSH2 0x8CB JUMP JUMPDEST DUP5 DUP5 SLOAD PUSH2 0x84D JUMP JUMPDEST DUP3 SSTORE POP POP POP POP JUMP JUMPDEST PUSH1 0x0 SWAP1 JUMP JUMPDEST PUSH2 0x907 PUSH2 0x8FA JUMP JUMPDEST PUSH2 0x912 DUP2 DUP5 DUP5 PUSH2 0x8D5 JUMP JUMPDEST POP POP POP JUMP JUMPDEST JUMPDEST DUP2 DUP2 LT ISZERO PUSH2 0x936 JUMPI PUSH2 0x92B PUSH1 0x0 DUP3 PUSH2 0x8FF JUMP JUMPDEST PUSH1 0x1 DUP2 ADD SWAP1 POP PUSH2 0x918 JUMP JUMPDEST POP POP JUMP JUMPDEST PUSH1 0x1F DUP3 GT ISZERO PUSH2 0x97B JUMPI PUSH2 0x94C DUP2 PUSH2 0x81B JUMP JUMPDEST PUSH2 0x955 DUP5 PUSH2 0x830 JUMP JUMPDEST DUP2 ADD PUSH1 0x20 DUP6 LT ISZERO PUSH2 0x964 JUMPI DUP2 SWAP1 POP JUMPDEST PUSH2 0x978 PUSH2 0x970 DUP6 PUSH2 0x830 JUMP JUMPDEST DUP4 ADD DUP3 PUSH2 0x917 JUMP JUMPDEST POP POP JUMPDEST POP POP POP JUMP JUMPDEST PUSH1 0x0 DUP3 DUP3 SHR SWAP1 POP SWAP3 SWAP2 POP POP JUMP JUMPDEST PUSH1 0x0 PUSH2 0x99E PUSH1 0x0 NOT DUP5 PUSH1 0x8 MUL PUSH2 0x980 JUMP JUMPDEST NOT DUP1 DUP4 AND SWAP2 POP POP SWAP3 SWAP2 POP POP JUMP JUMPDEST PUSH1 0x0 PUSH2 0x9B7 DUP4 DUP4 PUSH2 0x98D JUMP JUMPDEST SWAP2 POP DUP3 PUSH1 0x2 MUL DUP3 OR SWAP1 POP SWAP3 SWAP2 POP POP JUMP JUMPDEST PUSH2 0x9D0 DUP3 PUSH2 0x534 JUMP JUMPDEST PUSH8 0xFFFFFFFFFFFFFFFF DUP2 GT ISZERO PUSH2 0x9E9 JUMPI PUSH2 0x9E8 PUSH2 0x605 JUMP JUMPDEST JUMPDEST PUSH2 0x9F3 DUP3 SLOAD PUSH2 0x7EA JUMP JUMPDEST PUSH2 0x9FE DUP3 DUP3 DUP6 PUSH2 0x93A JUMP JUMPDEST PUSH1 0x0 PUSH1 0x20 SWAP1 POP PUSH1 0x1F DUP4 GT PUSH1 0x1 DUP2 EQ PUSH2 0xA31 JUMPI PUSH1 0x0 DUP5 ISZERO PUSH2 0xA1F JUMPI DUP3 DUP8 ADD MLOAD SWAP1 POP JUMPDEST PUSH2 0xA29 DUP6 DUP3 PUSH2 0x9AB JUMP JUMPDEST DUP7 SSTORE POP PUSH2 0xA91 JUMP JUMPDEST PUSH1 0x1F NOT DUP5 AND PUSH2 0xA3F DUP7 PUSH2 0x81B JUMP JUMPDEST PUSH1 0x0 JUMPDEST DUP3 DUP2 LT ISZERO PUSH2 0xA67 JUMPI DUP5 DUP10 ADD MLOAD DUP3 SSTORE PUSH1 0x1 DUP3 ADD SWAP2 POP PUSH1 0x20 DUP6 ADD SWAP5 POP PUSH1 0x20 DUP2 ADD SWAP1 POP PUSH2 0xA42 JUMP JUMPDEST DUP7 DUP4 LT ISZERO PUSH2 0xA84 JUMPI DUP5 DUP10 ADD MLOAD PUSH2 0xA80 PUSH1 0x1F DUP10 AND DUP3 PUSH2 0x98D JUMP JUMPDEST DUP4 SSTORE POP JUMPDEST PUSH1 0x1 PUSH1 0x2 DUP9 MUL ADD DUP9 SSTORE POP POP POP JUMPDEST POP POP POP POP POP POP JUMP INVALID LOG2 PUSH5 0x6970667358 0x22 SLT KECCAK256 NUMBER PUSH21 0xD1A04FF94204796FCAA3F5E1160DF70CDD9A9F1364 0x4F EXTCODEHASH 0xDA 0xCA SLT 0xAF DUP2 0xC 0xEB PUSH5 0x736F6C6343 STOP ADDMOD GT STOP CALLER "
		},
		"gasEstimates": {
			"creation": {
				"codeDepositCost": "553400",
				"executionCost": "587",
				"totalCost": "553987"
			},
			"external": {
				"addMovie(uint256,string,string)": "infinite",
				"getAddress(address)": "2885",
				"movie(uint256)": "infinite",
				"myMap(address)": "2792",
				"removeAddress(address)": "5554",
				"setAddress(address,uint256)": "22854"
			}
		},
		"methodIdentifiers": {
			"addMovie(uint256,string,string)": "f40f48c9",
			"getAddress(address)": "ae22c57d",
			"movie(uint256)": "d87ec417",
			"myMap(address)": "27cbd529",
			"removeAddress(address)": "4ba79dfe",
			"setAddress(address,uint256)": "70db6902"
		}
	},
	"abi": [
		{
			"inputs": [
				{
					"internalType": "uint256",
					"name": "id",
					"type": "uint256"
				},
				{
					"internalType": "string",
					"name": "title",
					"type": "string"
				},
				{
					"internalType": "string",
					"name": "director",
					"type": "string"
				}
			],
			"name": "addMovie",
			"outputs": [],
			"stateMutability": "nonpayable",
			"type": "function"
		},
		{
			"inputs": [
				{
					"internalType": "address",
					"name": "_addr",
					"type": "address"
				}
			],
			"name": "getAddress",
			"outputs": [
				{
					"internalType": "uint256",
					"name": "",
					"type": "uint256"
				}
			],
			"stateMutability": "view",
			"type": "function"
		},
		{
			"inputs": [
				{
					"internalType": "uint256",
					"name": "",
					"type": "uint256"
				}
			],
			"name": "movie",
			"outputs": [
				{
					"internalType": "string",
					"name": "title",
					"type": "string"
				},
				{
					"internalType": "string",
					"name": "director",
					"type": "string"
				}
			],
			"stateMutability": "view",
			"type": "function"
		},
		{
			"inputs": [
				{
					"internalType": "address",
					"name": "",
					"type": "address"
				}
			],
			"name": "myMap",
			"outputs": [
				{
					"internalType": "uint256",
					"name": "",
					"type": "uint256"
				}
			],
			"stateMutability": "view",
			"type": "function"
		},
		{
			"inputs": [
				{
					"internalType": "address",
					"name": "_addr",
					"type": "address"
				}
			],
			"name": "removeAddress",
			"outputs": [],
			"stateMutability": "nonpayable",
			"type": "function"
		},
		{
			"inputs": [
				{
					"internalType": "address",
					"name": "_addr",
					"type": "address"
				},
				{
					"internalType": "uint256",
					"name": "_i",
					"type": "uint256"
				}
			],
			"name": "setAddress",
			"outputs": [],
			"stateMutability": "nonpayable",
			"type": "function"
		}
	]
}